{"contracts/metallika2.sol":{"Metallika2":{"abi":[{"anonymous":false,"inputs":[{"indexed":true,"internalType":"address","name":"owner","type":"address"},{"indexed":true,"internalType":"address","name":"spender","type":"address"},{"indexed":false,"internalType":"uint256","name":"value","type":"uint256"}],"name":"Approval","type":"event"},{"anonymous":false,"inputs":[{"indexed":false,"internalType":"uint8","name":"version","type":"uint8"}],"name":"Initialized","type":"event"},{"anonymous":false,"inputs":[{"indexed":true,"internalType":"address","name":"newOwner","type":"address"}],"name":"OwnershipTransferProposed","type":"event"},{"anonymous":false,"inputs":[{"indexed":true,"internalType":"address","name":"previousOwner","type":"address"},{"indexed":true,"internalType":"address","name":"newOwner","type":"address"}],"name":"OwnershipTransferred","type":"event"},{"anonymous":false,"inputs":[{"indexed":false,"internalType":"address","name":"account","type":"address"}],"name":"Paused","type":"event"},{"anonymous":false,"inputs":[{"indexed":true,"internalType":"address","name":"from","type":"address"},{"indexed":true,"internalType":"address","name":"to","type":"address"},{"indexed":false,"internalType":"uint256","name":"value","type":"uint256"}],"name":"Transfer","type":"event"},{"anonymous":false,"inputs":[{"indexed":false,"internalType":"address","name":"account","type":"address"}],"name":"Unpaused","type":"event"},{"anonymous":false,"inputs":[{"indexed":true,"internalType":"address","name":"voter","type":"address"},{"indexed":false,"internalType":"bool","name":"approve","type":"bool"}],"name":"VoteCasted","type":"event"},{"inputs":[{"internalType":"address","name":"","type":"address"}],"name":"_frozenWallets","outputs":[{"internalType":"uint256","name":"","type":"uint256"}],"stateMutability":"view","type":"function"},{"inputs":[],"name":"_owner","outputs":[{"internalType":"address","name":"","type":"address"}],"stateMutability":"view","type":"function"},{"inputs":[{"internalType":"address","name":"wallet","type":"address"}],"name":"addToWhitelist","outputs":[],"stateMutability":"nonpayable","type":"function"},{"inputs":[{"internalType":"address","name":"beneficiary","type":"address"},{"internalType":"uint256","name":"amount","type":"uint256"},{"internalType":"uint256","name":"percentageToRelease","type":"uint256"},{"internalType":"uint256","name":"timeInterval","type":"uint256"}],"name":"addVestingSchedule","outputs":[],"stateMutability":"nonpayable","type":"function"},{"inputs":[{"internalType":"address","name":"owner","type":"address"},{"internalType":"address","name":"spender","type":"address"}],"name":"allowance","outputs":[{"internalType":"uint256","name":"","type":"uint256"}],"stateMutability":"view","type":"function"},{"inputs":[{"internalType":"address","name":"spender","type":"address"},{"internalType":"uint256","name":"amount","type":"uint256"}],"name":"approve","outputs":[{"internalType":"bool","name":"","type":"bool"}],"stateMutability":"nonpayable","type":"function"},{"inputs":[{"internalType":"address","name":"account","type":"address"}],"name":"balanceOf","outputs":[{"internalType":"uint256","name":"","type":"uint256"}],"stateMutability":"view","type":"function"},{"inputs":[{"internalType":"address","name":"_user","type":"address"}],"name":"blackList","outputs":[],"stateMutability":"nonpayable","type":"function"},{"inputs":[{"internalType":"uint256","name":"amount","type":"uint256"}],"name":"burn","outputs":[],"stateMutability":"nonpayable","type":"function"},{"inputs":[{"internalType":"address","name":"account","type":"address"},{"internalType":"uint256","name":"amount","type":"uint256"}],"name":"burnFrom","outputs":[],"stateMutability":"nonpayable","type":"function"},{"inputs":[],"name":"burnableTax","outputs":[{"internalType":"uint256","name":"","type":"uint256"}],"stateMutability":"view","type":"function"},{"inputs":[],"name":"buySellTaxRate","outputs":[{"internalType":"uint256","name":"","type":"uint256"}],"stateMutability":"view","type":"function"},{"inputs":[],"name":"cancelOwnershipTransfer","outputs":[],"stateMutability":"nonpayable","type":"function"},{"inputs":[{"internalType":"bool","name":"approve","type":"bool"}],"name":"castMintVote","outputs":[],"stateMutability":"nonpayable","type":"function"},{"inputs":[{"internalType":"bool","name":"approve","type":"bool"}],"name":"castVote","outputs":[],"stateMutability":"nonpayable","type":"function"},{"inputs":[],"name":"claim","outputs":[],"stateMutability":"nonpayable","type":"function"},{"inputs":[],"name":"decimals","outputs":[{"internalType":"uint8","name":"","type":"uint8"}],"stateMutability":"view","type":"function"},{"inputs":[{"internalType":"address","name":"spender","type":"address"},{"internalType":"uint256","name":"subtractedValue","type":"uint256"}],"name":"decreaseAllowance","outputs":[{"internalType":"bool","name":"","type":"bool"}],"stateMutability":"nonpayable","type":"function"},{"inputs":[],"name":"decreasingTaxInterval","outputs":[{"internalType":"uint256","name":"","type":"uint256"}],"stateMutability":"view","type":"function"},{"inputs":[{"internalType":"bool","name":"_enabled","type":"bool"}],"name":"disableBuySellTax","outputs":[],"stateMutability":"nonpayable","type":"function"},{"inputs":[],"name":"finalizeMint","outputs":[],"stateMutability":"nonpayable","type":"function"},{"inputs":[],"name":"finalizeOwnershipTransfer","outputs":[],"stateMutability":"nonpayable","type":"function"},{"inputs":[{"internalType":"address","name":"wallet","type":"address"},{"internalType":"uint256","name":"freezeDuration","type":"uint256"}],"name":"freezeWallet","outputs":[],"stateMutability":"nonpayable","type":"function"},{"inputs":[],"name":"graduallyDecreasingTax","outputs":[{"internalType":"uint256","name":"","type":"uint256"}],"stateMutability":"view","type":"function"},{"inputs":[{"internalType":"address","name":"","type":"address"}],"name":"hasVoted","outputs":[{"internalType":"bool","name":"","type":"bool"}],"stateMutability":"view","type":"function"},{"inputs":[{"internalType":"address","name":"","type":"address"}],"name":"hasVotedMint","outputs":[{"internalType":"bool","name":"","type":"bool"}],"stateMutability":"view","type":"function"},{"inputs":[{"internalType":"address","name":"wallet","type":"address"}],"name":"includeInTax","outputs":[],"stateMutability":"nonpayable","type":"function"},{"inputs":[{"internalType":"address","name":"spender","type":"address"},{"internalType":"uint256","name":"addedValue","type":"uint256"}],"name":"increaseAllowance","outputs":[{"internalType":"bool","name":"","type":"bool"}],"stateMutability":"nonpayable","type":"function"},{"inputs":[{"internalType":"string","name":"_name","type":"string"},{"internalType":"string","name":"_symbol","type":"string"},{"internalType":"uint8","name":"_decimals","type":"uint8"},{"internalType":"uint256","name":"_initialSupply","type":"uint256"},{"internalType":"address","name":"_router","type":"address"},{"internalType":"address[]","name":"_initialVoters","type":"address[]"}],"name":"initialize","outputs":[],"stateMutability":"nonpayable","type":"function"},{"inputs":[{"internalType":"address","name":"_user","type":"address"}],"name":"isBlackList","outputs":[{"internalType":"bool","name":"","type":"bool"}],"stateMutability":"view","type":"function"},{"inputs":[],"name":"isBuySellTaxEnabled","outputs":[{"internalType":"bool","name":"","type":"bool"}],"stateMutability":"view","type":"function"},{"inputs":[],"name":"isDeflationary","outputs":[{"internalType":"bool","name":"","type":"bool"}],"stateMutability":"view","type":"function"},{"inputs":[{"internalType":"address","name":"","type":"address"}],"name":"isExcludedFromTax","outputs":[{"internalType":"bool","name":"","type":"bool"}],"stateMutability":"view","type":"function"},{"inputs":[{"internalType":"address","name":"user","type":"address"}],"name":"isWhitelisted","outputs":[{"internalType":"bool","name":"","type":"bool"}],"stateMutability":"view","type":"function"},{"inputs":[],"name":"lastUpdatedTaxTimestamp","outputs":[{"internalType":"uint256","name":"","type":"uint256"}],"stateMutability":"view","type":"function"},{"inputs":[],"name":"liquidityLocked","outputs":[{"internalType":"bool","name":"","type":"bool"}],"stateMutability":"view","type":"function"},{"inputs":[{"internalType":"uint256","name":"amount","type":"uint256"}],"name":"lockLiquidity","outputs":[],"stateMutability":"nonpayable","type":"function"},{"inputs":[],"name":"lockedLiquidityAmount","outputs":[{"internalType":"uint256","name":"","type":"uint256"}],"stateMutability":"view","type":"function"},{"inputs":[],"name":"maxTransactionAmount","outputs":[{"internalType":"uint256","name":"","type":"uint256"}],"stateMutability":"view","type":"function"},{"inputs":[],"name":"minTransactionAmount","outputs":[{"internalType":"uint256","name":"","type":"uint256"}],"stateMutability":"view","type":"function"},{"inputs":[],"name":"name","outputs":[{"internalType":"string","name":"","type":"string"}],"stateMutability":"view","type":"function"},{"inputs":[],"name":"owner","outputs":[{"internalType":"address","name":"","type":"address"}],"stateMutability":"view","type":"function"},{"inputs":[],"name":"pause","outputs":[],"stateMutability":"nonpayable","type":"function"},{"inputs":[],"name":"paused","outputs":[{"internalType":"bool","name":"","type":"bool"}],"stateMutability":"view","type":"function"},{"inputs":[{"internalType":"address","name":"account","type":"address"},{"internalType":"uint256","name":"amount","type":"uint256"}],"name":"proposeMint","outputs":[],"stateMutability":"nonpayable","type":"function"},{"inputs":[{"internalType":"address","name":"newOwner","type":"address"}],"name":"proposeOwnershipTransfer","outputs":[],"stateMutability":"nonpayable","type":"function"},{"inputs":[],"name":"proposedMintAmount","outputs":[{"internalType":"uint256","name":"","type":"uint256"}],"stateMutability":"view","type":"function"},{"inputs":[],"name":"proposedMintWallet","outputs":[{"internalType":"address","name":"","type":"address"}],"stateMutability":"view","type":"function"},{"inputs":[],"name":"proposedOwner","outputs":[{"internalType":"address","name":"","type":"address"}],"stateMutability":"view","type":"function"},{"inputs":[{"internalType":"address","name":"_user","type":"address"}],"name":"removeFromBlacklist","outputs":[],"stateMutability":"nonpayable","type":"function"},{"inputs":[{"internalType":"address","name":"wallet","type":"address"}],"name":"removeFromWhitelist","outputs":[],"stateMutability":"nonpayable","type":"function"},{"inputs":[],"name":"renounceOwnership","outputs":[],"stateMutability":"nonpayable","type":"function"},{"inputs":[],"name":"router","outputs":[{"internalType":"address","name":"","type":"address"}],"stateMutability":"view","type":"function"},{"inputs":[{"internalType":"uint256","name":"_burnableTax","type":"uint256"}],"name":"setBurnableTax","outputs":[],"stateMutability":"nonpayable","type":"function"},{"inputs":[{"internalType":"uint256","name":"_rate","type":"uint256"}],"name":"setBuySellTaxRate","outputs":[],"stateMutability":"nonpayable","type":"function"},{"inputs":[{"internalType":"bool","name":"_enabled","type":"bool"}],"name":"setDeflationary","outputs":[],"stateMutability":"nonpayable","type":"function"},{"inputs":[{"internalType":"address","name":"wallet","type":"address"}],"name":"setIsExcludedFromTax","outputs":[],"stateMutability":"nonpayable","type":"function"},{"inputs":[{"internalType":"uint256","name":"amount","type":"uint256"}],"name":"setMaxTransferAmount","outputs":[],"stateMutability":"nonpayable","type":"function"},{"inputs":[{"internalType":"uint256","name":"amount","type":"uint256"}],"name":"setMinTransactionAmount","outputs":[],"stateMutability":"nonpayable","type":"function"},{"inputs":[{"internalType":"address","name":"_newRouter","type":"address"}],"name":"setRouter","outputs":[],"stateMutability":"nonpayable","type":"function"},{"inputs":[{"internalType":"uint256","name":"delay","type":"uint256"}],"name":"setTransferDelay","outputs":[],"stateMutability":"nonpayable","type":"function"},{"inputs":[{"internalType":"address","name":"_usdt","type":"address"}],"name":"setUSDTAddress","outputs":[],"stateMutability":"nonpayable","type":"function"},{"inputs":[{"internalType":"address","name":"","type":"address"}],"name":"signers","outputs":[{"internalType":"bool","name":"","type":"bool"}],"stateMutability":"view","type":"function"},{"inputs":[],"name":"symbol","outputs":[{"internalType":"string","name":"","type":"string"}],"stateMutability":"view","type":"function"},{"inputs":[],"name":"totalSupply","outputs":[{"internalType":"uint256","name":"","type":"uint256"}],"stateMutability":"view","type":"function"},{"inputs":[{"internalType":"address","name":"recipient","type":"address"},{"internalType":"uint256","name":"amount","type":"uint256"}],"name":"transfer","outputs":[{"internalType":"bool","name":"","type":"bool"}],"stateMutability":"nonpayable","type":"function"},{"inputs":[],"name":"transferAllowedAt","outputs":[{"internalType":"uint256","name":"","type":"uint256"}],"stateMutability":"view","type":"function"},{"inputs":[],"name":"transferDelay","outputs":[{"internalType":"uint256","name":"","type":"uint256"}],"stateMutability":"view","type":"function"},{"inputs":[{"internalType":"address","name":"from","type":"address"},{"internalType":"address","name":"to","type":"address"},{"internalType":"uint256","name":"amount","type":"uint256"}],"name":"transferFrom","outputs":[{"internalType":"bool","name":"","type":"bool"}],"stateMutability":"nonpayable","type":"function"},{"inputs":[{"internalType":"address","name":"newOwner","type":"address"}],"name":"transferOwnership","outputs":[],"stateMutability":"nonpayable","type":"function"},{"inputs":[{"internalType":"address","name":"wallet","type":"address"}],"name":"unfreezeWallet","outputs":[],"stateMutability":"nonpayable","type":"function"},{"inputs":[{"internalType":"uint256","name":"amount","type":"uint256"}],"name":"unlockLiquidity","outputs":[],"stateMutability":"nonpayable","type":"function"},{"inputs":[],"name":"unpause","outputs":[],"stateMutability":"nonpayable","type":"function"},{"inputs":[],"name":"usdt","outputs":[{"internalType":"address","name":"","type":"address"}],"stateMutability":"view","type":"function"},{"inputs":[{"internalType":"address","name":"","type":"address"}],"name":"vestingInfo","outputs":[{"internalType":"uint256","name":"amount","type":"uint256"},{"internalType":"address","name":"beneficiary","type":"address"},{"internalType":"uint256","name":"percentageOfTokensToBeReleased","type":"uint256"},{"internalType":"uint256","name":"timeInterval","type":"uint256"},{"internalType":"uint256","name":"lastWithdrawTimestamp","type":"uint256"},{"internalType":"uint256","name":"claimedTokens","type":"uint256"}],"stateMutability":"view","type":"function"},{"inputs":[{"internalType":"uint256","name":"","type":"uint256"}],"name":"voters","outputs":[{"internalType":"address","name":"","type":"address"}],"stateMutability":"view","type":"function"},{"inputs":[{"internalType":"address","name":"receiver","type":"address"},{"internalType":"contract IERC20","name":"_token","type":"address"}],"name":"withdrawDumpToken","outputs":[],"stateMutability":"nonpayable","type":"function"},{"inputs":[{"internalType":"address payable","name":"_receiver","type":"address"}],"name":"withdrawEth","outputs":[],"stateMutability":"nonpayable","type":"function"},{"stateMutability":"payable","type":"receive"}],"evm":{"bytecode":{"linkReferences":{},"object":"608060405234801561001057600080fd5b5061420f806100206000396000f3fe6080604052600436106105415760003560e01c80637ace48e7116102af578063b2bdfa7b11610179578063d153b60c116100d6578063f217fdbe1161008a578063f78e633d1161006f578063f78e633d14610edf578063f887ea4014610f6f578063f8f1b6c914610f9057600080fd5b8063f217fdbe14610e9f578063f2fde38b14610ebf57600080fd5b8063dd62ed3e116100bb578063dd62ed3e14610e19578063e17c4c7414610e5f578063e43252d714610e7f57600080fd5b8063d153b60c14610dd8578063da58c7d914610df957600080fd5b8063bfed5ce31161012d578063c8c8ebe411610112578063c8c8ebe414610d7a578063cb4ca63114610d90578063d0a1bd4414610dc157600080fd5b8063bfed5ce314610d3a578063c0d7865514610d5a57600080fd5b8063b5c43db41161015e578063b5c43db414610ceb578063bd0e0acd14610d0e578063bf41c2a414610d2557600080fd5b8063b2bdfa7b14610c91578063b36d691914610cb157600080fd5b806393ba371811610227578063a223111c116101db578063a457c2d7116101c0578063a457c2d714610c36578063a9059cbb14610c56578063ab8b2f0d14610c7657600080fd5b8063a223111c14610c01578063a30ff8b614610c1657600080fd5b806396e839241161020c57806396e8392414610ba15780639967215814610bc15780639b75757a14610be157600080fd5b806393ba371814610b5b57806395d89b4114610b8c57600080fd5b80638ab1d6811161027e5780638da5cb5b116102635780638da5cb5b14610aff5780638e8c10a214610b1d5780638f376fca14610b3b57600080fd5b80638ab1d68114610abf5780638bf5540914610adf57600080fd5b80637ace48e714610a495780638456cb5914610a6957806385be583f14610a7e5780638806334514610a9e57600080fd5b80633af32abf1161040b5780635c975abb11610368578063715018a61161031c578063760b7e3811610301578063760b7e38146109f25780637884d88814610a0957806379cc679014610a2957600080fd5b8063715018a6146109ac578063736c0d5b146109c157600080fd5b806360f588b71161034d57806360f588b71461093f578063622b67cb1461095f57806370a082311461097657600080fd5b80635c975abb146109105780635e2f16c81461092857600080fd5b806348a33082116103bf578063537df3b6116103a4578063537df3b6146108b557806355eba868146108d557806357976fb4146108f557600080fd5b806348a33082146108895780634e71d92d146108a057600080fd5b80633f4ba83a116103f05780633f4ba83a1461083457806342966c68146108495780634838d1651461086957600080fd5b80633af32abf146107cc5780633eb5cbeb1461080657600080fd5b806323452b9c116104b95780632bfbd9cf1161046d578063313ce56711610452578063313ce5671461077057806336e8c9b31461078c57806339509351146107ac57600080fd5b80632bfbd9cf146107125780632f48ab7d1461073257600080fd5b806324ef8c1b1161049e57806324ef8c1b146106b157806325e16063146106d15780632a32234f146106f157600080fd5b806323452b9c1461067c57806323b872dd1461069157600080fd5b80630a702e8d1161051057806317a5d4df116104f557806317a5d4df1461063157806318160ddd1461064757806321040fc31461065c57600080fd5b80630a702e8d146105f957806315d4c5d51461060f57600080fd5b8063052c30bc1461054d57806306fdde0314610576578063095ea7b31461059857806309eef43e146105c857600080fd5b3661054857005b600080fd5b34801561055957600080fd5b5061056360ff5481565b6040519081526020015b60405180910390f35b34801561058257600080fd5b5061058b610fb0565b60405161056d9190613b1d565b3480156105a457600080fd5b506105b86105b3366004613b90565b611042565b604051901515815260200161056d565b3480156105d457600080fd5b506105b86105e3366004613bbc565b61010c6020526000908152604090205460ff1681565b34801561060557600080fd5b5061056360fe5481565b34801561061b57600080fd5b5061062f61062a366004613b90565b61105c565b005b34801561063d57600080fd5b5061056360fc5481565b34801561065357600080fd5b50603554610563565b34801561066857600080fd5b5061062f610677366004613bbc565b6110f3565b34801561068857600080fd5b5061062f61119c565b34801561069d57600080fd5b506105b86106ac366004613bd9565b611227565b3480156106bd57600080fd5b5061062f6106cc366004613c1a565b611480565b3480156106dd57600080fd5b5061062f6106ec366004613bbc565b61164c565b3480156106fd57600080fd5b5061062f61070c366004613c55565b61010255565b34801561071e57600080fd5b5061062f61072d366004613c55565b6116e3565b34801561073e57600080fd5b50610107546107589061010090046001600160a01b031681565b6040516001600160a01b03909116815260200161056d565b34801561077c57600080fd5b506040516012815260200161056d565b34801561079857600080fd5b5061062f6107a7366004613c55565b6117c2565b3480156107b857600080fd5b506105b86107c7366004613b90565b6117cf565b3480156107d857600080fd5b506105b86107e7366004613bbc565b6001600160a01b03166000908152610111602052604090205460ff1690565b34801561081257600080fd5b50610563610821366004613bbc565b6101106020526000908152604090205481565b34801561084057600080fd5b5061062f61180e565b34801561085557600080fd5b5061062f610864366004613c55565b611820565b34801561087557600080fd5b5061062f610884366004613bbc565b61182a565b34801561089557600080fd5b5061056361010a5481565b3480156108ac57600080fd5b5061062f6118c1565b3480156108c157600080fd5b5061062f6108d0366004613bbc565b611b03565b3480156108e157600080fd5b5061062f6108f0366004613bbc565b611b96565b34801561090157600080fd5b50610100546105b89060ff1681565b34801561091c57600080fd5b5060c95460ff166105b8565b34801561093457600080fd5b506105636101035481565b34801561094b57600080fd5b5061062f61095a366004613bbc565b611bde565b34801561096b57600080fd5b506105636101055481565b34801561098257600080fd5b50610563610991366004613bbc565b6001600160a01b031660009081526033602052604090205490565b3480156109b857600080fd5b5061062f611c01565b3480156109cd57600080fd5b506105b86109dc366004613bbc565b6101126020526000908152604090205460ff1681565b3480156109fe57600080fd5b506105636101065481565b348015610a1557600080fd5b5061062f610a24366004613bbc565b611c13565b348015610a3557600080fd5b5061062f610a44366004613b90565b611c40565b348015610a5557600080fd5b5061062f610a64366004613c7c565b611c52565b348015610a7557600080fd5b5061062f611d62565b348015610a8a57600080fd5b5061062f610a99366004613b90565b611d72565b348015610aaa57600080fd5b5061010954610758906001600160a01b031681565b348015610acb57600080fd5b5061062f610ada366004613bbc565b611dfb565b348015610aeb57600080fd5b5061062f610afa366004613c55565b611e25565b348015610b0b57600080fd5b506097546001600160a01b0316610758565b348015610b2957600080fd5b5061010080546105b89160ff91041681565b348015610b4757600080fd5b5061062f610b56366004613c55565b611e32565b348015610b6757600080fd5b506105b8610b76366004613bbc565b61010d6020526000908152604090205460ff1681565b348015610b9857600080fd5b5061058b611e40565b348015610bad57600080fd5b5061062f610bbc366004613c55565b611e4f565b348015610bcd57600080fd5b5061062f610bdc366004613c99565b611f29565b348015610bed57600080fd5b5061062f610bfc366004613c7c565b612048565b348015610c0d57600080fd5b5061062f61214d565b348015610c2257600080fd5b5061062f610c31366004613c7c565b6122e4565b348015610c4257600080fd5b506105b8610c51366004613b90565b612303565b348015610c6257600080fd5b506105b8610c71366004613b90565b6123b8565b348015610c8257600080fd5b50610107546105b89060ff1681565b348015610c9d57600080fd5b5060fb54610758906001600160a01b031681565b348015610cbd57600080fd5b506105b8610ccc366004613bbc565b6001600160a01b0316600090815261010e602052604090205460ff1690565b348015610cf757600080fd5b5033600090815261010f6020526040902054610563565b348015610d1a57600080fd5b506105636101045481565b348015610d3157600080fd5b5061062f6125fa565b348015610d4657600080fd5b5061062f610d55366004613c55565b6127bc565b348015610d6657600080fd5b5061062f610d75366004613bbc565b6127c9565b348015610d8657600080fd5b5061056360fd5481565b348015610d9c57600080fd5b506105b8610dab366004613bbc565b6101016020526000908152604090205460ff1681565b348015610dcd57600080fd5b506105636101025481565b348015610de457600080fd5b5061010854610758906001600160a01b031681565b348015610e0557600080fd5b50610758610e14366004613c55565b61280d565b348015610e2557600080fd5b50610563610e34366004613c99565b6001600160a01b03918216600090815260346020908152604080832093909416825291909152205490565b348015610e6b57600080fd5b5061062f610e7a366004613bbc565b612838565b348015610e8b57600080fd5b5061062f610e9a366004613bbc565b612862565b348015610eab57600080fd5b5061062f610eba366004613c7c565b61288f565b348015610ecb57600080fd5b5061062f610eda366004613bbc565b6128ab565b348015610eeb57600080fd5b50610f3a610efa366004613bbc565b6101136020526000908152604090208054600182015460028301546003840154600485015460059095015493946001600160a01b03909316939192909186565b604080519687526001600160a01b039095166020870152938501929092526060840152608083015260a082015260c00161056d565b348015610f7b57600080fd5b5061011454610758906001600160a01b031681565b348015610f9c57600080fd5b5061062f610fab366004613e12565b612921565b606060368054610fbf90613ecf565b80601f0160208091040260200160405190810160405280929190818152602001828054610feb90613ecf565b80156110385780601f1061100d57610100808354040283529160200191611038565b820191906000526020600020905b81548152906001019060200180831161101b57829003601f168201915b5050505050905090565b600033611050818585612c0c565b60019150505b92915050565b611064612d64565b6001600160a01b0382166110cb5760405162461bcd60e51b815260206004820152602360248201527f4d696e74206163636f756e742063616e6e6f74206265207a65726f206164647260448201526265737360e81b60648201526084015b60405180910390fd5b61010980546001600160a01b0319166001600160a01b03939093169290921790915561010a55565b6110fb612d64565b6001600160a01b0381166111515760405162461bcd60e51b815260206004820181905260248201527f4e6577206f776e65722063616e6e6f74206265207a65726f206164647265737360448201526064016110c2565b61010880546001600160a01b0319166001600160a01b0383169081179091556040517ff0c6916d81cd1f899264b5193e3bbe7afd2bcc3d05704bab73d0b8ac9387115890600090a250565b6111a4612d64565b61010880546001600160a01b031916905560005b61010b5481101561122457600061010c600061010b84815481106111de576111de613f09565b6000918252602080832091909101546001600160a01b031683528201929092526040019020805460ff19169115159190911790558061121c81613f35565b9150506111b8565b50565b6001600160a01b038316600090815261011060205260408120548490158061126757506001600160a01b0381166000908152610110602052604090205442115b6112b35760405162461bcd60e51b815260206004820152601060248201527f57616c6c65742069732066726f7a656e0000000000000000000000000000000060448201526064016110c2565b3360008181526101116020526040902054849060ff166113715760fc5481101561131f5760405162461bcd60e51b815260206004820152601460248201527f416d6f756e742062656c6f77206d696e696d756d00000000000000000000000060448201526064016110c2565b60fd548111156113715760405162461bcd60e51b815260206004820152601660248201527f416d6f756e742065786365656473206d6178696d756d0000000000000000000060448201526064016110c2565b6001600160a01b038716600090815261010e602052604090205460ff16156113db5760405162461bcd60e51b815260206004820152601e60248201527f53656e64657227732077616c6c657420697320626c61636b6c6973746564000060448201526064016110c2565b33600090815261010f602052604090205442101561143b5760405162461bcd60e51b815260206004820152601860248201527f5472616e73666572206e6f7420616c6c6f77656420796574000000000000000060448201526064016110c2565b60fe546114489042613f4e565b33600081815261010f6020526040902091909155611467888288612dbe565b611472888888612e50565b506001979650505050505050565b611488612d64565b6001600160a01b0384166115045760405162461bcd60e51b815260206004820152602260248201527f42656e656669636961727920616464726573732063616e6e6f74206265207a6560448201527f726f00000000000000000000000000000000000000000000000000000000000060648201526084016110c2565b60008211801561151657506127108211155b6115875760405162461bcd60e51b8152602060048201526024808201527f50657263656e74616765206d757374206265206265747765656e203120616e6460448201527f203130300000000000000000000000000000000000000000000000000000000060648201526084016110c2565b600081116115fd5760405162461bcd60e51b815260206004820152602760248201527f54696d6520696e74657276616c206d757374206265206772656174657220746860448201527f616e207a65726f0000000000000000000000000000000000000000000000000060648201526084016110c2565b6001600160a01b039093166000818152610113602052604081209384556001840180546001600160a01b0319169092179091556002830191909155600382019290925542600482015560050155565b611654612d64565b6001600160a01b0381166116aa5760405162461bcd60e51b815260206004820152600f60248201527f496e76616c69642061646472657373000000000000000000000000000000000060448201526064016110c2565b6040516001600160a01b038216904780156108fc02916000818181858888f193505050501580156116df573d6000803e3d6000fd5b5050565b6101005460ff16156117375760405162461bcd60e51b815260206004820152601360248201527f4c6971756964697479206973206c6f636b65640000000000000000000000000060448201526064016110c2565b306000908152603360205260409020548111156117965760405162461bcd60e51b815260206004820152601460248201527f496e73756666696369656e742062616c616e636500000000000000000000000060448201526064016110c2565b6117a030826123b8565b5060ff546117ae90826131d8565b60ff5550610100805460ff19166001179055565b6117ca612d64565b60fe55565b3360008181526034602090815260408083206001600160a01b03871684529091528120549091906110509082908690611809908790613f4e565b612c0c565b611816612d64565b61181e6131eb565b565b611224338261323d565b611832612d64565b6001600160a01b038116600090815261010e602052604090205460ff161561189c5760405162461bcd60e51b815260206004820152601860248201527f7573657220616c726561647920626c61636b6c6973746564000000000000000060448201526064016110c2565b6001600160a01b0316600090815261010e60205260409020805460ff19166001179055565b3360009081526101136020526040902080546119455760405162461bcd60e51b815260206004820152602860248201527f4e6f2076657374696e67207363686564756c6520666f756e6420666f7220746860448201527f652073656e64657200000000000000000000000000000000000000000000000060648201526084016110c2565b600481015442906000906119599083613f61565b83546003850154919250908210156119b35760405162461bcd60e51b815260206004820152601c60248201527f546f6b656e732063616e6e6f7420626520636c61696d6564207965740000000060448201526064016110c2565b60006127108560020154836119c89190613f74565b6119d29190613f8b565b9050808560050160008282546119e89190613f4e565b90915550506004850184905581811115611a6a5760405162461bcd60e51b815260206004820152602a60248201527f546f6b656e7320746f20636c61696d2065786365656420746f74616c2076657360448201527f74656420746f6b656e730000000000000000000000000000000000000000000060648201526084016110c2565b845460058601541115611ae55760405162461bcd60e51b815260206004820152602960248201527f4e6f7420656e6f75676820746f6b656e7320696e207468652076657374696e6760448201527f207363686564756c65000000000000000000000000000000000000000000000060648201526084016110c2565b60fb54611afc906001600160a01b03163383612e50565b5050505050565b611b0b612d64565b6001600160a01b038116600090815261010e602052604090205460ff16611b745760405162461bcd60e51b815260206004820152601860248201527f7573657220616c726561647920626c61636b6c6973746564000000000000000060448201526064016110c2565b6001600160a01b0316600090815261010e60205260409020805460ff19169055565b611b9e612d64565b61010780546001600160a01b03909216610100027fffffffffffffffffffffff0000000000000000000000000000000000000000ff909216919091179055565b611be6612d64565b6001600160a01b031660009081526101106020526040812055565b611c09612d64565b61181e60006133a8565b611c1b612d64565b6001600160a01b0316600090815261010160205260409020805460ff19166001179055565b611c48612d64565b6116df828261323d565b611c5b336133fa565b611ca75760405162461bcd60e51b815260206004820152601160248201527f4e6f7420612076616c696420766f74657200000000000000000000000000000060448201526064016110c2565b33600090815261010c602052604090205460ff1615611d085760405162461bcd60e51b815260206004820152600d60248201527f416c726561647920766f7465640000000000000000000000000000000000000060448201526064016110c2565b33600081815261010c602052604090819020805460ff19166001179055517fa4861c5510bfa99706ed508d728f9c6b365ff27af1a3012e21980952ad2d844f90611d5790841515815260200190565b60405180910390a250565b611d6a612d64565b61181e613465565b611d7a612d64565b6001600160a01b038216611dd05760405162461bcd60e51b815260206004820152601660248201527f496e76616c69642077616c6c657420616464726573730000000000000000000060448201526064016110c2565b611dda8142613f4e565b6001600160a01b039092166000908152610110602052604090209190915550565b611e03612d64565b6001600160a01b0316600090815261011160205260409020805460ff19169055565b611e2d612d64565b60fd55565b611e3a612d64565b61010455565b606060378054610fbf90613ecf565b6101005460ff16611ea25760405162461bcd60e51b815260206004820152601760248201527f4c6971756964697479206973206e6f74206c6f636b656400000000000000000060448201526064016110c2565b8060ff541015611ef45760405162461bcd60e51b815260206004820152601b60248201527f4e6f7420656e6f756768206c6f636b6564206c6971756964697479000000000060448201526064016110c2565b60fb54611f0a906001600160a01b0316826123b8565b5060ff54611f1890826134a2565b60ff5550610100805460ff19169055565b611f31612d64565b6040517f70a082310000000000000000000000000000000000000000000000000000000081523060048201526001600160a01b0382169063a9059cbb90849083906370a0823190602401602060405180830381865afa158015611f98573d6000803e3d6000fd5b505050506040513d601f19601f82011682018060405250810190611fbc9190613fad565b6040517fffffffff0000000000000000000000000000000000000000000000000000000060e085901b1681526001600160a01b03909216600483015260248201526044016020604051808303816000875af115801561201f573d6000803e3d6000fd5b505050506040513d601f19601f820116820180604052508101906120439190613fc6565b505050565b612051336133fa565b61209d5760405162461bcd60e51b815260206004820152601160248201527f4e6f7420612076616c696420766f74657200000000000000000000000000000060448201526064016110c2565b33600090815261010d602052604090205460ff16156120fe5760405162461bcd60e51b815260206004820152600d60248201527f416c726561647920766f7465640000000000000000000000000000000000000060448201526064016110c2565b33600081815261010d602052604090819020805460ff19166001179055517fa4861c5510bfa99706ed508d728f9c6b365ff27af1a3012e21980952ad2d844f90611d5790841515815260200190565b612155612d64565b61010b54600090815b818110156121cc5761010d600061010b838154811061217f5761217f613f09565b60009182526020808320909101546001600160a01b0316835282019290925260400190205460ff16156121ba57826121b681613f35565b9350505b806121c481613f35565b91505061215e565b508181148061221d5760405162461bcd60e51b815260206004820152601660248201527f496e73756666696369656e7420617070726f76616c730000000000000000000060448201526064016110c2565b60006122316097546001600160a01b031690565b610108546101095461010a549293506001600160a01b039182169261225992909116906134ae565b61010980546001600160a01b0319169055600061010a8190555b848110156122dc57600061010d600061010b848154811061229657612296613f09565b6000918252602080832091909101546001600160a01b031683528201929092526040019020805460ff1916911515919091179055806122d481613f35565b915050612273565b505050505050565b6122ec612d64565b610100805461ff0019169115158102919091179055565b3360008181526034602090815260408083206001600160a01b0387168452909152812054909190838110156123a05760405162461bcd60e51b815260206004820152602560248201527f45524332303a2064656372656173656420616c6c6f77616e63652062656c6f7760448201527f207a65726f00000000000000000000000000000000000000000000000000000060648201526084016110c2565b6123ad8286868403612c0c565b506001949350505050565b60006123c26134c0565b336000818152610110602052604090205415806123f757506001600160a01b0381166000908152610110602052604090205442115b6124435760405162461bcd60e51b815260206004820152601060248201527f57616c6c65742069732066726f7a656e0000000000000000000000000000000060448201526064016110c2565b3360008181526101116020526040902054849060ff166125015760fc548110156124af5760405162461bcd60e51b815260206004820152601460248201527f416d6f756e742062656c6f77206d696e696d756d00000000000000000000000060448201526064016110c2565b60fd548111156125015760405162461bcd60e51b815260206004820152601660248201527f416d6f756e742065786365656473206d6178696d756d0000000000000000000060448201526064016110c2565b33600090815261010e602052604090205460ff16156125625760405162461bcd60e51b815260206004820152601e60248201527f53656e64657227732077616c6c657420697320626c61636b6c6973746564000060448201526064016110c2565b33600090815261010f60205260409020544210156125c25760405162461bcd60e51b815260206004820152601860248201527f5472616e73666572206e6f7420616c6c6f77656420796574000000000000000060448201526064016110c2565b60fe546125cf9042613f4e565b33600081815261010f60205260409020919091556125ee908787612e50565b50600195945050505050565b612602612d64565b61010b54600090815b818110156126795761010c600061010b838154811061262c5761262c613f09565b60009182526020808320909101546001600160a01b0316835282019290925260400190205460ff1615612667578261266381613f35565b9350505b8061267181613f35565b91505061260b565b50818114806126ca5760405162461bcd60e51b815260206004820152601660248201527f496e73756666696369656e7420617070726f76616c730000000000000000000060448201526064016110c2565b60006126de6097546001600160a01b031690565b610108549091506001600160a01b03166126f7816128ab565b61010880546001600160a01b031916905560005b8481101561277457600061010c600061010b848154811061272e5761272e613f09565b6000918252602080832091909101546001600160a01b031683528201929092526040019020805460ff19169115159190911790558061276c81613f35565b91505061270b565b50806001600160a01b0316826001600160a01b03167f8be0079c531659141344cd1fd0a4f28419497f9722a3daafe3b4186f6b6457e060405160405180910390a35050505050565b6127c4612d64565b60fc55565b6127d1612d64565b61011480546001600160a01b039092166001600160a01b031990921682179055600090815261010160205260409020805460ff19166001179055565b61010b818154811061281e57600080fd5b6000918252602090912001546001600160a01b0316905081565b612840612d64565b6001600160a01b0316600090815261010160205260409020805460ff19169055565b61286a612d64565b6001600160a01b0316600090815261011160205260409020805460ff19166001179055565b612897612d64565b610107805460ff1916911515919091179055565b6128b3612d64565b60405162461bcd60e51b815260206004820152602760248201527f506c656173652043616c6c2046696e616c697a65205472616e73666572204f7760448201527f6e6572736869700000000000000000000000000000000000000000000000000060648201526084016110c2565b600054610100900460ff16158080156129415750600054600160ff909116105b8061295b5750303b15801561295b575060005460ff166001145b6129cd5760405162461bcd60e51b815260206004820152602e60248201527f496e697469616c697a61626c653a20636f6e747261637420697320616c72656160448201527f647920696e697469616c697a656400000000000000000000000000000000000060648201526084016110c2565b6000805460ff1916600117905580156129f0576000805461ff0019166101001790555b60fb80546001600160a01b03191633179055612a0c8787613513565b612a14613588565b612a1c6135f3565b612a24613666565b6101078054603261010255611388610103557fffffffffffffffffffffff00000000000000000000000000000000000000000016740285e1d847b88056add3823c456ee83d37cdd60a011790556107d06101045561012c61010555610100805461ff00191681179055600060fc5568056bc75e2d6310000060fd5560fb54612acc906001600160a01b0316612abd60ff8816600a6140c7565b612ac79087613f74565b6136d9565b33600090815261010e60209081526040808320805460ff19908116909155610111835281842080548216600190811790915561010f845282852042905561011480546001600160a01b0319166001600160a01b038a81169190911782553087526101019095528386208054841683179055549093168452908320805490911690911790555b8251811015612bbc5761010b838281518110612b6f57612b6f613f09565b60209081029190910181015182546001810184556000938452919092200180546001600160a01b0319166001600160a01b0390921691909117905580612bb481613f35565b915050612b51565b508015612c03576000805461ff0019169055604051600181527f7f26b83ff96e1f2b6a682f133852f6798a09c465da95921460cefb38474024989060200160405180910390a15b50505050505050565b6001600160a01b038316612c875760405162461bcd60e51b8152602060048201526024808201527f45524332303a20617070726f76652066726f6d20746865207a65726f2061646460448201527f726573730000000000000000000000000000000000000000000000000000000060648201526084016110c2565b6001600160a01b038216612d035760405162461bcd60e51b815260206004820152602260248201527f45524332303a20617070726f766520746f20746865207a65726f20616464726560448201527f737300000000000000000000000000000000000000000000000000000000000060648201526084016110c2565b6001600160a01b0383811660008181526034602090815260408083209487168084529482529182902085905590518481527f8c5be1e5ebec7d5bd14f71427d1e84f3dd0314c0f7b2291e5b200ac8c7c3b925910160405180910390a3505050565b6097546001600160a01b0316331461181e5760405162461bcd60e51b815260206004820181905260248201527f4f776e61626c653a2063616c6c6572206973206e6f7420746865206f776e657260448201526064016110c2565b6001600160a01b038381166000908152603460209081526040808320938616835292905220546000198114612e4a5781811015612e3d5760405162461bcd60e51b815260206004820152601d60248201527f45524332303a20696e73756666696369656e7420616c6c6f77616e636500000060448201526064016110c2565b612e4a8484848403612c0c565b50505050565b6001600160a01b038316600090815261011160205260409020548390829060ff16612f195760fc54811015612ec75760405162461bcd60e51b815260206004820152601460248201527f416d6f756e742062656c6f77206d696e696d756d00000000000000000000000060448201526064016110c2565b60fd54811115612f195760405162461bcd60e51b815260206004820152601660248201527f416d6f756e742065786365656473206d6178696d756d0000000000000000000060448201526064016110c2565b6001600160a01b038516600090815261010e602052604090205460ff1615612f835760405162461bcd60e51b815260206004820152601e60248201527f53656e64657227732077616c6c657420697320626c61636b6c6973746564000060448201526064016110c2565b6001600160a01b038516612fe75760405162461bcd60e51b815260206004820152602560248201527f45524332303a207472616e736665722066726f6d20746865207a65726f206164604482015264647265737360d81b60648201526084016110c2565b6001600160a01b0384166130495760405162461bcd60e51b815260206004820152602360248201527f45524332303a207472616e7366657220746f20746865207a65726f206164647260448201526265737360e81b60648201526084016110c2565b600083116130bf5760405162461bcd60e51b815260206004820152602960248201527f5472616e7366657220616d6f756e74206d75737420626520677265617465722060448201527f7468616e207a65726f000000000000000000000000000000000000000000000060648201526084016110c2565b6001600160a01b03851660009081526101016020526040902054839060ff168061310257506001600160a01b0385166000908152610101602052604090205460ff165b156131185761311233868661379a565b50611afc565b61010080540460ff161561315e576000612710610102548361313a9190613f74565b6131449190613f8b565b9050613150878261323d565b61315a8186613f61565b9450505b6101075460ff16156131cd576000612710826101045461317e9190613f74565b6131889190613f8b565b60fb549091506131a39088906001600160a01b03168361379a565b61271082610104546131b59190613f74565b6131bf9190613f8b565b6131c99086613f61565b9450505b6122dc86868661379a565b60006131e48284613f4e565b9392505050565b6131f361395c565b60c9805460ff191690557f5db9ee0a495bf2e6ff9c91a7834c1ba4fdd244a5e8aa4e537bd38aeae4b073aa335b6040516001600160a01b03909116815260200160405180910390a1565b6001600160a01b0382166132b95760405162461bcd60e51b815260206004820152602160248201527f45524332303a206275726e2066726f6d20746865207a65726f2061646472657360448201527f730000000000000000000000000000000000000000000000000000000000000060648201526084016110c2565b6001600160a01b038216600090815260336020526040902054818110156133485760405162461bcd60e51b815260206004820152602260248201527f45524332303a206275726e20616d6f756e7420657863656564732062616c616e60448201527f636500000000000000000000000000000000000000000000000000000000000060648201526084016110c2565b6001600160a01b03831660008181526033602090815260408083208686039055603580548790039055518581529192917fddf252ad1be2c89b69c2b068fc378daa952ba7f163c4a11628f55a4df523b3ef910160405180910390a3505050565b609780546001600160a01b038381166001600160a01b0319831681179093556040519116919082907f8be0079c531659141344cd1fd0a4f28419497f9722a3daafe3b4186f6b6457e090600090a35050565b6000805b61010b5481101561345c57826001600160a01b031661010b828154811061342757613427613f09565b6000918252602090912001546001600160a01b03160361344a5750600192915050565b8061345481613f35565b9150506133fe565b50600092915050565b61346d6134c0565b60c9805460ff191660011790557f62e78cea01bee320cd4e420270b5ea74000d11b0c9f74754ebdbfc544b05a2586132203390565b60006131e48284613f61565b6134b6612d64565b6116df82826136d9565b60c95460ff161561181e5760405162461bcd60e51b815260206004820152601060248201527f5061757361626c653a207061757365640000000000000000000000000000000060448201526064016110c2565b600054610100900460ff1661357e5760405162461bcd60e51b815260206004820152602b60248201527f496e697469616c697a61626c653a20636f6e7472616374206973206e6f74206960448201526a6e697469616c697a696e6760a81b60648201526084016110c2565b6116df82826139ae565b600054610100900460ff1661181e5760405162461bcd60e51b815260206004820152602b60248201527f496e697469616c697a61626c653a20636f6e7472616374206973206e6f74206960448201526a6e697469616c697a696e6760a81b60648201526084016110c2565b600054610100900460ff1661365e5760405162461bcd60e51b815260206004820152602b60248201527f496e697469616c697a61626c653a20636f6e7472616374206973206e6f74206960448201526a6e697469616c697a696e6760a81b60648201526084016110c2565b61181e613a32565b600054610100900460ff166136d15760405162461bcd60e51b815260206004820152602b60248201527f496e697469616c697a61626c653a20636f6e7472616374206973206e6f74206960448201526a6e697469616c697a696e6760a81b60648201526084016110c2565b61181e613aa6565b6001600160a01b03821661372f5760405162461bcd60e51b815260206004820152601f60248201527f45524332303a206d696e7420746f20746865207a65726f20616464726573730060448201526064016110c2565b80603560008282546137419190613f4e565b90915550506001600160a01b0382166000818152603360209081526040808320805486019055518481527fddf252ad1be2c89b69c2b068fc378daa952ba7f163c4a11628f55a4df523b3ef910160405180910390a35050565b6001600160a01b0383166137fe5760405162461bcd60e51b815260206004820152602560248201527f45524332303a207472616e736665722066726f6d20746865207a65726f206164604482015264647265737360d81b60648201526084016110c2565b6001600160a01b0382166138605760405162461bcd60e51b815260206004820152602360248201527f45524332303a207472616e7366657220746f20746865207a65726f206164647260448201526265737360e81b60648201526084016110c2565b6001600160a01b038316600090815260336020526040902054818110156138ef5760405162461bcd60e51b815260206004820152602660248201527f45524332303a207472616e7366657220616d6f756e742065786365656473206260448201527f616c616e6365000000000000000000000000000000000000000000000000000060648201526084016110c2565b6001600160a01b0380851660008181526033602052604080822086860390559286168082529083902080548601905591517fddf252ad1be2c89b69c2b068fc378daa952ba7f163c4a11628f55a4df523b3ef9061394f9086815260200190565b60405180910390a3612e4a565b60c95460ff1661181e5760405162461bcd60e51b815260206004820152601460248201527f5061757361626c653a206e6f742070617573656400000000000000000000000060448201526064016110c2565b600054610100900460ff16613a195760405162461bcd60e51b815260206004820152602b60248201527f496e697469616c697a61626c653a20636f6e7472616374206973206e6f74206960448201526a6e697469616c697a696e6760a81b60648201526084016110c2565b6036613a258382614119565b5060376120438282614119565b600054610100900460ff16613a9d5760405162461bcd60e51b815260206004820152602b60248201527f496e697469616c697a61626c653a20636f6e7472616374206973206e6f74206960448201526a6e697469616c697a696e6760a81b60648201526084016110c2565b61181e336133a8565b600054610100900460ff16613b115760405162461bcd60e51b815260206004820152602b60248201527f496e697469616c697a61626c653a20636f6e7472616374206973206e6f74206960448201526a6e697469616c697a696e6760a81b60648201526084016110c2565b60c9805460ff19169055565b600060208083528351808285015260005b81811015613b4a57858101830151858201604001528201613b2e565b506000604082860101526040601f19601f8301168501019250505092915050565b6001600160a01b038116811461122457600080fd5b8035613b8b81613b6b565b919050565b60008060408385031215613ba357600080fd5b8235613bae81613b6b565b946020939093013593505050565b600060208284031215613bce57600080fd5b81356131e481613b6b565b600080600060608486031215613bee57600080fd5b8335613bf981613b6b565b92506020840135613c0981613b6b565b929592945050506040919091013590565b60008060008060808587031215613c3057600080fd5b8435613c3b81613b6b565b966020860135965060408601359560600135945092505050565b600060208284031215613c6757600080fd5b5035919050565b801515811461122457600080fd5b600060208284031215613c8e57600080fd5b81356131e481613c6e565b60008060408385031215613cac57600080fd5b8235613cb781613b6b565b91506020830135613cc781613b6b565b809150509250929050565b634e487b7160e01b600052604160045260246000fd5b604051601f8201601f1916810167ffffffffffffffff81118282101715613d1157613d11613cd2565b604052919050565b600082601f830112613d2a57600080fd5b813567ffffffffffffffff811115613d4457613d44613cd2565b613d57601f8201601f1916602001613ce8565b818152846020838601011115613d6c57600080fd5b816020850160208301376000918101602001919091529392505050565b600082601f830112613d9a57600080fd5b8135602067ffffffffffffffff821115613db657613db6613cd2565b8160051b613dc5828201613ce8565b9283528481018201928281019087851115613ddf57600080fd5b83870192505b84831015613e07578235613df881613b6b565b82529183019190830190613de5565b979650505050505050565b60008060008060008060c08789031215613e2b57600080fd5b863567ffffffffffffffff80821115613e4357600080fd5b613e4f8a838b01613d19565b97506020890135915080821115613e6557600080fd5b613e718a838b01613d19565b96506040890135915060ff82168214613e8957600080fd5b81955060608901359450613e9f60808a01613b80565b935060a0890135915080821115613eb557600080fd5b50613ec289828a01613d89565b9150509295509295509295565b600181811c90821680613ee357607f821691505b602082108103613f0357634e487b7160e01b600052602260045260246000fd5b50919050565b634e487b7160e01b600052603260045260246000fd5b634e487b7160e01b600052601160045260246000fd5b600060018201613f4757613f47613f1f565b5060010190565b8082018082111561105657611056613f1f565b8181038181111561105657611056613f1f565b808202811582820484141761105657611056613f1f565b600082613fa857634e487b7160e01b600052601260045260246000fd5b500490565b600060208284031215613fbf57600080fd5b5051919050565b600060208284031215613fd857600080fd5b81516131e481613c6e565b600181815b8085111561401e57816000190482111561400457614004613f1f565b8085161561401157918102915b93841c9390800290613fe8565b509250929050565b60008261403557506001611056565b8161404257506000611056565b816001811461405857600281146140625761407e565b6001915050611056565b60ff84111561407357614073613f1f565b50506001821b611056565b5060208310610133831016604e8410600b84101617156140a1575081810a611056565b6140ab8383613fe3565b80600019048211156140bf576140bf613f1f565b029392505050565b60006131e48383614026565b601f82111561204357600081815260208120601f850160051c810160208610156140fa5750805b601f850160051c820191505b818110156122dc57828155600101614106565b815167ffffffffffffffff81111561413357614133613cd2565b614147816141418454613ecf565b846140d3565b602080601f83116001811461417c57600084156141645750858301515b600019600386901b1c1916600185901b1785556122dc565b600085815260208120601f198616915b828110156141ab5788860151825594840194600190910190840161418c565b50858210156141c95787850151600019600388901b60f8161c191681555b5050505050600190811b0190555056fea2646970667358221220e826a73fa8fd6917c77ce929ab95289a43a3b9e7085462d1743f40ef3fa5d07464736f6c63430008130033","opcodes":"PUSH1 0x80 PUSH1 0x40 MSTORE CALLVALUE DUP1 ISZERO PUSH2 0x10 JUMPI PUSH1 0x0 DUP1 REVERT JUMPDEST POP PUSH2 0x420F DUP1 PUSH2 0x20 PUSH1 0x0 CODECOPY PUSH1 0x0 RETURN INVALID PUSH1 0x80 PUSH1 0x40 MSTORE PUSH1 0x4 CALLDATASIZE LT PUSH2 0x541 JUMPI PUSH1 0x0 CALLDATALOAD PUSH1 0xE0 SHR DUP1 PUSH4 0x7ACE48E7 GT PUSH2 0x2AF JUMPI DUP1 PUSH4 0xB2BDFA7B GT PUSH2 0x179 JUMPI DUP1 PUSH4 0xD153B60C GT PUSH2 0xD6 JUMPI DUP1 PUSH4 0xF217FDBE GT PUSH2 0x8A JUMPI DUP1 PUSH4 0xF78E633D GT PUSH2 0x6F JUMPI DUP1 PUSH4 0xF78E633D EQ PUSH2 0xEDF JUMPI DUP1 PUSH4 0xF887EA40 EQ PUSH2 0xF6F JUMPI DUP1 PUSH4 0xF8F1B6C9 EQ PUSH2 0xF90 JUMPI PUSH1 0x0 DUP1 REVERT JUMPDEST DUP1 PUSH4 0xF217FDBE EQ PUSH2 0xE9F JUMPI DUP1 PUSH4 0xF2FDE38B EQ PUSH2 0xEBF JUMPI PUSH1 0x0 DUP1 REVERT JUMPDEST DUP1 PUSH4 0xDD62ED3E GT PUSH2 0xBB JUMPI DUP1 PUSH4 0xDD62ED3E EQ PUSH2 0xE19 JUMPI DUP1 PUSH4 0xE17C4C74 EQ PUSH2 0xE5F JUMPI DUP1 PUSH4 0xE43252D7 EQ PUSH2 0xE7F JUMPI PUSH1 0x0 DUP1 REVERT JUMPDEST DUP1 PUSH4 0xD153B60C EQ PUSH2 0xDD8 JUMPI DUP1 PUSH4 0xDA58C7D9 EQ PUSH2 0xDF9 JUMPI PUSH1 0x0 DUP1 REVERT JUMPDEST DUP1 PUSH4 0xBFED5CE3 GT PUSH2 0x12D JUMPI DUP1 PUSH4 0xC8C8EBE4 GT PUSH2 0x112 JUMPI DUP1 PUSH4 0xC8C8EBE4 EQ PUSH2 0xD7A JUMPI DUP1 PUSH4 0xCB4CA631 EQ PUSH2 0xD90 JUMPI DUP1 PUSH4 0xD0A1BD44 EQ PUSH2 0xDC1 JUMPI PUSH1 0x0 DUP1 REVERT JUMPDEST DUP1 PUSH4 0xBFED5CE3 EQ PUSH2 0xD3A JUMPI DUP1 PUSH4 0xC0D78655 EQ PUSH2 0xD5A JUMPI PUSH1 0x0 DUP1 REVERT JUMPDEST DUP1 PUSH4 0xB5C43DB4 GT PUSH2 0x15E JUMPI DUP1 PUSH4 0xB5C43DB4 EQ PUSH2 0xCEB JUMPI DUP1 PUSH4 0xBD0E0ACD EQ PUSH2 0xD0E JUMPI DUP1 PUSH4 0xBF41C2A4 EQ PUSH2 0xD25 JUMPI PUSH1 0x0 DUP1 REVERT JUMPDEST DUP1 PUSH4 0xB2BDFA7B EQ PUSH2 0xC91 JUMPI DUP1 PUSH4 0xB36D6919 EQ PUSH2 0xCB1 JUMPI PUSH1 0x0 DUP1 REVERT JUMPDEST DUP1 PUSH4 0x93BA3718 GT PUSH2 0x227 JUMPI DUP1 PUSH4 0xA223111C GT PUSH2 0x1DB JUMPI DUP1 PUSH4 0xA457C2D7 GT PUSH2 0x1C0 JUMPI DUP1 PUSH4 0xA457C2D7 EQ PUSH2 0xC36 JUMPI DUP1 PUSH4 0xA9059CBB EQ PUSH2 0xC56 JUMPI DUP1 PUSH4 0xAB8B2F0D EQ PUSH2 0xC76 JUMPI PUSH1 0x0 DUP1 REVERT JUMPDEST DUP1 PUSH4 0xA223111C EQ PUSH2 0xC01 JUMPI DUP1 PUSH4 0xA30FF8B6 EQ PUSH2 0xC16 JUMPI PUSH1 0x0 DUP1 REVERT JUMPDEST DUP1 PUSH4 0x96E83924 GT PUSH2 0x20C JUMPI DUP1 PUSH4 0x96E83924 EQ PUSH2 0xBA1 JUMPI DUP1 PUSH4 0x99672158 EQ PUSH2 0xBC1 JUMPI DUP1 PUSH4 0x9B75757A EQ PUSH2 0xBE1 JUMPI PUSH1 0x0 DUP1 REVERT JUMPDEST DUP1 PUSH4 0x93BA3718 EQ PUSH2 0xB5B JUMPI DUP1 PUSH4 0x95D89B41 EQ PUSH2 0xB8C JUMPI PUSH1 0x0 DUP1 REVERT JUMPDEST DUP1 PUSH4 0x8AB1D681 GT PUSH2 0x27E JUMPI DUP1 PUSH4 0x8DA5CB5B GT PUSH2 0x263 JUMPI DUP1 PUSH4 0x8DA5CB5B EQ PUSH2 0xAFF JUMPI DUP1 PUSH4 0x8E8C10A2 EQ PUSH2 0xB1D JUMPI DUP1 PUSH4 0x8F376FCA EQ PUSH2 0xB3B JUMPI PUSH1 0x0 DUP1 REVERT JUMPDEST DUP1 PUSH4 0x8AB1D681 EQ PUSH2 0xABF JUMPI DUP1 PUSH4 0x8BF55409 EQ PUSH2 0xADF JUMPI PUSH1 0x0 DUP1 REVERT JUMPDEST DUP1 PUSH4 0x7ACE48E7 EQ PUSH2 0xA49 JUMPI DUP1 PUSH4 0x8456CB59 EQ PUSH2 0xA69 JUMPI DUP1 PUSH4 0x85BE583F EQ PUSH2 0xA7E JUMPI DUP1 PUSH4 0x88063345 EQ PUSH2 0xA9E JUMPI PUSH1 0x0 DUP1 REVERT JUMPDEST DUP1 PUSH4 0x3AF32ABF GT PUSH2 0x40B JUMPI DUP1 PUSH4 0x5C975ABB GT PUSH2 0x368 JUMPI DUP1 PUSH4 0x715018A6 GT PUSH2 0x31C JUMPI DUP1 PUSH4 0x760B7E38 GT PUSH2 0x301 JUMPI DUP1 PUSH4 0x760B7E38 EQ PUSH2 0x9F2 JUMPI DUP1 PUSH4 0x7884D888 EQ PUSH2 0xA09 JUMPI DUP1 PUSH4 0x79CC6790 EQ PUSH2 0xA29 JUMPI PUSH1 0x0 DUP1 REVERT JUMPDEST DUP1 PUSH4 0x715018A6 EQ PUSH2 0x9AC JUMPI DUP1 PUSH4 0x736C0D5B EQ PUSH2 0x9C1 JUMPI PUSH1 0x0 DUP1 REVERT JUMPDEST DUP1 PUSH4 0x60F588B7 GT PUSH2 0x34D JUMPI DUP1 PUSH4 0x60F588B7 EQ PUSH2 0x93F JUMPI DUP1 PUSH4 0x622B67CB EQ PUSH2 0x95F JUMPI DUP1 PUSH4 0x70A08231 EQ PUSH2 0x976 JUMPI PUSH1 0x0 DUP1 REVERT JUMPDEST DUP1 PUSH4 0x5C975ABB EQ PUSH2 0x910 JUMPI DUP1 PUSH4 0x5E2F16C8 EQ PUSH2 0x928 JUMPI PUSH1 0x0 DUP1 REVERT JUMPDEST DUP1 PUSH4 0x48A33082 GT PUSH2 0x3BF JUMPI DUP1 PUSH4 0x537DF3B6 GT PUSH2 0x3A4 JUMPI DUP1 PUSH4 0x537DF3B6 EQ PUSH2 0x8B5 JUMPI DUP1 PUSH4 0x55EBA868 EQ PUSH2 0x8D5 JUMPI DUP1 PUSH4 0x57976FB4 EQ PUSH2 0x8F5 JUMPI PUSH1 0x0 DUP1 REVERT JUMPDEST DUP1 PUSH4 0x48A33082 EQ PUSH2 0x889 JUMPI DUP1 PUSH4 0x4E71D92D EQ PUSH2 0x8A0 JUMPI PUSH1 0x0 DUP1 REVERT JUMPDEST DUP1 PUSH4 0x3F4BA83A GT PUSH2 0x3F0 JUMPI DUP1 PUSH4 0x3F4BA83A EQ PUSH2 0x834 JUMPI DUP1 PUSH4 0x42966C68 EQ PUSH2 0x849 JUMPI DUP1 PUSH4 0x4838D165 EQ PUSH2 0x869 JUMPI PUSH1 0x0 DUP1 REVERT JUMPDEST DUP1 PUSH4 0x3AF32ABF EQ PUSH2 0x7CC JUMPI DUP1 PUSH4 0x3EB5CBEB EQ PUSH2 0x806 JUMPI PUSH1 0x0 DUP1 REVERT JUMPDEST DUP1 PUSH4 0x23452B9C GT PUSH2 0x4B9 JUMPI DUP1 PUSH4 0x2BFBD9CF GT PUSH2 0x46D JUMPI DUP1 PUSH4 0x313CE567 GT PUSH2 0x452 JUMPI DUP1 PUSH4 0x313CE567 EQ PUSH2 0x770 JUMPI DUP1 PUSH4 0x36E8C9B3 EQ PUSH2 0x78C JUMPI DUP1 PUSH4 0x39509351 EQ PUSH2 0x7AC JUMPI PUSH1 0x0 DUP1 REVERT JUMPDEST DUP1 PUSH4 0x2BFBD9CF EQ PUSH2 0x712 JUMPI DUP1 PUSH4 0x2F48AB7D EQ PUSH2 0x732 JUMPI PUSH1 0x0 DUP1 REVERT JUMPDEST DUP1 PUSH4 0x24EF8C1B GT PUSH2 0x49E JUMPI DUP1 PUSH4 0x24EF8C1B EQ PUSH2 0x6B1 JUMPI DUP1 PUSH4 0x25E16063 EQ PUSH2 0x6D1 JUMPI DUP1 PUSH4 0x2A32234F EQ PUSH2 0x6F1 JUMPI PUSH1 0x0 DUP1 REVERT JUMPDEST DUP1 PUSH4 0x23452B9C EQ PUSH2 0x67C JUMPI DUP1 PUSH4 0x23B872DD EQ PUSH2 0x691 JUMPI PUSH1 0x0 DUP1 REVERT JUMPDEST DUP1 PUSH4 0xA702E8D GT PUSH2 0x510 JUMPI DUP1 PUSH4 0x17A5D4DF GT PUSH2 0x4F5 JUMPI DUP1 PUSH4 0x17A5D4DF EQ PUSH2 0x631 JUMPI DUP1 PUSH4 0x18160DDD EQ PUSH2 0x647 JUMPI DUP1 PUSH4 0x21040FC3 EQ PUSH2 0x65C JUMPI PUSH1 0x0 DUP1 REVERT JUMPDEST DUP1 PUSH4 0xA702E8D EQ PUSH2 0x5F9 JUMPI DUP1 PUSH4 0x15D4C5D5 EQ PUSH2 0x60F JUMPI PUSH1 0x0 DUP1 REVERT JUMPDEST DUP1 PUSH4 0x52C30BC EQ PUSH2 0x54D JUMPI DUP1 PUSH4 0x6FDDE03 EQ PUSH2 0x576 JUMPI DUP1 PUSH4 0x95EA7B3 EQ PUSH2 0x598 JUMPI DUP1 PUSH4 0x9EEF43E EQ PUSH2 0x5C8 JUMPI PUSH1 0x0 DUP1 REVERT JUMPDEST CALLDATASIZE PUSH2 0x548 JUMPI STOP JUMPDEST PUSH1 0x0 DUP1 REVERT JUMPDEST CALLVALUE DUP1 ISZERO PUSH2 0x559 JUMPI PUSH1 0x0 DUP1 REVERT JUMPDEST POP PUSH2 0x563 PUSH1 0xFF SLOAD DUP2 JUMP JUMPDEST PUSH1 0x40 MLOAD SWAP1 DUP2 MSTORE PUSH1 0x20 ADD JUMPDEST PUSH1 0x40 MLOAD DUP1 SWAP2 SUB SWAP1 RETURN JUMPDEST CALLVALUE DUP1 ISZERO PUSH2 0x582 JUMPI PUSH1 0x0 DUP1 REVERT JUMPDEST POP PUSH2 0x58B PUSH2 0xFB0 JUMP JUMPDEST PUSH1 0x40 MLOAD PUSH2 0x56D SWAP2 SWAP1 PUSH2 0x3B1D JUMP JUMPDEST CALLVALUE DUP1 ISZERO PUSH2 0x5A4 JUMPI PUSH1 0x0 DUP1 REVERT JUMPDEST POP PUSH2 0x5B8 PUSH2 0x5B3 CALLDATASIZE PUSH1 0x4 PUSH2 0x3B90 JUMP JUMPDEST PUSH2 0x1042 JUMP JUMPDEST PUSH1 0x40 MLOAD SWAP1 ISZERO ISZERO DUP2 MSTORE PUSH1 0x20 ADD PUSH2 0x56D JUMP JUMPDEST CALLVALUE DUP1 ISZERO PUSH2 0x5D4 JUMPI PUSH1 0x0 DUP1 REVERT JUMPDEST POP PUSH2 0x5B8 PUSH2 0x5E3 CALLDATASIZE PUSH1 0x4 PUSH2 0x3BBC JUMP JUMPDEST PUSH2 0x10C PUSH1 0x20 MSTORE PUSH1 0x0 SWAP1 DUP2 MSTORE PUSH1 0x40 SWAP1 KECCAK256 SLOAD PUSH1 0xFF AND DUP2 JUMP JUMPDEST CALLVALUE DUP1 ISZERO PUSH2 0x605 JUMPI PUSH1 0x0 DUP1 REVERT JUMPDEST POP PUSH2 0x563 PUSH1 0xFE SLOAD DUP2 JUMP JUMPDEST CALLVALUE DUP1 ISZERO PUSH2 0x61B JUMPI PUSH1 0x0 DUP1 REVERT JUMPDEST POP PUSH2 0x62F PUSH2 0x62A CALLDATASIZE PUSH1 0x4 PUSH2 0x3B90 JUMP JUMPDEST PUSH2 0x105C JUMP JUMPDEST STOP JUMPDEST CALLVALUE DUP1 ISZERO PUSH2 0x63D JUMPI PUSH1 0x0 DUP1 REVERT JUMPDEST POP PUSH2 0x563 PUSH1 0xFC SLOAD DUP2 JUMP JUMPDEST CALLVALUE DUP1 ISZERO PUSH2 0x653 JUMPI PUSH1 0x0 DUP1 REVERT JUMPDEST POP PUSH1 0x35 SLOAD PUSH2 0x563 JUMP JUMPDEST CALLVALUE DUP1 ISZERO PUSH2 0x668 JUMPI PUSH1 0x0 DUP1 REVERT JUMPDEST POP PUSH2 0x62F PUSH2 0x677 CALLDATASIZE PUSH1 0x4 PUSH2 0x3BBC JUMP JUMPDEST PUSH2 0x10F3 JUMP JUMPDEST CALLVALUE DUP1 ISZERO PUSH2 0x688 JUMPI PUSH1 0x0 DUP1 REVERT JUMPDEST POP PUSH2 0x62F PUSH2 0x119C JUMP JUMPDEST CALLVALUE DUP1 ISZERO PUSH2 0x69D JUMPI PUSH1 0x0 DUP1 REVERT JUMPDEST POP PUSH2 0x5B8 PUSH2 0x6AC CALLDATASIZE PUSH1 0x4 PUSH2 0x3BD9 JUMP JUMPDEST PUSH2 0x1227 JUMP JUMPDEST CALLVALUE DUP1 ISZERO PUSH2 0x6BD JUMPI PUSH1 0x0 DUP1 REVERT JUMPDEST POP PUSH2 0x62F PUSH2 0x6CC CALLDATASIZE PUSH1 0x4 PUSH2 0x3C1A JUMP JUMPDEST PUSH2 0x1480 JUMP JUMPDEST CALLVALUE DUP1 ISZERO PUSH2 0x6DD JUMPI PUSH1 0x0 DUP1 REVERT JUMPDEST POP PUSH2 0x62F PUSH2 0x6EC CALLDATASIZE PUSH1 0x4 PUSH2 0x3BBC JUMP JUMPDEST PUSH2 0x164C JUMP JUMPDEST CALLVALUE DUP1 ISZERO PUSH2 0x6FD JUMPI PUSH1 0x0 DUP1 REVERT JUMPDEST POP PUSH2 0x62F PUSH2 0x70C CALLDATASIZE PUSH1 0x4 PUSH2 0x3C55 JUMP JUMPDEST PUSH2 0x102 SSTORE JUMP JUMPDEST CALLVALUE DUP1 ISZERO PUSH2 0x71E JUMPI PUSH1 0x0 DUP1 REVERT JUMPDEST POP PUSH2 0x62F PUSH2 0x72D CALLDATASIZE PUSH1 0x4 PUSH2 0x3C55 JUMP JUMPDEST PUSH2 0x16E3 JUMP JUMPDEST CALLVALUE DUP1 ISZERO PUSH2 0x73E JUMPI PUSH1 0x0 DUP1 REVERT JUMPDEST POP PUSH2 0x107 SLOAD PUSH2 0x758 SWAP1 PUSH2 0x100 SWAP1 DIV PUSH1 0x1 PUSH1 0x1 PUSH1 0xA0 SHL SUB AND DUP2 JUMP JUMPDEST PUSH1 0x40 MLOAD PUSH1 0x1 PUSH1 0x1 PUSH1 0xA0 SHL SUB SWAP1 SWAP2 AND DUP2 MSTORE PUSH1 0x20 ADD PUSH2 0x56D JUMP JUMPDEST CALLVALUE DUP1 ISZERO PUSH2 0x77C JUMPI PUSH1 0x0 DUP1 REVERT JUMPDEST POP PUSH1 0x40 MLOAD PUSH1 0x12 DUP2 MSTORE PUSH1 0x20 ADD PUSH2 0x56D JUMP JUMPDEST CALLVALUE DUP1 ISZERO PUSH2 0x798 JUMPI PUSH1 0x0 DUP1 REVERT JUMPDEST POP PUSH2 0x62F PUSH2 0x7A7 CALLDATASIZE PUSH1 0x4 PUSH2 0x3C55 JUMP JUMPDEST PUSH2 0x17C2 JUMP JUMPDEST CALLVALUE DUP1 ISZERO PUSH2 0x7B8 JUMPI PUSH1 0x0 DUP1 REVERT JUMPDEST POP PUSH2 0x5B8 PUSH2 0x7C7 CALLDATASIZE PUSH1 0x4 PUSH2 0x3B90 JUMP JUMPDEST PUSH2 0x17CF JUMP JUMPDEST CALLVALUE DUP1 ISZERO PUSH2 0x7D8 JUMPI PUSH1 0x0 DUP1 REVERT JUMPDEST POP PUSH2 0x5B8 PUSH2 0x7E7 CALLDATASIZE PUSH1 0x4 PUSH2 0x3BBC JUMP JUMPDEST PUSH1 0x1 PUSH1 0x1 PUSH1 0xA0 SHL SUB AND PUSH1 0x0 SWAP1 DUP2 MSTORE PUSH2 0x111 PUSH1 0x20 MSTORE PUSH1 0x40 SWAP1 KECCAK256 SLOAD PUSH1 0xFF AND SWAP1 JUMP JUMPDEST CALLVALUE DUP1 ISZERO PUSH2 0x812 JUMPI PUSH1 0x0 DUP1 REVERT JUMPDEST POP PUSH2 0x563 PUSH2 0x821 CALLDATASIZE PUSH1 0x4 PUSH2 0x3BBC JUMP JUMPDEST PUSH2 0x110 PUSH1 0x20 MSTORE PUSH1 0x0 SWAP1 DUP2 MSTORE PUSH1 0x40 SWAP1 KECCAK256 SLOAD DUP2 JUMP JUMPDEST CALLVALUE DUP1 ISZERO PUSH2 0x840 JUMPI PUSH1 0x0 DUP1 REVERT JUMPDEST POP PUSH2 0x62F PUSH2 0x180E JUMP JUMPDEST CALLVALUE DUP1 ISZERO PUSH2 0x855 JUMPI PUSH1 0x0 DUP1 REVERT JUMPDEST POP PUSH2 0x62F PUSH2 0x864 CALLDATASIZE PUSH1 0x4 PUSH2 0x3C55 JUMP JUMPDEST PUSH2 0x1820 JUMP JUMPDEST CALLVALUE DUP1 ISZERO PUSH2 0x875 JUMPI PUSH1 0x0 DUP1 REVERT JUMPDEST POP PUSH2 0x62F PUSH2 0x884 CALLDATASIZE PUSH1 0x4 PUSH2 0x3BBC JUMP JUMPDEST PUSH2 0x182A JUMP JUMPDEST CALLVALUE DUP1 ISZERO PUSH2 0x895 JUMPI PUSH1 0x0 DUP1 REVERT JUMPDEST POP PUSH2 0x563 PUSH2 0x10A SLOAD DUP2 JUMP JUMPDEST CALLVALUE DUP1 ISZERO PUSH2 0x8AC JUMPI PUSH1 0x0 DUP1 REVERT JUMPDEST POP PUSH2 0x62F PUSH2 0x18C1 JUMP JUMPDEST CALLVALUE DUP1 ISZERO PUSH2 0x8C1 JUMPI PUSH1 0x0 DUP1 REVERT JUMPDEST POP PUSH2 0x62F PUSH2 0x8D0 CALLDATASIZE PUSH1 0x4 PUSH2 0x3BBC JUMP JUMPDEST PUSH2 0x1B03 JUMP JUMPDEST CALLVALUE DUP1 ISZERO PUSH2 0x8E1 JUMPI PUSH1 0x0 DUP1 REVERT JUMPDEST POP PUSH2 0x62F PUSH2 0x8F0 CALLDATASIZE PUSH1 0x4 PUSH2 0x3BBC JUMP JUMPDEST PUSH2 0x1B96 JUMP JUMPDEST CALLVALUE DUP1 ISZERO PUSH2 0x901 JUMPI PUSH1 0x0 DUP1 REVERT JUMPDEST POP PUSH2 0x100 SLOAD PUSH2 0x5B8 SWAP1 PUSH1 0xFF AND DUP2 JUMP JUMPDEST CALLVALUE DUP1 ISZERO PUSH2 0x91C JUMPI PUSH1 0x0 DUP1 REVERT JUMPDEST POP PUSH1 0xC9 SLOAD PUSH1 0xFF AND PUSH2 0x5B8 JUMP JUMPDEST CALLVALUE DUP1 ISZERO PUSH2 0x934 JUMPI PUSH1 0x0 DUP1 REVERT JUMPDEST POP PUSH2 0x563 PUSH2 0x103 SLOAD DUP2 JUMP JUMPDEST CALLVALUE DUP1 ISZERO PUSH2 0x94B JUMPI PUSH1 0x0 DUP1 REVERT JUMPDEST POP PUSH2 0x62F PUSH2 0x95A CALLDATASIZE PUSH1 0x4 PUSH2 0x3BBC JUMP JUMPDEST PUSH2 0x1BDE JUMP JUMPDEST CALLVALUE DUP1 ISZERO PUSH2 0x96B JUMPI PUSH1 0x0 DUP1 REVERT JUMPDEST POP PUSH2 0x563 PUSH2 0x105 SLOAD DUP2 JUMP JUMPDEST CALLVALUE DUP1 ISZERO PUSH2 0x982 JUMPI PUSH1 0x0 DUP1 REVERT JUMPDEST POP PUSH2 0x563 PUSH2 0x991 CALLDATASIZE PUSH1 0x4 PUSH2 0x3BBC JUMP JUMPDEST PUSH1 0x1 PUSH1 0x1 PUSH1 0xA0 SHL SUB AND PUSH1 0x0 SWAP1 DUP2 MSTORE PUSH1 0x33 PUSH1 0x20 MSTORE PUSH1 0x40 SWAP1 KECCAK256 SLOAD SWAP1 JUMP JUMPDEST CALLVALUE DUP1 ISZERO PUSH2 0x9B8 JUMPI PUSH1 0x0 DUP1 REVERT JUMPDEST POP PUSH2 0x62F PUSH2 0x1C01 JUMP JUMPDEST CALLVALUE DUP1 ISZERO PUSH2 0x9CD JUMPI PUSH1 0x0 DUP1 REVERT JUMPDEST POP PUSH2 0x5B8 PUSH2 0x9DC CALLDATASIZE PUSH1 0x4 PUSH2 0x3BBC JUMP JUMPDEST PUSH2 0x112 PUSH1 0x20 MSTORE PUSH1 0x0 SWAP1 DUP2 MSTORE PUSH1 0x40 SWAP1 KECCAK256 SLOAD PUSH1 0xFF AND DUP2 JUMP JUMPDEST CALLVALUE DUP1 ISZERO PUSH2 0x9FE JUMPI PUSH1 0x0 DUP1 REVERT JUMPDEST POP PUSH2 0x563 PUSH2 0x106 SLOAD DUP2 JUMP JUMPDEST CALLVALUE DUP1 ISZERO PUSH2 0xA15 JUMPI PUSH1 0x0 DUP1 REVERT JUMPDEST POP PUSH2 0x62F PUSH2 0xA24 CALLDATASIZE PUSH1 0x4 PUSH2 0x3BBC JUMP JUMPDEST PUSH2 0x1C13 JUMP JUMPDEST CALLVALUE DUP1 ISZERO PUSH2 0xA35 JUMPI PUSH1 0x0 DUP1 REVERT JUMPDEST POP PUSH2 0x62F PUSH2 0xA44 CALLDATASIZE PUSH1 0x4 PUSH2 0x3B90 JUMP JUMPDEST PUSH2 0x1C40 JUMP JUMPDEST CALLVALUE DUP1 ISZERO PUSH2 0xA55 JUMPI PUSH1 0x0 DUP1 REVERT JUMPDEST POP PUSH2 0x62F PUSH2 0xA64 CALLDATASIZE PUSH1 0x4 PUSH2 0x3C7C JUMP JUMPDEST PUSH2 0x1C52 JUMP JUMPDEST CALLVALUE DUP1 ISZERO PUSH2 0xA75 JUMPI PUSH1 0x0 DUP1 REVERT JUMPDEST POP PUSH2 0x62F PUSH2 0x1D62 JUMP JUMPDEST CALLVALUE DUP1 ISZERO PUSH2 0xA8A JUMPI PUSH1 0x0 DUP1 REVERT JUMPDEST POP PUSH2 0x62F PUSH2 0xA99 CALLDATASIZE PUSH1 0x4 PUSH2 0x3B90 JUMP JUMPDEST PUSH2 0x1D72 JUMP JUMPDEST CALLVALUE DUP1 ISZERO PUSH2 0xAAA JUMPI PUSH1 0x0 DUP1 REVERT JUMPDEST POP PUSH2 0x109 SLOAD PUSH2 0x758 SWAP1 PUSH1 0x1 PUSH1 0x1 PUSH1 0xA0 SHL SUB AND DUP2 JUMP JUMPDEST CALLVALUE DUP1 ISZERO PUSH2 0xACB JUMPI PUSH1 0x0 DUP1 REVERT JUMPDEST POP PUSH2 0x62F PUSH2 0xADA CALLDATASIZE PUSH1 0x4 PUSH2 0x3BBC JUMP JUMPDEST PUSH2 0x1DFB JUMP JUMPDEST CALLVALUE DUP1 ISZERO PUSH2 0xAEB JUMPI PUSH1 0x0 DUP1 REVERT JUMPDEST POP PUSH2 0x62F PUSH2 0xAFA CALLDATASIZE PUSH1 0x4 PUSH2 0x3C55 JUMP JUMPDEST PUSH2 0x1E25 JUMP JUMPDEST CALLVALUE DUP1 ISZERO PUSH2 0xB0B JUMPI PUSH1 0x0 DUP1 REVERT JUMPDEST POP PUSH1 0x97 SLOAD PUSH1 0x1 PUSH1 0x1 PUSH1 0xA0 SHL SUB AND PUSH2 0x758 JUMP JUMPDEST CALLVALUE DUP1 ISZERO PUSH2 0xB29 JUMPI PUSH1 0x0 DUP1 REVERT JUMPDEST POP PUSH2 0x100 DUP1 SLOAD PUSH2 0x5B8 SWAP2 PUSH1 0xFF SWAP2 DIV AND DUP2 JUMP JUMPDEST CALLVALUE DUP1 ISZERO PUSH2 0xB47 JUMPI PUSH1 0x0 DUP1 REVERT JUMPDEST POP PUSH2 0x62F PUSH2 0xB56 CALLDATASIZE PUSH1 0x4 PUSH2 0x3C55 JUMP JUMPDEST PUSH2 0x1E32 JUMP JUMPDEST CALLVALUE DUP1 ISZERO PUSH2 0xB67 JUMPI PUSH1 0x0 DUP1 REVERT JUMPDEST POP PUSH2 0x5B8 PUSH2 0xB76 CALLDATASIZE PUSH1 0x4 PUSH2 0x3BBC JUMP JUMPDEST PUSH2 0x10D PUSH1 0x20 MSTORE PUSH1 0x0 SWAP1 DUP2 MSTORE PUSH1 0x40 SWAP1 KECCAK256 SLOAD PUSH1 0xFF AND DUP2 JUMP JUMPDEST CALLVALUE DUP1 ISZERO PUSH2 0xB98 JUMPI PUSH1 0x0 DUP1 REVERT JUMPDEST POP PUSH2 0x58B PUSH2 0x1E40 JUMP JUMPDEST CALLVALUE DUP1 ISZERO PUSH2 0xBAD JUMPI PUSH1 0x0 DUP1 REVERT JUMPDEST POP PUSH2 0x62F PUSH2 0xBBC CALLDATASIZE PUSH1 0x4 PUSH2 0x3C55 JUMP JUMPDEST PUSH2 0x1E4F JUMP JUMPDEST CALLVALUE DUP1 ISZERO PUSH2 0xBCD JUMPI PUSH1 0x0 DUP1 REVERT JUMPDEST POP PUSH2 0x62F PUSH2 0xBDC CALLDATASIZE PUSH1 0x4 PUSH2 0x3C99 JUMP JUMPDEST PUSH2 0x1F29 JUMP JUMPDEST CALLVALUE DUP1 ISZERO PUSH2 0xBED JUMPI PUSH1 0x0 DUP1 REVERT JUMPDEST POP PUSH2 0x62F PUSH2 0xBFC CALLDATASIZE PUSH1 0x4 PUSH2 0x3C7C JUMP JUMPDEST PUSH2 0x2048 JUMP JUMPDEST CALLVALUE DUP1 ISZERO PUSH2 0xC0D JUMPI PUSH1 0x0 DUP1 REVERT JUMPDEST POP PUSH2 0x62F PUSH2 0x214D JUMP JUMPDEST CALLVALUE DUP1 ISZERO PUSH2 0xC22 JUMPI PUSH1 0x0 DUP1 REVERT JUMPDEST POP PUSH2 0x62F PUSH2 0xC31 CALLDATASIZE PUSH1 0x4 PUSH2 0x3C7C JUMP JUMPDEST PUSH2 0x22E4 JUMP JUMPDEST CALLVALUE DUP1 ISZERO PUSH2 0xC42 JUMPI PUSH1 0x0 DUP1 REVERT JUMPDEST POP PUSH2 0x5B8 PUSH2 0xC51 CALLDATASIZE PUSH1 0x4 PUSH2 0x3B90 JUMP JUMPDEST PUSH2 0x2303 JUMP JUMPDEST CALLVALUE DUP1 ISZERO PUSH2 0xC62 JUMPI PUSH1 0x0 DUP1 REVERT JUMPDEST POP PUSH2 0x5B8 PUSH2 0xC71 CALLDATASIZE PUSH1 0x4 PUSH2 0x3B90 JUMP JUMPDEST PUSH2 0x23B8 JUMP JUMPDEST CALLVALUE DUP1 ISZERO PUSH2 0xC82 JUMPI PUSH1 0x0 DUP1 REVERT JUMPDEST POP PUSH2 0x107 SLOAD PUSH2 0x5B8 SWAP1 PUSH1 0xFF AND DUP2 JUMP JUMPDEST CALLVALUE DUP1 ISZERO PUSH2 0xC9D JUMPI PUSH1 0x0 DUP1 REVERT JUMPDEST POP PUSH1 0xFB SLOAD PUSH2 0x758 SWAP1 PUSH1 0x1 PUSH1 0x1 PUSH1 0xA0 SHL SUB AND DUP2 JUMP JUMPDEST CALLVALUE DUP1 ISZERO PUSH2 0xCBD JUMPI PUSH1 0x0 DUP1 REVERT JUMPDEST POP PUSH2 0x5B8 PUSH2 0xCCC CALLDATASIZE PUSH1 0x4 PUSH2 0x3BBC JUMP JUMPDEST PUSH1 0x1 PUSH1 0x1 PUSH1 0xA0 SHL SUB AND PUSH1 0x0 SWAP1 DUP2 MSTORE PUSH2 0x10E PUSH1 0x20 MSTORE PUSH1 0x40 SWAP1 KECCAK256 SLOAD PUSH1 0xFF AND SWAP1 JUMP JUMPDEST CALLVALUE DUP1 ISZERO PUSH2 0xCF7 JUMPI PUSH1 0x0 DUP1 REVERT JUMPDEST POP CALLER PUSH1 0x0 SWAP1 DUP2 MSTORE PUSH2 0x10F PUSH1 0x20 MSTORE PUSH1 0x40 SWAP1 KECCAK256 SLOAD PUSH2 0x563 JUMP JUMPDEST CALLVALUE DUP1 ISZERO PUSH2 0xD1A JUMPI PUSH1 0x0 DUP1 REVERT JUMPDEST POP PUSH2 0x563 PUSH2 0x104 SLOAD DUP2 JUMP JUMPDEST CALLVALUE DUP1 ISZERO PUSH2 0xD31 JUMPI PUSH1 0x0 DUP1 REVERT JUMPDEST POP PUSH2 0x62F PUSH2 0x25FA JUMP JUMPDEST CALLVALUE DUP1 ISZERO PUSH2 0xD46 JUMPI PUSH1 0x0 DUP1 REVERT JUMPDEST POP PUSH2 0x62F PUSH2 0xD55 CALLDATASIZE PUSH1 0x4 PUSH2 0x3C55 JUMP JUMPDEST PUSH2 0x27BC JUMP JUMPDEST CALLVALUE DUP1 ISZERO PUSH2 0xD66 JUMPI PUSH1 0x0 DUP1 REVERT JUMPDEST POP PUSH2 0x62F PUSH2 0xD75 CALLDATASIZE PUSH1 0x4 PUSH2 0x3BBC JUMP JUMPDEST PUSH2 0x27C9 JUMP JUMPDEST CALLVALUE DUP1 ISZERO PUSH2 0xD86 JUMPI PUSH1 0x0 DUP1 REVERT JUMPDEST POP PUSH2 0x563 PUSH1 0xFD SLOAD DUP2 JUMP JUMPDEST CALLVALUE DUP1 ISZERO PUSH2 0xD9C JUMPI PUSH1 0x0 DUP1 REVERT JUMPDEST POP PUSH2 0x5B8 PUSH2 0xDAB CALLDATASIZE PUSH1 0x4 PUSH2 0x3BBC JUMP JUMPDEST PUSH2 0x101 PUSH1 0x20 MSTORE PUSH1 0x0 SWAP1 DUP2 MSTORE PUSH1 0x40 SWAP1 KECCAK256 SLOAD PUSH1 0xFF AND DUP2 JUMP JUMPDEST CALLVALUE DUP1 ISZERO PUSH2 0xDCD JUMPI PUSH1 0x0 DUP1 REVERT JUMPDEST POP PUSH2 0x563 PUSH2 0x102 SLOAD DUP2 JUMP JUMPDEST CALLVALUE DUP1 ISZERO PUSH2 0xDE4 JUMPI PUSH1 0x0 DUP1 REVERT JUMPDEST POP PUSH2 0x108 SLOAD PUSH2 0x758 SWAP1 PUSH1 0x1 PUSH1 0x1 PUSH1 0xA0 SHL SUB AND DUP2 JUMP JUMPDEST CALLVALUE DUP1 ISZERO PUSH2 0xE05 JUMPI PUSH1 0x0 DUP1 REVERT JUMPDEST POP PUSH2 0x758 PUSH2 0xE14 CALLDATASIZE PUSH1 0x4 PUSH2 0x3C55 JUMP JUMPDEST PUSH2 0x280D JUMP JUMPDEST CALLVALUE DUP1 ISZERO PUSH2 0xE25 JUMPI PUSH1 0x0 DUP1 REVERT JUMPDEST POP PUSH2 0x563 PUSH2 0xE34 CALLDATASIZE PUSH1 0x4 PUSH2 0x3C99 JUMP JUMPDEST PUSH1 0x1 PUSH1 0x1 PUSH1 0xA0 SHL SUB SWAP2 DUP3 AND PUSH1 0x0 SWAP1 DUP2 MSTORE PUSH1 0x34 PUSH1 0x20 SWAP1 DUP2 MSTORE PUSH1 0x40 DUP1 DUP4 KECCAK256 SWAP4 SWAP1 SWAP5 AND DUP3 MSTORE SWAP2 SWAP1 SWAP2 MSTORE KECCAK256 SLOAD SWAP1 JUMP JUMPDEST CALLVALUE DUP1 ISZERO PUSH2 0xE6B JUMPI PUSH1 0x0 DUP1 REVERT JUMPDEST POP PUSH2 0x62F PUSH2 0xE7A CALLDATASIZE PUSH1 0x4 PUSH2 0x3BBC JUMP JUMPDEST PUSH2 0x2838 JUMP JUMPDEST CALLVALUE DUP1 ISZERO PUSH2 0xE8B JUMPI PUSH1 0x0 DUP1 REVERT JUMPDEST POP PUSH2 0x62F PUSH2 0xE9A CALLDATASIZE PUSH1 0x4 PUSH2 0x3BBC JUMP JUMPDEST PUSH2 0x2862 JUMP JUMPDEST CALLVALUE DUP1 ISZERO PUSH2 0xEAB JUMPI PUSH1 0x0 DUP1 REVERT JUMPDEST POP PUSH2 0x62F PUSH2 0xEBA CALLDATASIZE PUSH1 0x4 PUSH2 0x3C7C JUMP JUMPDEST PUSH2 0x288F JUMP JUMPDEST CALLVALUE DUP1 ISZERO PUSH2 0xECB JUMPI PUSH1 0x0 DUP1 REVERT JUMPDEST POP PUSH2 0x62F PUSH2 0xEDA CALLDATASIZE PUSH1 0x4 PUSH2 0x3BBC JUMP JUMPDEST PUSH2 0x28AB JUMP JUMPDEST CALLVALUE DUP1 ISZERO PUSH2 0xEEB JUMPI PUSH1 0x0 DUP1 REVERT JUMPDEST POP PUSH2 0xF3A PUSH2 0xEFA CALLDATASIZE PUSH1 0x4 PUSH2 0x3BBC JUMP JUMPDEST PUSH2 0x113 PUSH1 0x20 MSTORE PUSH1 0x0 SWAP1 DUP2 MSTORE PUSH1 0x40 SWAP1 KECCAK256 DUP1 SLOAD PUSH1 0x1 DUP3 ADD SLOAD PUSH1 0x2 DUP4 ADD SLOAD PUSH1 0x3 DUP5 ADD SLOAD PUSH1 0x4 DUP6 ADD SLOAD PUSH1 0x5 SWAP1 SWAP6 ADD SLOAD SWAP4 SWAP5 PUSH1 0x1 PUSH1 0x1 PUSH1 0xA0 SHL SUB SWAP1 SWAP4 AND SWAP4 SWAP2 SWAP3 SWAP1 SWAP2 DUP7 JUMP JUMPDEST PUSH1 0x40 DUP1 MLOAD SWAP7 DUP8 MSTORE PUSH1 0x1 PUSH1 0x1 PUSH1 0xA0 SHL SUB SWAP1 SWAP6 AND PUSH1 0x20 DUP8 ADD MSTORE SWAP4 DUP6 ADD SWAP3 SWAP1 SWAP3 MSTORE PUSH1 0x60 DUP5 ADD MSTORE PUSH1 0x80 DUP4 ADD MSTORE PUSH1 0xA0 DUP3 ADD MSTORE PUSH1 0xC0 ADD PUSH2 0x56D JUMP JUMPDEST CALLVALUE DUP1 ISZERO PUSH2 0xF7B JUMPI PUSH1 0x0 DUP1 REVERT JUMPDEST POP PUSH2 0x114 SLOAD PUSH2 0x758 SWAP1 PUSH1 0x1 PUSH1 0x1 PUSH1 0xA0 SHL SUB AND DUP2 JUMP JUMPDEST CALLVALUE DUP1 ISZERO PUSH2 0xF9C JUMPI PUSH1 0x0 DUP1 REVERT JUMPDEST POP PUSH2 0x62F PUSH2 0xFAB CALLDATASIZE PUSH1 0x4 PUSH2 0x3E12 JUMP JUMPDEST PUSH2 0x2921 JUMP JUMPDEST PUSH1 0x60 PUSH1 0x36 DUP1 SLOAD PUSH2 0xFBF SWAP1 PUSH2 0x3ECF JUMP JUMPDEST DUP1 PUSH1 0x1F ADD PUSH1 0x20 DUP1 SWAP2 DIV MUL PUSH1 0x20 ADD PUSH1 0x40 MLOAD SWAP1 DUP2 ADD PUSH1 0x40 MSTORE DUP1 SWAP3 SWAP2 SWAP1 DUP2 DUP2 MSTORE PUSH1 0x20 ADD DUP3 DUP1 SLOAD PUSH2 0xFEB SWAP1 PUSH2 0x3ECF JUMP JUMPDEST DUP1 ISZERO PUSH2 0x1038 JUMPI DUP1 PUSH1 0x1F LT PUSH2 0x100D JUMPI PUSH2 0x100 DUP1 DUP4 SLOAD DIV MUL DUP4 MSTORE SWAP2 PUSH1 0x20 ADD SWAP2 PUSH2 0x1038 JUMP JUMPDEST DUP3 ADD SWAP2 SWAP1 PUSH1 0x0 MSTORE PUSH1 0x20 PUSH1 0x0 KECCAK256 SWAP1 JUMPDEST DUP2 SLOAD DUP2 MSTORE SWAP1 PUSH1 0x1 ADD SWAP1 PUSH1 0x20 ADD DUP1 DUP4 GT PUSH2 0x101B JUMPI DUP3 SWAP1 SUB PUSH1 0x1F AND DUP3 ADD SWAP2 JUMPDEST POP POP POP POP POP SWAP1 POP SWAP1 JUMP JUMPDEST PUSH1 0x0 CALLER PUSH2 0x1050 DUP2 DUP6 DUP6 PUSH2 0x2C0C JUMP JUMPDEST PUSH1 0x1 SWAP2 POP POP JUMPDEST SWAP3 SWAP2 POP POP JUMP JUMPDEST PUSH2 0x1064 PUSH2 0x2D64 JUMP JUMPDEST PUSH1 0x1 PUSH1 0x1 PUSH1 0xA0 SHL SUB DUP3 AND PUSH2 0x10CB JUMPI PUSH1 0x40 MLOAD PUSH3 0x461BCD PUSH1 0xE5 SHL DUP2 MSTORE PUSH1 0x20 PUSH1 0x4 DUP3 ADD MSTORE PUSH1 0x23 PUSH1 0x24 DUP3 ADD MSTORE PUSH32 0x4D696E74206163636F756E742063616E6E6F74206265207A65726F2061646472 PUSH1 0x44 DUP3 ADD MSTORE PUSH3 0x657373 PUSH1 0xE8 SHL PUSH1 0x64 DUP3 ADD MSTORE PUSH1 0x84 ADD JUMPDEST PUSH1 0x40 MLOAD DUP1 SWAP2 SUB SWAP1 REVERT JUMPDEST PUSH2 0x109 DUP1 SLOAD PUSH1 0x1 PUSH1 0x1 PUSH1 0xA0 SHL SUB NOT AND PUSH1 0x1 PUSH1 0x1 PUSH1 0xA0 SHL SUB SWAP4 SWAP1 SWAP4 AND SWAP3 SWAP1 SWAP3 OR SWAP1 SWAP2 SSTORE PUSH2 0x10A SSTORE JUMP JUMPDEST PUSH2 0x10FB PUSH2 0x2D64 JUMP JUMPDEST PUSH1 0x1 PUSH1 0x1 PUSH1 0xA0 SHL SUB DUP2 AND PUSH2 0x1151 JUMPI PUSH1 0x40 MLOAD PUSH3 0x461BCD PUSH1 0xE5 SHL DUP2 MSTORE PUSH1 0x20 PUSH1 0x4 DUP3 ADD DUP2 SWAP1 MSTORE PUSH1 0x24 DUP3 ADD MSTORE PUSH32 0x4E6577206F776E65722063616E6E6F74206265207A65726F2061646472657373 PUSH1 0x44 DUP3 ADD MSTORE PUSH1 0x64 ADD PUSH2 0x10C2 JUMP JUMPDEST PUSH2 0x108 DUP1 SLOAD PUSH1 0x1 PUSH1 0x1 PUSH1 0xA0 SHL SUB NOT AND PUSH1 0x1 PUSH1 0x1 PUSH1 0xA0 SHL SUB DUP4 AND SWAP1 DUP2 OR SWAP1 SWAP2 SSTORE PUSH1 0x40 MLOAD PUSH32 0xF0C6916D81CD1F899264B5193E3BBE7AFD2BCC3D05704BAB73D0B8AC93871158 SWAP1 PUSH1 0x0 SWAP1 LOG2 POP JUMP JUMPDEST PUSH2 0x11A4 PUSH2 0x2D64 JUMP JUMPDEST PUSH2 0x108 DUP1 SLOAD PUSH1 0x1 PUSH1 0x1 PUSH1 0xA0 SHL SUB NOT AND SWAP1 SSTORE PUSH1 0x0 JUMPDEST PUSH2 0x10B SLOAD DUP2 LT ISZERO PUSH2 0x1224 JUMPI PUSH1 0x0 PUSH2 0x10C PUSH1 0x0 PUSH2 0x10B DUP5 DUP2 SLOAD DUP2 LT PUSH2 0x11DE JUMPI PUSH2 0x11DE PUSH2 0x3F09 JUMP JUMPDEST PUSH1 0x0 SWAP2 DUP3 MSTORE PUSH1 0x20 DUP1 DUP4 KECCAK256 SWAP2 SWAP1 SWAP2 ADD SLOAD PUSH1 0x1 PUSH1 0x1 PUSH1 0xA0 SHL SUB AND DUP4 MSTORE DUP3 ADD SWAP3 SWAP1 SWAP3 MSTORE PUSH1 0x40 ADD SWAP1 KECCAK256 DUP1 SLOAD PUSH1 0xFF NOT AND SWAP2 ISZERO ISZERO SWAP2 SWAP1 SWAP2 OR SWAP1 SSTORE DUP1 PUSH2 0x121C DUP2 PUSH2 0x3F35 JUMP JUMPDEST SWAP2 POP POP PUSH2 0x11B8 JUMP JUMPDEST POP JUMP JUMPDEST PUSH1 0x1 PUSH1 0x1 PUSH1 0xA0 SHL SUB DUP4 AND PUSH1 0x0 SWAP1 DUP2 MSTORE PUSH2 0x110 PUSH1 0x20 MSTORE PUSH1 0x40 DUP2 KECCAK256 SLOAD DUP5 SWAP1 ISZERO DUP1 PUSH2 0x1267 JUMPI POP PUSH1 0x1 PUSH1 0x1 PUSH1 0xA0 SHL SUB DUP2 AND PUSH1 0x0 SWAP1 DUP2 MSTORE PUSH2 0x110 PUSH1 0x20 MSTORE PUSH1 0x40 SWAP1 KECCAK256 SLOAD TIMESTAMP GT JUMPDEST PUSH2 0x12B3 JUMPI PUSH1 0x40 MLOAD PUSH3 0x461BCD PUSH1 0xE5 SHL DUP2 MSTORE PUSH1 0x20 PUSH1 0x4 DUP3 ADD MSTORE PUSH1 0x10 PUSH1 0x24 DUP3 ADD MSTORE PUSH32 0x57616C6C65742069732066726F7A656E00000000000000000000000000000000 PUSH1 0x44 DUP3 ADD MSTORE PUSH1 0x64 ADD PUSH2 0x10C2 JUMP JUMPDEST CALLER PUSH1 0x0 DUP2 DUP2 MSTORE PUSH2 0x111 PUSH1 0x20 MSTORE PUSH1 0x40 SWAP1 KECCAK256 SLOAD DUP5 SWAP1 PUSH1 0xFF AND PUSH2 0x1371 JUMPI PUSH1 0xFC SLOAD DUP2 LT ISZERO PUSH2 0x131F JUMPI PUSH1 0x40 MLOAD PUSH3 0x461BCD PUSH1 0xE5 SHL DUP2 MSTORE PUSH1 0x20 PUSH1 0x4 DUP3 ADD MSTORE PUSH1 0x14 PUSH1 0x24 DUP3 ADD MSTORE PUSH32 0x416D6F756E742062656C6F77206D696E696D756D000000000000000000000000 PUSH1 0x44 DUP3 ADD MSTORE PUSH1 0x64 ADD PUSH2 0x10C2 JUMP JUMPDEST PUSH1 0xFD SLOAD DUP2 GT ISZERO PUSH2 0x1371 JUMPI PUSH1 0x40 MLOAD PUSH3 0x461BCD PUSH1 0xE5 SHL DUP2 MSTORE PUSH1 0x20 PUSH1 0x4 DUP3 ADD MSTORE PUSH1 0x16 PUSH1 0x24 DUP3 ADD MSTORE PUSH32 0x416D6F756E742065786365656473206D6178696D756D00000000000000000000 PUSH1 0x44 DUP3 ADD MSTORE PUSH1 0x64 ADD PUSH2 0x10C2 JUMP JUMPDEST PUSH1 0x1 PUSH1 0x1 PUSH1 0xA0 SHL SUB DUP8 AND PUSH1 0x0 SWAP1 DUP2 MSTORE PUSH2 0x10E PUSH1 0x20 MSTORE PUSH1 0x40 SWAP1 KECCAK256 SLOAD PUSH1 0xFF AND ISZERO PUSH2 0x13DB JUMPI PUSH1 0x40 MLOAD PUSH3 0x461BCD PUSH1 0xE5 SHL DUP2 MSTORE PUSH1 0x20 PUSH1 0x4 DUP3 ADD MSTORE PUSH1 0x1E PUSH1 0x24 DUP3 ADD MSTORE PUSH32 0x53656E64657227732077616C6C657420697320626C61636B6C69737465640000 PUSH1 0x44 DUP3 ADD MSTORE PUSH1 0x64 ADD PUSH2 0x10C2 JUMP JUMPDEST CALLER PUSH1 0x0 SWAP1 DUP2 MSTORE PUSH2 0x10F PUSH1 0x20 MSTORE PUSH1 0x40 SWAP1 KECCAK256 SLOAD TIMESTAMP LT ISZERO PUSH2 0x143B JUMPI PUSH1 0x40 MLOAD PUSH3 0x461BCD PUSH1 0xE5 SHL DUP2 MSTORE PUSH1 0x20 PUSH1 0x4 DUP3 ADD MSTORE PUSH1 0x18 PUSH1 0x24 DUP3 ADD MSTORE PUSH32 0x5472616E73666572206E6F7420616C6C6F776564207965740000000000000000 PUSH1 0x44 DUP3 ADD MSTORE PUSH1 0x64 ADD PUSH2 0x10C2 JUMP JUMPDEST PUSH1 0xFE SLOAD PUSH2 0x1448 SWAP1 TIMESTAMP PUSH2 0x3F4E JUMP JUMPDEST CALLER PUSH1 0x0 DUP2 DUP2 MSTORE PUSH2 0x10F PUSH1 0x20 MSTORE PUSH1 0x40 SWAP1 KECCAK256 SWAP2 SWAP1 SWAP2 SSTORE PUSH2 0x1467 DUP9 DUP3 DUP9 PUSH2 0x2DBE JUMP JUMPDEST PUSH2 0x1472 DUP9 DUP9 DUP9 PUSH2 0x2E50 JUMP JUMPDEST POP PUSH1 0x1 SWAP8 SWAP7 POP POP POP POP POP POP POP JUMP JUMPDEST PUSH2 0x1488 PUSH2 0x2D64 JUMP JUMPDEST PUSH1 0x1 PUSH1 0x1 PUSH1 0xA0 SHL SUB DUP5 AND PUSH2 0x1504 JUMPI PUSH1 0x40 MLOAD PUSH3 0x461BCD PUSH1 0xE5 SHL DUP2 MSTORE PUSH1 0x20 PUSH1 0x4 DUP3 ADD MSTORE PUSH1 0x22 PUSH1 0x24 DUP3 ADD MSTORE PUSH32 0x42656E656669636961727920616464726573732063616E6E6F74206265207A65 PUSH1 0x44 DUP3 ADD MSTORE PUSH32 0x726F000000000000000000000000000000000000000000000000000000000000 PUSH1 0x64 DUP3 ADD MSTORE PUSH1 0x84 ADD PUSH2 0x10C2 JUMP JUMPDEST PUSH1 0x0 DUP3 GT DUP1 ISZERO PUSH2 0x1516 JUMPI POP PUSH2 0x2710 DUP3 GT ISZERO JUMPDEST PUSH2 0x1587 JUMPI PUSH1 0x40 MLOAD PUSH3 0x461BCD PUSH1 0xE5 SHL DUP2 MSTORE PUSH1 0x20 PUSH1 0x4 DUP3 ADD MSTORE PUSH1 0x24 DUP1 DUP3 ADD MSTORE PUSH32 0x50657263656E74616765206D757374206265206265747765656E203120616E64 PUSH1 0x44 DUP3 ADD MSTORE PUSH32 0x2031303000000000000000000000000000000000000000000000000000000000 PUSH1 0x64 DUP3 ADD MSTORE PUSH1 0x84 ADD PUSH2 0x10C2 JUMP JUMPDEST PUSH1 0x0 DUP2 GT PUSH2 0x15FD JUMPI PUSH1 0x40 MLOAD PUSH3 0x461BCD PUSH1 0xE5 SHL DUP2 MSTORE PUSH1 0x20 PUSH1 0x4 DUP3 ADD MSTORE PUSH1 0x27 PUSH1 0x24 DUP3 ADD MSTORE PUSH32 0x54696D6520696E74657276616C206D7573742062652067726561746572207468 PUSH1 0x44 DUP3 ADD MSTORE PUSH32 0x616E207A65726F00000000000000000000000000000000000000000000000000 PUSH1 0x64 DUP3 ADD MSTORE PUSH1 0x84 ADD PUSH2 0x10C2 JUMP JUMPDEST PUSH1 0x1 PUSH1 0x1 PUSH1 0xA0 SHL SUB SWAP1 SWAP4 AND PUSH1 0x0 DUP2 DUP2 MSTORE PUSH2 0x113 PUSH1 0x20 MSTORE PUSH1 0x40 DUP2 KECCAK256 SWAP4 DUP5 SSTORE PUSH1 0x1 DUP5 ADD DUP1 SLOAD PUSH1 0x1 PUSH1 0x1 PUSH1 0xA0 SHL SUB NOT AND SWAP1 SWAP3 OR SWAP1 SWAP2 SSTORE PUSH1 0x2 DUP4 ADD SWAP2 SWAP1 SWAP2 SSTORE PUSH1 0x3 DUP3 ADD SWAP3 SWAP1 SWAP3 SSTORE TIMESTAMP PUSH1 0x4 DUP3 ADD SSTORE PUSH1 0x5 ADD SSTORE JUMP JUMPDEST PUSH2 0x1654 PUSH2 0x2D64 JUMP JUMPDEST PUSH1 0x1 PUSH1 0x1 PUSH1 0xA0 SHL SUB DUP2 AND PUSH2 0x16AA JUMPI PUSH1 0x40 MLOAD PUSH3 0x461BCD PUSH1 0xE5 SHL DUP2 MSTORE PUSH1 0x20 PUSH1 0x4 DUP3 ADD MSTORE PUSH1 0xF PUSH1 0x24 DUP3 ADD MSTORE PUSH32 0x496E76616C696420616464726573730000000000000000000000000000000000 PUSH1 0x44 DUP3 ADD MSTORE PUSH1 0x64 ADD PUSH2 0x10C2 JUMP JUMPDEST PUSH1 0x40 MLOAD PUSH1 0x1 PUSH1 0x1 PUSH1 0xA0 SHL SUB DUP3 AND SWAP1 SELFBALANCE DUP1 ISZERO PUSH2 0x8FC MUL SWAP2 PUSH1 0x0 DUP2 DUP2 DUP2 DUP6 DUP9 DUP9 CALL SWAP4 POP POP POP POP ISZERO DUP1 ISZERO PUSH2 0x16DF JUMPI RETURNDATASIZE PUSH1 0x0 DUP1 RETURNDATACOPY RETURNDATASIZE PUSH1 0x0 REVERT JUMPDEST POP POP JUMP JUMPDEST PUSH2 0x100 SLOAD PUSH1 0xFF AND ISZERO PUSH2 0x1737 JUMPI PUSH1 0x40 MLOAD PUSH3 0x461BCD PUSH1 0xE5 SHL DUP2 MSTORE PUSH1 0x20 PUSH1 0x4 DUP3 ADD MSTORE PUSH1 0x13 PUSH1 0x24 DUP3 ADD MSTORE PUSH32 0x4C6971756964697479206973206C6F636B656400000000000000000000000000 PUSH1 0x44 DUP3 ADD MSTORE PUSH1 0x64 ADD PUSH2 0x10C2 JUMP JUMPDEST ADDRESS PUSH1 0x0 SWAP1 DUP2 MSTORE PUSH1 0x33 PUSH1 0x20 MSTORE PUSH1 0x40 SWAP1 KECCAK256 SLOAD DUP2 GT ISZERO PUSH2 0x1796 JUMPI PUSH1 0x40 MLOAD PUSH3 0x461BCD PUSH1 0xE5 SHL DUP2 MSTORE PUSH1 0x20 PUSH1 0x4 DUP3 ADD MSTORE PUSH1 0x14 PUSH1 0x24 DUP3 ADD MSTORE PUSH32 0x496E73756666696369656E742062616C616E6365000000000000000000000000 PUSH1 0x44 DUP3 ADD MSTORE PUSH1 0x64 ADD PUSH2 0x10C2 JUMP JUMPDEST PUSH2 0x17A0 ADDRESS DUP3 PUSH2 0x23B8 JUMP JUMPDEST POP PUSH1 0xFF SLOAD PUSH2 0x17AE SWAP1 DUP3 PUSH2 0x31D8 JUMP JUMPDEST PUSH1 0xFF SSTORE POP PUSH2 0x100 DUP1 SLOAD PUSH1 0xFF NOT AND PUSH1 0x1 OR SWAP1 SSTORE JUMP JUMPDEST PUSH2 0x17CA PUSH2 0x2D64 JUMP JUMPDEST PUSH1 0xFE SSTORE JUMP JUMPDEST CALLER PUSH1 0x0 DUP2 DUP2 MSTORE PUSH1 0x34 PUSH1 0x20 SWAP1 DUP2 MSTORE PUSH1 0x40 DUP1 DUP4 KECCAK256 PUSH1 0x1 PUSH1 0x1 PUSH1 0xA0 SHL SUB DUP8 AND DUP5 MSTORE SWAP1 SWAP2 MSTORE DUP2 KECCAK256 SLOAD SWAP1 SWAP2 SWAP1 PUSH2 0x1050 SWAP1 DUP3 SWAP1 DUP7 SWAP1 PUSH2 0x1809 SWAP1 DUP8 SWAP1 PUSH2 0x3F4E JUMP JUMPDEST PUSH2 0x2C0C JUMP JUMPDEST PUSH2 0x1816 PUSH2 0x2D64 JUMP JUMPDEST PUSH2 0x181E PUSH2 0x31EB JUMP JUMPDEST JUMP JUMPDEST PUSH2 0x1224 CALLER DUP3 PUSH2 0x323D JUMP JUMPDEST PUSH2 0x1832 PUSH2 0x2D64 JUMP JUMPDEST PUSH1 0x1 PUSH1 0x1 PUSH1 0xA0 SHL SUB DUP2 AND PUSH1 0x0 SWAP1 DUP2 MSTORE PUSH2 0x10E PUSH1 0x20 MSTORE PUSH1 0x40 SWAP1 KECCAK256 SLOAD PUSH1 0xFF AND ISZERO PUSH2 0x189C JUMPI PUSH1 0x40 MLOAD PUSH3 0x461BCD PUSH1 0xE5 SHL DUP2 MSTORE PUSH1 0x20 PUSH1 0x4 DUP3 ADD MSTORE PUSH1 0x18 PUSH1 0x24 DUP3 ADD MSTORE PUSH32 0x7573657220616C726561647920626C61636B6C69737465640000000000000000 PUSH1 0x44 DUP3 ADD MSTORE PUSH1 0x64 ADD PUSH2 0x10C2 JUMP JUMPDEST PUSH1 0x1 PUSH1 0x1 PUSH1 0xA0 SHL SUB AND PUSH1 0x0 SWAP1 DUP2 MSTORE PUSH2 0x10E PUSH1 0x20 MSTORE PUSH1 0x40 SWAP1 KECCAK256 DUP1 SLOAD PUSH1 0xFF NOT AND PUSH1 0x1 OR SWAP1 SSTORE JUMP JUMPDEST CALLER PUSH1 0x0 SWAP1 DUP2 MSTORE PUSH2 0x113 PUSH1 0x20 MSTORE PUSH1 0x40 SWAP1 KECCAK256 DUP1 SLOAD PUSH2 0x1945 JUMPI PUSH1 0x40 MLOAD PUSH3 0x461BCD PUSH1 0xE5 SHL DUP2 MSTORE PUSH1 0x20 PUSH1 0x4 DUP3 ADD MSTORE PUSH1 0x28 PUSH1 0x24 DUP3 ADD MSTORE PUSH32 0x4E6F2076657374696E67207363686564756C6520666F756E6420666F72207468 PUSH1 0x44 DUP3 ADD MSTORE PUSH32 0x652073656E646572000000000000000000000000000000000000000000000000 PUSH1 0x64 DUP3 ADD MSTORE PUSH1 0x84 ADD PUSH2 0x10C2 JUMP JUMPDEST PUSH1 0x4 DUP2 ADD SLOAD TIMESTAMP SWAP1 PUSH1 0x0 SWAP1 PUSH2 0x1959 SWAP1 DUP4 PUSH2 0x3F61 JUMP JUMPDEST DUP4 SLOAD PUSH1 0x3 DUP6 ADD SLOAD SWAP2 SWAP3 POP SWAP1 DUP3 LT ISZERO PUSH2 0x19B3 JUMPI PUSH1 0x40 MLOAD PUSH3 0x461BCD PUSH1 0xE5 SHL DUP2 MSTORE PUSH1 0x20 PUSH1 0x4 DUP3 ADD MSTORE PUSH1 0x1C PUSH1 0x24 DUP3 ADD MSTORE PUSH32 0x546F6B656E732063616E6E6F7420626520636C61696D65642079657400000000 PUSH1 0x44 DUP3 ADD MSTORE PUSH1 0x64 ADD PUSH2 0x10C2 JUMP JUMPDEST PUSH1 0x0 PUSH2 0x2710 DUP6 PUSH1 0x2 ADD SLOAD DUP4 PUSH2 0x19C8 SWAP2 SWAP1 PUSH2 0x3F74 JUMP JUMPDEST PUSH2 0x19D2 SWAP2 SWAP1 PUSH2 0x3F8B JUMP JUMPDEST SWAP1 POP DUP1 DUP6 PUSH1 0x5 ADD PUSH1 0x0 DUP3 DUP3 SLOAD PUSH2 0x19E8 SWAP2 SWAP1 PUSH2 0x3F4E JUMP JUMPDEST SWAP1 SWAP2 SSTORE POP POP PUSH1 0x4 DUP6 ADD DUP5 SWAP1 SSTORE DUP2 DUP2 GT ISZERO PUSH2 0x1A6A JUMPI PUSH1 0x40 MLOAD PUSH3 0x461BCD PUSH1 0xE5 SHL DUP2 MSTORE PUSH1 0x20 PUSH1 0x4 DUP3 ADD MSTORE PUSH1 0x2A PUSH1 0x24 DUP3 ADD MSTORE PUSH32 0x546F6B656E7320746F20636C61696D2065786365656420746F74616C20766573 PUSH1 0x44 DUP3 ADD MSTORE PUSH32 0x74656420746F6B656E7300000000000000000000000000000000000000000000 PUSH1 0x64 DUP3 ADD MSTORE PUSH1 0x84 ADD PUSH2 0x10C2 JUMP JUMPDEST DUP5 SLOAD PUSH1 0x5 DUP7 ADD SLOAD GT ISZERO PUSH2 0x1AE5 JUMPI PUSH1 0x40 MLOAD PUSH3 0x461BCD PUSH1 0xE5 SHL DUP2 MSTORE PUSH1 0x20 PUSH1 0x4 DUP3 ADD MSTORE PUSH1 0x29 PUSH1 0x24 DUP3 ADD MSTORE PUSH32 0x4E6F7420656E6F75676820746F6B656E7320696E207468652076657374696E67 PUSH1 0x44 DUP3 ADD MSTORE PUSH32 0x207363686564756C650000000000000000000000000000000000000000000000 PUSH1 0x64 DUP3 ADD MSTORE PUSH1 0x84 ADD PUSH2 0x10C2 JUMP JUMPDEST PUSH1 0xFB SLOAD PUSH2 0x1AFC SWAP1 PUSH1 0x1 PUSH1 0x1 PUSH1 0xA0 SHL SUB AND CALLER DUP4 PUSH2 0x2E50 JUMP JUMPDEST POP POP POP POP POP JUMP JUMPDEST PUSH2 0x1B0B PUSH2 0x2D64 JUMP JUMPDEST PUSH1 0x1 PUSH1 0x1 PUSH1 0xA0 SHL SUB DUP2 AND PUSH1 0x0 SWAP1 DUP2 MSTORE PUSH2 0x10E PUSH1 0x20 MSTORE PUSH1 0x40 SWAP1 KECCAK256 SLOAD PUSH1 0xFF AND PUSH2 0x1B74 JUMPI PUSH1 0x40 MLOAD PUSH3 0x461BCD PUSH1 0xE5 SHL DUP2 MSTORE PUSH1 0x20 PUSH1 0x4 DUP3 ADD MSTORE PUSH1 0x18 PUSH1 0x24 DUP3 ADD MSTORE PUSH32 0x7573657220616C726561647920626C61636B6C69737465640000000000000000 PUSH1 0x44 DUP3 ADD MSTORE PUSH1 0x64 ADD PUSH2 0x10C2 JUMP JUMPDEST PUSH1 0x1 PUSH1 0x1 PUSH1 0xA0 SHL SUB AND PUSH1 0x0 SWAP1 DUP2 MSTORE PUSH2 0x10E PUSH1 0x20 MSTORE PUSH1 0x40 SWAP1 KECCAK256 DUP1 SLOAD PUSH1 0xFF NOT AND SWAP1 SSTORE JUMP JUMPDEST PUSH2 0x1B9E PUSH2 0x2D64 JUMP JUMPDEST PUSH2 0x107 DUP1 SLOAD PUSH1 0x1 PUSH1 0x1 PUSH1 0xA0 SHL SUB SWAP1 SWAP3 AND PUSH2 0x100 MUL PUSH32 0xFFFFFFFFFFFFFFFFFFFFFF0000000000000000000000000000000000000000FF SWAP1 SWAP3 AND SWAP2 SWAP1 SWAP2 OR SWAP1 SSTORE JUMP JUMPDEST PUSH2 0x1BE6 PUSH2 0x2D64 JUMP JUMPDEST PUSH1 0x1 PUSH1 0x1 PUSH1 0xA0 SHL SUB AND PUSH1 0x0 SWAP1 DUP2 MSTORE PUSH2 0x110 PUSH1 0x20 MSTORE PUSH1 0x40 DUP2 KECCAK256 SSTORE JUMP JUMPDEST PUSH2 0x1C09 PUSH2 0x2D64 JUMP JUMPDEST PUSH2 0x181E PUSH1 0x0 PUSH2 0x33A8 JUMP JUMPDEST PUSH2 0x1C1B PUSH2 0x2D64 JUMP JUMPDEST PUSH1 0x1 PUSH1 0x1 PUSH1 0xA0 SHL SUB AND PUSH1 0x0 SWAP1 DUP2 MSTORE PUSH2 0x101 PUSH1 0x20 MSTORE PUSH1 0x40 SWAP1 KECCAK256 DUP1 SLOAD PUSH1 0xFF NOT AND PUSH1 0x1 OR SWAP1 SSTORE JUMP JUMPDEST PUSH2 0x1C48 PUSH2 0x2D64 JUMP JUMPDEST PUSH2 0x16DF DUP3 DUP3 PUSH2 0x323D JUMP JUMPDEST PUSH2 0x1C5B CALLER PUSH2 0x33FA JUMP JUMPDEST PUSH2 0x1CA7 JUMPI PUSH1 0x40 MLOAD PUSH3 0x461BCD PUSH1 0xE5 SHL DUP2 MSTORE PUSH1 0x20 PUSH1 0x4 DUP3 ADD MSTORE PUSH1 0x11 PUSH1 0x24 DUP3 ADD MSTORE PUSH32 0x4E6F7420612076616C696420766F746572000000000000000000000000000000 PUSH1 0x44 DUP3 ADD MSTORE PUSH1 0x64 ADD PUSH2 0x10C2 JUMP JUMPDEST CALLER PUSH1 0x0 SWAP1 DUP2 MSTORE PUSH2 0x10C PUSH1 0x20 MSTORE PUSH1 0x40 SWAP1 KECCAK256 SLOAD PUSH1 0xFF AND ISZERO PUSH2 0x1D08 JUMPI PUSH1 0x40 MLOAD PUSH3 0x461BCD PUSH1 0xE5 SHL DUP2 MSTORE PUSH1 0x20 PUSH1 0x4 DUP3 ADD MSTORE PUSH1 0xD PUSH1 0x24 DUP3 ADD MSTORE PUSH32 0x416C726561647920766F74656400000000000000000000000000000000000000 PUSH1 0x44 DUP3 ADD MSTORE PUSH1 0x64 ADD PUSH2 0x10C2 JUMP JUMPDEST CALLER PUSH1 0x0 DUP2 DUP2 MSTORE PUSH2 0x10C PUSH1 0x20 MSTORE PUSH1 0x40 SWAP1 DUP2 SWAP1 KECCAK256 DUP1 SLOAD PUSH1 0xFF NOT AND PUSH1 0x1 OR SWAP1 SSTORE MLOAD PUSH32 0xA4861C5510BFA99706ED508D728F9C6B365FF27AF1A3012E21980952AD2D844F SWAP1 PUSH2 0x1D57 SWAP1 DUP5 ISZERO ISZERO DUP2 MSTORE PUSH1 0x20 ADD SWAP1 JUMP JUMPDEST PUSH1 0x40 MLOAD DUP1 SWAP2 SUB SWAP1 LOG2 POP JUMP JUMPDEST PUSH2 0x1D6A PUSH2 0x2D64 JUMP JUMPDEST PUSH2 0x181E PUSH2 0x3465 JUMP JUMPDEST PUSH2 0x1D7A PUSH2 0x2D64 JUMP JUMPDEST PUSH1 0x1 PUSH1 0x1 PUSH1 0xA0 SHL SUB DUP3 AND PUSH2 0x1DD0 JUMPI PUSH1 0x40 MLOAD PUSH3 0x461BCD PUSH1 0xE5 SHL DUP2 MSTORE PUSH1 0x20 PUSH1 0x4 DUP3 ADD MSTORE PUSH1 0x16 PUSH1 0x24 DUP3 ADD MSTORE PUSH32 0x496E76616C69642077616C6C6574206164647265737300000000000000000000 PUSH1 0x44 DUP3 ADD MSTORE PUSH1 0x64 ADD PUSH2 0x10C2 JUMP JUMPDEST PUSH2 0x1DDA DUP2 TIMESTAMP PUSH2 0x3F4E JUMP JUMPDEST PUSH1 0x1 PUSH1 0x1 PUSH1 0xA0 SHL SUB SWAP1 SWAP3 AND PUSH1 0x0 SWAP1 DUP2 MSTORE PUSH2 0x110 PUSH1 0x20 MSTORE PUSH1 0x40 SWAP1 KECCAK256 SWAP2 SWAP1 SWAP2 SSTORE POP JUMP JUMPDEST PUSH2 0x1E03 PUSH2 0x2D64 JUMP JUMPDEST PUSH1 0x1 PUSH1 0x1 PUSH1 0xA0 SHL SUB AND PUSH1 0x0 SWAP1 DUP2 MSTORE PUSH2 0x111 PUSH1 0x20 MSTORE PUSH1 0x40 SWAP1 KECCAK256 DUP1 SLOAD PUSH1 0xFF NOT AND SWAP1 SSTORE JUMP JUMPDEST PUSH2 0x1E2D PUSH2 0x2D64 JUMP JUMPDEST PUSH1 0xFD SSTORE JUMP JUMPDEST PUSH2 0x1E3A PUSH2 0x2D64 JUMP JUMPDEST PUSH2 0x104 SSTORE JUMP JUMPDEST PUSH1 0x60 PUSH1 0x37 DUP1 SLOAD PUSH2 0xFBF SWAP1 PUSH2 0x3ECF JUMP JUMPDEST PUSH2 0x100 SLOAD PUSH1 0xFF AND PUSH2 0x1EA2 JUMPI PUSH1 0x40 MLOAD PUSH3 0x461BCD PUSH1 0xE5 SHL DUP2 MSTORE PUSH1 0x20 PUSH1 0x4 DUP3 ADD MSTORE PUSH1 0x17 PUSH1 0x24 DUP3 ADD MSTORE PUSH32 0x4C6971756964697479206973206E6F74206C6F636B6564000000000000000000 PUSH1 0x44 DUP3 ADD MSTORE PUSH1 0x64 ADD PUSH2 0x10C2 JUMP JUMPDEST DUP1 PUSH1 0xFF SLOAD LT ISZERO PUSH2 0x1EF4 JUMPI PUSH1 0x40 MLOAD PUSH3 0x461BCD PUSH1 0xE5 SHL DUP2 MSTORE PUSH1 0x20 PUSH1 0x4 DUP3 ADD MSTORE PUSH1 0x1B PUSH1 0x24 DUP3 ADD MSTORE PUSH32 0x4E6F7420656E6F756768206C6F636B6564206C69717569646974790000000000 PUSH1 0x44 DUP3 ADD MSTORE PUSH1 0x64 ADD PUSH2 0x10C2 JUMP JUMPDEST PUSH1 0xFB SLOAD PUSH2 0x1F0A SWAP1 PUSH1 0x1 PUSH1 0x1 PUSH1 0xA0 SHL SUB AND DUP3 PUSH2 0x23B8 JUMP JUMPDEST POP PUSH1 0xFF SLOAD PUSH2 0x1F18 SWAP1 DUP3 PUSH2 0x34A2 JUMP JUMPDEST PUSH1 0xFF SSTORE POP PUSH2 0x100 DUP1 SLOAD PUSH1 0xFF NOT AND SWAP1 SSTORE JUMP JUMPDEST PUSH2 0x1F31 PUSH2 0x2D64 JUMP JUMPDEST PUSH1 0x40 MLOAD PUSH32 0x70A0823100000000000000000000000000000000000000000000000000000000 DUP2 MSTORE ADDRESS PUSH1 0x4 DUP3 ADD MSTORE PUSH1 0x1 PUSH1 0x1 PUSH1 0xA0 SHL SUB DUP3 AND SWAP1 PUSH4 0xA9059CBB SWAP1 DUP5 SWAP1 DUP4 SWAP1 PUSH4 0x70A08231 SWAP1 PUSH1 0x24 ADD PUSH1 0x20 PUSH1 0x40 MLOAD DUP1 DUP4 SUB DUP2 DUP7 GAS STATICCALL ISZERO DUP1 ISZERO PUSH2 0x1F98 JUMPI RETURNDATASIZE PUSH1 0x0 DUP1 RETURNDATACOPY RETURNDATASIZE PUSH1 0x0 REVERT JUMPDEST POP POP POP POP PUSH1 0x40 MLOAD RETURNDATASIZE PUSH1 0x1F NOT PUSH1 0x1F DUP3 ADD AND DUP3 ADD DUP1 PUSH1 0x40 MSTORE POP DUP2 ADD SWAP1 PUSH2 0x1FBC SWAP2 SWAP1 PUSH2 0x3FAD JUMP JUMPDEST PUSH1 0x40 MLOAD PUSH32 0xFFFFFFFF00000000000000000000000000000000000000000000000000000000 PUSH1 0xE0 DUP6 SWAP1 SHL AND DUP2 MSTORE PUSH1 0x1 PUSH1 0x1 PUSH1 0xA0 SHL SUB SWAP1 SWAP3 AND PUSH1 0x4 DUP4 ADD MSTORE PUSH1 0x24 DUP3 ADD MSTORE PUSH1 0x44 ADD PUSH1 0x20 PUSH1 0x40 MLOAD DUP1 DUP4 SUB DUP2 PUSH1 0x0 DUP8 GAS CALL ISZERO DUP1 ISZERO PUSH2 0x201F JUMPI RETURNDATASIZE PUSH1 0x0 DUP1 RETURNDATACOPY RETURNDATASIZE PUSH1 0x0 REVERT JUMPDEST POP POP POP POP PUSH1 0x40 MLOAD RETURNDATASIZE PUSH1 0x1F NOT PUSH1 0x1F DUP3 ADD AND DUP3 ADD DUP1 PUSH1 0x40 MSTORE POP DUP2 ADD SWAP1 PUSH2 0x2043 SWAP2 SWAP1 PUSH2 0x3FC6 JUMP JUMPDEST POP POP POP JUMP JUMPDEST PUSH2 0x2051 CALLER PUSH2 0x33FA JUMP JUMPDEST PUSH2 0x209D JUMPI PUSH1 0x40 MLOAD PUSH3 0x461BCD PUSH1 0xE5 SHL DUP2 MSTORE PUSH1 0x20 PUSH1 0x4 DUP3 ADD MSTORE PUSH1 0x11 PUSH1 0x24 DUP3 ADD MSTORE PUSH32 0x4E6F7420612076616C696420766F746572000000000000000000000000000000 PUSH1 0x44 DUP3 ADD MSTORE PUSH1 0x64 ADD PUSH2 0x10C2 JUMP JUMPDEST CALLER PUSH1 0x0 SWAP1 DUP2 MSTORE PUSH2 0x10D PUSH1 0x20 MSTORE PUSH1 0x40 SWAP1 KECCAK256 SLOAD PUSH1 0xFF AND ISZERO PUSH2 0x20FE JUMPI PUSH1 0x40 MLOAD PUSH3 0x461BCD PUSH1 0xE5 SHL DUP2 MSTORE PUSH1 0x20 PUSH1 0x4 DUP3 ADD MSTORE PUSH1 0xD PUSH1 0x24 DUP3 ADD MSTORE PUSH32 0x416C726561647920766F74656400000000000000000000000000000000000000 PUSH1 0x44 DUP3 ADD MSTORE PUSH1 0x64 ADD PUSH2 0x10C2 JUMP JUMPDEST CALLER PUSH1 0x0 DUP2 DUP2 MSTORE PUSH2 0x10D PUSH1 0x20 MSTORE PUSH1 0x40 SWAP1 DUP2 SWAP1 KECCAK256 DUP1 SLOAD PUSH1 0xFF NOT AND PUSH1 0x1 OR SWAP1 SSTORE MLOAD PUSH32 0xA4861C5510BFA99706ED508D728F9C6B365FF27AF1A3012E21980952AD2D844F SWAP1 PUSH2 0x1D57 SWAP1 DUP5 ISZERO ISZERO DUP2 MSTORE PUSH1 0x20 ADD SWAP1 JUMP JUMPDEST PUSH2 0x2155 PUSH2 0x2D64 JUMP JUMPDEST PUSH2 0x10B SLOAD PUSH1 0x0 SWAP1 DUP2 JUMPDEST DUP2 DUP2 LT ISZERO PUSH2 0x21CC JUMPI PUSH2 0x10D PUSH1 0x0 PUSH2 0x10B DUP4 DUP2 SLOAD DUP2 LT PUSH2 0x217F JUMPI PUSH2 0x217F PUSH2 0x3F09 JUMP JUMPDEST PUSH1 0x0 SWAP2 DUP3 MSTORE PUSH1 0x20 DUP1 DUP4 KECCAK256 SWAP1 SWAP2 ADD SLOAD PUSH1 0x1 PUSH1 0x1 PUSH1 0xA0 SHL SUB AND DUP4 MSTORE DUP3 ADD SWAP3 SWAP1 SWAP3 MSTORE PUSH1 0x40 ADD SWAP1 KECCAK256 SLOAD PUSH1 0xFF AND ISZERO PUSH2 0x21BA JUMPI DUP3 PUSH2 0x21B6 DUP2 PUSH2 0x3F35 JUMP JUMPDEST SWAP4 POP POP JUMPDEST DUP1 PUSH2 0x21C4 DUP2 PUSH2 0x3F35 JUMP JUMPDEST SWAP2 POP POP PUSH2 0x215E JUMP JUMPDEST POP DUP2 DUP2 EQ DUP1 PUSH2 0x221D JUMPI PUSH1 0x40 MLOAD PUSH3 0x461BCD PUSH1 0xE5 SHL DUP2 MSTORE PUSH1 0x20 PUSH1 0x4 DUP3 ADD MSTORE PUSH1 0x16 PUSH1 0x24 DUP3 ADD MSTORE PUSH32 0x496E73756666696369656E7420617070726F76616C7300000000000000000000 PUSH1 0x44 DUP3 ADD MSTORE PUSH1 0x64 ADD PUSH2 0x10C2 JUMP JUMPDEST PUSH1 0x0 PUSH2 0x2231 PUSH1 0x97 SLOAD PUSH1 0x1 PUSH1 0x1 PUSH1 0xA0 SHL SUB AND SWAP1 JUMP JUMPDEST PUSH2 0x108 SLOAD PUSH2 0x109 SLOAD PUSH2 0x10A SLOAD SWAP3 SWAP4 POP PUSH1 0x1 PUSH1 0x1 PUSH1 0xA0 SHL SUB SWAP2 DUP3 AND SWAP3 PUSH2 0x2259 SWAP3 SWAP1 SWAP2 AND SWAP1 PUSH2 0x34AE JUMP JUMPDEST PUSH2 0x109 DUP1 SLOAD PUSH1 0x1 PUSH1 0x1 PUSH1 0xA0 SHL SUB NOT AND SWAP1 SSTORE PUSH1 0x0 PUSH2 0x10A DUP2 SWAP1 SSTORE JUMPDEST DUP5 DUP2 LT ISZERO PUSH2 0x22DC JUMPI PUSH1 0x0 PUSH2 0x10D PUSH1 0x0 PUSH2 0x10B DUP5 DUP2 SLOAD DUP2 LT PUSH2 0x2296 JUMPI PUSH2 0x2296 PUSH2 0x3F09 JUMP JUMPDEST PUSH1 0x0 SWAP2 DUP3 MSTORE PUSH1 0x20 DUP1 DUP4 KECCAK256 SWAP2 SWAP1 SWAP2 ADD SLOAD PUSH1 0x1 PUSH1 0x1 PUSH1 0xA0 SHL SUB AND DUP4 MSTORE DUP3 ADD SWAP3 SWAP1 SWAP3 MSTORE PUSH1 0x40 ADD SWAP1 KECCAK256 DUP1 SLOAD PUSH1 0xFF NOT AND SWAP2 ISZERO ISZERO SWAP2 SWAP1 SWAP2 OR SWAP1 SSTORE DUP1 PUSH2 0x22D4 DUP2 PUSH2 0x3F35 JUMP JUMPDEST SWAP2 POP POP PUSH2 0x2273 JUMP JUMPDEST POP POP POP POP POP POP JUMP JUMPDEST PUSH2 0x22EC PUSH2 0x2D64 JUMP JUMPDEST PUSH2 0x100 DUP1 SLOAD PUSH2 0xFF00 NOT AND SWAP2 ISZERO ISZERO DUP2 MUL SWAP2 SWAP1 SWAP2 OR SWAP1 SSTORE JUMP JUMPDEST CALLER PUSH1 0x0 DUP2 DUP2 MSTORE PUSH1 0x34 PUSH1 0x20 SWAP1 DUP2 MSTORE PUSH1 0x40 DUP1 DUP4 KECCAK256 PUSH1 0x1 PUSH1 0x1 PUSH1 0xA0 SHL SUB DUP8 AND DUP5 MSTORE SWAP1 SWAP2 MSTORE DUP2 KECCAK256 SLOAD SWAP1 SWAP2 SWAP1 DUP4 DUP2 LT ISZERO PUSH2 0x23A0 JUMPI PUSH1 0x40 MLOAD PUSH3 0x461BCD PUSH1 0xE5 SHL DUP2 MSTORE PUSH1 0x20 PUSH1 0x4 DUP3 ADD MSTORE PUSH1 0x25 PUSH1 0x24 DUP3 ADD MSTORE PUSH32 0x45524332303A2064656372656173656420616C6C6F77616E63652062656C6F77 PUSH1 0x44 DUP3 ADD MSTORE PUSH32 0x207A65726F000000000000000000000000000000000000000000000000000000 PUSH1 0x64 DUP3 ADD MSTORE PUSH1 0x84 ADD PUSH2 0x10C2 JUMP JUMPDEST PUSH2 0x23AD DUP3 DUP7 DUP7 DUP5 SUB PUSH2 0x2C0C JUMP JUMPDEST POP PUSH1 0x1 SWAP5 SWAP4 POP POP POP POP JUMP JUMPDEST PUSH1 0x0 PUSH2 0x23C2 PUSH2 0x34C0 JUMP JUMPDEST CALLER PUSH1 0x0 DUP2 DUP2 MSTORE PUSH2 0x110 PUSH1 0x20 MSTORE PUSH1 0x40 SWAP1 KECCAK256 SLOAD ISZERO DUP1 PUSH2 0x23F7 JUMPI POP PUSH1 0x1 PUSH1 0x1 PUSH1 0xA0 SHL SUB DUP2 AND PUSH1 0x0 SWAP1 DUP2 MSTORE PUSH2 0x110 PUSH1 0x20 MSTORE PUSH1 0x40 SWAP1 KECCAK256 SLOAD TIMESTAMP GT JUMPDEST PUSH2 0x2443 JUMPI PUSH1 0x40 MLOAD PUSH3 0x461BCD PUSH1 0xE5 SHL DUP2 MSTORE PUSH1 0x20 PUSH1 0x4 DUP3 ADD MSTORE PUSH1 0x10 PUSH1 0x24 DUP3 ADD MSTORE PUSH32 0x57616C6C65742069732066726F7A656E00000000000000000000000000000000 PUSH1 0x44 DUP3 ADD MSTORE PUSH1 0x64 ADD PUSH2 0x10C2 JUMP JUMPDEST CALLER PUSH1 0x0 DUP2 DUP2 MSTORE PUSH2 0x111 PUSH1 0x20 MSTORE PUSH1 0x40 SWAP1 KECCAK256 SLOAD DUP5 SWAP1 PUSH1 0xFF AND PUSH2 0x2501 JUMPI PUSH1 0xFC SLOAD DUP2 LT ISZERO PUSH2 0x24AF JUMPI PUSH1 0x40 MLOAD PUSH3 0x461BCD PUSH1 0xE5 SHL DUP2 MSTORE PUSH1 0x20 PUSH1 0x4 DUP3 ADD MSTORE PUSH1 0x14 PUSH1 0x24 DUP3 ADD MSTORE PUSH32 0x416D6F756E742062656C6F77206D696E696D756D000000000000000000000000 PUSH1 0x44 DUP3 ADD MSTORE PUSH1 0x64 ADD PUSH2 0x10C2 JUMP JUMPDEST PUSH1 0xFD SLOAD DUP2 GT ISZERO PUSH2 0x2501 JUMPI PUSH1 0x40 MLOAD PUSH3 0x461BCD PUSH1 0xE5 SHL DUP2 MSTORE PUSH1 0x20 PUSH1 0x4 DUP3 ADD MSTORE PUSH1 0x16 PUSH1 0x24 DUP3 ADD MSTORE PUSH32 0x416D6F756E742065786365656473206D6178696D756D00000000000000000000 PUSH1 0x44 DUP3 ADD MSTORE PUSH1 0x64 ADD PUSH2 0x10C2 JUMP JUMPDEST CALLER PUSH1 0x0 SWAP1 DUP2 MSTORE PUSH2 0x10E PUSH1 0x20 MSTORE PUSH1 0x40 SWAP1 KECCAK256 SLOAD PUSH1 0xFF AND ISZERO PUSH2 0x2562 JUMPI PUSH1 0x40 MLOAD PUSH3 0x461BCD PUSH1 0xE5 SHL DUP2 MSTORE PUSH1 0x20 PUSH1 0x4 DUP3 ADD MSTORE PUSH1 0x1E PUSH1 0x24 DUP3 ADD MSTORE PUSH32 0x53656E64657227732077616C6C657420697320626C61636B6C69737465640000 PUSH1 0x44 DUP3 ADD MSTORE PUSH1 0x64 ADD PUSH2 0x10C2 JUMP JUMPDEST CALLER PUSH1 0x0 SWAP1 DUP2 MSTORE PUSH2 0x10F PUSH1 0x20 MSTORE PUSH1 0x40 SWAP1 KECCAK256 SLOAD TIMESTAMP LT ISZERO PUSH2 0x25C2 JUMPI PUSH1 0x40 MLOAD PUSH3 0x461BCD PUSH1 0xE5 SHL DUP2 MSTORE PUSH1 0x20 PUSH1 0x4 DUP3 ADD MSTORE PUSH1 0x18 PUSH1 0x24 DUP3 ADD MSTORE PUSH32 0x5472616E73666572206E6F7420616C6C6F776564207965740000000000000000 PUSH1 0x44 DUP3 ADD MSTORE PUSH1 0x64 ADD PUSH2 0x10C2 JUMP JUMPDEST PUSH1 0xFE SLOAD PUSH2 0x25CF SWAP1 TIMESTAMP PUSH2 0x3F4E JUMP JUMPDEST CALLER PUSH1 0x0 DUP2 DUP2 MSTORE PUSH2 0x10F PUSH1 0x20 MSTORE PUSH1 0x40 SWAP1 KECCAK256 SWAP2 SWAP1 SWAP2 SSTORE PUSH2 0x25EE SWAP1 DUP8 DUP8 PUSH2 0x2E50 JUMP JUMPDEST POP PUSH1 0x1 SWAP6 SWAP5 POP POP POP POP POP JUMP JUMPDEST PUSH2 0x2602 PUSH2 0x2D64 JUMP JUMPDEST PUSH2 0x10B SLOAD PUSH1 0x0 SWAP1 DUP2 JUMPDEST DUP2 DUP2 LT ISZERO PUSH2 0x2679 JUMPI PUSH2 0x10C PUSH1 0x0 PUSH2 0x10B DUP4 DUP2 SLOAD DUP2 LT PUSH2 0x262C JUMPI PUSH2 0x262C PUSH2 0x3F09 JUMP JUMPDEST PUSH1 0x0 SWAP2 DUP3 MSTORE PUSH1 0x20 DUP1 DUP4 KECCAK256 SWAP1 SWAP2 ADD SLOAD PUSH1 0x1 PUSH1 0x1 PUSH1 0xA0 SHL SUB AND DUP4 MSTORE DUP3 ADD SWAP3 SWAP1 SWAP3 MSTORE PUSH1 0x40 ADD SWAP1 KECCAK256 SLOAD PUSH1 0xFF AND ISZERO PUSH2 0x2667 JUMPI DUP3 PUSH2 0x2663 DUP2 PUSH2 0x3F35 JUMP JUMPDEST SWAP4 POP POP JUMPDEST DUP1 PUSH2 0x2671 DUP2 PUSH2 0x3F35 JUMP JUMPDEST SWAP2 POP POP PUSH2 0x260B JUMP JUMPDEST POP DUP2 DUP2 EQ DUP1 PUSH2 0x26CA JUMPI PUSH1 0x40 MLOAD PUSH3 0x461BCD PUSH1 0xE5 SHL DUP2 MSTORE PUSH1 0x20 PUSH1 0x4 DUP3 ADD MSTORE PUSH1 0x16 PUSH1 0x24 DUP3 ADD MSTORE PUSH32 0x496E73756666696369656E7420617070726F76616C7300000000000000000000 PUSH1 0x44 DUP3 ADD MSTORE PUSH1 0x64 ADD PUSH2 0x10C2 JUMP JUMPDEST PUSH1 0x0 PUSH2 0x26DE PUSH1 0x97 SLOAD PUSH1 0x1 PUSH1 0x1 PUSH1 0xA0 SHL SUB AND SWAP1 JUMP JUMPDEST PUSH2 0x108 SLOAD SWAP1 SWAP2 POP PUSH1 0x1 PUSH1 0x1 PUSH1 0xA0 SHL SUB AND PUSH2 0x26F7 DUP2 PUSH2 0x28AB JUMP JUMPDEST PUSH2 0x108 DUP1 SLOAD PUSH1 0x1 PUSH1 0x1 PUSH1 0xA0 SHL SUB NOT AND SWAP1 SSTORE PUSH1 0x0 JUMPDEST DUP5 DUP2 LT ISZERO PUSH2 0x2774 JUMPI PUSH1 0x0 PUSH2 0x10C PUSH1 0x0 PUSH2 0x10B DUP5 DUP2 SLOAD DUP2 LT PUSH2 0x272E JUMPI PUSH2 0x272E PUSH2 0x3F09 JUMP JUMPDEST PUSH1 0x0 SWAP2 DUP3 MSTORE PUSH1 0x20 DUP1 DUP4 KECCAK256 SWAP2 SWAP1 SWAP2 ADD SLOAD PUSH1 0x1 PUSH1 0x1 PUSH1 0xA0 SHL SUB AND DUP4 MSTORE DUP3 ADD SWAP3 SWAP1 SWAP3 MSTORE PUSH1 0x40 ADD SWAP1 KECCAK256 DUP1 SLOAD PUSH1 0xFF NOT AND SWAP2 ISZERO ISZERO SWAP2 SWAP1 SWAP2 OR SWAP1 SSTORE DUP1 PUSH2 0x276C DUP2 PUSH2 0x3F35 JUMP JUMPDEST SWAP2 POP POP PUSH2 0x270B JUMP JUMPDEST POP DUP1 PUSH1 0x1 PUSH1 0x1 PUSH1 0xA0 SHL SUB AND DUP3 PUSH1 0x1 PUSH1 0x1 PUSH1 0xA0 SHL SUB AND PUSH32 0x8BE0079C531659141344CD1FD0A4F28419497F9722A3DAAFE3B4186F6B6457E0 PUSH1 0x40 MLOAD PUSH1 0x40 MLOAD DUP1 SWAP2 SUB SWAP1 LOG3 POP POP POP POP POP JUMP JUMPDEST PUSH2 0x27C4 PUSH2 0x2D64 JUMP JUMPDEST PUSH1 0xFC SSTORE JUMP JUMPDEST PUSH2 0x27D1 PUSH2 0x2D64 JUMP JUMPDEST PUSH2 0x114 DUP1 SLOAD PUSH1 0x1 PUSH1 0x1 PUSH1 0xA0 SHL SUB SWAP1 SWAP3 AND PUSH1 0x1 PUSH1 0x1 PUSH1 0xA0 SHL SUB NOT SWAP1 SWAP3 AND DUP3 OR SWAP1 SSTORE PUSH1 0x0 SWAP1 DUP2 MSTORE PUSH2 0x101 PUSH1 0x20 MSTORE PUSH1 0x40 SWAP1 KECCAK256 DUP1 SLOAD PUSH1 0xFF NOT AND PUSH1 0x1 OR SWAP1 SSTORE JUMP JUMPDEST PUSH2 0x10B DUP2 DUP2 SLOAD DUP2 LT PUSH2 0x281E JUMPI PUSH1 0x0 DUP1 REVERT JUMPDEST PUSH1 0x0 SWAP2 DUP3 MSTORE PUSH1 0x20 SWAP1 SWAP2 KECCAK256 ADD SLOAD PUSH1 0x1 PUSH1 0x1 PUSH1 0xA0 SHL SUB AND SWAP1 POP DUP2 JUMP JUMPDEST PUSH2 0x2840 PUSH2 0x2D64 JUMP JUMPDEST PUSH1 0x1 PUSH1 0x1 PUSH1 0xA0 SHL SUB AND PUSH1 0x0 SWAP1 DUP2 MSTORE PUSH2 0x101 PUSH1 0x20 MSTORE PUSH1 0x40 SWAP1 KECCAK256 DUP1 SLOAD PUSH1 0xFF NOT AND SWAP1 SSTORE JUMP JUMPDEST PUSH2 0x286A PUSH2 0x2D64 JUMP JUMPDEST PUSH1 0x1 PUSH1 0x1 PUSH1 0xA0 SHL SUB AND PUSH1 0x0 SWAP1 DUP2 MSTORE PUSH2 0x111 PUSH1 0x20 MSTORE PUSH1 0x40 SWAP1 KECCAK256 DUP1 SLOAD PUSH1 0xFF NOT AND PUSH1 0x1 OR SWAP1 SSTORE JUMP JUMPDEST PUSH2 0x2897 PUSH2 0x2D64 JUMP JUMPDEST PUSH2 0x107 DUP1 SLOAD PUSH1 0xFF NOT AND SWAP2 ISZERO ISZERO SWAP2 SWAP1 SWAP2 OR SWAP1 SSTORE JUMP JUMPDEST PUSH2 0x28B3 PUSH2 0x2D64 JUMP JUMPDEST PUSH1 0x40 MLOAD PUSH3 0x461BCD PUSH1 0xE5 SHL DUP2 MSTORE PUSH1 0x20 PUSH1 0x4 DUP3 ADD MSTORE PUSH1 0x27 PUSH1 0x24 DUP3 ADD MSTORE PUSH32 0x506C656173652043616C6C2046696E616C697A65205472616E73666572204F77 PUSH1 0x44 DUP3 ADD MSTORE PUSH32 0x6E65727368697000000000000000000000000000000000000000000000000000 PUSH1 0x64 DUP3 ADD MSTORE PUSH1 0x84 ADD PUSH2 0x10C2 JUMP JUMPDEST PUSH1 0x0 SLOAD PUSH2 0x100 SWAP1 DIV PUSH1 0xFF AND ISZERO DUP1 DUP1 ISZERO PUSH2 0x2941 JUMPI POP PUSH1 0x0 SLOAD PUSH1 0x1 PUSH1 0xFF SWAP1 SWAP2 AND LT JUMPDEST DUP1 PUSH2 0x295B JUMPI POP ADDRESS EXTCODESIZE ISZERO DUP1 ISZERO PUSH2 0x295B JUMPI POP PUSH1 0x0 SLOAD PUSH1 0xFF AND PUSH1 0x1 EQ JUMPDEST PUSH2 0x29CD JUMPI PUSH1 0x40 MLOAD PUSH3 0x461BCD PUSH1 0xE5 SHL DUP2 MSTORE PUSH1 0x20 PUSH1 0x4 DUP3 ADD MSTORE PUSH1 0x2E PUSH1 0x24 DUP3 ADD MSTORE PUSH32 0x496E697469616C697A61626C653A20636F6E747261637420697320616C726561 PUSH1 0x44 DUP3 ADD MSTORE PUSH32 0x647920696E697469616C697A6564000000000000000000000000000000000000 PUSH1 0x64 DUP3 ADD MSTORE PUSH1 0x84 ADD PUSH2 0x10C2 JUMP JUMPDEST PUSH1 0x0 DUP1 SLOAD PUSH1 0xFF NOT AND PUSH1 0x1 OR SWAP1 SSTORE DUP1 ISZERO PUSH2 0x29F0 JUMPI PUSH1 0x0 DUP1 SLOAD PUSH2 0xFF00 NOT AND PUSH2 0x100 OR SWAP1 SSTORE JUMPDEST PUSH1 0xFB DUP1 SLOAD PUSH1 0x1 PUSH1 0x1 PUSH1 0xA0 SHL SUB NOT AND CALLER OR SWAP1 SSTORE PUSH2 0x2A0C DUP8 DUP8 PUSH2 0x3513 JUMP JUMPDEST PUSH2 0x2A14 PUSH2 0x3588 JUMP JUMPDEST PUSH2 0x2A1C PUSH2 0x35F3 JUMP JUMPDEST PUSH2 0x2A24 PUSH2 0x3666 JUMP JUMPDEST PUSH2 0x107 DUP1 SLOAD PUSH1 0x32 PUSH2 0x102 SSTORE PUSH2 0x1388 PUSH2 0x103 SSTORE PUSH32 0xFFFFFFFFFFFFFFFFFFFFFF000000000000000000000000000000000000000000 AND PUSH21 0x285E1D847B88056ADD3823C456EE83D37CDD60A01 OR SWAP1 SSTORE PUSH2 0x7D0 PUSH2 0x104 SSTORE PUSH2 0x12C PUSH2 0x105 SSTORE PUSH2 0x100 DUP1 SLOAD PUSH2 0xFF00 NOT AND DUP2 OR SWAP1 SSTORE PUSH1 0x0 PUSH1 0xFC SSTORE PUSH9 0x56BC75E2D63100000 PUSH1 0xFD SSTORE PUSH1 0xFB SLOAD PUSH2 0x2ACC SWAP1 PUSH1 0x1 PUSH1 0x1 PUSH1 0xA0 SHL SUB AND PUSH2 0x2ABD PUSH1 0xFF DUP9 AND PUSH1 0xA PUSH2 0x40C7 JUMP JUMPDEST PUSH2 0x2AC7 SWAP1 DUP8 PUSH2 0x3F74 JUMP JUMPDEST PUSH2 0x36D9 JUMP JUMPDEST CALLER PUSH1 0x0 SWAP1 DUP2 MSTORE PUSH2 0x10E PUSH1 0x20 SWAP1 DUP2 MSTORE PUSH1 0x40 DUP1 DUP4 KECCAK256 DUP1 SLOAD PUSH1 0xFF NOT SWAP1 DUP2 AND SWAP1 SWAP2 SSTORE PUSH2 0x111 DUP4 MSTORE DUP2 DUP5 KECCAK256 DUP1 SLOAD DUP3 AND PUSH1 0x1 SWAP1 DUP2 OR SWAP1 SWAP2 SSTORE PUSH2 0x10F DUP5 MSTORE DUP3 DUP6 KECCAK256 TIMESTAMP SWAP1 SSTORE PUSH2 0x114 DUP1 SLOAD PUSH1 0x1 PUSH1 0x1 PUSH1 0xA0 SHL SUB NOT AND PUSH1 0x1 PUSH1 0x1 PUSH1 0xA0 SHL SUB DUP11 DUP2 AND SWAP2 SWAP1 SWAP2 OR DUP3 SSTORE ADDRESS DUP8 MSTORE PUSH2 0x101 SWAP1 SWAP6 MSTORE DUP4 DUP7 KECCAK256 DUP1 SLOAD DUP5 AND DUP4 OR SWAP1 SSTORE SLOAD SWAP1 SWAP4 AND DUP5 MSTORE SWAP1 DUP4 KECCAK256 DUP1 SLOAD SWAP1 SWAP2 AND SWAP1 SWAP2 OR SWAP1 SSTORE JUMPDEST DUP3 MLOAD DUP2 LT ISZERO PUSH2 0x2BBC JUMPI PUSH2 0x10B DUP4 DUP3 DUP2 MLOAD DUP2 LT PUSH2 0x2B6F JUMPI PUSH2 0x2B6F PUSH2 0x3F09 JUMP JUMPDEST PUSH1 0x20 SWAP1 DUP2 MUL SWAP2 SWAP1 SWAP2 ADD DUP2 ADD MLOAD DUP3 SLOAD PUSH1 0x1 DUP2 ADD DUP5 SSTORE PUSH1 0x0 SWAP4 DUP5 MSTORE SWAP2 SWAP1 SWAP3 KECCAK256 ADD DUP1 SLOAD PUSH1 0x1 PUSH1 0x1 PUSH1 0xA0 SHL SUB NOT AND PUSH1 0x1 PUSH1 0x1 PUSH1 0xA0 SHL SUB SWAP1 SWAP3 AND SWAP2 SWAP1 SWAP2 OR SWAP1 SSTORE DUP1 PUSH2 0x2BB4 DUP2 PUSH2 0x3F35 JUMP JUMPDEST SWAP2 POP POP PUSH2 0x2B51 JUMP JUMPDEST POP DUP1 ISZERO PUSH2 0x2C03 JUMPI PUSH1 0x0 DUP1 SLOAD PUSH2 0xFF00 NOT AND SWAP1 SSTORE PUSH1 0x40 MLOAD PUSH1 0x1 DUP2 MSTORE PUSH32 0x7F26B83FF96E1F2B6A682F133852F6798A09C465DA95921460CEFB3847402498 SWAP1 PUSH1 0x20 ADD PUSH1 0x40 MLOAD DUP1 SWAP2 SUB SWAP1 LOG1 JUMPDEST POP POP POP POP POP POP POP JUMP JUMPDEST PUSH1 0x1 PUSH1 0x1 PUSH1 0xA0 SHL SUB DUP4 AND PUSH2 0x2C87 JUMPI PUSH1 0x40 MLOAD PUSH3 0x461BCD PUSH1 0xE5 SHL DUP2 MSTORE PUSH1 0x20 PUSH1 0x4 DUP3 ADD MSTORE PUSH1 0x24 DUP1 DUP3 ADD MSTORE PUSH32 0x45524332303A20617070726F76652066726F6D20746865207A65726F20616464 PUSH1 0x44 DUP3 ADD MSTORE PUSH32 0x7265737300000000000000000000000000000000000000000000000000000000 PUSH1 0x64 DUP3 ADD MSTORE PUSH1 0x84 ADD PUSH2 0x10C2 JUMP JUMPDEST PUSH1 0x1 PUSH1 0x1 PUSH1 0xA0 SHL SUB DUP3 AND PUSH2 0x2D03 JUMPI PUSH1 0x40 MLOAD PUSH3 0x461BCD PUSH1 0xE5 SHL DUP2 MSTORE PUSH1 0x20 PUSH1 0x4 DUP3 ADD MSTORE PUSH1 0x22 PUSH1 0x24 DUP3 ADD MSTORE PUSH32 0x45524332303A20617070726F766520746F20746865207A65726F206164647265 PUSH1 0x44 DUP3 ADD MSTORE PUSH32 0x7373000000000000000000000000000000000000000000000000000000000000 PUSH1 0x64 DUP3 ADD MSTORE PUSH1 0x84 ADD PUSH2 0x10C2 JUMP JUMPDEST PUSH1 0x1 PUSH1 0x1 PUSH1 0xA0 SHL SUB DUP4 DUP2 AND PUSH1 0x0 DUP2 DUP2 MSTORE PUSH1 0x34 PUSH1 0x20 SWAP1 DUP2 MSTORE PUSH1 0x40 DUP1 DUP4 KECCAK256 SWAP5 DUP8 AND DUP1 DUP5 MSTORE SWAP5 DUP3 MSTORE SWAP2 DUP3 SWAP1 KECCAK256 DUP6 SWAP1 SSTORE SWAP1 MLOAD DUP5 DUP2 MSTORE PUSH32 0x8C5BE1E5EBEC7D5BD14F71427D1E84F3DD0314C0F7B2291E5B200AC8C7C3B925 SWAP2 ADD PUSH1 0x40 MLOAD DUP1 SWAP2 SUB SWAP1 LOG3 POP POP POP JUMP JUMPDEST PUSH1 0x97 SLOAD PUSH1 0x1 PUSH1 0x1 PUSH1 0xA0 SHL SUB AND CALLER EQ PUSH2 0x181E JUMPI PUSH1 0x40 MLOAD PUSH3 0x461BCD PUSH1 0xE5 SHL DUP2 MSTORE PUSH1 0x20 PUSH1 0x4 DUP3 ADD DUP2 SWAP1 MSTORE PUSH1 0x24 DUP3 ADD MSTORE PUSH32 0x4F776E61626C653A2063616C6C6572206973206E6F7420746865206F776E6572 PUSH1 0x44 DUP3 ADD MSTORE PUSH1 0x64 ADD PUSH2 0x10C2 JUMP JUMPDEST PUSH1 0x1 PUSH1 0x1 PUSH1 0xA0 SHL SUB DUP4 DUP2 AND PUSH1 0x0 SWAP1 DUP2 MSTORE PUSH1 0x34 PUSH1 0x20 SWAP1 DUP2 MSTORE PUSH1 0x40 DUP1 DUP4 KECCAK256 SWAP4 DUP7 AND DUP4 MSTORE SWAP3 SWAP1 MSTORE KECCAK256 SLOAD PUSH1 0x0 NOT DUP2 EQ PUSH2 0x2E4A JUMPI DUP2 DUP2 LT ISZERO PUSH2 0x2E3D JUMPI PUSH1 0x40 MLOAD PUSH3 0x461BCD PUSH1 0xE5 SHL DUP2 MSTORE PUSH1 0x20 PUSH1 0x4 DUP3 ADD MSTORE PUSH1 0x1D PUSH1 0x24 DUP3 ADD MSTORE PUSH32 0x45524332303A20696E73756666696369656E7420616C6C6F77616E6365000000 PUSH1 0x44 DUP3 ADD MSTORE PUSH1 0x64 ADD PUSH2 0x10C2 JUMP JUMPDEST PUSH2 0x2E4A DUP5 DUP5 DUP5 DUP5 SUB PUSH2 0x2C0C JUMP JUMPDEST POP POP POP POP JUMP JUMPDEST PUSH1 0x1 PUSH1 0x1 PUSH1 0xA0 SHL SUB DUP4 AND PUSH1 0x0 SWAP1 DUP2 MSTORE PUSH2 0x111 PUSH1 0x20 MSTORE PUSH1 0x40 SWAP1 KECCAK256 SLOAD DUP4 SWAP1 DUP3 SWAP1 PUSH1 0xFF AND PUSH2 0x2F19 JUMPI PUSH1 0xFC SLOAD DUP2 LT ISZERO PUSH2 0x2EC7 JUMPI PUSH1 0x40 MLOAD PUSH3 0x461BCD PUSH1 0xE5 SHL DUP2 MSTORE PUSH1 0x20 PUSH1 0x4 DUP3 ADD MSTORE PUSH1 0x14 PUSH1 0x24 DUP3 ADD MSTORE PUSH32 0x416D6F756E742062656C6F77206D696E696D756D000000000000000000000000 PUSH1 0x44 DUP3 ADD MSTORE PUSH1 0x64 ADD PUSH2 0x10C2 JUMP JUMPDEST PUSH1 0xFD SLOAD DUP2 GT ISZERO PUSH2 0x2F19 JUMPI PUSH1 0x40 MLOAD PUSH3 0x461BCD PUSH1 0xE5 SHL DUP2 MSTORE PUSH1 0x20 PUSH1 0x4 DUP3 ADD MSTORE PUSH1 0x16 PUSH1 0x24 DUP3 ADD MSTORE PUSH32 0x416D6F756E742065786365656473206D6178696D756D00000000000000000000 PUSH1 0x44 DUP3 ADD MSTORE PUSH1 0x64 ADD PUSH2 0x10C2 JUMP JUMPDEST PUSH1 0x1 PUSH1 0x1 PUSH1 0xA0 SHL SUB DUP6 AND PUSH1 0x0 SWAP1 DUP2 MSTORE PUSH2 0x10E PUSH1 0x20 MSTORE PUSH1 0x40 SWAP1 KECCAK256 SLOAD PUSH1 0xFF AND ISZERO PUSH2 0x2F83 JUMPI PUSH1 0x40 MLOAD PUSH3 0x461BCD PUSH1 0xE5 SHL DUP2 MSTORE PUSH1 0x20 PUSH1 0x4 DUP3 ADD MSTORE PUSH1 0x1E PUSH1 0x24 DUP3 ADD MSTORE PUSH32 0x53656E64657227732077616C6C657420697320626C61636B6C69737465640000 PUSH1 0x44 DUP3 ADD MSTORE PUSH1 0x64 ADD PUSH2 0x10C2 JUMP JUMPDEST PUSH1 0x1 PUSH1 0x1 PUSH1 0xA0 SHL SUB DUP6 AND PUSH2 0x2FE7 JUMPI PUSH1 0x40 MLOAD PUSH3 0x461BCD PUSH1 0xE5 SHL DUP2 MSTORE PUSH1 0x20 PUSH1 0x4 DUP3 ADD MSTORE PUSH1 0x25 PUSH1 0x24 DUP3 ADD MSTORE PUSH32 0x45524332303A207472616E736665722066726F6D20746865207A65726F206164 PUSH1 0x44 DUP3 ADD MSTORE PUSH5 0x6472657373 PUSH1 0xD8 SHL PUSH1 0x64 DUP3 ADD MSTORE PUSH1 0x84 ADD PUSH2 0x10C2 JUMP JUMPDEST PUSH1 0x1 PUSH1 0x1 PUSH1 0xA0 SHL SUB DUP5 AND PUSH2 0x3049 JUMPI PUSH1 0x40 MLOAD PUSH3 0x461BCD PUSH1 0xE5 SHL DUP2 MSTORE PUSH1 0x20 PUSH1 0x4 DUP3 ADD MSTORE PUSH1 0x23 PUSH1 0x24 DUP3 ADD MSTORE PUSH32 0x45524332303A207472616E7366657220746F20746865207A65726F2061646472 PUSH1 0x44 DUP3 ADD MSTORE PUSH3 0x657373 PUSH1 0xE8 SHL PUSH1 0x64 DUP3 ADD MSTORE PUSH1 0x84 ADD PUSH2 0x10C2 JUMP JUMPDEST PUSH1 0x0 DUP4 GT PUSH2 0x30BF JUMPI PUSH1 0x40 MLOAD PUSH3 0x461BCD PUSH1 0xE5 SHL DUP2 MSTORE PUSH1 0x20 PUSH1 0x4 DUP3 ADD MSTORE PUSH1 0x29 PUSH1 0x24 DUP3 ADD MSTORE PUSH32 0x5472616E7366657220616D6F756E74206D757374206265206772656174657220 PUSH1 0x44 DUP3 ADD MSTORE PUSH32 0x7468616E207A65726F0000000000000000000000000000000000000000000000 PUSH1 0x64 DUP3 ADD MSTORE PUSH1 0x84 ADD PUSH2 0x10C2 JUMP JUMPDEST PUSH1 0x1 PUSH1 0x1 PUSH1 0xA0 SHL SUB DUP6 AND PUSH1 0x0 SWAP1 DUP2 MSTORE PUSH2 0x101 PUSH1 0x20 MSTORE PUSH1 0x40 SWAP1 KECCAK256 SLOAD DUP4 SWAP1 PUSH1 0xFF AND DUP1 PUSH2 0x3102 JUMPI POP PUSH1 0x1 PUSH1 0x1 PUSH1 0xA0 SHL SUB DUP6 AND PUSH1 0x0 SWAP1 DUP2 MSTORE PUSH2 0x101 PUSH1 0x20 MSTORE PUSH1 0x40 SWAP1 KECCAK256 SLOAD PUSH1 0xFF AND JUMPDEST ISZERO PUSH2 0x3118 JUMPI PUSH2 0x3112 CALLER DUP7 DUP7 PUSH2 0x379A JUMP JUMPDEST POP PUSH2 0x1AFC JUMP JUMPDEST PUSH2 0x100 DUP1 SLOAD DIV PUSH1 0xFF AND ISZERO PUSH2 0x315E JUMPI PUSH1 0x0 PUSH2 0x2710 PUSH2 0x102 SLOAD DUP4 PUSH2 0x313A SWAP2 SWAP1 PUSH2 0x3F74 JUMP JUMPDEST PUSH2 0x3144 SWAP2 SWAP1 PUSH2 0x3F8B JUMP JUMPDEST SWAP1 POP PUSH2 0x3150 DUP8 DUP3 PUSH2 0x323D JUMP JUMPDEST PUSH2 0x315A DUP2 DUP7 PUSH2 0x3F61 JUMP JUMPDEST SWAP5 POP POP JUMPDEST PUSH2 0x107 SLOAD PUSH1 0xFF AND ISZERO PUSH2 0x31CD JUMPI PUSH1 0x0 PUSH2 0x2710 DUP3 PUSH2 0x104 SLOAD PUSH2 0x317E SWAP2 SWAP1 PUSH2 0x3F74 JUMP JUMPDEST PUSH2 0x3188 SWAP2 SWAP1 PUSH2 0x3F8B JUMP JUMPDEST PUSH1 0xFB SLOAD SWAP1 SWAP2 POP PUSH2 0x31A3 SWAP1 DUP9 SWAP1 PUSH1 0x1 PUSH1 0x1 PUSH1 0xA0 SHL SUB AND DUP4 PUSH2 0x379A JUMP JUMPDEST PUSH2 0x2710 DUP3 PUSH2 0x104 SLOAD PUSH2 0x31B5 SWAP2 SWAP1 PUSH2 0x3F74 JUMP JUMPDEST PUSH2 0x31BF SWAP2 SWAP1 PUSH2 0x3F8B JUMP JUMPDEST PUSH2 0x31C9 SWAP1 DUP7 PUSH2 0x3F61 JUMP JUMPDEST SWAP5 POP POP JUMPDEST PUSH2 0x22DC DUP7 DUP7 DUP7 PUSH2 0x379A JUMP JUMPDEST PUSH1 0x0 PUSH2 0x31E4 DUP3 DUP5 PUSH2 0x3F4E JUMP JUMPDEST SWAP4 SWAP3 POP POP POP JUMP JUMPDEST PUSH2 0x31F3 PUSH2 0x395C JUMP JUMPDEST PUSH1 0xC9 DUP1 SLOAD PUSH1 0xFF NOT AND SWAP1 SSTORE PUSH32 0x5DB9EE0A495BF2E6FF9C91A7834C1BA4FDD244A5E8AA4E537BD38AEAE4B073AA CALLER JUMPDEST PUSH1 0x40 MLOAD PUSH1 0x1 PUSH1 0x1 PUSH1 0xA0 SHL SUB SWAP1 SWAP2 AND DUP2 MSTORE PUSH1 0x20 ADD PUSH1 0x40 MLOAD DUP1 SWAP2 SUB SWAP1 LOG1 JUMP JUMPDEST PUSH1 0x1 PUSH1 0x1 PUSH1 0xA0 SHL SUB DUP3 AND PUSH2 0x32B9 JUMPI PUSH1 0x40 MLOAD PUSH3 0x461BCD PUSH1 0xE5 SHL DUP2 MSTORE PUSH1 0x20 PUSH1 0x4 DUP3 ADD MSTORE PUSH1 0x21 PUSH1 0x24 DUP3 ADD MSTORE PUSH32 0x45524332303A206275726E2066726F6D20746865207A65726F20616464726573 PUSH1 0x44 DUP3 ADD MSTORE PUSH32 0x7300000000000000000000000000000000000000000000000000000000000000 PUSH1 0x64 DUP3 ADD MSTORE PUSH1 0x84 ADD PUSH2 0x10C2 JUMP JUMPDEST PUSH1 0x1 PUSH1 0x1 PUSH1 0xA0 SHL SUB DUP3 AND PUSH1 0x0 SWAP1 DUP2 MSTORE PUSH1 0x33 PUSH1 0x20 MSTORE PUSH1 0x40 SWAP1 KECCAK256 SLOAD DUP2 DUP2 LT ISZERO PUSH2 0x3348 JUMPI PUSH1 0x40 MLOAD PUSH3 0x461BCD PUSH1 0xE5 SHL DUP2 MSTORE PUSH1 0x20 PUSH1 0x4 DUP3 ADD MSTORE PUSH1 0x22 PUSH1 0x24 DUP3 ADD MSTORE PUSH32 0x45524332303A206275726E20616D6F756E7420657863656564732062616C616E PUSH1 0x44 DUP3 ADD MSTORE PUSH32 0x6365000000000000000000000000000000000000000000000000000000000000 PUSH1 0x64 DUP3 ADD MSTORE PUSH1 0x84 ADD PUSH2 0x10C2 JUMP JUMPDEST PUSH1 0x1 PUSH1 0x1 PUSH1 0xA0 SHL SUB DUP4 AND PUSH1 0x0 DUP2 DUP2 MSTORE PUSH1 0x33 PUSH1 0x20 SWAP1 DUP2 MSTORE PUSH1 0x40 DUP1 DUP4 KECCAK256 DUP7 DUP7 SUB SWAP1 SSTORE PUSH1 0x35 DUP1 SLOAD DUP8 SWAP1 SUB SWAP1 SSTORE MLOAD DUP6 DUP2 MSTORE SWAP2 SWAP3 SWAP2 PUSH32 0xDDF252AD1BE2C89B69C2B068FC378DAA952BA7F163C4A11628F55A4DF523B3EF SWAP2 ADD PUSH1 0x40 MLOAD DUP1 SWAP2 SUB SWAP1 LOG3 POP POP POP JUMP JUMPDEST PUSH1 0x97 DUP1 SLOAD PUSH1 0x1 PUSH1 0x1 PUSH1 0xA0 SHL SUB DUP4 DUP2 AND PUSH1 0x1 PUSH1 0x1 PUSH1 0xA0 SHL SUB NOT DUP4 AND DUP2 OR SWAP1 SWAP4 SSTORE PUSH1 0x40 MLOAD SWAP2 AND SWAP2 SWAP1 DUP3 SWAP1 PUSH32 0x8BE0079C531659141344CD1FD0A4F28419497F9722A3DAAFE3B4186F6B6457E0 SWAP1 PUSH1 0x0 SWAP1 LOG3 POP POP JUMP JUMPDEST PUSH1 0x0 DUP1 JUMPDEST PUSH2 0x10B SLOAD DUP2 LT ISZERO PUSH2 0x345C JUMPI DUP3 PUSH1 0x1 PUSH1 0x1 PUSH1 0xA0 SHL SUB AND PUSH2 0x10B DUP3 DUP2 SLOAD DUP2 LT PUSH2 0x3427 JUMPI PUSH2 0x3427 PUSH2 0x3F09 JUMP JUMPDEST PUSH1 0x0 SWAP2 DUP3 MSTORE PUSH1 0x20 SWAP1 SWAP2 KECCAK256 ADD SLOAD PUSH1 0x1 PUSH1 0x1 PUSH1 0xA0 SHL SUB AND SUB PUSH2 0x344A JUMPI POP PUSH1 0x1 SWAP3 SWAP2 POP POP JUMP JUMPDEST DUP1 PUSH2 0x3454 DUP2 PUSH2 0x3F35 JUMP JUMPDEST SWAP2 POP POP PUSH2 0x33FE JUMP JUMPDEST POP PUSH1 0x0 SWAP3 SWAP2 POP POP JUMP JUMPDEST PUSH2 0x346D PUSH2 0x34C0 JUMP JUMPDEST PUSH1 0xC9 DUP1 SLOAD PUSH1 0xFF NOT AND PUSH1 0x1 OR SWAP1 SSTORE PUSH32 0x62E78CEA01BEE320CD4E420270B5EA74000D11B0C9F74754EBDBFC544B05A258 PUSH2 0x3220 CALLER SWAP1 JUMP JUMPDEST PUSH1 0x0 PUSH2 0x31E4 DUP3 DUP5 PUSH2 0x3F61 JUMP JUMPDEST PUSH2 0x34B6 PUSH2 0x2D64 JUMP JUMPDEST PUSH2 0x16DF DUP3 DUP3 PUSH2 0x36D9 JUMP JUMPDEST PUSH1 0xC9 SLOAD PUSH1 0xFF AND ISZERO PUSH2 0x181E JUMPI PUSH1 0x40 MLOAD PUSH3 0x461BCD PUSH1 0xE5 SHL DUP2 MSTORE PUSH1 0x20 PUSH1 0x4 DUP3 ADD MSTORE PUSH1 0x10 PUSH1 0x24 DUP3 ADD MSTORE PUSH32 0x5061757361626C653A2070617573656400000000000000000000000000000000 PUSH1 0x44 DUP3 ADD MSTORE PUSH1 0x64 ADD PUSH2 0x10C2 JUMP JUMPDEST PUSH1 0x0 SLOAD PUSH2 0x100 SWAP1 DIV PUSH1 0xFF AND PUSH2 0x357E JUMPI PUSH1 0x40 MLOAD PUSH3 0x461BCD PUSH1 0xE5 SHL DUP2 MSTORE PUSH1 0x20 PUSH1 0x4 DUP3 ADD MSTORE PUSH1 0x2B PUSH1 0x24 DUP3 ADD MSTORE PUSH32 0x496E697469616C697A61626C653A20636F6E7472616374206973206E6F742069 PUSH1 0x44 DUP3 ADD MSTORE PUSH11 0x6E697469616C697A696E67 PUSH1 0xA8 SHL PUSH1 0x64 DUP3 ADD MSTORE PUSH1 0x84 ADD PUSH2 0x10C2 JUMP JUMPDEST PUSH2 0x16DF DUP3 DUP3 PUSH2 0x39AE JUMP JUMPDEST PUSH1 0x0 SLOAD PUSH2 0x100 SWAP1 DIV PUSH1 0xFF AND PUSH2 0x181E JUMPI PUSH1 0x40 MLOAD PUSH3 0x461BCD PUSH1 0xE5 SHL DUP2 MSTORE PUSH1 0x20 PUSH1 0x4 DUP3 ADD MSTORE PUSH1 0x2B PUSH1 0x24 DUP3 ADD MSTORE PUSH32 0x496E697469616C697A61626C653A20636F6E7472616374206973206E6F742069 PUSH1 0x44 DUP3 ADD MSTORE PUSH11 0x6E697469616C697A696E67 PUSH1 0xA8 SHL PUSH1 0x64 DUP3 ADD MSTORE PUSH1 0x84 ADD PUSH2 0x10C2 JUMP JUMPDEST PUSH1 0x0 SLOAD PUSH2 0x100 SWAP1 DIV PUSH1 0xFF AND PUSH2 0x365E JUMPI PUSH1 0x40 MLOAD PUSH3 0x461BCD PUSH1 0xE5 SHL DUP2 MSTORE PUSH1 0x20 PUSH1 0x4 DUP3 ADD MSTORE PUSH1 0x2B PUSH1 0x24 DUP3 ADD MSTORE PUSH32 0x496E697469616C697A61626C653A20636F6E7472616374206973206E6F742069 PUSH1 0x44 DUP3 ADD MSTORE PUSH11 0x6E697469616C697A696E67 PUSH1 0xA8 SHL PUSH1 0x64 DUP3 ADD MSTORE PUSH1 0x84 ADD PUSH2 0x10C2 JUMP JUMPDEST PUSH2 0x181E PUSH2 0x3A32 JUMP JUMPDEST PUSH1 0x0 SLOAD PUSH2 0x100 SWAP1 DIV PUSH1 0xFF AND PUSH2 0x36D1 JUMPI PUSH1 0x40 MLOAD PUSH3 0x461BCD PUSH1 0xE5 SHL DUP2 MSTORE PUSH1 0x20 PUSH1 0x4 DUP3 ADD MSTORE PUSH1 0x2B PUSH1 0x24 DUP3 ADD MSTORE PUSH32 0x496E697469616C697A61626C653A20636F6E7472616374206973206E6F742069 PUSH1 0x44 DUP3 ADD MSTORE PUSH11 0x6E697469616C697A696E67 PUSH1 0xA8 SHL PUSH1 0x64 DUP3 ADD MSTORE PUSH1 0x84 ADD PUSH2 0x10C2 JUMP JUMPDEST PUSH2 0x181E PUSH2 0x3AA6 JUMP JUMPDEST PUSH1 0x1 PUSH1 0x1 PUSH1 0xA0 SHL SUB DUP3 AND PUSH2 0x372F JUMPI PUSH1 0x40 MLOAD PUSH3 0x461BCD PUSH1 0xE5 SHL DUP2 MSTORE PUSH1 0x20 PUSH1 0x4 DUP3 ADD MSTORE PUSH1 0x1F PUSH1 0x24 DUP3 ADD MSTORE PUSH32 0x45524332303A206D696E7420746F20746865207A65726F206164647265737300 PUSH1 0x44 DUP3 ADD MSTORE PUSH1 0x64 ADD PUSH2 0x10C2 JUMP JUMPDEST DUP1 PUSH1 0x35 PUSH1 0x0 DUP3 DUP3 SLOAD PUSH2 0x3741 SWAP2 SWAP1 PUSH2 0x3F4E JUMP JUMPDEST SWAP1 SWAP2 SSTORE POP POP PUSH1 0x1 PUSH1 0x1 PUSH1 0xA0 SHL SUB DUP3 AND PUSH1 0x0 DUP2 DUP2 MSTORE PUSH1 0x33 PUSH1 0x20 SWAP1 DUP2 MSTORE PUSH1 0x40 DUP1 DUP4 KECCAK256 DUP1 SLOAD DUP7 ADD SWAP1 SSTORE MLOAD DUP5 DUP2 MSTORE PUSH32 0xDDF252AD1BE2C89B69C2B068FC378DAA952BA7F163C4A11628F55A4DF523B3EF SWAP2 ADD PUSH1 0x40 MLOAD DUP1 SWAP2 SUB SWAP1 LOG3 POP POP JUMP JUMPDEST PUSH1 0x1 PUSH1 0x1 PUSH1 0xA0 SHL SUB DUP4 AND PUSH2 0x37FE JUMPI PUSH1 0x40 MLOAD PUSH3 0x461BCD PUSH1 0xE5 SHL DUP2 MSTORE PUSH1 0x20 PUSH1 0x4 DUP3 ADD MSTORE PUSH1 0x25 PUSH1 0x24 DUP3 ADD MSTORE PUSH32 0x45524332303A207472616E736665722066726F6D20746865207A65726F206164 PUSH1 0x44 DUP3 ADD MSTORE PUSH5 0x6472657373 PUSH1 0xD8 SHL PUSH1 0x64 DUP3 ADD MSTORE PUSH1 0x84 ADD PUSH2 0x10C2 JUMP JUMPDEST PUSH1 0x1 PUSH1 0x1 PUSH1 0xA0 SHL SUB DUP3 AND PUSH2 0x3860 JUMPI PUSH1 0x40 MLOAD PUSH3 0x461BCD PUSH1 0xE5 SHL DUP2 MSTORE PUSH1 0x20 PUSH1 0x4 DUP3 ADD MSTORE PUSH1 0x23 PUSH1 0x24 DUP3 ADD MSTORE PUSH32 0x45524332303A207472616E7366657220746F20746865207A65726F2061646472 PUSH1 0x44 DUP3 ADD MSTORE PUSH3 0x657373 PUSH1 0xE8 SHL PUSH1 0x64 DUP3 ADD MSTORE PUSH1 0x84 ADD PUSH2 0x10C2 JUMP JUMPDEST PUSH1 0x1 PUSH1 0x1 PUSH1 0xA0 SHL SUB DUP4 AND PUSH1 0x0 SWAP1 DUP2 MSTORE PUSH1 0x33 PUSH1 0x20 MSTORE PUSH1 0x40 SWAP1 KECCAK256 SLOAD DUP2 DUP2 LT ISZERO PUSH2 0x38EF JUMPI PUSH1 0x40 MLOAD PUSH3 0x461BCD PUSH1 0xE5 SHL DUP2 MSTORE PUSH1 0x20 PUSH1 0x4 DUP3 ADD MSTORE PUSH1 0x26 PUSH1 0x24 DUP3 ADD MSTORE PUSH32 0x45524332303A207472616E7366657220616D6F756E7420657863656564732062 PUSH1 0x44 DUP3 ADD MSTORE PUSH32 0x616C616E63650000000000000000000000000000000000000000000000000000 PUSH1 0x64 DUP3 ADD MSTORE PUSH1 0x84 ADD PUSH2 0x10C2 JUMP JUMPDEST PUSH1 0x1 PUSH1 0x1 PUSH1 0xA0 SHL SUB DUP1 DUP6 AND PUSH1 0x0 DUP2 DUP2 MSTORE PUSH1 0x33 PUSH1 0x20 MSTORE PUSH1 0x40 DUP1 DUP3 KECCAK256 DUP7 DUP7 SUB SWAP1 SSTORE SWAP3 DUP7 AND DUP1 DUP3 MSTORE SWAP1 DUP4 SWAP1 KECCAK256 DUP1 SLOAD DUP7 ADD SWAP1 SSTORE SWAP2 MLOAD PUSH32 0xDDF252AD1BE2C89B69C2B068FC378DAA952BA7F163C4A11628F55A4DF523B3EF SWAP1 PUSH2 0x394F SWAP1 DUP7 DUP2 MSTORE PUSH1 0x20 ADD SWAP1 JUMP JUMPDEST PUSH1 0x40 MLOAD DUP1 SWAP2 SUB SWAP1 LOG3 PUSH2 0x2E4A JUMP JUMPDEST PUSH1 0xC9 SLOAD PUSH1 0xFF AND PUSH2 0x181E JUMPI PUSH1 0x40 MLOAD PUSH3 0x461BCD PUSH1 0xE5 SHL DUP2 MSTORE PUSH1 0x20 PUSH1 0x4 DUP3 ADD MSTORE PUSH1 0x14 PUSH1 0x24 DUP3 ADD MSTORE PUSH32 0x5061757361626C653A206E6F7420706175736564000000000000000000000000 PUSH1 0x44 DUP3 ADD MSTORE PUSH1 0x64 ADD PUSH2 0x10C2 JUMP JUMPDEST PUSH1 0x0 SLOAD PUSH2 0x100 SWAP1 DIV PUSH1 0xFF AND PUSH2 0x3A19 JUMPI PUSH1 0x40 MLOAD PUSH3 0x461BCD PUSH1 0xE5 SHL DUP2 MSTORE PUSH1 0x20 PUSH1 0x4 DUP3 ADD MSTORE PUSH1 0x2B PUSH1 0x24 DUP3 ADD MSTORE PUSH32 0x496E697469616C697A61626C653A20636F6E7472616374206973206E6F742069 PUSH1 0x44 DUP3 ADD MSTORE PUSH11 0x6E697469616C697A696E67 PUSH1 0xA8 SHL PUSH1 0x64 DUP3 ADD MSTORE PUSH1 0x84 ADD PUSH2 0x10C2 JUMP JUMPDEST PUSH1 0x36 PUSH2 0x3A25 DUP4 DUP3 PUSH2 0x4119 JUMP JUMPDEST POP PUSH1 0x37 PUSH2 0x2043 DUP3 DUP3 PUSH2 0x4119 JUMP JUMPDEST PUSH1 0x0 SLOAD PUSH2 0x100 SWAP1 DIV PUSH1 0xFF AND PUSH2 0x3A9D JUMPI PUSH1 0x40 MLOAD PUSH3 0x461BCD PUSH1 0xE5 SHL DUP2 MSTORE PUSH1 0x20 PUSH1 0x4 DUP3 ADD MSTORE PUSH1 0x2B PUSH1 0x24 DUP3 ADD MSTORE PUSH32 0x496E697469616C697A61626C653A20636F6E7472616374206973206E6F742069 PUSH1 0x44 DUP3 ADD MSTORE PUSH11 0x6E697469616C697A696E67 PUSH1 0xA8 SHL PUSH1 0x64 DUP3 ADD MSTORE PUSH1 0x84 ADD PUSH2 0x10C2 JUMP JUMPDEST PUSH2 0x181E CALLER PUSH2 0x33A8 JUMP JUMPDEST PUSH1 0x0 SLOAD PUSH2 0x100 SWAP1 DIV PUSH1 0xFF AND PUSH2 0x3B11 JUMPI PUSH1 0x40 MLOAD PUSH3 0x461BCD PUSH1 0xE5 SHL DUP2 MSTORE PUSH1 0x20 PUSH1 0x4 DUP3 ADD MSTORE PUSH1 0x2B PUSH1 0x24 DUP3 ADD MSTORE PUSH32 0x496E697469616C697A61626C653A20636F6E7472616374206973206E6F742069 PUSH1 0x44 DUP3 ADD MSTORE PUSH11 0x6E697469616C697A696E67 PUSH1 0xA8 SHL PUSH1 0x64 DUP3 ADD MSTORE PUSH1 0x84 ADD PUSH2 0x10C2 JUMP JUMPDEST PUSH1 0xC9 DUP1 SLOAD PUSH1 0xFF NOT AND SWAP1 SSTORE JUMP JUMPDEST PUSH1 0x0 PUSH1 0x20 DUP1 DUP4 MSTORE DUP4 MLOAD DUP1 DUP3 DUP6 ADD MSTORE PUSH1 0x0 JUMPDEST DUP2 DUP2 LT ISZERO PUSH2 0x3B4A JUMPI DUP6 DUP2 ADD DUP4 ADD MLOAD DUP6 DUP3 ADD PUSH1 0x40 ADD MSTORE DUP3 ADD PUSH2 0x3B2E JUMP JUMPDEST POP PUSH1 0x0 PUSH1 0x40 DUP3 DUP7 ADD ADD MSTORE PUSH1 0x40 PUSH1 0x1F NOT PUSH1 0x1F DUP4 ADD AND DUP6 ADD ADD SWAP3 POP POP POP SWAP3 SWAP2 POP POP JUMP JUMPDEST PUSH1 0x1 PUSH1 0x1 PUSH1 0xA0 SHL SUB DUP2 AND DUP2 EQ PUSH2 0x1224 JUMPI PUSH1 0x0 DUP1 REVERT JUMPDEST DUP1 CALLDATALOAD PUSH2 0x3B8B DUP2 PUSH2 0x3B6B JUMP JUMPDEST SWAP2 SWAP1 POP JUMP JUMPDEST PUSH1 0x0 DUP1 PUSH1 0x40 DUP4 DUP6 SUB SLT ISZERO PUSH2 0x3BA3 JUMPI PUSH1 0x0 DUP1 REVERT JUMPDEST DUP3 CALLDATALOAD PUSH2 0x3BAE DUP2 PUSH2 0x3B6B JUMP JUMPDEST SWAP5 PUSH1 0x20 SWAP4 SWAP1 SWAP4 ADD CALLDATALOAD SWAP4 POP POP POP JUMP JUMPDEST PUSH1 0x0 PUSH1 0x20 DUP3 DUP5 SUB SLT ISZERO PUSH2 0x3BCE JUMPI PUSH1 0x0 DUP1 REVERT JUMPDEST DUP2 CALLDATALOAD PUSH2 0x31E4 DUP2 PUSH2 0x3B6B JUMP JUMPDEST PUSH1 0x0 DUP1 PUSH1 0x0 PUSH1 0x60 DUP5 DUP7 SUB SLT ISZERO PUSH2 0x3BEE JUMPI PUSH1 0x0 DUP1 REVERT JUMPDEST DUP4 CALLDATALOAD PUSH2 0x3BF9 DUP2 PUSH2 0x3B6B JUMP JUMPDEST SWAP3 POP PUSH1 0x20 DUP5 ADD CALLDATALOAD PUSH2 0x3C09 DUP2 PUSH2 0x3B6B JUMP JUMPDEST SWAP3 SWAP6 SWAP3 SWAP5 POP POP POP PUSH1 0x40 SWAP2 SWAP1 SWAP2 ADD CALLDATALOAD SWAP1 JUMP JUMPDEST PUSH1 0x0 DUP1 PUSH1 0x0 DUP1 PUSH1 0x80 DUP6 DUP8 SUB SLT ISZERO PUSH2 0x3C30 JUMPI PUSH1 0x0 DUP1 REVERT JUMPDEST DUP5 CALLDATALOAD PUSH2 0x3C3B DUP2 PUSH2 0x3B6B JUMP JUMPDEST SWAP7 PUSH1 0x20 DUP7 ADD CALLDATALOAD SWAP7 POP PUSH1 0x40 DUP7 ADD CALLDATALOAD SWAP6 PUSH1 0x60 ADD CALLDATALOAD SWAP5 POP SWAP3 POP POP POP JUMP JUMPDEST PUSH1 0x0 PUSH1 0x20 DUP3 DUP5 SUB SLT ISZERO PUSH2 0x3C67 JUMPI PUSH1 0x0 DUP1 REVERT JUMPDEST POP CALLDATALOAD SWAP2 SWAP1 POP JUMP JUMPDEST DUP1 ISZERO ISZERO DUP2 EQ PUSH2 0x1224 JUMPI PUSH1 0x0 DUP1 REVERT JUMPDEST PUSH1 0x0 PUSH1 0x20 DUP3 DUP5 SUB SLT ISZERO PUSH2 0x3C8E JUMPI PUSH1 0x0 DUP1 REVERT JUMPDEST DUP2 CALLDATALOAD PUSH2 0x31E4 DUP2 PUSH2 0x3C6E JUMP JUMPDEST PUSH1 0x0 DUP1 PUSH1 0x40 DUP4 DUP6 SUB SLT ISZERO PUSH2 0x3CAC JUMPI PUSH1 0x0 DUP1 REVERT JUMPDEST DUP3 CALLDATALOAD PUSH2 0x3CB7 DUP2 PUSH2 0x3B6B JUMP JUMPDEST SWAP2 POP PUSH1 0x20 DUP4 ADD CALLDATALOAD PUSH2 0x3CC7 DUP2 PUSH2 0x3B6B JUMP JUMPDEST DUP1 SWAP2 POP POP SWAP3 POP SWAP3 SWAP1 POP JUMP JUMPDEST PUSH4 0x4E487B71 PUSH1 0xE0 SHL PUSH1 0x0 MSTORE PUSH1 0x41 PUSH1 0x4 MSTORE PUSH1 0x24 PUSH1 0x0 REVERT JUMPDEST PUSH1 0x40 MLOAD PUSH1 0x1F DUP3 ADD PUSH1 0x1F NOT AND DUP2 ADD PUSH8 0xFFFFFFFFFFFFFFFF DUP2 GT DUP3 DUP3 LT OR ISZERO PUSH2 0x3D11 JUMPI PUSH2 0x3D11 PUSH2 0x3CD2 JUMP JUMPDEST PUSH1 0x40 MSTORE SWAP2 SWAP1 POP JUMP JUMPDEST PUSH1 0x0 DUP3 PUSH1 0x1F DUP4 ADD SLT PUSH2 0x3D2A JUMPI PUSH1 0x0 DUP1 REVERT JUMPDEST DUP2 CALLDATALOAD PUSH8 0xFFFFFFFFFFFFFFFF DUP2 GT ISZERO PUSH2 0x3D44 JUMPI PUSH2 0x3D44 PUSH2 0x3CD2 JUMP JUMPDEST PUSH2 0x3D57 PUSH1 0x1F DUP3 ADD PUSH1 0x1F NOT AND PUSH1 0x20 ADD PUSH2 0x3CE8 JUMP JUMPDEST DUP2 DUP2 MSTORE DUP5 PUSH1 0x20 DUP4 DUP7 ADD ADD GT ISZERO PUSH2 0x3D6C JUMPI PUSH1 0x0 DUP1 REVERT JUMPDEST DUP2 PUSH1 0x20 DUP6 ADD PUSH1 0x20 DUP4 ADD CALLDATACOPY PUSH1 0x0 SWAP2 DUP2 ADD PUSH1 0x20 ADD SWAP2 SWAP1 SWAP2 MSTORE SWAP4 SWAP3 POP POP POP JUMP JUMPDEST PUSH1 0x0 DUP3 PUSH1 0x1F DUP4 ADD SLT PUSH2 0x3D9A JUMPI PUSH1 0x0 DUP1 REVERT JUMPDEST DUP2 CALLDATALOAD PUSH1 0x20 PUSH8 0xFFFFFFFFFFFFFFFF DUP3 GT ISZERO PUSH2 0x3DB6 JUMPI PUSH2 0x3DB6 PUSH2 0x3CD2 JUMP JUMPDEST DUP2 PUSH1 0x5 SHL PUSH2 0x3DC5 DUP3 DUP3 ADD PUSH2 0x3CE8 JUMP JUMPDEST SWAP3 DUP4 MSTORE DUP5 DUP2 ADD DUP3 ADD SWAP3 DUP3 DUP2 ADD SWAP1 DUP8 DUP6 GT ISZERO PUSH2 0x3DDF JUMPI PUSH1 0x0 DUP1 REVERT JUMPDEST DUP4 DUP8 ADD SWAP3 POP JUMPDEST DUP5 DUP4 LT ISZERO PUSH2 0x3E07 JUMPI DUP3 CALLDATALOAD PUSH2 0x3DF8 DUP2 PUSH2 0x3B6B JUMP JUMPDEST DUP3 MSTORE SWAP2 DUP4 ADD SWAP2 SWAP1 DUP4 ADD SWAP1 PUSH2 0x3DE5 JUMP JUMPDEST SWAP8 SWAP7 POP POP POP POP POP POP POP JUMP JUMPDEST PUSH1 0x0 DUP1 PUSH1 0x0 DUP1 PUSH1 0x0 DUP1 PUSH1 0xC0 DUP8 DUP10 SUB SLT ISZERO PUSH2 0x3E2B JUMPI PUSH1 0x0 DUP1 REVERT JUMPDEST DUP7 CALLDATALOAD PUSH8 0xFFFFFFFFFFFFFFFF DUP1 DUP3 GT ISZERO PUSH2 0x3E43 JUMPI PUSH1 0x0 DUP1 REVERT JUMPDEST PUSH2 0x3E4F DUP11 DUP4 DUP12 ADD PUSH2 0x3D19 JUMP JUMPDEST SWAP8 POP PUSH1 0x20 DUP10 ADD CALLDATALOAD SWAP2 POP DUP1 DUP3 GT ISZERO PUSH2 0x3E65 JUMPI PUSH1 0x0 DUP1 REVERT JUMPDEST PUSH2 0x3E71 DUP11 DUP4 DUP12 ADD PUSH2 0x3D19 JUMP JUMPDEST SWAP7 POP PUSH1 0x40 DUP10 ADD CALLDATALOAD SWAP2 POP PUSH1 0xFF DUP3 AND DUP3 EQ PUSH2 0x3E89 JUMPI PUSH1 0x0 DUP1 REVERT JUMPDEST DUP2 SWAP6 POP PUSH1 0x60 DUP10 ADD CALLDATALOAD SWAP5 POP PUSH2 0x3E9F PUSH1 0x80 DUP11 ADD PUSH2 0x3B80 JUMP JUMPDEST SWAP4 POP PUSH1 0xA0 DUP10 ADD CALLDATALOAD SWAP2 POP DUP1 DUP3 GT ISZERO PUSH2 0x3EB5 JUMPI PUSH1 0x0 DUP1 REVERT JUMPDEST POP PUSH2 0x3EC2 DUP10 DUP3 DUP11 ADD PUSH2 0x3D89 JUMP JUMPDEST SWAP2 POP POP SWAP3 SWAP6 POP SWAP3 SWAP6 POP SWAP3 SWAP6 JUMP JUMPDEST PUSH1 0x1 DUP2 DUP2 SHR SWAP1 DUP3 AND DUP1 PUSH2 0x3EE3 JUMPI PUSH1 0x7F DUP3 AND SWAP2 POP JUMPDEST PUSH1 0x20 DUP3 LT DUP2 SUB PUSH2 0x3F03 JUMPI PUSH4 0x4E487B71 PUSH1 0xE0 SHL PUSH1 0x0 MSTORE PUSH1 0x22 PUSH1 0x4 MSTORE PUSH1 0x24 PUSH1 0x0 REVERT JUMPDEST POP SWAP2 SWAP1 POP JUMP JUMPDEST PUSH4 0x4E487B71 PUSH1 0xE0 SHL PUSH1 0x0 MSTORE PUSH1 0x32 PUSH1 0x4 MSTORE PUSH1 0x24 PUSH1 0x0 REVERT JUMPDEST PUSH4 0x4E487B71 PUSH1 0xE0 SHL PUSH1 0x0 MSTORE PUSH1 0x11 PUSH1 0x4 MSTORE PUSH1 0x24 PUSH1 0x0 REVERT JUMPDEST PUSH1 0x0 PUSH1 0x1 DUP3 ADD PUSH2 0x3F47 JUMPI PUSH2 0x3F47 PUSH2 0x3F1F JUMP JUMPDEST POP PUSH1 0x1 ADD SWAP1 JUMP JUMPDEST DUP1 DUP3 ADD DUP1 DUP3 GT ISZERO PUSH2 0x1056 JUMPI PUSH2 0x1056 PUSH2 0x3F1F JUMP JUMPDEST DUP2 DUP2 SUB DUP2 DUP2 GT ISZERO PUSH2 0x1056 JUMPI PUSH2 0x1056 PUSH2 0x3F1F JUMP JUMPDEST DUP1 DUP3 MUL DUP2 ISZERO DUP3 DUP3 DIV DUP5 EQ OR PUSH2 0x1056 JUMPI PUSH2 0x1056 PUSH2 0x3F1F JUMP JUMPDEST PUSH1 0x0 DUP3 PUSH2 0x3FA8 JUMPI PUSH4 0x4E487B71 PUSH1 0xE0 SHL PUSH1 0x0 MSTORE PUSH1 0x12 PUSH1 0x4 MSTORE PUSH1 0x24 PUSH1 0x0 REVERT JUMPDEST POP DIV SWAP1 JUMP JUMPDEST PUSH1 0x0 PUSH1 0x20 DUP3 DUP5 SUB SLT ISZERO PUSH2 0x3FBF JUMPI PUSH1 0x0 DUP1 REVERT JUMPDEST POP MLOAD SWAP2 SWAP1 POP JUMP JUMPDEST PUSH1 0x0 PUSH1 0x20 DUP3 DUP5 SUB SLT ISZERO PUSH2 0x3FD8 JUMPI PUSH1 0x0 DUP1 REVERT JUMPDEST DUP2 MLOAD PUSH2 0x31E4 DUP2 PUSH2 0x3C6E JUMP JUMPDEST PUSH1 0x1 DUP2 DUP2 JUMPDEST DUP1 DUP6 GT ISZERO PUSH2 0x401E JUMPI DUP2 PUSH1 0x0 NOT DIV DUP3 GT ISZERO PUSH2 0x4004 JUMPI PUSH2 0x4004 PUSH2 0x3F1F JUMP JUMPDEST DUP1 DUP6 AND ISZERO PUSH2 0x4011 JUMPI SWAP2 DUP2 MUL SWAP2 JUMPDEST SWAP4 DUP5 SHR SWAP4 SWAP1 DUP1 MUL SWAP1 PUSH2 0x3FE8 JUMP JUMPDEST POP SWAP3 POP SWAP3 SWAP1 POP JUMP JUMPDEST PUSH1 0x0 DUP3 PUSH2 0x4035 JUMPI POP PUSH1 0x1 PUSH2 0x1056 JUMP JUMPDEST DUP2 PUSH2 0x4042 JUMPI POP PUSH1 0x0 PUSH2 0x1056 JUMP JUMPDEST DUP2 PUSH1 0x1 DUP2 EQ PUSH2 0x4058 JUMPI PUSH1 0x2 DUP2 EQ PUSH2 0x4062 JUMPI PUSH2 0x407E JUMP JUMPDEST PUSH1 0x1 SWAP2 POP POP PUSH2 0x1056 JUMP JUMPDEST PUSH1 0xFF DUP5 GT ISZERO PUSH2 0x4073 JUMPI PUSH2 0x4073 PUSH2 0x3F1F JUMP JUMPDEST POP POP PUSH1 0x1 DUP3 SHL PUSH2 0x1056 JUMP JUMPDEST POP PUSH1 0x20 DUP4 LT PUSH2 0x133 DUP4 LT AND PUSH1 0x4E DUP5 LT PUSH1 0xB DUP5 LT AND OR ISZERO PUSH2 0x40A1 JUMPI POP DUP2 DUP2 EXP PUSH2 0x1056 JUMP JUMPDEST PUSH2 0x40AB DUP4 DUP4 PUSH2 0x3FE3 JUMP JUMPDEST DUP1 PUSH1 0x0 NOT DIV DUP3 GT ISZERO PUSH2 0x40BF JUMPI PUSH2 0x40BF PUSH2 0x3F1F JUMP JUMPDEST MUL SWAP4 SWAP3 POP POP POP JUMP JUMPDEST PUSH1 0x0 PUSH2 0x31E4 DUP4 DUP4 PUSH2 0x4026 JUMP JUMPDEST PUSH1 0x1F DUP3 GT ISZERO PUSH2 0x2043 JUMPI PUSH1 0x0 DUP2 DUP2 MSTORE PUSH1 0x20 DUP2 KECCAK256 PUSH1 0x1F DUP6 ADD PUSH1 0x5 SHR DUP2 ADD PUSH1 0x20 DUP7 LT ISZERO PUSH2 0x40FA JUMPI POP DUP1 JUMPDEST PUSH1 0x1F DUP6 ADD PUSH1 0x5 SHR DUP3 ADD SWAP2 POP JUMPDEST DUP2 DUP2 LT ISZERO PUSH2 0x22DC JUMPI DUP3 DUP2 SSTORE PUSH1 0x1 ADD PUSH2 0x4106 JUMP JUMPDEST DUP2 MLOAD PUSH8 0xFFFFFFFFFFFFFFFF DUP2 GT ISZERO PUSH2 0x4133 JUMPI PUSH2 0x4133 PUSH2 0x3CD2 JUMP JUMPDEST PUSH2 0x4147 DUP2 PUSH2 0x4141 DUP5 SLOAD PUSH2 0x3ECF JUMP JUMPDEST DUP5 PUSH2 0x40D3 JUMP JUMPDEST PUSH1 0x20 DUP1 PUSH1 0x1F DUP4 GT PUSH1 0x1 DUP2 EQ PUSH2 0x417C JUMPI PUSH1 0x0 DUP5 ISZERO PUSH2 0x4164 JUMPI POP DUP6 DUP4 ADD MLOAD JUMPDEST PUSH1 0x0 NOT PUSH1 0x3 DUP7 SWAP1 SHL SHR NOT AND PUSH1 0x1 DUP6 SWAP1 SHL OR DUP6 SSTORE PUSH2 0x22DC JUMP JUMPDEST PUSH1 0x0 DUP6 DUP2 MSTORE PUSH1 0x20 DUP2 KECCAK256 PUSH1 0x1F NOT DUP7 AND SWAP2 JUMPDEST DUP3 DUP2 LT ISZERO PUSH2 0x41AB JUMPI DUP9 DUP7 ADD MLOAD DUP3 SSTORE SWAP5 DUP5 ADD SWAP5 PUSH1 0x1 SWAP1 SWAP2 ADD SWAP1 DUP5 ADD PUSH2 0x418C JUMP JUMPDEST POP DUP6 DUP3 LT ISZERO PUSH2 0x41C9 JUMPI DUP8 DUP6 ADD MLOAD PUSH1 0x0 NOT PUSH1 0x3 DUP9 SWAP1 SHL PUSH1 0xF8 AND SHR NOT AND DUP2 SSTORE JUMPDEST POP POP POP POP POP PUSH1 0x1 SWAP1 DUP2 SHL ADD SWAP1 SSTORE POP JUMP INVALID LOG2 PUSH5 0x6970667358 0x22 SLT KECCAK256 0xE8 0x26 0xA7 EXTCODEHASH 0xA8 REVERT PUSH10 0x17C77CE929AB95289A43 LOG3 0xB9 0xE7 ADDMOD SLOAD PUSH3 0xD1743F BLOCKHASH 0xEF EXTCODEHASH 0xA5 0xD0 PUSH21 0x64736F6C6343000813003300000000000000000000 "},"methodIdentifiers":{"_frozenWallets(address)":"3eb5cbeb","_owner()":"b2bdfa7b","addToWhitelist(address)":"e43252d7","addVestingSchedule(address,uint256,uint256,uint256)":"24ef8c1b","allowance(address,address)":"dd62ed3e","approve(address,uint256)":"095ea7b3","balanceOf(address)":"70a08231","blackList(address)":"4838d165","burn(uint256)":"42966c68","burnFrom(address,uint256)":"79cc6790","burnableTax()":"d0a1bd44","buySellTaxRate()":"bd0e0acd","cancelOwnershipTransfer()":"23452b9c","castMintVote(bool)":"9b75757a","castVote(bool)":"7ace48e7","claim()":"4e71d92d","decimals()":"313ce567","decreaseAllowance(address,uint256)":"a457c2d7","decreasingTaxInterval()":"622b67cb","disableBuySellTax(bool)":"f217fdbe","finalizeMint()":"a223111c","finalizeOwnershipTransfer()":"bf41c2a4","freezeWallet(address,uint256)":"85be583f","graduallyDecreasingTax()":"5e2f16c8","hasVoted(address)":"09eef43e","hasVotedMint(address)":"93ba3718","includeInTax(address)":"e17c4c74","increaseAllowance(address,uint256)":"39509351","initialize(string,string,uint8,uint256,address,address[])":"f8f1b6c9","isBlackList(address)":"b36d6919","isBuySellTaxEnabled()":"ab8b2f0d","isDeflationary()":"8e8c10a2","isExcludedFromTax(address)":"cb4ca631","isWhitelisted(address)":"3af32abf","lastUpdatedTaxTimestamp()":"760b7e38","liquidityLocked()":"57976fb4","lockLiquidity(uint256)":"2bfbd9cf","lockedLiquidityAmount()":"052c30bc","maxTransactionAmount()":"c8c8ebe4","minTransactionAmount()":"17a5d4df","name()":"06fdde03","owner()":"8da5cb5b","pause()":"8456cb59","paused()":"5c975abb","proposeMint(address,uint256)":"15d4c5d5","proposeOwnershipTransfer(address)":"21040fc3","proposedMintAmount()":"48a33082","proposedMintWallet()":"88063345","proposedOwner()":"d153b60c","removeFromBlacklist(address)":"537df3b6","removeFromWhitelist(address)":"8ab1d681","renounceOwnership()":"715018a6","router()":"f887ea40","setBurnableTax(uint256)":"2a32234f","setBuySellTaxRate(uint256)":"8f376fca","setDeflationary(bool)":"a30ff8b6","setIsExcludedFromTax(address)":"7884d888","setMaxTransferAmount(uint256)":"8bf55409","setMinTransactionAmount(uint256)":"bfed5ce3","setRouter(address)":"c0d78655","setTransferDelay(uint256)":"36e8c9b3","setUSDTAddress(address)":"55eba868","signers(address)":"736c0d5b","symbol()":"95d89b41","totalSupply()":"18160ddd","transfer(address,uint256)":"a9059cbb","transferAllowedAt()":"b5c43db4","transferDelay()":"0a702e8d","transferFrom(address,address,uint256)":"23b872dd","transferOwnership(address)":"f2fde38b","unfreezeWallet(address)":"60f588b7","unlockLiquidity(uint256)":"96e83924","unpause()":"3f4ba83a","usdt()":"2f48ab7d","vestingInfo(address)":"f78e633d","voters(uint256)":"da58c7d9","withdrawDumpToken(address,address)":"99672158","withdrawEth(address)":"25e16063"}},"storageLayout":{"storage":[{"astId":138,"contract":"contracts/metallika2.sol:Metallika2","label":"_initialized","offset":0,"slot":"0","type":"t_uint8"},{"astId":141,"contract":"contracts/metallika2.sol:Metallika2","label":"_initializing","offset":1,"slot":"0","type":"t_bool"},{"astId":1577,"contract":"contracts/metallika2.sol:Metallika2","label":"__gap","offset":0,"slot":"1","type":"t_array(t_uint256)50_storage"},{"astId":446,"contract":"contracts/metallika2.sol:Metallika2","label":"_balances","offset":0,"slot":"51","type":"t_mapping(t_address,t_uint256)"},{"astId":452,"contract":"contracts/metallika2.sol:Metallika2","label":"_allowances","offset":0,"slot":"52","type":"t_mapping(t_address,t_mapping(t_address,t_uint256))"},{"astId":454,"contract":"contracts/metallika2.sol:Metallika2","label":"_totalSupply","offset":0,"slot":"53","type":"t_uint256"},{"astId":456,"contract":"contracts/metallika2.sol:Metallika2","label":"_name","offset":0,"slot":"54","type":"t_string_storage"},{"astId":458,"contract":"contracts/metallika2.sol:Metallika2","label":"_symbol","offset":0,"slot":"55","type":"t_string_storage"},{"astId":1038,"contract":"contracts/metallika2.sol:Metallika2","label":"__gap","offset":0,"slot":"56","type":"t_array(t_uint256)45_storage"},{"astId":1180,"contract":"contracts/metallika2.sol:Metallika2","label":"__gap","offset":0,"slot":"101","type":"t_array(t_uint256)50_storage"},{"astId":10,"contract":"contracts/metallika2.sol:Metallika2","label":"_owner","offset":0,"slot":"151","type":"t_address"},{"astId":130,"contract":"contracts/metallika2.sol:Metallika2","label":"__gap","offset":0,"slot":"152","type":"t_array(t_uint256)49_storage"},{"astId":321,"contract":"contracts/metallika2.sol:Metallika2","label":"_paused","offset":0,"slot":"201","type":"t_bool"},{"astId":426,"contract":"contracts/metallika2.sol:Metallika2","label":"__gap","offset":0,"slot":"202","type":"t_array(t_uint256)49_storage"},{"astId":2626,"contract":"contracts/metallika2.sol:Metallika2","label":"_owner","offset":0,"slot":"251","type":"t_address"},{"astId":2628,"contract":"contracts/metallika2.sol:Metallika2","label":"minTransactionAmount","offset":0,"slot":"252","type":"t_uint256"},{"astId":2630,"contract":"contracts/metallika2.sol:Metallika2","label":"maxTransactionAmount","offset":0,"slot":"253","type":"t_uint256"},{"astId":2632,"contract":"contracts/metallika2.sol:Metallika2","label":"transferDelay","offset":0,"slot":"254","type":"t_uint256"},{"astId":2634,"contract":"contracts/metallika2.sol:Metallika2","label":"lockedLiquidityAmount","offset":0,"slot":"255","type":"t_uint256"},{"astId":2636,"contract":"contracts/metallika2.sol:Metallika2","label":"liquidityLocked","offset":0,"slot":"256","type":"t_bool"},{"astId":2638,"contract":"contracts/metallika2.sol:Metallika2","label":"isDeflationary","offset":1,"slot":"256","type":"t_bool"},{"astId":2642,"contract":"contracts/metallika2.sol:Metallika2","label":"isExcludedFromTax","offset":0,"slot":"257","type":"t_mapping(t_address,t_bool)"},{"astId":2644,"contract":"contracts/metallika2.sol:Metallika2","label":"burnableTax","offset":0,"slot":"258","type":"t_uint256"},{"astId":2646,"contract":"contracts/metallika2.sol:Metallika2","label":"graduallyDecreasingTax","offset":0,"slot":"259","type":"t_uint256"},{"astId":2648,"contract":"contracts/metallika2.sol:Metallika2","label":"buySellTaxRate","offset":0,"slot":"260","type":"t_uint256"},{"astId":2650,"contract":"contracts/metallika2.sol:Metallika2","label":"decreasingTaxInterval","offset":0,"slot":"261","type":"t_uint256"},{"astId":2652,"contract":"contracts/metallika2.sol:Metallika2","label":"lastUpdatedTaxTimestamp","offset":0,"slot":"262","type":"t_uint256"},{"astId":2654,"contract":"contracts/metallika2.sol:Metallika2","label":"isBuySellTaxEnabled","offset":0,"slot":"263","type":"t_bool"},{"astId":2656,"contract":"contracts/metallika2.sol:Metallika2","label":"usdt","offset":1,"slot":"263","type":"t_address"},{"astId":2658,"contract":"contracts/metallika2.sol:Metallika2","label":"proposedOwner","offset":0,"slot":"264","type":"t_address"},{"astId":2660,"contract":"contracts/metallika2.sol:Metallika2","label":"proposedMintWallet","offset":0,"slot":"265","type":"t_address"},{"astId":2662,"contract":"contracts/metallika2.sol:Metallika2","label":"proposedMintAmount","offset":0,"slot":"266","type":"t_uint256"},{"astId":2665,"contract":"contracts/metallika2.sol:Metallika2","label":"voters","offset":0,"slot":"267","type":"t_array(t_address)dyn_storage"},{"astId":2669,"contract":"contracts/metallika2.sol:Metallika2","label":"hasVoted","offset":0,"slot":"268","type":"t_mapping(t_address,t_bool)"},{"astId":2673,"contract":"contracts/metallika2.sol:Metallika2","label":"hasVotedMint","offset":0,"slot":"269","type":"t_mapping(t_address,t_bool)"},{"astId":2690,"contract":"contracts/metallika2.sol:Metallika2","label":"isBlacklisted","offset":0,"slot":"270","type":"t_mapping(t_address,t_bool)"},{"astId":2694,"contract":"contracts/metallika2.sol:Metallika2","label":"_transferAllowedAt","offset":0,"slot":"271","type":"t_mapping(t_address,t_uint256)"},{"astId":2698,"contract":"contracts/metallika2.sol:Metallika2","label":"_frozenWallets","offset":0,"slot":"272","type":"t_mapping(t_address,t_uint256)"},{"astId":2702,"contract":"contracts/metallika2.sol:Metallika2","label":"_whitelistedWallets","offset":0,"slot":"273","type":"t_mapping(t_address,t_bool)"},{"astId":2706,"contract":"contracts/metallika2.sol:Metallika2","label":"signers","offset":0,"slot":"274","type":"t_mapping(t_address,t_bool)"},{"astId":2711,"contract":"contracts/metallika2.sol:Metallika2","label":"vestingInfo","offset":0,"slot":"275","type":"t_mapping(t_address,t_struct(Vesting)2686_storage)"},{"astId":2713,"contract":"contracts/metallika2.sol:Metallika2","label":"router","offset":0,"slot":"276","type":"t_address"}],"types":{"t_address":{"encoding":"inplace","label":"address","numberOfBytes":"20"},"t_array(t_address)dyn_storage":{"base":"t_address","encoding":"dynamic_array","label":"address[]","numberOfBytes":"32"},"t_array(t_uint256)45_storage":{"base":"t_uint256","encoding":"inplace","label":"uint256[45]","numberOfBytes":"1440"},"t_array(t_uint256)49_storage":{"base":"t_uint256","encoding":"inplace","label":"uint256[49]","numberOfBytes":"1568"},"t_array(t_uint256)50_storage":{"base":"t_uint256","encoding":"inplace","label":"uint256[50]","numberOfBytes":"1600"},"t_bool":{"encoding":"inplace","label":"bool","numberOfBytes":"1"},"t_mapping(t_address,t_bool)":{"encoding":"mapping","key":"t_address","label":"mapping(address => bool)","numberOfBytes":"32","value":"t_bool"},"t_mapping(t_address,t_mapping(t_address,t_uint256))":{"encoding":"mapping","key":"t_address","label":"mapping(address => mapping(address => uint256))","numberOfBytes":"32","value":"t_mapping(t_address,t_uint256)"},"t_mapping(t_address,t_struct(Vesting)2686_storage)":{"encoding":"mapping","key":"t_address","label":"mapping(address => struct Metallika2.Vesting)","numberOfBytes":"32","value":"t_struct(Vesting)2686_storage"},"t_mapping(t_address,t_uint256)":{"encoding":"mapping","key":"t_address","label":"mapping(address => uint256)","numberOfBytes":"32","value":"t_uint256"},"t_string_storage":{"encoding":"bytes","label":"string","numberOfBytes":"32"},"t_struct(Vesting)2686_storage":{"encoding":"inplace","label":"struct Metallika2.Vesting","members":[{"astId":2675,"contract":"contracts/metallika2.sol:Metallika2","label":"amount","offset":0,"slot":"0","type":"t_uint256"},{"astId":2677,"contract":"contracts/metallika2.sol:Metallika2","label":"beneficiary","offset":0,"slot":"1","type":"t_address"},{"astId":2679,"contract":"contracts/metallika2.sol:Metallika2","label":"percentageOfTokensToBeReleased","offset":0,"slot":"2","type":"t_uint256"},{"astId":2681,"contract":"contracts/metallika2.sol:Metallika2","label":"timeInterval","offset":0,"slot":"3","type":"t_uint256"},{"astId":2683,"contract":"contracts/metallika2.sol:Metallika2","label":"lastWithdrawTimestamp","offset":0,"slot":"4","type":"t_uint256"},{"astId":2685,"contract":"contracts/metallika2.sol:Metallika2","label":"claimedTokens","offset":0,"slot":"5","type":"t_uint256"}],"numberOfBytes":"192"},"t_uint256":{"encoding":"inplace","label":"uint256","numberOfBytes":"32"},"t_uint8":{"encoding":"inplace","label":"uint8","numberOfBytes":"1"}}}}}}