{"contracts/metallika2.sol":{"Metallika2":{"abi":[{"anonymous":false,"inputs":[{"indexed":true,"internalType":"address","name":"owner","type":"address"},{"indexed":true,"internalType":"address","name":"spender","type":"address"},{"indexed":false,"internalType":"uint256","name":"value","type":"uint256"}],"name":"Approval","type":"event"},{"anonymous":false,"inputs":[{"indexed":false,"internalType":"uint8","name":"version","type":"uint8"}],"name":"Initialized","type":"event"},{"anonymous":false,"inputs":[{"indexed":true,"internalType":"address","name":"newOwner","type":"address"}],"name":"OwnershipTransferProposed","type":"event"},{"anonymous":false,"inputs":[{"indexed":true,"internalType":"address","name":"previousOwner","type":"address"},{"indexed":true,"internalType":"address","name":"newOwner","type":"address"}],"name":"OwnershipTransferred","type":"event"},{"anonymous":false,"inputs":[{"indexed":false,"internalType":"address","name":"account","type":"address"}],"name":"Paused","type":"event"},{"anonymous":false,"inputs":[{"indexed":true,"internalType":"address","name":"from","type":"address"},{"indexed":true,"internalType":"address","name":"to","type":"address"},{"indexed":false,"internalType":"uint256","name":"value","type":"uint256"}],"name":"Transfer","type":"event"},{"anonymous":false,"inputs":[{"indexed":false,"internalType":"address","name":"account","type":"address"}],"name":"Unpaused","type":"event"},{"anonymous":false,"inputs":[{"indexed":true,"internalType":"address","name":"voter","type":"address"},{"indexed":false,"internalType":"bool","name":"approve","type":"bool"}],"name":"VoteCasted","type":"event"},{"inputs":[{"internalType":"address","name":"","type":"address"}],"name":"_frozenWallets","outputs":[{"internalType":"uint256","name":"","type":"uint256"}],"stateMutability":"view","type":"function"},{"inputs":[],"name":"_owner","outputs":[{"internalType":"address","name":"","type":"address"}],"stateMutability":"view","type":"function"},{"inputs":[{"internalType":"address","name":"wallet","type":"address"}],"name":"addToWhitelist","outputs":[],"stateMutability":"nonpayable","type":"function"},{"inputs":[{"internalType":"address","name":"beneficiary","type":"address"},{"internalType":"uint256","name":"amount","type":"uint256"},{"internalType":"uint256","name":"percentageToRelease","type":"uint256"},{"internalType":"uint256","name":"timeInterval","type":"uint256"}],"name":"addVestingSchedule","outputs":[],"stateMutability":"nonpayable","type":"function"},{"inputs":[{"internalType":"address","name":"owner","type":"address"},{"internalType":"address","name":"spender","type":"address"}],"name":"allowance","outputs":[{"internalType":"uint256","name":"","type":"uint256"}],"stateMutability":"view","type":"function"},{"inputs":[{"internalType":"address","name":"spender","type":"address"},{"internalType":"uint256","name":"amount","type":"uint256"}],"name":"approve","outputs":[{"internalType":"bool","name":"","type":"bool"}],"stateMutability":"nonpayable","type":"function"},{"inputs":[{"internalType":"address","name":"account","type":"address"}],"name":"balanceOf","outputs":[{"internalType":"uint256","name":"","type":"uint256"}],"stateMutability":"view","type":"function"},{"inputs":[{"internalType":"address","name":"_user","type":"address"}],"name":"blackList","outputs":[],"stateMutability":"nonpayable","type":"function"},{"inputs":[{"internalType":"uint256","name":"amount","type":"uint256"}],"name":"burn","outputs":[],"stateMutability":"nonpayable","type":"function"},{"inputs":[{"internalType":"address","name":"account","type":"address"},{"internalType":"uint256","name":"amount","type":"uint256"}],"name":"burnFrom","outputs":[],"stateMutability":"nonpayable","type":"function"},{"inputs":[],"name":"burnableTax","outputs":[{"internalType":"uint256","name":"","type":"uint256"}],"stateMutability":"view","type":"function"},{"inputs":[],"name":"buySellTaxRate","outputs":[{"internalType":"uint256","name":"","type":"uint256"}],"stateMutability":"view","type":"function"},{"inputs":[],"name":"cancelOwnershipTransfer","outputs":[],"stateMutability":"nonpayable","type":"function"},{"inputs":[{"internalType":"bool","name":"approve","type":"bool"}],"name":"castVote","outputs":[],"stateMutability":"nonpayable","type":"function"},{"inputs":[],"name":"claim","outputs":[],"stateMutability":"nonpayable","type":"function"},{"inputs":[],"name":"decimals","outputs":[{"internalType":"uint8","name":"","type":"uint8"}],"stateMutability":"view","type":"function"},{"inputs":[{"internalType":"address","name":"spender","type":"address"},{"internalType":"uint256","name":"subtractedValue","type":"uint256"}],"name":"decreaseAllowance","outputs":[{"internalType":"bool","name":"","type":"bool"}],"stateMutability":"nonpayable","type":"function"},{"inputs":[],"name":"decreasingTaxInterval","outputs":[{"internalType":"uint256","name":"","type":"uint256"}],"stateMutability":"view","type":"function"},{"inputs":[{"internalType":"bool","name":"_enabled","type":"bool"}],"name":"disableBuySellTax","outputs":[],"stateMutability":"nonpayable","type":"function"},{"inputs":[],"name":"finalizeOwnershipTransfer","outputs":[],"stateMutability":"nonpayable","type":"function"},{"inputs":[{"internalType":"address","name":"wallet","type":"address"},{"internalType":"uint256","name":"freezeDuration","type":"uint256"}],"name":"freezeWallet","outputs":[],"stateMutability":"nonpayable","type":"function"},{"inputs":[],"name":"graduallyDecreasingTax","outputs":[{"internalType":"uint256","name":"","type":"uint256"}],"stateMutability":"view","type":"function"},{"inputs":[{"internalType":"address","name":"","type":"address"}],"name":"hasVoted","outputs":[{"internalType":"bool","name":"","type":"bool"}],"stateMutability":"view","type":"function"},{"inputs":[{"internalType":"address","name":"wallet","type":"address"}],"name":"includeInTax","outputs":[],"stateMutability":"nonpayable","type":"function"},{"inputs":[{"internalType":"address","name":"spender","type":"address"},{"internalType":"uint256","name":"addedValue","type":"uint256"}],"name":"increaseAllowance","outputs":[{"internalType":"bool","name":"","type":"bool"}],"stateMutability":"nonpayable","type":"function"},{"inputs":[{"internalType":"string","name":"_name","type":"string"},{"internalType":"string","name":"_symbol","type":"string"},{"internalType":"uint8","name":"_decimals","type":"uint8"},{"internalType":"uint256","name":"_initialSupply","type":"uint256"},{"internalType":"address","name":"_router","type":"address"},{"internalType":"address[]","name":"_initialVoters","type":"address[]"}],"name":"initialize","outputs":[],"stateMutability":"nonpayable","type":"function"},{"inputs":[{"internalType":"address","name":"_user","type":"address"}],"name":"isBlackList","outputs":[{"internalType":"bool","name":"","type":"bool"}],"stateMutability":"view","type":"function"},{"inputs":[],"name":"isBuySellTaxEnabled","outputs":[{"internalType":"bool","name":"","type":"bool"}],"stateMutability":"view","type":"function"},{"inputs":[],"name":"isDeflationary","outputs":[{"internalType":"bool","name":"","type":"bool"}],"stateMutability":"view","type":"function"},{"inputs":[{"internalType":"address","name":"","type":"address"}],"name":"isExcludedFromTax","outputs":[{"internalType":"bool","name":"","type":"bool"}],"stateMutability":"view","type":"function"},{"inputs":[{"internalType":"address","name":"user","type":"address"}],"name":"isWhitelisted","outputs":[{"internalType":"bool","name":"","type":"bool"}],"stateMutability":"view","type":"function"},{"inputs":[],"name":"lastUpdatedTaxTimestamp","outputs":[{"internalType":"uint256","name":"","type":"uint256"}],"stateMutability":"view","type":"function"},{"inputs":[],"name":"liquidityLocked","outputs":[{"internalType":"bool","name":"","type":"bool"}],"stateMutability":"view","type":"function"},{"inputs":[{"internalType":"uint256","name":"amount","type":"uint256"}],"name":"lockLiquidity","outputs":[],"stateMutability":"nonpayable","type":"function"},{"inputs":[],"name":"lockedLiquidityAmount","outputs":[{"internalType":"uint256","name":"","type":"uint256"}],"stateMutability":"view","type":"function"},{"inputs":[],"name":"maxTransactionAmount","outputs":[{"internalType":"uint256","name":"","type":"uint256"}],"stateMutability":"view","type":"function"},{"inputs":[],"name":"minTransactionAmount","outputs":[{"internalType":"uint256","name":"","type":"uint256"}],"stateMutability":"view","type":"function"},{"inputs":[{"internalType":"address","name":"account","type":"address"},{"internalType":"uint256","name":"amount","type":"uint256"}],"name":"mint","outputs":[],"stateMutability":"nonpayable","type":"function"},{"inputs":[],"name":"name","outputs":[{"internalType":"string","name":"","type":"string"}],"stateMutability":"view","type":"function"},{"inputs":[],"name":"owner","outputs":[{"internalType":"address","name":"","type":"address"}],"stateMutability":"view","type":"function"},{"inputs":[],"name":"pause","outputs":[],"stateMutability":"nonpayable","type":"function"},{"inputs":[],"name":"paused","outputs":[{"internalType":"bool","name":"","type":"bool"}],"stateMutability":"view","type":"function"},{"inputs":[{"internalType":"address","name":"newOwner","type":"address"}],"name":"proposeOwnershipTransfer","outputs":[],"stateMutability":"nonpayable","type":"function"},{"inputs":[],"name":"proposedOwner","outputs":[{"internalType":"address","name":"","type":"address"}],"stateMutability":"view","type":"function"},{"inputs":[{"internalType":"address","name":"_user","type":"address"}],"name":"removeFromBlacklist","outputs":[],"stateMutability":"nonpayable","type":"function"},{"inputs":[{"internalType":"address","name":"wallet","type":"address"}],"name":"removeFromWhitelist","outputs":[],"stateMutability":"nonpayable","type":"function"},{"inputs":[],"name":"renounceOwnership","outputs":[],"stateMutability":"nonpayable","type":"function"},{"inputs":[],"name":"router","outputs":[{"internalType":"address","name":"","type":"address"}],"stateMutability":"view","type":"function"},{"inputs":[{"internalType":"uint256","name":"_burnableTax","type":"uint256"}],"name":"setBurnableTax","outputs":[],"stateMutability":"nonpayable","type":"function"},{"inputs":[{"internalType":"uint256","name":"_rate","type":"uint256"}],"name":"setBuySellTaxRate","outputs":[],"stateMutability":"nonpayable","type":"function"},{"inputs":[{"internalType":"bool","name":"_enabled","type":"bool"}],"name":"setDeflationary","outputs":[],"stateMutability":"nonpayable","type":"function"},{"inputs":[{"internalType":"uint256","name":"_decreasingTaxInterval","type":"uint256"}],"name":"setGraduallyDecreasingInterval","outputs":[],"stateMutability":"nonpayable","type":"function"},{"inputs":[{"internalType":"uint256","name":"tax","type":"uint256"}],"name":"setGraduallyDecreasingTax","outputs":[],"stateMutability":"nonpayable","type":"function"},{"inputs":[],"name":"setGraduallyDecreasingTaxZero","outputs":[],"stateMutability":"nonpayable","type":"function"},{"inputs":[{"internalType":"address","name":"wallet","type":"address"}],"name":"setIsExcludedFromTax","outputs":[],"stateMutability":"nonpayable","type":"function"},{"inputs":[{"internalType":"uint256","name":"amount","type":"uint256"}],"name":"setMaxTransferAmount","outputs":[],"stateMutability":"nonpayable","type":"function"},{"inputs":[{"internalType":"uint256","name":"amount","type":"uint256"}],"name":"setMinTransactionAmount","outputs":[],"stateMutability":"nonpayable","type":"function"},{"inputs":[{"internalType":"address","name":"_newRouter","type":"address"}],"name":"setRouter","outputs":[],"stateMutability":"nonpayable","type":"function"},{"inputs":[{"internalType":"uint256","name":"delay","type":"uint256"}],"name":"setTransferDelay","outputs":[],"stateMutability":"nonpayable","type":"function"},{"inputs":[{"internalType":"address","name":"_usdt","type":"address"}],"name":"setUSDTAddress","outputs":[],"stateMutability":"nonpayable","type":"function"},{"inputs":[{"internalType":"address","name":"","type":"address"}],"name":"signers","outputs":[{"internalType":"bool","name":"","type":"bool"}],"stateMutability":"view","type":"function"},{"inputs":[],"name":"symbol","outputs":[{"internalType":"string","name":"","type":"string"}],"stateMutability":"view","type":"function"},{"inputs":[],"name":"totalSupply","outputs":[{"internalType":"uint256","name":"","type":"uint256"}],"stateMutability":"view","type":"function"},{"inputs":[{"internalType":"address","name":"recipient","type":"address"},{"internalType":"uint256","name":"amount","type":"uint256"}],"name":"transfer","outputs":[{"internalType":"bool","name":"","type":"bool"}],"stateMutability":"nonpayable","type":"function"},{"inputs":[],"name":"transferAllowedAt","outputs":[{"internalType":"uint256","name":"","type":"uint256"}],"stateMutability":"view","type":"function"},{"inputs":[],"name":"transferDelay","outputs":[{"internalType":"uint256","name":"","type":"uint256"}],"stateMutability":"view","type":"function"},{"inputs":[{"internalType":"address","name":"from","type":"address"},{"internalType":"address","name":"to","type":"address"},{"internalType":"uint256","name":"amount","type":"uint256"}],"name":"transferFrom","outputs":[{"internalType":"bool","name":"","type":"bool"}],"stateMutability":"nonpayable","type":"function"},{"inputs":[{"internalType":"address","name":"newOwner","type":"address"}],"name":"transferOwnership","outputs":[],"stateMutability":"nonpayable","type":"function"},{"inputs":[{"internalType":"address","name":"wallet","type":"address"}],"name":"unfreezeWallet","outputs":[],"stateMutability":"nonpayable","type":"function"},{"inputs":[{"internalType":"uint256","name":"amount","type":"uint256"}],"name":"unlockLiquidity","outputs":[],"stateMutability":"nonpayable","type":"function"},{"inputs":[],"name":"unpause","outputs":[],"stateMutability":"nonpayable","type":"function"},{"inputs":[],"name":"updateGraduallyDecreasingTax","outputs":[],"stateMutability":"nonpayable","type":"function"},{"inputs":[],"name":"usdt","outputs":[{"internalType":"address","name":"","type":"address"}],"stateMutability":"view","type":"function"},{"inputs":[{"internalType":"address","name":"","type":"address"}],"name":"vestingInfo","outputs":[{"internalType":"uint256","name":"amount","type":"uint256"},{"internalType":"address","name":"beneficiary","type":"address"},{"internalType":"uint256","name":"percentageOfTokensToBeReleased","type":"uint256"},{"internalType":"uint256","name":"timeInterval","type":"uint256"},{"internalType":"uint256","name":"lastWithdrawTimestamp","type":"uint256"},{"internalType":"uint256","name":"claimedTokens","type":"uint256"}],"stateMutability":"view","type":"function"},{"inputs":[{"internalType":"uint256","name":"","type":"uint256"}],"name":"voters","outputs":[{"internalType":"address","name":"","type":"address"}],"stateMutability":"view","type":"function"},{"inputs":[{"internalType":"address","name":"receiver","type":"address"},{"internalType":"contract IERC20","name":"_token","type":"address"}],"name":"withdrawDumpToken","outputs":[],"stateMutability":"nonpayable","type":"function"},{"inputs":[{"internalType":"address payable","name":"_receiver","type":"address"}],"name":"withdrawEth","outputs":[],"stateMutability":"nonpayable","type":"function"},{"stateMutability":"payable","type":"receive"}],"evm":{"bytecode":{"linkReferences":{},"object":"608060405234801561001057600080fd5b50613f48806100206000396000f3fe6080604052600436106105265760003560e01c80637884d888116102af578063b5c43db411610179578063da58c7d9116100d6578063f217fdbe1161008a578063f78e633d1161006f578063f78e633d14610e90578063f887ea4014610f20578063f8f1b6c914610f4157600080fd5b8063f217fdbe14610e50578063f2fde38b14610e7057600080fd5b8063e17c4c74116100bb578063e17c4c7414610dfb578063e43252d714610e1b578063eb60b83f14610e3b57600080fd5b8063da58c7d914610d95578063dd62ed3e14610db557600080fd5b8063c8c8ebe41161012d578063d0a1bd4411610112578063d0a1bd4414610d3d578063d153b60c14610d54578063d292059e14610d7557600080fd5b8063c8c8ebe414610cf6578063cb4ca63114610d0c57600080fd5b8063bf41c2a41161015e578063bf41c2a414610ca1578063bfed5ce314610cb6578063c0d7865514610cd657600080fd5b8063b5c43db414610c67578063bd0e0acd14610c8a57600080fd5b80638f376fca11610227578063a457c2d7116101db578063ab8b2f0d116101c0578063ab8b2f0d14610bf2578063b2bdfa7b14610c0d578063b36d691914610c2d57600080fd5b8063a457c2d714610bb2578063a9059cbb14610bd257600080fd5b806396e839241161020c57806396e8392414610b525780639967215814610b72578063a30ff8b614610b9257600080fd5b80638f376fca14610b1d57806395d89b4114610b3d57600080fd5b806385be583f1161027e5780638bf55409116102635780638bf5540914610ac15780638da5cb5b14610ae15780638e8c10a214610aff57600080fd5b806385be583f14610a815780638ab1d68114610aa157600080fd5b80637884d88814610a0c57806379cc679014610a2c5780637ace48e714610a4c5780638456cb5914610a6c57600080fd5b80633af32abf116103f057806355eba86811610368578063622b67cb1161031c578063715018a611610301578063715018a6146109af578063736c0d5b146109c4578063760b7e38146109f557600080fd5b8063622b67cb1461096257806370a082311461097957600080fd5b80635c975abb1161034d5780635c975abb146109135780635e2f16c81461092b57806360f588b71461094257600080fd5b806355eba868146108d857806357976fb4146108f857600080fd5b806342966c68116103bf5780634e71d92d116103a45780634e71d92d14610883578063537df3b614610898578063553ba06c146108b857600080fd5b806342966c68146108435780634838d1651461086357600080fd5b80633af32abf146107a65780633eb5cbeb146107e05780633f4ba83a1461080e57806340c10f191461082357600080fd5b806323452b9c1161049e5780632bfbd9cf11610452578063313ce56711610437578063313ce5671461074a57806336e8c9b314610766578063395093511461078657600080fd5b80632bfbd9cf146106ec5780632f48ab7d1461070c57600080fd5b806324ef8c1b1161048357806324ef8c1b1461068b57806325e16063146106ab5780632a32234f146106cb57600080fd5b806323452b9c1461065657806323b872dd1461066b57600080fd5b80630a702e8d116104f557806317a5d4df116104da57806317a5d4df1461060b57806318160ddd1461062157806321040fc31461063657600080fd5b80630a702e8d146105de5780630b4d57f5146105f457600080fd5b8063052c30bc1461053257806306fdde031461055b578063095ea7b31461057d57806309eef43e146105ad57600080fd5b3661052d57005b600080fd5b34801561053e57600080fd5b5061054860ff5481565b6040519081526020015b60405180910390f35b34801561056757600080fd5b50610570610f61565b6040516105529190613856565b34801561058957600080fd5b5061059d6105983660046138c9565b610ff3565b6040519015158152602001610552565b3480156105b957600080fd5b5061059d6105c83660046138f5565b61010a6020526000908152604090205460ff1681565b3480156105ea57600080fd5b5061054860fe5481565b34801561060057600080fd5b5061060961100d565b005b34801561061757600080fd5b5061054860fc5481565b34801561062d57600080fd5b50603554610548565b34801561064257600080fd5b506106096106513660046138f5565b61108a565b34801561066257600080fd5b50610609611138565b34801561067757600080fd5b5061059d610686366004613912565b6111c0565b34801561069757600080fd5b506106096106a6366004613953565b611419565b3480156106b757600080fd5b506106096106c63660046138f5565b6115e5565b3480156106d757600080fd5b506106096106e636600461398e565b61010255565b3480156106f857600080fd5b5061060961070736600461398e565b61167c565b34801561071857600080fd5b50610107546107329061010090046001600160a01b031681565b6040516001600160a01b039091168152602001610552565b34801561075657600080fd5b5060405160128152602001610552565b34801561077257600080fd5b5061060961078136600461398e565b61175b565b34801561079257600080fd5b5061059d6107a13660046138c9565b611768565b3480156107b257600080fd5b5061059d6107c13660046138f5565b6001600160a01b0316600090815261010e602052604090205460ff1690565b3480156107ec57600080fd5b506105486107fb3660046138f5565b61010d6020526000908152604090205481565b34801561081a57600080fd5b506106096117a7565b34801561082f57600080fd5b5061060961083e3660046138c9565b6117b9565b34801561084f57600080fd5b5061060961085e36600461398e565b6117cb565b34801561086f57600080fd5b5061060961087e3660046138f5565b6117d5565b34801561088f57600080fd5b5061060961186c565b3480156108a457600080fd5b506106096108b33660046138f5565b611aae565b3480156108c457600080fd5b506106096108d336600461398e565b611b41565b3480156108e457600080fd5b506106096108f33660046138f5565b611b4f565b34801561090457600080fd5b506101005461059d9060ff1681565b34801561091f57600080fd5b5060c95460ff1661059d565b34801561093757600080fd5b506105486101035481565b34801561094e57600080fd5b5061060961095d3660046138f5565b611b97565b34801561096e57600080fd5b506105486101055481565b34801561098557600080fd5b506105486109943660046138f5565b6001600160a01b031660009081526033602052604090205490565b3480156109bb57600080fd5b50610609611bba565b3480156109d057600080fd5b5061059d6109df3660046138f5565b61010f6020526000908152604090205460ff1681565b348015610a0157600080fd5b506105486101065481565b348015610a1857600080fd5b50610609610a273660046138f5565b611bcc565b348015610a3857600080fd5b50610609610a473660046138c9565b611bf9565b348015610a5857600080fd5b50610609610a673660046139b5565b611c0b565b348015610a7857600080fd5b50610609611d1b565b348015610a8d57600080fd5b50610609610a9c3660046138c9565b611d2b565b348015610aad57600080fd5b50610609610abc3660046138f5565b611db4565b348015610acd57600080fd5b50610609610adc36600461398e565b611dde565b348015610aed57600080fd5b506097546001600160a01b0316610732565b348015610b0b57600080fd5b50610100805461059d9160ff91041681565b348015610b2957600080fd5b50610609610b3836600461398e565b611deb565b348015610b4957600080fd5b50610570611df9565b348015610b5e57600080fd5b50610609610b6d36600461398e565b611e08565b348015610b7e57600080fd5b50610609610b8d3660046139d2565b611ee2565b348015610b9e57600080fd5b50610609610bad3660046139b5565b612001565b348015610bbe57600080fd5b5061059d610bcd3660046138c9565b612020565b348015610bde57600080fd5b5061059d610bed3660046138c9565b6120d5565b348015610bfe57600080fd5b506101075461059d9060ff1681565b348015610c1957600080fd5b5060fb54610732906001600160a01b031681565b348015610c3957600080fd5b5061059d610c483660046138f5565b6001600160a01b0316600090815261010b602052604090205460ff1690565b348015610c7357600080fd5b5033600090815261010c6020526040902054610548565b348015610c9657600080fd5b506105486101045481565b348015610cad57600080fd5b50610609612317565b348015610cc257600080fd5b50610609610cd136600461398e565b6124d9565b348015610ce257600080fd5b50610609610cf13660046138f5565b6124e6565b348015610d0257600080fd5b5061054860fd5481565b348015610d1857600080fd5b5061059d610d273660046138f5565b6101016020526000908152604090205460ff1681565b348015610d4957600080fd5b506105486101025481565b348015610d6057600080fd5b5061010854610732906001600160a01b031681565b348015610d8157600080fd5b50610609610d9036600461398e565b61252a565b348015610da157600080fd5b50610732610db036600461398e565b612538565b348015610dc157600080fd5b50610548610dd03660046139d2565b6001600160a01b03918216600090815260346020908152604080832093909416825291909152205490565b348015610e0757600080fd5b50610609610e163660046138f5565b612563565b348015610e2757600080fd5b50610609610e363660046138f5565b61258d565b348015610e4757600080fd5b506106096125ba565b348015610e5c57600080fd5b50610609610e6b3660046139b5565b6125ca565b348015610e7c57600080fd5b50610609610e8b3660046138f5565b6125e6565b348015610e9c57600080fd5b50610eeb610eab3660046138f5565b6101106020526000908152604090208054600182015460028301546003840154600485015460059095015493946001600160a01b03909316939192909186565b604080519687526001600160a01b039095166020870152938501929092526060840152608083015260a082015260c001610552565b348015610f2c57600080fd5b5061011154610732906001600160a01b031681565b348015610f4d57600080fd5b50610609610f5c366004613b4b565b61265c565b606060368054610f7090613c08565b80601f0160208091040260200160405190810160405280929190818152602001828054610f9c90613c08565b8015610fe95780601f10610fbe57610100808354040283529160200191610fe9565b820191906000526020600020905b815481529060010190602001808311610fcc57829003601f168201915b5050505050905090565b600033611001818585612947565b60019150505b92915050565b6000610106544261101e9190613c58565b90506101055481106110875760006101045461271061103d9190613c58565b1161105057506000610103554261010655565b61271061010454610103546110659190613c6b565b61106f9190613c82565b6101045461107d9190613c58565b6101045542610106555b50565b611092612a9f565b6001600160a01b0381166110ed5760405162461bcd60e51b815260206004820181905260248201527f4e6577206f776e65722063616e6e6f74206265207a65726f206164647265737360448201526064015b60405180910390fd5b61010880546001600160a01b0319166001600160a01b0383169081179091556040517ff0c6916d81cd1f899264b5193e3bbe7afd2bcc3d05704bab73d0b8ac9387115890600090a250565b611140612a9f565b61010880546001600160a01b031916905560005b6101095481101561108757600061010a6000610109848154811061117a5761117a613ca4565b6000918252602080832091909101546001600160a01b031683528201929092526040019020805460ff1916911515919091179055806111b881613cba565b915050611154565b6001600160a01b038316600090815261010d60205260408120548490158061120057506001600160a01b038116600090815261010d602052604090205442115b61124c5760405162461bcd60e51b815260206004820152601060248201527f57616c6c65742069732066726f7a656e0000000000000000000000000000000060448201526064016110e4565b33600081815261010e6020526040902054849060ff1661130a5760fc548110156112b85760405162461bcd60e51b815260206004820152601460248201527f416d6f756e742062656c6f77206d696e696d756d00000000000000000000000060448201526064016110e4565b60fd5481111561130a5760405162461bcd60e51b815260206004820152601660248201527f416d6f756e742065786365656473206d6178696d756d0000000000000000000060448201526064016110e4565b6001600160a01b038716600090815261010b602052604090205460ff16156113745760405162461bcd60e51b815260206004820152601e60248201527f53656e64657227732077616c6c657420697320626c61636b6c6973746564000060448201526064016110e4565b33600090815261010c60205260409020544210156113d45760405162461bcd60e51b815260206004820152601860248201527f5472616e73666572206e6f7420616c6c6f77656420796574000000000000000060448201526064016110e4565b60fe546113e19042613cd3565b33600081815261010c6020526040902091909155611400888288612af9565b61140b888888612b8b565b506001979650505050505050565b611421612a9f565b6001600160a01b03841661149d5760405162461bcd60e51b815260206004820152602260248201527f42656e656669636961727920616464726573732063616e6e6f74206265207a6560448201527f726f00000000000000000000000000000000000000000000000000000000000060648201526084016110e4565b6000821180156114af57506127108211155b6115205760405162461bcd60e51b8152602060048201526024808201527f50657263656e74616765206d757374206265206265747765656e203120616e6460448201527f203130300000000000000000000000000000000000000000000000000000000060648201526084016110e4565b600081116115965760405162461bcd60e51b815260206004820152602760248201527f54696d6520696e74657276616c206d757374206265206772656174657220746860448201527f616e207a65726f0000000000000000000000000000000000000000000000000060648201526084016110e4565b6001600160a01b039093166000818152610110602052604081209384556001840180546001600160a01b0319169092179091556002830191909155600382019290925542600482015560050155565b6115ed612a9f565b6001600160a01b0381166116435760405162461bcd60e51b815260206004820152600f60248201527f496e76616c69642061646472657373000000000000000000000000000000000060448201526064016110e4565b6040516001600160a01b038216904780156108fc02916000818181858888f19350505050158015611678573d6000803e3d6000fd5b5050565b6101005460ff16156116d05760405162461bcd60e51b815260206004820152601360248201527f4c6971756964697479206973206c6f636b65640000000000000000000000000060448201526064016110e4565b3060009081526033602052604090205481111561172f5760405162461bcd60e51b815260206004820152601460248201527f496e73756666696369656e742062616c616e636500000000000000000000000060448201526064016110e4565b61173930826120d5565b5060ff546117479082612f23565b60ff5550610100805460ff19166001179055565b611763612a9f565b60fe55565b3360008181526034602090815260408083206001600160a01b038716845290915281205490919061100190829086906117a2908790613cd3565b612947565b6117af612a9f565b6117b7612f36565b565b6117c1612a9f565b6116788282612f88565b6110873382613049565b6117dd612a9f565b6001600160a01b038116600090815261010b602052604090205460ff16156118475760405162461bcd60e51b815260206004820152601860248201527f7573657220616c726561647920626c61636b6c6973746564000000000000000060448201526064016110e4565b6001600160a01b0316600090815261010b60205260409020805460ff19166001179055565b3360009081526101106020526040902080546118f05760405162461bcd60e51b815260206004820152602860248201527f4e6f2076657374696e67207363686564756c6520666f756e6420666f7220746860448201527f652073656e64657200000000000000000000000000000000000000000000000060648201526084016110e4565b600481015442906000906119049083613c58565b835460038501549192509082101561195e5760405162461bcd60e51b815260206004820152601c60248201527f546f6b656e732063616e6e6f7420626520636c61696d6564207965740000000060448201526064016110e4565b60006127108560020154836119739190613c6b565b61197d9190613c82565b9050808560050160008282546119939190613cd3565b90915550506004850184905581811115611a155760405162461bcd60e51b815260206004820152602a60248201527f546f6b656e7320746f20636c61696d2065786365656420746f74616c2076657360448201527f74656420746f6b656e730000000000000000000000000000000000000000000060648201526084016110e4565b845460058601541115611a905760405162461bcd60e51b815260206004820152602960248201527f4e6f7420656e6f75676820746f6b656e7320696e207468652076657374696e6760448201527f207363686564756c65000000000000000000000000000000000000000000000060648201526084016110e4565b60fb54611aa7906001600160a01b03163383612b8b565b5050505050565b611ab6612a9f565b6001600160a01b038116600090815261010b602052604090205460ff16611b1f5760405162461bcd60e51b815260206004820152601860248201527f7573657220616c726561647920626c61636b6c6973746564000000000000000060448201526064016110e4565b6001600160a01b0316600090815261010b60205260409020805460ff19169055565b611b49612a9f565b61010555565b611b57612a9f565b61010780546001600160a01b03909216610100027fffffffffffffffffffffff0000000000000000000000000000000000000000ff909216919091179055565b611b9f612a9f565b6001600160a01b0316600090815261010d6020526040812055565b611bc2612a9f565b6117b760006131b4565b611bd4612a9f565b6001600160a01b0316600090815261010160205260409020805460ff19166001179055565b611c01612a9f565b6116788282613049565b611c1433613206565b611c605760405162461bcd60e51b815260206004820152601160248201527f4e6f7420612076616c696420766f74657200000000000000000000000000000060448201526064016110e4565b33600090815261010a602052604090205460ff1615611cc15760405162461bcd60e51b815260206004820152600d60248201527f416c726561647920766f7465640000000000000000000000000000000000000060448201526064016110e4565b33600081815261010a602052604090819020805460ff19166001179055517fa4861c5510bfa99706ed508d728f9c6b365ff27af1a3012e21980952ad2d844f90611d1090841515815260200190565b60405180910390a250565b611d23612a9f565b6117b7613271565b611d33612a9f565b6001600160a01b038216611d895760405162461bcd60e51b815260206004820152601660248201527f496e76616c69642077616c6c657420616464726573730000000000000000000060448201526064016110e4565b611d938142613cd3565b6001600160a01b03909216600090815261010d602052604090209190915550565b611dbc612a9f565b6001600160a01b0316600090815261010e60205260409020805460ff19169055565b611de6612a9f565b60fd55565b611df3612a9f565b61010455565b606060378054610f7090613c08565b6101005460ff16611e5b5760405162461bcd60e51b815260206004820152601760248201527f4c6971756964697479206973206e6f74206c6f636b656400000000000000000060448201526064016110e4565b8060ff541015611ead5760405162461bcd60e51b815260206004820152601b60248201527f4e6f7420656e6f756768206c6f636b6564206c6971756964697479000000000060448201526064016110e4565b60fb54611ec3906001600160a01b0316826120d5565b5060ff54611ed190826132ae565b60ff5550610100805460ff19169055565b611eea612a9f565b6040517f70a082310000000000000000000000000000000000000000000000000000000081523060048201526001600160a01b0382169063a9059cbb90849083906370a0823190602401602060405180830381865afa158015611f51573d6000803e3d6000fd5b505050506040513d601f19601f82011682018060405250810190611f759190613ce6565b6040517fffffffff0000000000000000000000000000000000000000000000000000000060e085901b1681526001600160a01b03909216600483015260248201526044016020604051808303816000875af1158015611fd8573d6000803e3d6000fd5b505050506040513d601f19601f82011682018060405250810190611ffc9190613cff565b505050565b612009612a9f565b610100805461ff0019169115158102919091179055565b3360008181526034602090815260408083206001600160a01b0387168452909152812054909190838110156120bd5760405162461bcd60e51b815260206004820152602560248201527f45524332303a2064656372656173656420616c6c6f77616e63652062656c6f7760448201527f207a65726f00000000000000000000000000000000000000000000000000000060648201526084016110e4565b6120ca8286868403612947565b506001949350505050565b60006120df6132ba565b33600081815261010d6020526040902054158061211457506001600160a01b038116600090815261010d602052604090205442115b6121605760405162461bcd60e51b815260206004820152601060248201527f57616c6c65742069732066726f7a656e0000000000000000000000000000000060448201526064016110e4565b33600081815261010e6020526040902054849060ff1661221e5760fc548110156121cc5760405162461bcd60e51b815260206004820152601460248201527f416d6f756e742062656c6f77206d696e696d756d00000000000000000000000060448201526064016110e4565b60fd5481111561221e5760405162461bcd60e51b815260206004820152601660248201527f416d6f756e742065786365656473206d6178696d756d0000000000000000000060448201526064016110e4565b33600090815261010b602052604090205460ff161561227f5760405162461bcd60e51b815260206004820152601e60248201527f53656e64657227732077616c6c657420697320626c61636b6c6973746564000060448201526064016110e4565b33600090815261010c60205260409020544210156122df5760405162461bcd60e51b815260206004820152601860248201527f5472616e73666572206e6f7420616c6c6f77656420796574000000000000000060448201526064016110e4565b60fe546122ec9042613cd3565b33600081815261010c602052604090209190915561230b908787612b8b565b50600195945050505050565b61231f612a9f565b61010954600090815b818110156123965761010a6000610109838154811061234957612349613ca4565b60009182526020808320909101546001600160a01b0316835282019290925260400190205460ff1615612384578261238081613cba565b9350505b8061238e81613cba565b915050612328565b50818114806123e75760405162461bcd60e51b815260206004820152601660248201527f496e73756666696369656e7420617070726f76616c730000000000000000000060448201526064016110e4565b60006123fb6097546001600160a01b031690565b610108549091506001600160a01b0316612414816125e6565b61010880546001600160a01b031916905560005b8481101561249157600061010a6000610109848154811061244b5761244b613ca4565b6000918252602080832091909101546001600160a01b031683528201929092526040019020805460ff19169115159190911790558061248981613cba565b915050612428565b50806001600160a01b0316826001600160a01b03167f8be0079c531659141344cd1fd0a4f28419497f9722a3daafe3b4186f6b6457e060405160405180910390a35050505050565b6124e1612a9f565b60fc55565b6124ee612a9f565b61011180546001600160a01b039092166001600160a01b031990921682179055600090815261010160205260409020805460ff19166001179055565b612532612a9f565b61010355565b610109818154811061254957600080fd5b6000918252602090912001546001600160a01b0316905081565b61256b612a9f565b6001600160a01b0316600090815261010160205260409020805460ff19169055565b612595612a9f565b6001600160a01b0316600090815261010e60205260409020805460ff19166001179055565b6125c2612a9f565b600061010355565b6125d2612a9f565b610107805460ff1916911515919091179055565b6125ee612a9f565b60405162461bcd60e51b815260206004820152602760248201527f506c656173652043616c6c2046696e616c697a65205472616e73666572204f7760448201527f6e6572736869700000000000000000000000000000000000000000000000000060648201526084016110e4565b600054610100900460ff161580801561267c5750600054600160ff909116105b806126965750303b158015612696575060005460ff166001145b6127085760405162461bcd60e51b815260206004820152602e60248201527f496e697469616c697a61626c653a20636f6e747261637420697320616c72656160448201527f647920696e697469616c697a656400000000000000000000000000000000000060648201526084016110e4565b6000805460ff19166001179055801561272b576000805461ff0019166101001790555b60fb80546001600160a01b03191633179055612747878761330d565b61274f613382565b6127576133ed565b61275f613460565b6101078054603261010255611388610103557fffffffffffffffffffffff00000000000000000000000000000000000000000016740285e1d847b88056add3823c456ee83d37cdd60a011790556107d06101045561012c61010555610100805461ff00191681179055600060fc5568056bc75e2d6310000060fd5560fb54612807906001600160a01b03166127f860ff8816600a613e00565b6128029087613c6b565b612f88565b33600090815261010b60209081526040808320805460ff1990811690915561010e835281842080548216600190811790915561010c845282852042905561011180546001600160a01b0319166001600160a01b038a81169190911782553087526101019095528386208054841683179055549093168452908320805490911690911790555b82518110156128f7576101098382815181106128aa576128aa613ca4565b60209081029190910181015182546001810184556000938452919092200180546001600160a01b0319166001600160a01b03909216919091179055806128ef81613cba565b91505061288c565b50801561293e576000805461ff0019169055604051600181527f7f26b83ff96e1f2b6a682f133852f6798a09c465da95921460cefb38474024989060200160405180910390a15b50505050505050565b6001600160a01b0383166129c25760405162461bcd60e51b8152602060048201526024808201527f45524332303a20617070726f76652066726f6d20746865207a65726f2061646460448201527f726573730000000000000000000000000000000000000000000000000000000060648201526084016110e4565b6001600160a01b038216612a3e5760405162461bcd60e51b815260206004820152602260248201527f45524332303a20617070726f766520746f20746865207a65726f20616464726560448201527f737300000000000000000000000000000000000000000000000000000000000060648201526084016110e4565b6001600160a01b0383811660008181526034602090815260408083209487168084529482529182902085905590518481527f8c5be1e5ebec7d5bd14f71427d1e84f3dd0314c0f7b2291e5b200ac8c7c3b925910160405180910390a3505050565b6097546001600160a01b031633146117b75760405162461bcd60e51b815260206004820181905260248201527f4f776e61626c653a2063616c6c6572206973206e6f7420746865206f776e657260448201526064016110e4565b6001600160a01b038381166000908152603460209081526040808320938616835292905220546000198114612b855781811015612b785760405162461bcd60e51b815260206004820152601d60248201527f45524332303a20696e73756666696369656e7420616c6c6f77616e636500000060448201526064016110e4565b612b858484848403612947565b50505050565b6001600160a01b038316600090815261010e60205260409020548390829060ff16612c545760fc54811015612c025760405162461bcd60e51b815260206004820152601460248201527f416d6f756e742062656c6f77206d696e696d756d00000000000000000000000060448201526064016110e4565b60fd54811115612c545760405162461bcd60e51b815260206004820152601660248201527f416d6f756e742065786365656473206d6178696d756d0000000000000000000060448201526064016110e4565b6001600160a01b038516600090815261010b602052604090205460ff1615612cbe5760405162461bcd60e51b815260206004820152601e60248201527f53656e64657227732077616c6c657420697320626c61636b6c6973746564000060448201526064016110e4565b6001600160a01b038516612d225760405162461bcd60e51b815260206004820152602560248201527f45524332303a207472616e736665722066726f6d20746865207a65726f206164604482015264647265737360d81b60648201526084016110e4565b6001600160a01b038416612d845760405162461bcd60e51b815260206004820152602360248201527f45524332303a207472616e7366657220746f20746865207a65726f206164647260448201526265737360e81b60648201526084016110e4565b60008311612dfa5760405162461bcd60e51b815260206004820152602960248201527f5472616e7366657220616d6f756e74206d75737420626520677265617465722060448201527f7468616e207a65726f000000000000000000000000000000000000000000000060648201526084016110e4565b6001600160a01b03851660009081526101016020526040902054839060ff1680612e3d57506001600160a01b0385166000908152610101602052604090205460ff165b15612e5357612e4d3386866134d3565b50611aa7565b61010080540460ff1615612e995760006127106101025483612e759190613c6b565b612e7f9190613c82565b9050612e8b8782613049565b612e958186613c58565b9450505b6101075460ff1615612f085760006127108261010454612eb99190613c6b565b612ec39190613c82565b60fb54909150612ede9088906001600160a01b0316836134d3565b6127108261010454612ef09190613c6b565b612efa9190613c82565b612f049086613c58565b9450505b612f1061100d565b612f1b8686866134d3565b505050505050565b6000612f2f8284613cd3565b9392505050565b612f3e613695565b60c9805460ff191690557f5db9ee0a495bf2e6ff9c91a7834c1ba4fdd244a5e8aa4e537bd38aeae4b073aa335b6040516001600160a01b03909116815260200160405180910390a1565b6001600160a01b038216612fde5760405162461bcd60e51b815260206004820152601f60248201527f45524332303a206d696e7420746f20746865207a65726f20616464726573730060448201526064016110e4565b8060356000828254612ff09190613cd3565b90915550506001600160a01b0382166000818152603360209081526040808320805486019055518481527fddf252ad1be2c89b69c2b068fc378daa952ba7f163c4a11628f55a4df523b3ef910160405180910390a35050565b6001600160a01b0382166130c55760405162461bcd60e51b815260206004820152602160248201527f45524332303a206275726e2066726f6d20746865207a65726f2061646472657360448201527f730000000000000000000000000000000000000000000000000000000000000060648201526084016110e4565b6001600160a01b038216600090815260336020526040902054818110156131545760405162461bcd60e51b815260206004820152602260248201527f45524332303a206275726e20616d6f756e7420657863656564732062616c616e60448201527f636500000000000000000000000000000000000000000000000000000000000060648201526084016110e4565b6001600160a01b03831660008181526033602090815260408083208686039055603580548790039055518581529192917fddf252ad1be2c89b69c2b068fc378daa952ba7f163c4a11628f55a4df523b3ef910160405180910390a3505050565b609780546001600160a01b038381166001600160a01b0319831681179093556040519116919082907f8be0079c531659141344cd1fd0a4f28419497f9722a3daafe3b4186f6b6457e090600090a35050565b6000805b6101095481101561326857826001600160a01b0316610109828154811061323357613233613ca4565b6000918252602090912001546001600160a01b0316036132565750600192915050565b8061326081613cba565b91505061320a565b50600092915050565b6132796132ba565b60c9805460ff191660011790557f62e78cea01bee320cd4e420270b5ea74000d11b0c9f74754ebdbfc544b05a258612f6b3390565b6000612f2f8284613c58565b60c95460ff16156117b75760405162461bcd60e51b815260206004820152601060248201527f5061757361626c653a207061757365640000000000000000000000000000000060448201526064016110e4565b600054610100900460ff166133785760405162461bcd60e51b815260206004820152602b60248201527f496e697469616c697a61626c653a20636f6e7472616374206973206e6f74206960448201526a6e697469616c697a696e6760a81b60648201526084016110e4565b61167882826136e7565b600054610100900460ff166117b75760405162461bcd60e51b815260206004820152602b60248201527f496e697469616c697a61626c653a20636f6e7472616374206973206e6f74206960448201526a6e697469616c697a696e6760a81b60648201526084016110e4565b600054610100900460ff166134585760405162461bcd60e51b815260206004820152602b60248201527f496e697469616c697a61626c653a20636f6e7472616374206973206e6f74206960448201526a6e697469616c697a696e6760a81b60648201526084016110e4565b6117b761376b565b600054610100900460ff166134cb5760405162461bcd60e51b815260206004820152602b60248201527f496e697469616c697a61626c653a20636f6e7472616374206973206e6f74206960448201526a6e697469616c697a696e6760a81b60648201526084016110e4565b6117b76137df565b6001600160a01b0383166135375760405162461bcd60e51b815260206004820152602560248201527f45524332303a207472616e736665722066726f6d20746865207a65726f206164604482015264647265737360d81b60648201526084016110e4565b6001600160a01b0382166135995760405162461bcd60e51b815260206004820152602360248201527f45524332303a207472616e7366657220746f20746865207a65726f206164647260448201526265737360e81b60648201526084016110e4565b6001600160a01b038316600090815260336020526040902054818110156136285760405162461bcd60e51b815260206004820152602660248201527f45524332303a207472616e7366657220616d6f756e742065786365656473206260448201527f616c616e6365000000000000000000000000000000000000000000000000000060648201526084016110e4565b6001600160a01b0380851660008181526033602052604080822086860390559286168082529083902080548601905591517fddf252ad1be2c89b69c2b068fc378daa952ba7f163c4a11628f55a4df523b3ef906136889086815260200190565b60405180910390a3612b85565b60c95460ff166117b75760405162461bcd60e51b815260206004820152601460248201527f5061757361626c653a206e6f742070617573656400000000000000000000000060448201526064016110e4565b600054610100900460ff166137525760405162461bcd60e51b815260206004820152602b60248201527f496e697469616c697a61626c653a20636f6e7472616374206973206e6f74206960448201526a6e697469616c697a696e6760a81b60648201526084016110e4565b603661375e8382613e52565b506037611ffc8282613e52565b600054610100900460ff166137d65760405162461bcd60e51b815260206004820152602b60248201527f496e697469616c697a61626c653a20636f6e7472616374206973206e6f74206960448201526a6e697469616c697a696e6760a81b60648201526084016110e4565b6117b7336131b4565b600054610100900460ff1661384a5760405162461bcd60e51b815260206004820152602b60248201527f496e697469616c697a61626c653a20636f6e7472616374206973206e6f74206960448201526a6e697469616c697a696e6760a81b60648201526084016110e4565b60c9805460ff19169055565b600060208083528351808285015260005b8181101561388357858101830151858201604001528201613867565b506000604082860101526040601f19601f8301168501019250505092915050565b6001600160a01b038116811461108757600080fd5b80356138c4816138a4565b919050565b600080604083850312156138dc57600080fd5b82356138e7816138a4565b946020939093013593505050565b60006020828403121561390757600080fd5b8135612f2f816138a4565b60008060006060848603121561392757600080fd5b8335613932816138a4565b92506020840135613942816138a4565b929592945050506040919091013590565b6000806000806080858703121561396957600080fd5b8435613974816138a4565b966020860135965060408601359560600135945092505050565b6000602082840312156139a057600080fd5b5035919050565b801515811461108757600080fd5b6000602082840312156139c757600080fd5b8135612f2f816139a7565b600080604083850312156139e557600080fd5b82356139f0816138a4565b91506020830135613a00816138a4565b809150509250929050565b634e487b7160e01b600052604160045260246000fd5b604051601f8201601f1916810167ffffffffffffffff81118282101715613a4a57613a4a613a0b565b604052919050565b600082601f830112613a6357600080fd5b813567ffffffffffffffff811115613a7d57613a7d613a0b565b613a90601f8201601f1916602001613a21565b818152846020838601011115613aa557600080fd5b816020850160208301376000918101602001919091529392505050565b600082601f830112613ad357600080fd5b8135602067ffffffffffffffff821115613aef57613aef613a0b565b8160051b613afe828201613a21565b9283528481018201928281019087851115613b1857600080fd5b83870192505b84831015613b40578235613b31816138a4565b82529183019190830190613b1e565b979650505050505050565b60008060008060008060c08789031215613b6457600080fd5b863567ffffffffffffffff80821115613b7c57600080fd5b613b888a838b01613a52565b97506020890135915080821115613b9e57600080fd5b613baa8a838b01613a52565b96506040890135915060ff82168214613bc257600080fd5b81955060608901359450613bd860808a016138b9565b935060a0890135915080821115613bee57600080fd5b50613bfb89828a01613ac2565b9150509295509295509295565b600181811c90821680613c1c57607f821691505b602082108103613c3c57634e487b7160e01b600052602260045260246000fd5b50919050565b634e487b7160e01b600052601160045260246000fd5b8181038181111561100757611007613c42565b808202811582820484141761100757611007613c42565b600082613c9f57634e487b7160e01b600052601260045260246000fd5b500490565b634e487b7160e01b600052603260045260246000fd5b600060018201613ccc57613ccc613c42565b5060010190565b8082018082111561100757611007613c42565b600060208284031215613cf857600080fd5b5051919050565b600060208284031215613d1157600080fd5b8151612f2f816139a7565b600181815b80851115613d57578160001904821115613d3d57613d3d613c42565b80851615613d4a57918102915b93841c9390800290613d21565b509250929050565b600082613d6e57506001611007565b81613d7b57506000611007565b8160018114613d915760028114613d9b57613db7565b6001915050611007565b60ff841115613dac57613dac613c42565b50506001821b611007565b5060208310610133831016604e8410600b8410161715613dda575081810a611007565b613de48383613d1c565b8060001904821115613df857613df8613c42565b029392505050565b6000612f2f8383613d5f565b601f821115611ffc57600081815260208120601f850160051c81016020861015613e335750805b601f850160051c820191505b81811015612f1b57828155600101613e3f565b815167ffffffffffffffff811115613e6c57613e6c613a0b565b613e8081613e7a8454613c08565b84613e0c565b602080601f831160018114613eb55760008415613e9d5750858301515b600019600386901b1c1916600185901b178555612f1b565b600085815260208120601f198616915b82811015613ee457888601518255948401946001909101908401613ec5565b5085821015613f025787850151600019600388901b60f8161c191681555b5050505050600190811b0190555056fea2646970667358221220311f244ce7078c7cfc31165f06b8c14c7874135d96b25fe4af58f0d61b0061db64736f6c63430008130033","opcodes":"PUSH1 0x80 PUSH1 0x40 MSTORE CALLVALUE DUP1 ISZERO PUSH2 0x10 JUMPI PUSH1 0x0 DUP1 REVERT JUMPDEST POP PUSH2 0x3F48 DUP1 PUSH2 0x20 PUSH1 0x0 CODECOPY PUSH1 0x0 RETURN INVALID PUSH1 0x80 PUSH1 0x40 MSTORE PUSH1 0x4 CALLDATASIZE LT PUSH2 0x526 JUMPI PUSH1 0x0 CALLDATALOAD PUSH1 0xE0 SHR DUP1 PUSH4 0x7884D888 GT PUSH2 0x2AF JUMPI DUP1 PUSH4 0xB5C43DB4 GT PUSH2 0x179 JUMPI DUP1 PUSH4 0xDA58C7D9 GT PUSH2 0xD6 JUMPI DUP1 PUSH4 0xF217FDBE GT PUSH2 0x8A JUMPI DUP1 PUSH4 0xF78E633D GT PUSH2 0x6F JUMPI DUP1 PUSH4 0xF78E633D EQ PUSH2 0xE90 JUMPI DUP1 PUSH4 0xF887EA40 EQ PUSH2 0xF20 JUMPI DUP1 PUSH4 0xF8F1B6C9 EQ PUSH2 0xF41 JUMPI PUSH1 0x0 DUP1 REVERT JUMPDEST DUP1 PUSH4 0xF217FDBE EQ PUSH2 0xE50 JUMPI DUP1 PUSH4 0xF2FDE38B EQ PUSH2 0xE70 JUMPI PUSH1 0x0 DUP1 REVERT JUMPDEST DUP1 PUSH4 0xE17C4C74 GT PUSH2 0xBB JUMPI DUP1 PUSH4 0xE17C4C74 EQ PUSH2 0xDFB JUMPI DUP1 PUSH4 0xE43252D7 EQ PUSH2 0xE1B JUMPI DUP1 PUSH4 0xEB60B83F EQ PUSH2 0xE3B JUMPI PUSH1 0x0 DUP1 REVERT JUMPDEST DUP1 PUSH4 0xDA58C7D9 EQ PUSH2 0xD95 JUMPI DUP1 PUSH4 0xDD62ED3E EQ PUSH2 0xDB5 JUMPI PUSH1 0x0 DUP1 REVERT JUMPDEST DUP1 PUSH4 0xC8C8EBE4 GT PUSH2 0x12D JUMPI DUP1 PUSH4 0xD0A1BD44 GT PUSH2 0x112 JUMPI DUP1 PUSH4 0xD0A1BD44 EQ PUSH2 0xD3D JUMPI DUP1 PUSH4 0xD153B60C EQ PUSH2 0xD54 JUMPI DUP1 PUSH4 0xD292059E EQ PUSH2 0xD75 JUMPI PUSH1 0x0 DUP1 REVERT JUMPDEST DUP1 PUSH4 0xC8C8EBE4 EQ PUSH2 0xCF6 JUMPI DUP1 PUSH4 0xCB4CA631 EQ PUSH2 0xD0C JUMPI PUSH1 0x0 DUP1 REVERT JUMPDEST DUP1 PUSH4 0xBF41C2A4 GT PUSH2 0x15E JUMPI DUP1 PUSH4 0xBF41C2A4 EQ PUSH2 0xCA1 JUMPI DUP1 PUSH4 0xBFED5CE3 EQ PUSH2 0xCB6 JUMPI DUP1 PUSH4 0xC0D78655 EQ PUSH2 0xCD6 JUMPI PUSH1 0x0 DUP1 REVERT JUMPDEST DUP1 PUSH4 0xB5C43DB4 EQ PUSH2 0xC67 JUMPI DUP1 PUSH4 0xBD0E0ACD EQ PUSH2 0xC8A JUMPI PUSH1 0x0 DUP1 REVERT JUMPDEST DUP1 PUSH4 0x8F376FCA GT PUSH2 0x227 JUMPI DUP1 PUSH4 0xA457C2D7 GT PUSH2 0x1DB JUMPI DUP1 PUSH4 0xAB8B2F0D GT PUSH2 0x1C0 JUMPI DUP1 PUSH4 0xAB8B2F0D EQ PUSH2 0xBF2 JUMPI DUP1 PUSH4 0xB2BDFA7B EQ PUSH2 0xC0D JUMPI DUP1 PUSH4 0xB36D6919 EQ PUSH2 0xC2D JUMPI PUSH1 0x0 DUP1 REVERT JUMPDEST DUP1 PUSH4 0xA457C2D7 EQ PUSH2 0xBB2 JUMPI DUP1 PUSH4 0xA9059CBB EQ PUSH2 0xBD2 JUMPI PUSH1 0x0 DUP1 REVERT JUMPDEST DUP1 PUSH4 0x96E83924 GT PUSH2 0x20C JUMPI DUP1 PUSH4 0x96E83924 EQ PUSH2 0xB52 JUMPI DUP1 PUSH4 0x99672158 EQ PUSH2 0xB72 JUMPI DUP1 PUSH4 0xA30FF8B6 EQ PUSH2 0xB92 JUMPI PUSH1 0x0 DUP1 REVERT JUMPDEST DUP1 PUSH4 0x8F376FCA EQ PUSH2 0xB1D JUMPI DUP1 PUSH4 0x95D89B41 EQ PUSH2 0xB3D JUMPI PUSH1 0x0 DUP1 REVERT JUMPDEST DUP1 PUSH4 0x85BE583F GT PUSH2 0x27E JUMPI DUP1 PUSH4 0x8BF55409 GT PUSH2 0x263 JUMPI DUP1 PUSH4 0x8BF55409 EQ PUSH2 0xAC1 JUMPI DUP1 PUSH4 0x8DA5CB5B EQ PUSH2 0xAE1 JUMPI DUP1 PUSH4 0x8E8C10A2 EQ PUSH2 0xAFF JUMPI PUSH1 0x0 DUP1 REVERT JUMPDEST DUP1 PUSH4 0x85BE583F EQ PUSH2 0xA81 JUMPI DUP1 PUSH4 0x8AB1D681 EQ PUSH2 0xAA1 JUMPI PUSH1 0x0 DUP1 REVERT JUMPDEST DUP1 PUSH4 0x7884D888 EQ PUSH2 0xA0C JUMPI DUP1 PUSH4 0x79CC6790 EQ PUSH2 0xA2C JUMPI DUP1 PUSH4 0x7ACE48E7 EQ PUSH2 0xA4C JUMPI DUP1 PUSH4 0x8456CB59 EQ PUSH2 0xA6C JUMPI PUSH1 0x0 DUP1 REVERT JUMPDEST DUP1 PUSH4 0x3AF32ABF GT PUSH2 0x3F0 JUMPI DUP1 PUSH4 0x55EBA868 GT PUSH2 0x368 JUMPI DUP1 PUSH4 0x622B67CB GT PUSH2 0x31C JUMPI DUP1 PUSH4 0x715018A6 GT PUSH2 0x301 JUMPI DUP1 PUSH4 0x715018A6 EQ PUSH2 0x9AF JUMPI DUP1 PUSH4 0x736C0D5B EQ PUSH2 0x9C4 JUMPI DUP1 PUSH4 0x760B7E38 EQ PUSH2 0x9F5 JUMPI PUSH1 0x0 DUP1 REVERT JUMPDEST DUP1 PUSH4 0x622B67CB EQ PUSH2 0x962 JUMPI DUP1 PUSH4 0x70A08231 EQ PUSH2 0x979 JUMPI PUSH1 0x0 DUP1 REVERT JUMPDEST DUP1 PUSH4 0x5C975ABB GT PUSH2 0x34D JUMPI DUP1 PUSH4 0x5C975ABB EQ PUSH2 0x913 JUMPI DUP1 PUSH4 0x5E2F16C8 EQ PUSH2 0x92B JUMPI DUP1 PUSH4 0x60F588B7 EQ PUSH2 0x942 JUMPI PUSH1 0x0 DUP1 REVERT JUMPDEST DUP1 PUSH4 0x55EBA868 EQ PUSH2 0x8D8 JUMPI DUP1 PUSH4 0x57976FB4 EQ PUSH2 0x8F8 JUMPI PUSH1 0x0 DUP1 REVERT JUMPDEST DUP1 PUSH4 0x42966C68 GT PUSH2 0x3BF JUMPI DUP1 PUSH4 0x4E71D92D GT PUSH2 0x3A4 JUMPI DUP1 PUSH4 0x4E71D92D EQ PUSH2 0x883 JUMPI DUP1 PUSH4 0x537DF3B6 EQ PUSH2 0x898 JUMPI DUP1 PUSH4 0x553BA06C EQ PUSH2 0x8B8 JUMPI PUSH1 0x0 DUP1 REVERT JUMPDEST DUP1 PUSH4 0x42966C68 EQ PUSH2 0x843 JUMPI DUP1 PUSH4 0x4838D165 EQ PUSH2 0x863 JUMPI PUSH1 0x0 DUP1 REVERT JUMPDEST DUP1 PUSH4 0x3AF32ABF EQ PUSH2 0x7A6 JUMPI DUP1 PUSH4 0x3EB5CBEB EQ PUSH2 0x7E0 JUMPI DUP1 PUSH4 0x3F4BA83A EQ PUSH2 0x80E JUMPI DUP1 PUSH4 0x40C10F19 EQ PUSH2 0x823 JUMPI PUSH1 0x0 DUP1 REVERT JUMPDEST DUP1 PUSH4 0x23452B9C GT PUSH2 0x49E JUMPI DUP1 PUSH4 0x2BFBD9CF GT PUSH2 0x452 JUMPI DUP1 PUSH4 0x313CE567 GT PUSH2 0x437 JUMPI DUP1 PUSH4 0x313CE567 EQ PUSH2 0x74A JUMPI DUP1 PUSH4 0x36E8C9B3 EQ PUSH2 0x766 JUMPI DUP1 PUSH4 0x39509351 EQ PUSH2 0x786 JUMPI PUSH1 0x0 DUP1 REVERT JUMPDEST DUP1 PUSH4 0x2BFBD9CF EQ PUSH2 0x6EC JUMPI DUP1 PUSH4 0x2F48AB7D EQ PUSH2 0x70C JUMPI PUSH1 0x0 DUP1 REVERT JUMPDEST DUP1 PUSH4 0x24EF8C1B GT PUSH2 0x483 JUMPI DUP1 PUSH4 0x24EF8C1B EQ PUSH2 0x68B JUMPI DUP1 PUSH4 0x25E16063 EQ PUSH2 0x6AB JUMPI DUP1 PUSH4 0x2A32234F EQ PUSH2 0x6CB JUMPI PUSH1 0x0 DUP1 REVERT JUMPDEST DUP1 PUSH4 0x23452B9C EQ PUSH2 0x656 JUMPI DUP1 PUSH4 0x23B872DD EQ PUSH2 0x66B JUMPI PUSH1 0x0 DUP1 REVERT JUMPDEST DUP1 PUSH4 0xA702E8D GT PUSH2 0x4F5 JUMPI DUP1 PUSH4 0x17A5D4DF GT PUSH2 0x4DA JUMPI DUP1 PUSH4 0x17A5D4DF EQ PUSH2 0x60B JUMPI DUP1 PUSH4 0x18160DDD EQ PUSH2 0x621 JUMPI DUP1 PUSH4 0x21040FC3 EQ PUSH2 0x636 JUMPI PUSH1 0x0 DUP1 REVERT JUMPDEST DUP1 PUSH4 0xA702E8D EQ PUSH2 0x5DE JUMPI DUP1 PUSH4 0xB4D57F5 EQ PUSH2 0x5F4 JUMPI PUSH1 0x0 DUP1 REVERT JUMPDEST DUP1 PUSH4 0x52C30BC EQ PUSH2 0x532 JUMPI DUP1 PUSH4 0x6FDDE03 EQ PUSH2 0x55B JUMPI DUP1 PUSH4 0x95EA7B3 EQ PUSH2 0x57D JUMPI DUP1 PUSH4 0x9EEF43E EQ PUSH2 0x5AD JUMPI PUSH1 0x0 DUP1 REVERT JUMPDEST CALLDATASIZE PUSH2 0x52D JUMPI STOP JUMPDEST PUSH1 0x0 DUP1 REVERT JUMPDEST CALLVALUE DUP1 ISZERO PUSH2 0x53E JUMPI PUSH1 0x0 DUP1 REVERT JUMPDEST POP PUSH2 0x548 PUSH1 0xFF SLOAD DUP2 JUMP JUMPDEST PUSH1 0x40 MLOAD SWAP1 DUP2 MSTORE PUSH1 0x20 ADD JUMPDEST PUSH1 0x40 MLOAD DUP1 SWAP2 SUB SWAP1 RETURN JUMPDEST CALLVALUE DUP1 ISZERO PUSH2 0x567 JUMPI PUSH1 0x0 DUP1 REVERT JUMPDEST POP PUSH2 0x570 PUSH2 0xF61 JUMP JUMPDEST PUSH1 0x40 MLOAD PUSH2 0x552 SWAP2 SWAP1 PUSH2 0x3856 JUMP JUMPDEST CALLVALUE DUP1 ISZERO PUSH2 0x589 JUMPI PUSH1 0x0 DUP1 REVERT JUMPDEST POP PUSH2 0x59D PUSH2 0x598 CALLDATASIZE PUSH1 0x4 PUSH2 0x38C9 JUMP JUMPDEST PUSH2 0xFF3 JUMP JUMPDEST PUSH1 0x40 MLOAD SWAP1 ISZERO ISZERO DUP2 MSTORE PUSH1 0x20 ADD PUSH2 0x552 JUMP JUMPDEST CALLVALUE DUP1 ISZERO PUSH2 0x5B9 JUMPI PUSH1 0x0 DUP1 REVERT JUMPDEST POP PUSH2 0x59D PUSH2 0x5C8 CALLDATASIZE PUSH1 0x4 PUSH2 0x38F5 JUMP JUMPDEST PUSH2 0x10A PUSH1 0x20 MSTORE PUSH1 0x0 SWAP1 DUP2 MSTORE PUSH1 0x40 SWAP1 KECCAK256 SLOAD PUSH1 0xFF AND DUP2 JUMP JUMPDEST CALLVALUE DUP1 ISZERO PUSH2 0x5EA JUMPI PUSH1 0x0 DUP1 REVERT JUMPDEST POP PUSH2 0x548 PUSH1 0xFE SLOAD DUP2 JUMP JUMPDEST CALLVALUE DUP1 ISZERO PUSH2 0x600 JUMPI PUSH1 0x0 DUP1 REVERT JUMPDEST POP PUSH2 0x609 PUSH2 0x100D JUMP JUMPDEST STOP JUMPDEST CALLVALUE DUP1 ISZERO PUSH2 0x617 JUMPI PUSH1 0x0 DUP1 REVERT JUMPDEST POP PUSH2 0x548 PUSH1 0xFC SLOAD DUP2 JUMP JUMPDEST CALLVALUE DUP1 ISZERO PUSH2 0x62D JUMPI PUSH1 0x0 DUP1 REVERT JUMPDEST POP PUSH1 0x35 SLOAD PUSH2 0x548 JUMP JUMPDEST CALLVALUE DUP1 ISZERO PUSH2 0x642 JUMPI PUSH1 0x0 DUP1 REVERT JUMPDEST POP PUSH2 0x609 PUSH2 0x651 CALLDATASIZE PUSH1 0x4 PUSH2 0x38F5 JUMP JUMPDEST PUSH2 0x108A JUMP JUMPDEST CALLVALUE DUP1 ISZERO PUSH2 0x662 JUMPI PUSH1 0x0 DUP1 REVERT JUMPDEST POP PUSH2 0x609 PUSH2 0x1138 JUMP JUMPDEST CALLVALUE DUP1 ISZERO PUSH2 0x677 JUMPI PUSH1 0x0 DUP1 REVERT JUMPDEST POP PUSH2 0x59D PUSH2 0x686 CALLDATASIZE PUSH1 0x4 PUSH2 0x3912 JUMP JUMPDEST PUSH2 0x11C0 JUMP JUMPDEST CALLVALUE DUP1 ISZERO PUSH2 0x697 JUMPI PUSH1 0x0 DUP1 REVERT JUMPDEST POP PUSH2 0x609 PUSH2 0x6A6 CALLDATASIZE PUSH1 0x4 PUSH2 0x3953 JUMP JUMPDEST PUSH2 0x1419 JUMP JUMPDEST CALLVALUE DUP1 ISZERO PUSH2 0x6B7 JUMPI PUSH1 0x0 DUP1 REVERT JUMPDEST POP PUSH2 0x609 PUSH2 0x6C6 CALLDATASIZE PUSH1 0x4 PUSH2 0x38F5 JUMP JUMPDEST PUSH2 0x15E5 JUMP JUMPDEST CALLVALUE DUP1 ISZERO PUSH2 0x6D7 JUMPI PUSH1 0x0 DUP1 REVERT JUMPDEST POP PUSH2 0x609 PUSH2 0x6E6 CALLDATASIZE PUSH1 0x4 PUSH2 0x398E JUMP JUMPDEST PUSH2 0x102 SSTORE JUMP JUMPDEST CALLVALUE DUP1 ISZERO PUSH2 0x6F8 JUMPI PUSH1 0x0 DUP1 REVERT JUMPDEST POP PUSH2 0x609 PUSH2 0x707 CALLDATASIZE PUSH1 0x4 PUSH2 0x398E JUMP JUMPDEST PUSH2 0x167C JUMP JUMPDEST CALLVALUE DUP1 ISZERO PUSH2 0x718 JUMPI PUSH1 0x0 DUP1 REVERT JUMPDEST POP PUSH2 0x107 SLOAD PUSH2 0x732 SWAP1 PUSH2 0x100 SWAP1 DIV PUSH1 0x1 PUSH1 0x1 PUSH1 0xA0 SHL SUB AND DUP2 JUMP JUMPDEST PUSH1 0x40 MLOAD PUSH1 0x1 PUSH1 0x1 PUSH1 0xA0 SHL SUB SWAP1 SWAP2 AND DUP2 MSTORE PUSH1 0x20 ADD PUSH2 0x552 JUMP JUMPDEST CALLVALUE DUP1 ISZERO PUSH2 0x756 JUMPI PUSH1 0x0 DUP1 REVERT JUMPDEST POP PUSH1 0x40 MLOAD PUSH1 0x12 DUP2 MSTORE PUSH1 0x20 ADD PUSH2 0x552 JUMP JUMPDEST CALLVALUE DUP1 ISZERO PUSH2 0x772 JUMPI PUSH1 0x0 DUP1 REVERT JUMPDEST POP PUSH2 0x609 PUSH2 0x781 CALLDATASIZE PUSH1 0x4 PUSH2 0x398E JUMP JUMPDEST PUSH2 0x175B JUMP JUMPDEST CALLVALUE DUP1 ISZERO PUSH2 0x792 JUMPI PUSH1 0x0 DUP1 REVERT JUMPDEST POP PUSH2 0x59D PUSH2 0x7A1 CALLDATASIZE PUSH1 0x4 PUSH2 0x38C9 JUMP JUMPDEST PUSH2 0x1768 JUMP JUMPDEST CALLVALUE DUP1 ISZERO PUSH2 0x7B2 JUMPI PUSH1 0x0 DUP1 REVERT JUMPDEST POP PUSH2 0x59D PUSH2 0x7C1 CALLDATASIZE PUSH1 0x4 PUSH2 0x38F5 JUMP JUMPDEST PUSH1 0x1 PUSH1 0x1 PUSH1 0xA0 SHL SUB AND PUSH1 0x0 SWAP1 DUP2 MSTORE PUSH2 0x10E PUSH1 0x20 MSTORE PUSH1 0x40 SWAP1 KECCAK256 SLOAD PUSH1 0xFF AND SWAP1 JUMP JUMPDEST CALLVALUE DUP1 ISZERO PUSH2 0x7EC JUMPI PUSH1 0x0 DUP1 REVERT JUMPDEST POP PUSH2 0x548 PUSH2 0x7FB CALLDATASIZE PUSH1 0x4 PUSH2 0x38F5 JUMP JUMPDEST PUSH2 0x10D PUSH1 0x20 MSTORE PUSH1 0x0 SWAP1 DUP2 MSTORE PUSH1 0x40 SWAP1 KECCAK256 SLOAD DUP2 JUMP JUMPDEST CALLVALUE DUP1 ISZERO PUSH2 0x81A JUMPI PUSH1 0x0 DUP1 REVERT JUMPDEST POP PUSH2 0x609 PUSH2 0x17A7 JUMP JUMPDEST CALLVALUE DUP1 ISZERO PUSH2 0x82F JUMPI PUSH1 0x0 DUP1 REVERT JUMPDEST POP PUSH2 0x609 PUSH2 0x83E CALLDATASIZE PUSH1 0x4 PUSH2 0x38C9 JUMP JUMPDEST PUSH2 0x17B9 JUMP JUMPDEST CALLVALUE DUP1 ISZERO PUSH2 0x84F JUMPI PUSH1 0x0 DUP1 REVERT JUMPDEST POP PUSH2 0x609 PUSH2 0x85E CALLDATASIZE PUSH1 0x4 PUSH2 0x398E JUMP JUMPDEST PUSH2 0x17CB JUMP JUMPDEST CALLVALUE DUP1 ISZERO PUSH2 0x86F JUMPI PUSH1 0x0 DUP1 REVERT JUMPDEST POP PUSH2 0x609 PUSH2 0x87E CALLDATASIZE PUSH1 0x4 PUSH2 0x38F5 JUMP JUMPDEST PUSH2 0x17D5 JUMP JUMPDEST CALLVALUE DUP1 ISZERO PUSH2 0x88F JUMPI PUSH1 0x0 DUP1 REVERT JUMPDEST POP PUSH2 0x609 PUSH2 0x186C JUMP JUMPDEST CALLVALUE DUP1 ISZERO PUSH2 0x8A4 JUMPI PUSH1 0x0 DUP1 REVERT JUMPDEST POP PUSH2 0x609 PUSH2 0x8B3 CALLDATASIZE PUSH1 0x4 PUSH2 0x38F5 JUMP JUMPDEST PUSH2 0x1AAE JUMP JUMPDEST CALLVALUE DUP1 ISZERO PUSH2 0x8C4 JUMPI PUSH1 0x0 DUP1 REVERT JUMPDEST POP PUSH2 0x609 PUSH2 0x8D3 CALLDATASIZE PUSH1 0x4 PUSH2 0x398E JUMP JUMPDEST PUSH2 0x1B41 JUMP JUMPDEST CALLVALUE DUP1 ISZERO PUSH2 0x8E4 JUMPI PUSH1 0x0 DUP1 REVERT JUMPDEST POP PUSH2 0x609 PUSH2 0x8F3 CALLDATASIZE PUSH1 0x4 PUSH2 0x38F5 JUMP JUMPDEST PUSH2 0x1B4F JUMP JUMPDEST CALLVALUE DUP1 ISZERO PUSH2 0x904 JUMPI PUSH1 0x0 DUP1 REVERT JUMPDEST POP PUSH2 0x100 SLOAD PUSH2 0x59D SWAP1 PUSH1 0xFF AND DUP2 JUMP JUMPDEST CALLVALUE DUP1 ISZERO PUSH2 0x91F JUMPI PUSH1 0x0 DUP1 REVERT JUMPDEST POP PUSH1 0xC9 SLOAD PUSH1 0xFF AND PUSH2 0x59D JUMP JUMPDEST CALLVALUE DUP1 ISZERO PUSH2 0x937 JUMPI PUSH1 0x0 DUP1 REVERT JUMPDEST POP PUSH2 0x548 PUSH2 0x103 SLOAD DUP2 JUMP JUMPDEST CALLVALUE DUP1 ISZERO PUSH2 0x94E JUMPI PUSH1 0x0 DUP1 REVERT JUMPDEST POP PUSH2 0x609 PUSH2 0x95D CALLDATASIZE PUSH1 0x4 PUSH2 0x38F5 JUMP JUMPDEST PUSH2 0x1B97 JUMP JUMPDEST CALLVALUE DUP1 ISZERO PUSH2 0x96E JUMPI PUSH1 0x0 DUP1 REVERT JUMPDEST POP PUSH2 0x548 PUSH2 0x105 SLOAD DUP2 JUMP JUMPDEST CALLVALUE DUP1 ISZERO PUSH2 0x985 JUMPI PUSH1 0x0 DUP1 REVERT JUMPDEST POP PUSH2 0x548 PUSH2 0x994 CALLDATASIZE PUSH1 0x4 PUSH2 0x38F5 JUMP JUMPDEST PUSH1 0x1 PUSH1 0x1 PUSH1 0xA0 SHL SUB AND PUSH1 0x0 SWAP1 DUP2 MSTORE PUSH1 0x33 PUSH1 0x20 MSTORE PUSH1 0x40 SWAP1 KECCAK256 SLOAD SWAP1 JUMP JUMPDEST CALLVALUE DUP1 ISZERO PUSH2 0x9BB JUMPI PUSH1 0x0 DUP1 REVERT JUMPDEST POP PUSH2 0x609 PUSH2 0x1BBA JUMP JUMPDEST CALLVALUE DUP1 ISZERO PUSH2 0x9D0 JUMPI PUSH1 0x0 DUP1 REVERT JUMPDEST POP PUSH2 0x59D PUSH2 0x9DF CALLDATASIZE PUSH1 0x4 PUSH2 0x38F5 JUMP JUMPDEST PUSH2 0x10F PUSH1 0x20 MSTORE PUSH1 0x0 SWAP1 DUP2 MSTORE PUSH1 0x40 SWAP1 KECCAK256 SLOAD PUSH1 0xFF AND DUP2 JUMP JUMPDEST CALLVALUE DUP1 ISZERO PUSH2 0xA01 JUMPI PUSH1 0x0 DUP1 REVERT JUMPDEST POP PUSH2 0x548 PUSH2 0x106 SLOAD DUP2 JUMP JUMPDEST CALLVALUE DUP1 ISZERO PUSH2 0xA18 JUMPI PUSH1 0x0 DUP1 REVERT JUMPDEST POP PUSH2 0x609 PUSH2 0xA27 CALLDATASIZE PUSH1 0x4 PUSH2 0x38F5 JUMP JUMPDEST PUSH2 0x1BCC JUMP JUMPDEST CALLVALUE DUP1 ISZERO PUSH2 0xA38 JUMPI PUSH1 0x0 DUP1 REVERT JUMPDEST POP PUSH2 0x609 PUSH2 0xA47 CALLDATASIZE PUSH1 0x4 PUSH2 0x38C9 JUMP JUMPDEST PUSH2 0x1BF9 JUMP JUMPDEST CALLVALUE DUP1 ISZERO PUSH2 0xA58 JUMPI PUSH1 0x0 DUP1 REVERT JUMPDEST POP PUSH2 0x609 PUSH2 0xA67 CALLDATASIZE PUSH1 0x4 PUSH2 0x39B5 JUMP JUMPDEST PUSH2 0x1C0B JUMP JUMPDEST CALLVALUE DUP1 ISZERO PUSH2 0xA78 JUMPI PUSH1 0x0 DUP1 REVERT JUMPDEST POP PUSH2 0x609 PUSH2 0x1D1B JUMP JUMPDEST CALLVALUE DUP1 ISZERO PUSH2 0xA8D JUMPI PUSH1 0x0 DUP1 REVERT JUMPDEST POP PUSH2 0x609 PUSH2 0xA9C CALLDATASIZE PUSH1 0x4 PUSH2 0x38C9 JUMP JUMPDEST PUSH2 0x1D2B JUMP JUMPDEST CALLVALUE DUP1 ISZERO PUSH2 0xAAD JUMPI PUSH1 0x0 DUP1 REVERT JUMPDEST POP PUSH2 0x609 PUSH2 0xABC CALLDATASIZE PUSH1 0x4 PUSH2 0x38F5 JUMP JUMPDEST PUSH2 0x1DB4 JUMP JUMPDEST CALLVALUE DUP1 ISZERO PUSH2 0xACD JUMPI PUSH1 0x0 DUP1 REVERT JUMPDEST POP PUSH2 0x609 PUSH2 0xADC CALLDATASIZE PUSH1 0x4 PUSH2 0x398E JUMP JUMPDEST PUSH2 0x1DDE JUMP JUMPDEST CALLVALUE DUP1 ISZERO PUSH2 0xAED JUMPI PUSH1 0x0 DUP1 REVERT JUMPDEST POP PUSH1 0x97 SLOAD PUSH1 0x1 PUSH1 0x1 PUSH1 0xA0 SHL SUB AND PUSH2 0x732 JUMP JUMPDEST CALLVALUE DUP1 ISZERO PUSH2 0xB0B JUMPI PUSH1 0x0 DUP1 REVERT JUMPDEST POP PUSH2 0x100 DUP1 SLOAD PUSH2 0x59D SWAP2 PUSH1 0xFF SWAP2 DIV AND DUP2 JUMP JUMPDEST CALLVALUE DUP1 ISZERO PUSH2 0xB29 JUMPI PUSH1 0x0 DUP1 REVERT JUMPDEST POP PUSH2 0x609 PUSH2 0xB38 CALLDATASIZE PUSH1 0x4 PUSH2 0x398E JUMP JUMPDEST PUSH2 0x1DEB JUMP JUMPDEST CALLVALUE DUP1 ISZERO PUSH2 0xB49 JUMPI PUSH1 0x0 DUP1 REVERT JUMPDEST POP PUSH2 0x570 PUSH2 0x1DF9 JUMP JUMPDEST CALLVALUE DUP1 ISZERO PUSH2 0xB5E JUMPI PUSH1 0x0 DUP1 REVERT JUMPDEST POP PUSH2 0x609 PUSH2 0xB6D CALLDATASIZE PUSH1 0x4 PUSH2 0x398E JUMP JUMPDEST PUSH2 0x1E08 JUMP JUMPDEST CALLVALUE DUP1 ISZERO PUSH2 0xB7E JUMPI PUSH1 0x0 DUP1 REVERT JUMPDEST POP PUSH2 0x609 PUSH2 0xB8D CALLDATASIZE PUSH1 0x4 PUSH2 0x39D2 JUMP JUMPDEST PUSH2 0x1EE2 JUMP JUMPDEST CALLVALUE DUP1 ISZERO PUSH2 0xB9E JUMPI PUSH1 0x0 DUP1 REVERT JUMPDEST POP PUSH2 0x609 PUSH2 0xBAD CALLDATASIZE PUSH1 0x4 PUSH2 0x39B5 JUMP JUMPDEST PUSH2 0x2001 JUMP JUMPDEST CALLVALUE DUP1 ISZERO PUSH2 0xBBE JUMPI PUSH1 0x0 DUP1 REVERT JUMPDEST POP PUSH2 0x59D PUSH2 0xBCD CALLDATASIZE PUSH1 0x4 PUSH2 0x38C9 JUMP JUMPDEST PUSH2 0x2020 JUMP JUMPDEST CALLVALUE DUP1 ISZERO PUSH2 0xBDE JUMPI PUSH1 0x0 DUP1 REVERT JUMPDEST POP PUSH2 0x59D PUSH2 0xBED CALLDATASIZE PUSH1 0x4 PUSH2 0x38C9 JUMP JUMPDEST PUSH2 0x20D5 JUMP JUMPDEST CALLVALUE DUP1 ISZERO PUSH2 0xBFE JUMPI PUSH1 0x0 DUP1 REVERT JUMPDEST POP PUSH2 0x107 SLOAD PUSH2 0x59D SWAP1 PUSH1 0xFF AND DUP2 JUMP JUMPDEST CALLVALUE DUP1 ISZERO PUSH2 0xC19 JUMPI PUSH1 0x0 DUP1 REVERT JUMPDEST POP PUSH1 0xFB SLOAD PUSH2 0x732 SWAP1 PUSH1 0x1 PUSH1 0x1 PUSH1 0xA0 SHL SUB AND DUP2 JUMP JUMPDEST CALLVALUE DUP1 ISZERO PUSH2 0xC39 JUMPI PUSH1 0x0 DUP1 REVERT JUMPDEST POP PUSH2 0x59D PUSH2 0xC48 CALLDATASIZE PUSH1 0x4 PUSH2 0x38F5 JUMP JUMPDEST PUSH1 0x1 PUSH1 0x1 PUSH1 0xA0 SHL SUB AND PUSH1 0x0 SWAP1 DUP2 MSTORE PUSH2 0x10B PUSH1 0x20 MSTORE PUSH1 0x40 SWAP1 KECCAK256 SLOAD PUSH1 0xFF AND SWAP1 JUMP JUMPDEST CALLVALUE DUP1 ISZERO PUSH2 0xC73 JUMPI PUSH1 0x0 DUP1 REVERT JUMPDEST POP CALLER PUSH1 0x0 SWAP1 DUP2 MSTORE PUSH2 0x10C PUSH1 0x20 MSTORE PUSH1 0x40 SWAP1 KECCAK256 SLOAD PUSH2 0x548 JUMP JUMPDEST CALLVALUE DUP1 ISZERO PUSH2 0xC96 JUMPI PUSH1 0x0 DUP1 REVERT JUMPDEST POP PUSH2 0x548 PUSH2 0x104 SLOAD DUP2 JUMP JUMPDEST CALLVALUE DUP1 ISZERO PUSH2 0xCAD JUMPI PUSH1 0x0 DUP1 REVERT JUMPDEST POP PUSH2 0x609 PUSH2 0x2317 JUMP JUMPDEST CALLVALUE DUP1 ISZERO PUSH2 0xCC2 JUMPI PUSH1 0x0 DUP1 REVERT JUMPDEST POP PUSH2 0x609 PUSH2 0xCD1 CALLDATASIZE PUSH1 0x4 PUSH2 0x398E JUMP JUMPDEST PUSH2 0x24D9 JUMP JUMPDEST CALLVALUE DUP1 ISZERO PUSH2 0xCE2 JUMPI PUSH1 0x0 DUP1 REVERT JUMPDEST POP PUSH2 0x609 PUSH2 0xCF1 CALLDATASIZE PUSH1 0x4 PUSH2 0x38F5 JUMP JUMPDEST PUSH2 0x24E6 JUMP JUMPDEST CALLVALUE DUP1 ISZERO PUSH2 0xD02 JUMPI PUSH1 0x0 DUP1 REVERT JUMPDEST POP PUSH2 0x548 PUSH1 0xFD SLOAD DUP2 JUMP JUMPDEST CALLVALUE DUP1 ISZERO PUSH2 0xD18 JUMPI PUSH1 0x0 DUP1 REVERT JUMPDEST POP PUSH2 0x59D PUSH2 0xD27 CALLDATASIZE PUSH1 0x4 PUSH2 0x38F5 JUMP JUMPDEST PUSH2 0x101 PUSH1 0x20 MSTORE PUSH1 0x0 SWAP1 DUP2 MSTORE PUSH1 0x40 SWAP1 KECCAK256 SLOAD PUSH1 0xFF AND DUP2 JUMP JUMPDEST CALLVALUE DUP1 ISZERO PUSH2 0xD49 JUMPI PUSH1 0x0 DUP1 REVERT JUMPDEST POP PUSH2 0x548 PUSH2 0x102 SLOAD DUP2 JUMP JUMPDEST CALLVALUE DUP1 ISZERO PUSH2 0xD60 JUMPI PUSH1 0x0 DUP1 REVERT JUMPDEST POP PUSH2 0x108 SLOAD PUSH2 0x732 SWAP1 PUSH1 0x1 PUSH1 0x1 PUSH1 0xA0 SHL SUB AND DUP2 JUMP JUMPDEST CALLVALUE DUP1 ISZERO PUSH2 0xD81 JUMPI PUSH1 0x0 DUP1 REVERT JUMPDEST POP PUSH2 0x609 PUSH2 0xD90 CALLDATASIZE PUSH1 0x4 PUSH2 0x398E JUMP JUMPDEST PUSH2 0x252A JUMP JUMPDEST CALLVALUE DUP1 ISZERO PUSH2 0xDA1 JUMPI PUSH1 0x0 DUP1 REVERT JUMPDEST POP PUSH2 0x732 PUSH2 0xDB0 CALLDATASIZE PUSH1 0x4 PUSH2 0x398E JUMP JUMPDEST PUSH2 0x2538 JUMP JUMPDEST CALLVALUE DUP1 ISZERO PUSH2 0xDC1 JUMPI PUSH1 0x0 DUP1 REVERT JUMPDEST POP PUSH2 0x548 PUSH2 0xDD0 CALLDATASIZE PUSH1 0x4 PUSH2 0x39D2 JUMP JUMPDEST PUSH1 0x1 PUSH1 0x1 PUSH1 0xA0 SHL SUB SWAP2 DUP3 AND PUSH1 0x0 SWAP1 DUP2 MSTORE PUSH1 0x34 PUSH1 0x20 SWAP1 DUP2 MSTORE PUSH1 0x40 DUP1 DUP4 KECCAK256 SWAP4 SWAP1 SWAP5 AND DUP3 MSTORE SWAP2 SWAP1 SWAP2 MSTORE KECCAK256 SLOAD SWAP1 JUMP JUMPDEST CALLVALUE DUP1 ISZERO PUSH2 0xE07 JUMPI PUSH1 0x0 DUP1 REVERT JUMPDEST POP PUSH2 0x609 PUSH2 0xE16 CALLDATASIZE PUSH1 0x4 PUSH2 0x38F5 JUMP JUMPDEST PUSH2 0x2563 JUMP JUMPDEST CALLVALUE DUP1 ISZERO PUSH2 0xE27 JUMPI PUSH1 0x0 DUP1 REVERT JUMPDEST POP PUSH2 0x609 PUSH2 0xE36 CALLDATASIZE PUSH1 0x4 PUSH2 0x38F5 JUMP JUMPDEST PUSH2 0x258D JUMP JUMPDEST CALLVALUE DUP1 ISZERO PUSH2 0xE47 JUMPI PUSH1 0x0 DUP1 REVERT JUMPDEST POP PUSH2 0x609 PUSH2 0x25BA JUMP JUMPDEST CALLVALUE DUP1 ISZERO PUSH2 0xE5C JUMPI PUSH1 0x0 DUP1 REVERT JUMPDEST POP PUSH2 0x609 PUSH2 0xE6B CALLDATASIZE PUSH1 0x4 PUSH2 0x39B5 JUMP JUMPDEST PUSH2 0x25CA JUMP JUMPDEST CALLVALUE DUP1 ISZERO PUSH2 0xE7C JUMPI PUSH1 0x0 DUP1 REVERT JUMPDEST POP PUSH2 0x609 PUSH2 0xE8B CALLDATASIZE PUSH1 0x4 PUSH2 0x38F5 JUMP JUMPDEST PUSH2 0x25E6 JUMP JUMPDEST CALLVALUE DUP1 ISZERO PUSH2 0xE9C JUMPI PUSH1 0x0 DUP1 REVERT JUMPDEST POP PUSH2 0xEEB PUSH2 0xEAB CALLDATASIZE PUSH1 0x4 PUSH2 0x38F5 JUMP JUMPDEST PUSH2 0x110 PUSH1 0x20 MSTORE PUSH1 0x0 SWAP1 DUP2 MSTORE PUSH1 0x40 SWAP1 KECCAK256 DUP1 SLOAD PUSH1 0x1 DUP3 ADD SLOAD PUSH1 0x2 DUP4 ADD SLOAD PUSH1 0x3 DUP5 ADD SLOAD PUSH1 0x4 DUP6 ADD SLOAD PUSH1 0x5 SWAP1 SWAP6 ADD SLOAD SWAP4 SWAP5 PUSH1 0x1 PUSH1 0x1 PUSH1 0xA0 SHL SUB SWAP1 SWAP4 AND SWAP4 SWAP2 SWAP3 SWAP1 SWAP2 DUP7 JUMP JUMPDEST PUSH1 0x40 DUP1 MLOAD SWAP7 DUP8 MSTORE PUSH1 0x1 PUSH1 0x1 PUSH1 0xA0 SHL SUB SWAP1 SWAP6 AND PUSH1 0x20 DUP8 ADD MSTORE SWAP4 DUP6 ADD SWAP3 SWAP1 SWAP3 MSTORE PUSH1 0x60 DUP5 ADD MSTORE PUSH1 0x80 DUP4 ADD MSTORE PUSH1 0xA0 DUP3 ADD MSTORE PUSH1 0xC0 ADD PUSH2 0x552 JUMP JUMPDEST CALLVALUE DUP1 ISZERO PUSH2 0xF2C JUMPI PUSH1 0x0 DUP1 REVERT JUMPDEST POP PUSH2 0x111 SLOAD PUSH2 0x732 SWAP1 PUSH1 0x1 PUSH1 0x1 PUSH1 0xA0 SHL SUB AND DUP2 JUMP JUMPDEST CALLVALUE DUP1 ISZERO PUSH2 0xF4D JUMPI PUSH1 0x0 DUP1 REVERT JUMPDEST POP PUSH2 0x609 PUSH2 0xF5C CALLDATASIZE PUSH1 0x4 PUSH2 0x3B4B JUMP JUMPDEST PUSH2 0x265C JUMP JUMPDEST PUSH1 0x60 PUSH1 0x36 DUP1 SLOAD PUSH2 0xF70 SWAP1 PUSH2 0x3C08 JUMP JUMPDEST DUP1 PUSH1 0x1F ADD PUSH1 0x20 DUP1 SWAP2 DIV MUL PUSH1 0x20 ADD PUSH1 0x40 MLOAD SWAP1 DUP2 ADD PUSH1 0x40 MSTORE DUP1 SWAP3 SWAP2 SWAP1 DUP2 DUP2 MSTORE PUSH1 0x20 ADD DUP3 DUP1 SLOAD PUSH2 0xF9C SWAP1 PUSH2 0x3C08 JUMP JUMPDEST DUP1 ISZERO PUSH2 0xFE9 JUMPI DUP1 PUSH1 0x1F LT PUSH2 0xFBE JUMPI PUSH2 0x100 DUP1 DUP4 SLOAD DIV MUL DUP4 MSTORE SWAP2 PUSH1 0x20 ADD SWAP2 PUSH2 0xFE9 JUMP JUMPDEST DUP3 ADD SWAP2 SWAP1 PUSH1 0x0 MSTORE PUSH1 0x20 PUSH1 0x0 KECCAK256 SWAP1 JUMPDEST DUP2 SLOAD DUP2 MSTORE SWAP1 PUSH1 0x1 ADD SWAP1 PUSH1 0x20 ADD DUP1 DUP4 GT PUSH2 0xFCC JUMPI DUP3 SWAP1 SUB PUSH1 0x1F AND DUP3 ADD SWAP2 JUMPDEST POP POP POP POP POP SWAP1 POP SWAP1 JUMP JUMPDEST PUSH1 0x0 CALLER PUSH2 0x1001 DUP2 DUP6 DUP6 PUSH2 0x2947 JUMP JUMPDEST PUSH1 0x1 SWAP2 POP POP JUMPDEST SWAP3 SWAP2 POP POP JUMP JUMPDEST PUSH1 0x0 PUSH2 0x106 SLOAD TIMESTAMP PUSH2 0x101E SWAP2 SWAP1 PUSH2 0x3C58 JUMP JUMPDEST SWAP1 POP PUSH2 0x105 SLOAD DUP2 LT PUSH2 0x1087 JUMPI PUSH1 0x0 PUSH2 0x104 SLOAD PUSH2 0x2710 PUSH2 0x103D SWAP2 SWAP1 PUSH2 0x3C58 JUMP JUMPDEST GT PUSH2 0x1050 JUMPI POP PUSH1 0x0 PUSH2 0x103 SSTORE TIMESTAMP PUSH2 0x106 SSTORE JUMP JUMPDEST PUSH2 0x2710 PUSH2 0x104 SLOAD PUSH2 0x103 SLOAD PUSH2 0x1065 SWAP2 SWAP1 PUSH2 0x3C6B JUMP JUMPDEST PUSH2 0x106F SWAP2 SWAP1 PUSH2 0x3C82 JUMP JUMPDEST PUSH2 0x104 SLOAD PUSH2 0x107D SWAP2 SWAP1 PUSH2 0x3C58 JUMP JUMPDEST PUSH2 0x104 SSTORE TIMESTAMP PUSH2 0x106 SSTORE JUMPDEST POP JUMP JUMPDEST PUSH2 0x1092 PUSH2 0x2A9F JUMP JUMPDEST PUSH1 0x1 PUSH1 0x1 PUSH1 0xA0 SHL SUB DUP2 AND PUSH2 0x10ED JUMPI PUSH1 0x40 MLOAD PUSH3 0x461BCD PUSH1 0xE5 SHL DUP2 MSTORE PUSH1 0x20 PUSH1 0x4 DUP3 ADD DUP2 SWAP1 MSTORE PUSH1 0x24 DUP3 ADD MSTORE PUSH32 0x4E6577206F776E65722063616E6E6F74206265207A65726F2061646472657373 PUSH1 0x44 DUP3 ADD MSTORE PUSH1 0x64 ADD JUMPDEST PUSH1 0x40 MLOAD DUP1 SWAP2 SUB SWAP1 REVERT JUMPDEST PUSH2 0x108 DUP1 SLOAD PUSH1 0x1 PUSH1 0x1 PUSH1 0xA0 SHL SUB NOT AND PUSH1 0x1 PUSH1 0x1 PUSH1 0xA0 SHL SUB DUP4 AND SWAP1 DUP2 OR SWAP1 SWAP2 SSTORE PUSH1 0x40 MLOAD PUSH32 0xF0C6916D81CD1F899264B5193E3BBE7AFD2BCC3D05704BAB73D0B8AC93871158 SWAP1 PUSH1 0x0 SWAP1 LOG2 POP JUMP JUMPDEST PUSH2 0x1140 PUSH2 0x2A9F JUMP JUMPDEST PUSH2 0x108 DUP1 SLOAD PUSH1 0x1 PUSH1 0x1 PUSH1 0xA0 SHL SUB NOT AND SWAP1 SSTORE PUSH1 0x0 JUMPDEST PUSH2 0x109 SLOAD DUP2 LT ISZERO PUSH2 0x1087 JUMPI PUSH1 0x0 PUSH2 0x10A PUSH1 0x0 PUSH2 0x109 DUP5 DUP2 SLOAD DUP2 LT PUSH2 0x117A JUMPI PUSH2 0x117A PUSH2 0x3CA4 JUMP JUMPDEST PUSH1 0x0 SWAP2 DUP3 MSTORE PUSH1 0x20 DUP1 DUP4 KECCAK256 SWAP2 SWAP1 SWAP2 ADD SLOAD PUSH1 0x1 PUSH1 0x1 PUSH1 0xA0 SHL SUB AND DUP4 MSTORE DUP3 ADD SWAP3 SWAP1 SWAP3 MSTORE PUSH1 0x40 ADD SWAP1 KECCAK256 DUP1 SLOAD PUSH1 0xFF NOT AND SWAP2 ISZERO ISZERO SWAP2 SWAP1 SWAP2 OR SWAP1 SSTORE DUP1 PUSH2 0x11B8 DUP2 PUSH2 0x3CBA JUMP JUMPDEST SWAP2 POP POP PUSH2 0x1154 JUMP JUMPDEST PUSH1 0x1 PUSH1 0x1 PUSH1 0xA0 SHL SUB DUP4 AND PUSH1 0x0 SWAP1 DUP2 MSTORE PUSH2 0x10D PUSH1 0x20 MSTORE PUSH1 0x40 DUP2 KECCAK256 SLOAD DUP5 SWAP1 ISZERO DUP1 PUSH2 0x1200 JUMPI POP PUSH1 0x1 PUSH1 0x1 PUSH1 0xA0 SHL SUB DUP2 AND PUSH1 0x0 SWAP1 DUP2 MSTORE PUSH2 0x10D PUSH1 0x20 MSTORE PUSH1 0x40 SWAP1 KECCAK256 SLOAD TIMESTAMP GT JUMPDEST PUSH2 0x124C JUMPI PUSH1 0x40 MLOAD PUSH3 0x461BCD PUSH1 0xE5 SHL DUP2 MSTORE PUSH1 0x20 PUSH1 0x4 DUP3 ADD MSTORE PUSH1 0x10 PUSH1 0x24 DUP3 ADD MSTORE PUSH32 0x57616C6C65742069732066726F7A656E00000000000000000000000000000000 PUSH1 0x44 DUP3 ADD MSTORE PUSH1 0x64 ADD PUSH2 0x10E4 JUMP JUMPDEST CALLER PUSH1 0x0 DUP2 DUP2 MSTORE PUSH2 0x10E PUSH1 0x20 MSTORE PUSH1 0x40 SWAP1 KECCAK256 SLOAD DUP5 SWAP1 PUSH1 0xFF AND PUSH2 0x130A JUMPI PUSH1 0xFC SLOAD DUP2 LT ISZERO PUSH2 0x12B8 JUMPI PUSH1 0x40 MLOAD PUSH3 0x461BCD PUSH1 0xE5 SHL DUP2 MSTORE PUSH1 0x20 PUSH1 0x4 DUP3 ADD MSTORE PUSH1 0x14 PUSH1 0x24 DUP3 ADD MSTORE PUSH32 0x416D6F756E742062656C6F77206D696E696D756D000000000000000000000000 PUSH1 0x44 DUP3 ADD MSTORE PUSH1 0x64 ADD PUSH2 0x10E4 JUMP JUMPDEST PUSH1 0xFD SLOAD DUP2 GT ISZERO PUSH2 0x130A JUMPI PUSH1 0x40 MLOAD PUSH3 0x461BCD PUSH1 0xE5 SHL DUP2 MSTORE PUSH1 0x20 PUSH1 0x4 DUP3 ADD MSTORE PUSH1 0x16 PUSH1 0x24 DUP3 ADD MSTORE PUSH32 0x416D6F756E742065786365656473206D6178696D756D00000000000000000000 PUSH1 0x44 DUP3 ADD MSTORE PUSH1 0x64 ADD PUSH2 0x10E4 JUMP JUMPDEST PUSH1 0x1 PUSH1 0x1 PUSH1 0xA0 SHL SUB DUP8 AND PUSH1 0x0 SWAP1 DUP2 MSTORE PUSH2 0x10B PUSH1 0x20 MSTORE PUSH1 0x40 SWAP1 KECCAK256 SLOAD PUSH1 0xFF AND ISZERO PUSH2 0x1374 JUMPI PUSH1 0x40 MLOAD PUSH3 0x461BCD PUSH1 0xE5 SHL DUP2 MSTORE PUSH1 0x20 PUSH1 0x4 DUP3 ADD MSTORE PUSH1 0x1E PUSH1 0x24 DUP3 ADD MSTORE PUSH32 0x53656E64657227732077616C6C657420697320626C61636B6C69737465640000 PUSH1 0x44 DUP3 ADD MSTORE PUSH1 0x64 ADD PUSH2 0x10E4 JUMP JUMPDEST CALLER PUSH1 0x0 SWAP1 DUP2 MSTORE PUSH2 0x10C PUSH1 0x20 MSTORE PUSH1 0x40 SWAP1 KECCAK256 SLOAD TIMESTAMP LT ISZERO PUSH2 0x13D4 JUMPI PUSH1 0x40 MLOAD PUSH3 0x461BCD PUSH1 0xE5 SHL DUP2 MSTORE PUSH1 0x20 PUSH1 0x4 DUP3 ADD MSTORE PUSH1 0x18 PUSH1 0x24 DUP3 ADD MSTORE PUSH32 0x5472616E73666572206E6F7420616C6C6F776564207965740000000000000000 PUSH1 0x44 DUP3 ADD MSTORE PUSH1 0x64 ADD PUSH2 0x10E4 JUMP JUMPDEST PUSH1 0xFE SLOAD PUSH2 0x13E1 SWAP1 TIMESTAMP PUSH2 0x3CD3 JUMP JUMPDEST CALLER PUSH1 0x0 DUP2 DUP2 MSTORE PUSH2 0x10C PUSH1 0x20 MSTORE PUSH1 0x40 SWAP1 KECCAK256 SWAP2 SWAP1 SWAP2 SSTORE PUSH2 0x1400 DUP9 DUP3 DUP9 PUSH2 0x2AF9 JUMP JUMPDEST PUSH2 0x140B DUP9 DUP9 DUP9 PUSH2 0x2B8B JUMP JUMPDEST POP PUSH1 0x1 SWAP8 SWAP7 POP POP POP POP POP POP POP JUMP JUMPDEST PUSH2 0x1421 PUSH2 0x2A9F JUMP JUMPDEST PUSH1 0x1 PUSH1 0x1 PUSH1 0xA0 SHL SUB DUP5 AND PUSH2 0x149D JUMPI PUSH1 0x40 MLOAD PUSH3 0x461BCD PUSH1 0xE5 SHL DUP2 MSTORE PUSH1 0x20 PUSH1 0x4 DUP3 ADD MSTORE PUSH1 0x22 PUSH1 0x24 DUP3 ADD MSTORE PUSH32 0x42656E656669636961727920616464726573732063616E6E6F74206265207A65 PUSH1 0x44 DUP3 ADD MSTORE PUSH32 0x726F000000000000000000000000000000000000000000000000000000000000 PUSH1 0x64 DUP3 ADD MSTORE PUSH1 0x84 ADD PUSH2 0x10E4 JUMP JUMPDEST PUSH1 0x0 DUP3 GT DUP1 ISZERO PUSH2 0x14AF JUMPI POP PUSH2 0x2710 DUP3 GT ISZERO JUMPDEST PUSH2 0x1520 JUMPI PUSH1 0x40 MLOAD PUSH3 0x461BCD PUSH1 0xE5 SHL DUP2 MSTORE PUSH1 0x20 PUSH1 0x4 DUP3 ADD MSTORE PUSH1 0x24 DUP1 DUP3 ADD MSTORE PUSH32 0x50657263656E74616765206D757374206265206265747765656E203120616E64 PUSH1 0x44 DUP3 ADD MSTORE PUSH32 0x2031303000000000000000000000000000000000000000000000000000000000 PUSH1 0x64 DUP3 ADD MSTORE PUSH1 0x84 ADD PUSH2 0x10E4 JUMP JUMPDEST PUSH1 0x0 DUP2 GT PUSH2 0x1596 JUMPI PUSH1 0x40 MLOAD PUSH3 0x461BCD PUSH1 0xE5 SHL DUP2 MSTORE PUSH1 0x20 PUSH1 0x4 DUP3 ADD MSTORE PUSH1 0x27 PUSH1 0x24 DUP3 ADD MSTORE PUSH32 0x54696D6520696E74657276616C206D7573742062652067726561746572207468 PUSH1 0x44 DUP3 ADD MSTORE PUSH32 0x616E207A65726F00000000000000000000000000000000000000000000000000 PUSH1 0x64 DUP3 ADD MSTORE PUSH1 0x84 ADD PUSH2 0x10E4 JUMP JUMPDEST PUSH1 0x1 PUSH1 0x1 PUSH1 0xA0 SHL SUB SWAP1 SWAP4 AND PUSH1 0x0 DUP2 DUP2 MSTORE PUSH2 0x110 PUSH1 0x20 MSTORE PUSH1 0x40 DUP2 KECCAK256 SWAP4 DUP5 SSTORE PUSH1 0x1 DUP5 ADD DUP1 SLOAD PUSH1 0x1 PUSH1 0x1 PUSH1 0xA0 SHL SUB NOT AND SWAP1 SWAP3 OR SWAP1 SWAP2 SSTORE PUSH1 0x2 DUP4 ADD SWAP2 SWAP1 SWAP2 SSTORE PUSH1 0x3 DUP3 ADD SWAP3 SWAP1 SWAP3 SSTORE TIMESTAMP PUSH1 0x4 DUP3 ADD SSTORE PUSH1 0x5 ADD SSTORE JUMP JUMPDEST PUSH2 0x15ED PUSH2 0x2A9F JUMP JUMPDEST PUSH1 0x1 PUSH1 0x1 PUSH1 0xA0 SHL SUB DUP2 AND PUSH2 0x1643 JUMPI PUSH1 0x40 MLOAD PUSH3 0x461BCD PUSH1 0xE5 SHL DUP2 MSTORE PUSH1 0x20 PUSH1 0x4 DUP3 ADD MSTORE PUSH1 0xF PUSH1 0x24 DUP3 ADD MSTORE PUSH32 0x496E76616C696420616464726573730000000000000000000000000000000000 PUSH1 0x44 DUP3 ADD MSTORE PUSH1 0x64 ADD PUSH2 0x10E4 JUMP JUMPDEST PUSH1 0x40 MLOAD PUSH1 0x1 PUSH1 0x1 PUSH1 0xA0 SHL SUB DUP3 AND SWAP1 SELFBALANCE DUP1 ISZERO PUSH2 0x8FC MUL SWAP2 PUSH1 0x0 DUP2 DUP2 DUP2 DUP6 DUP9 DUP9 CALL SWAP4 POP POP POP POP ISZERO DUP1 ISZERO PUSH2 0x1678 JUMPI RETURNDATASIZE PUSH1 0x0 DUP1 RETURNDATACOPY RETURNDATASIZE PUSH1 0x0 REVERT JUMPDEST POP POP JUMP JUMPDEST PUSH2 0x100 SLOAD PUSH1 0xFF AND ISZERO PUSH2 0x16D0 JUMPI PUSH1 0x40 MLOAD PUSH3 0x461BCD PUSH1 0xE5 SHL DUP2 MSTORE PUSH1 0x20 PUSH1 0x4 DUP3 ADD MSTORE PUSH1 0x13 PUSH1 0x24 DUP3 ADD MSTORE PUSH32 0x4C6971756964697479206973206C6F636B656400000000000000000000000000 PUSH1 0x44 DUP3 ADD MSTORE PUSH1 0x64 ADD PUSH2 0x10E4 JUMP JUMPDEST ADDRESS PUSH1 0x0 SWAP1 DUP2 MSTORE PUSH1 0x33 PUSH1 0x20 MSTORE PUSH1 0x40 SWAP1 KECCAK256 SLOAD DUP2 GT ISZERO PUSH2 0x172F JUMPI PUSH1 0x40 MLOAD PUSH3 0x461BCD PUSH1 0xE5 SHL DUP2 MSTORE PUSH1 0x20 PUSH1 0x4 DUP3 ADD MSTORE PUSH1 0x14 PUSH1 0x24 DUP3 ADD MSTORE PUSH32 0x496E73756666696369656E742062616C616E6365000000000000000000000000 PUSH1 0x44 DUP3 ADD MSTORE PUSH1 0x64 ADD PUSH2 0x10E4 JUMP JUMPDEST PUSH2 0x1739 ADDRESS DUP3 PUSH2 0x20D5 JUMP JUMPDEST POP PUSH1 0xFF SLOAD PUSH2 0x1747 SWAP1 DUP3 PUSH2 0x2F23 JUMP JUMPDEST PUSH1 0xFF SSTORE POP PUSH2 0x100 DUP1 SLOAD PUSH1 0xFF NOT AND PUSH1 0x1 OR SWAP1 SSTORE JUMP JUMPDEST PUSH2 0x1763 PUSH2 0x2A9F JUMP JUMPDEST PUSH1 0xFE SSTORE JUMP JUMPDEST CALLER PUSH1 0x0 DUP2 DUP2 MSTORE PUSH1 0x34 PUSH1 0x20 SWAP1 DUP2 MSTORE PUSH1 0x40 DUP1 DUP4 KECCAK256 PUSH1 0x1 PUSH1 0x1 PUSH1 0xA0 SHL SUB DUP8 AND DUP5 MSTORE SWAP1 SWAP2 MSTORE DUP2 KECCAK256 SLOAD SWAP1 SWAP2 SWAP1 PUSH2 0x1001 SWAP1 DUP3 SWAP1 DUP7 SWAP1 PUSH2 0x17A2 SWAP1 DUP8 SWAP1 PUSH2 0x3CD3 JUMP JUMPDEST PUSH2 0x2947 JUMP JUMPDEST PUSH2 0x17AF PUSH2 0x2A9F JUMP JUMPDEST PUSH2 0x17B7 PUSH2 0x2F36 JUMP JUMPDEST JUMP JUMPDEST PUSH2 0x17C1 PUSH2 0x2A9F JUMP JUMPDEST PUSH2 0x1678 DUP3 DUP3 PUSH2 0x2F88 JUMP JUMPDEST PUSH2 0x1087 CALLER DUP3 PUSH2 0x3049 JUMP JUMPDEST PUSH2 0x17DD PUSH2 0x2A9F JUMP JUMPDEST PUSH1 0x1 PUSH1 0x1 PUSH1 0xA0 SHL SUB DUP2 AND PUSH1 0x0 SWAP1 DUP2 MSTORE PUSH2 0x10B PUSH1 0x20 MSTORE PUSH1 0x40 SWAP1 KECCAK256 SLOAD PUSH1 0xFF AND ISZERO PUSH2 0x1847 JUMPI PUSH1 0x40 MLOAD PUSH3 0x461BCD PUSH1 0xE5 SHL DUP2 MSTORE PUSH1 0x20 PUSH1 0x4 DUP3 ADD MSTORE PUSH1 0x18 PUSH1 0x24 DUP3 ADD MSTORE PUSH32 0x7573657220616C726561647920626C61636B6C69737465640000000000000000 PUSH1 0x44 DUP3 ADD MSTORE PUSH1 0x64 ADD PUSH2 0x10E4 JUMP JUMPDEST PUSH1 0x1 PUSH1 0x1 PUSH1 0xA0 SHL SUB AND PUSH1 0x0 SWAP1 DUP2 MSTORE PUSH2 0x10B PUSH1 0x20 MSTORE PUSH1 0x40 SWAP1 KECCAK256 DUP1 SLOAD PUSH1 0xFF NOT AND PUSH1 0x1 OR SWAP1 SSTORE JUMP JUMPDEST CALLER PUSH1 0x0 SWAP1 DUP2 MSTORE PUSH2 0x110 PUSH1 0x20 MSTORE PUSH1 0x40 SWAP1 KECCAK256 DUP1 SLOAD PUSH2 0x18F0 JUMPI PUSH1 0x40 MLOAD PUSH3 0x461BCD PUSH1 0xE5 SHL DUP2 MSTORE PUSH1 0x20 PUSH1 0x4 DUP3 ADD MSTORE PUSH1 0x28 PUSH1 0x24 DUP3 ADD MSTORE PUSH32 0x4E6F2076657374696E67207363686564756C6520666F756E6420666F72207468 PUSH1 0x44 DUP3 ADD MSTORE PUSH32 0x652073656E646572000000000000000000000000000000000000000000000000 PUSH1 0x64 DUP3 ADD MSTORE PUSH1 0x84 ADD PUSH2 0x10E4 JUMP JUMPDEST PUSH1 0x4 DUP2 ADD SLOAD TIMESTAMP SWAP1 PUSH1 0x0 SWAP1 PUSH2 0x1904 SWAP1 DUP4 PUSH2 0x3C58 JUMP JUMPDEST DUP4 SLOAD PUSH1 0x3 DUP6 ADD SLOAD SWAP2 SWAP3 POP SWAP1 DUP3 LT ISZERO PUSH2 0x195E JUMPI PUSH1 0x40 MLOAD PUSH3 0x461BCD PUSH1 0xE5 SHL DUP2 MSTORE PUSH1 0x20 PUSH1 0x4 DUP3 ADD MSTORE PUSH1 0x1C PUSH1 0x24 DUP3 ADD MSTORE PUSH32 0x546F6B656E732063616E6E6F7420626520636C61696D65642079657400000000 PUSH1 0x44 DUP3 ADD MSTORE PUSH1 0x64 ADD PUSH2 0x10E4 JUMP JUMPDEST PUSH1 0x0 PUSH2 0x2710 DUP6 PUSH1 0x2 ADD SLOAD DUP4 PUSH2 0x1973 SWAP2 SWAP1 PUSH2 0x3C6B JUMP JUMPDEST PUSH2 0x197D SWAP2 SWAP1 PUSH2 0x3C82 JUMP JUMPDEST SWAP1 POP DUP1 DUP6 PUSH1 0x5 ADD PUSH1 0x0 DUP3 DUP3 SLOAD PUSH2 0x1993 SWAP2 SWAP1 PUSH2 0x3CD3 JUMP JUMPDEST SWAP1 SWAP2 SSTORE POP POP PUSH1 0x4 DUP6 ADD DUP5 SWAP1 SSTORE DUP2 DUP2 GT ISZERO PUSH2 0x1A15 JUMPI PUSH1 0x40 MLOAD PUSH3 0x461BCD PUSH1 0xE5 SHL DUP2 MSTORE PUSH1 0x20 PUSH1 0x4 DUP3 ADD MSTORE PUSH1 0x2A PUSH1 0x24 DUP3 ADD MSTORE PUSH32 0x546F6B656E7320746F20636C61696D2065786365656420746F74616C20766573 PUSH1 0x44 DUP3 ADD MSTORE PUSH32 0x74656420746F6B656E7300000000000000000000000000000000000000000000 PUSH1 0x64 DUP3 ADD MSTORE PUSH1 0x84 ADD PUSH2 0x10E4 JUMP JUMPDEST DUP5 SLOAD PUSH1 0x5 DUP7 ADD SLOAD GT ISZERO PUSH2 0x1A90 JUMPI PUSH1 0x40 MLOAD PUSH3 0x461BCD PUSH1 0xE5 SHL DUP2 MSTORE PUSH1 0x20 PUSH1 0x4 DUP3 ADD MSTORE PUSH1 0x29 PUSH1 0x24 DUP3 ADD MSTORE PUSH32 0x4E6F7420656E6F75676820746F6B656E7320696E207468652076657374696E67 PUSH1 0x44 DUP3 ADD MSTORE PUSH32 0x207363686564756C650000000000000000000000000000000000000000000000 PUSH1 0x64 DUP3 ADD MSTORE PUSH1 0x84 ADD PUSH2 0x10E4 JUMP JUMPDEST PUSH1 0xFB SLOAD PUSH2 0x1AA7 SWAP1 PUSH1 0x1 PUSH1 0x1 PUSH1 0xA0 SHL SUB AND CALLER DUP4 PUSH2 0x2B8B JUMP JUMPDEST POP POP POP POP POP JUMP JUMPDEST PUSH2 0x1AB6 PUSH2 0x2A9F JUMP JUMPDEST PUSH1 0x1 PUSH1 0x1 PUSH1 0xA0 SHL SUB DUP2 AND PUSH1 0x0 SWAP1 DUP2 MSTORE PUSH2 0x10B PUSH1 0x20 MSTORE PUSH1 0x40 SWAP1 KECCAK256 SLOAD PUSH1 0xFF AND PUSH2 0x1B1F JUMPI PUSH1 0x40 MLOAD PUSH3 0x461BCD PUSH1 0xE5 SHL DUP2 MSTORE PUSH1 0x20 PUSH1 0x4 DUP3 ADD MSTORE PUSH1 0x18 PUSH1 0x24 DUP3 ADD MSTORE PUSH32 0x7573657220616C726561647920626C61636B6C69737465640000000000000000 PUSH1 0x44 DUP3 ADD MSTORE PUSH1 0x64 ADD PUSH2 0x10E4 JUMP JUMPDEST PUSH1 0x1 PUSH1 0x1 PUSH1 0xA0 SHL SUB AND PUSH1 0x0 SWAP1 DUP2 MSTORE PUSH2 0x10B PUSH1 0x20 MSTORE PUSH1 0x40 SWAP1 KECCAK256 DUP1 SLOAD PUSH1 0xFF NOT AND SWAP1 SSTORE JUMP JUMPDEST PUSH2 0x1B49 PUSH2 0x2A9F JUMP JUMPDEST PUSH2 0x105 SSTORE JUMP JUMPDEST PUSH2 0x1B57 PUSH2 0x2A9F JUMP JUMPDEST PUSH2 0x107 DUP1 SLOAD PUSH1 0x1 PUSH1 0x1 PUSH1 0xA0 SHL SUB SWAP1 SWAP3 AND PUSH2 0x100 MUL PUSH32 0xFFFFFFFFFFFFFFFFFFFFFF0000000000000000000000000000000000000000FF SWAP1 SWAP3 AND SWAP2 SWAP1 SWAP2 OR SWAP1 SSTORE JUMP JUMPDEST PUSH2 0x1B9F PUSH2 0x2A9F JUMP JUMPDEST PUSH1 0x1 PUSH1 0x1 PUSH1 0xA0 SHL SUB AND PUSH1 0x0 SWAP1 DUP2 MSTORE PUSH2 0x10D PUSH1 0x20 MSTORE PUSH1 0x40 DUP2 KECCAK256 SSTORE JUMP JUMPDEST PUSH2 0x1BC2 PUSH2 0x2A9F JUMP JUMPDEST PUSH2 0x17B7 PUSH1 0x0 PUSH2 0x31B4 JUMP JUMPDEST PUSH2 0x1BD4 PUSH2 0x2A9F JUMP JUMPDEST PUSH1 0x1 PUSH1 0x1 PUSH1 0xA0 SHL SUB AND PUSH1 0x0 SWAP1 DUP2 MSTORE PUSH2 0x101 PUSH1 0x20 MSTORE PUSH1 0x40 SWAP1 KECCAK256 DUP1 SLOAD PUSH1 0xFF NOT AND PUSH1 0x1 OR SWAP1 SSTORE JUMP JUMPDEST PUSH2 0x1C01 PUSH2 0x2A9F JUMP JUMPDEST PUSH2 0x1678 DUP3 DUP3 PUSH2 0x3049 JUMP JUMPDEST PUSH2 0x1C14 CALLER PUSH2 0x3206 JUMP JUMPDEST PUSH2 0x1C60 JUMPI PUSH1 0x40 MLOAD PUSH3 0x461BCD PUSH1 0xE5 SHL DUP2 MSTORE PUSH1 0x20 PUSH1 0x4 DUP3 ADD MSTORE PUSH1 0x11 PUSH1 0x24 DUP3 ADD MSTORE PUSH32 0x4E6F7420612076616C696420766F746572000000000000000000000000000000 PUSH1 0x44 DUP3 ADD MSTORE PUSH1 0x64 ADD PUSH2 0x10E4 JUMP JUMPDEST CALLER PUSH1 0x0 SWAP1 DUP2 MSTORE PUSH2 0x10A PUSH1 0x20 MSTORE PUSH1 0x40 SWAP1 KECCAK256 SLOAD PUSH1 0xFF AND ISZERO PUSH2 0x1CC1 JUMPI PUSH1 0x40 MLOAD PUSH3 0x461BCD PUSH1 0xE5 SHL DUP2 MSTORE PUSH1 0x20 PUSH1 0x4 DUP3 ADD MSTORE PUSH1 0xD PUSH1 0x24 DUP3 ADD MSTORE PUSH32 0x416C726561647920766F74656400000000000000000000000000000000000000 PUSH1 0x44 DUP3 ADD MSTORE PUSH1 0x64 ADD PUSH2 0x10E4 JUMP JUMPDEST CALLER PUSH1 0x0 DUP2 DUP2 MSTORE PUSH2 0x10A PUSH1 0x20 MSTORE PUSH1 0x40 SWAP1 DUP2 SWAP1 KECCAK256 DUP1 SLOAD PUSH1 0xFF NOT AND PUSH1 0x1 OR SWAP1 SSTORE MLOAD PUSH32 0xA4861C5510BFA99706ED508D728F9C6B365FF27AF1A3012E21980952AD2D844F SWAP1 PUSH2 0x1D10 SWAP1 DUP5 ISZERO ISZERO DUP2 MSTORE PUSH1 0x20 ADD SWAP1 JUMP JUMPDEST PUSH1 0x40 MLOAD DUP1 SWAP2 SUB SWAP1 LOG2 POP JUMP JUMPDEST PUSH2 0x1D23 PUSH2 0x2A9F JUMP JUMPDEST PUSH2 0x17B7 PUSH2 0x3271 JUMP JUMPDEST PUSH2 0x1D33 PUSH2 0x2A9F JUMP JUMPDEST PUSH1 0x1 PUSH1 0x1 PUSH1 0xA0 SHL SUB DUP3 AND PUSH2 0x1D89 JUMPI PUSH1 0x40 MLOAD PUSH3 0x461BCD PUSH1 0xE5 SHL DUP2 MSTORE PUSH1 0x20 PUSH1 0x4 DUP3 ADD MSTORE PUSH1 0x16 PUSH1 0x24 DUP3 ADD MSTORE PUSH32 0x496E76616C69642077616C6C6574206164647265737300000000000000000000 PUSH1 0x44 DUP3 ADD MSTORE PUSH1 0x64 ADD PUSH2 0x10E4 JUMP JUMPDEST PUSH2 0x1D93 DUP2 TIMESTAMP PUSH2 0x3CD3 JUMP JUMPDEST PUSH1 0x1 PUSH1 0x1 PUSH1 0xA0 SHL SUB SWAP1 SWAP3 AND PUSH1 0x0 SWAP1 DUP2 MSTORE PUSH2 0x10D PUSH1 0x20 MSTORE PUSH1 0x40 SWAP1 KECCAK256 SWAP2 SWAP1 SWAP2 SSTORE POP JUMP JUMPDEST PUSH2 0x1DBC PUSH2 0x2A9F JUMP JUMPDEST PUSH1 0x1 PUSH1 0x1 PUSH1 0xA0 SHL SUB AND PUSH1 0x0 SWAP1 DUP2 MSTORE PUSH2 0x10E PUSH1 0x20 MSTORE PUSH1 0x40 SWAP1 KECCAK256 DUP1 SLOAD PUSH1 0xFF NOT AND SWAP1 SSTORE JUMP JUMPDEST PUSH2 0x1DE6 PUSH2 0x2A9F JUMP JUMPDEST PUSH1 0xFD SSTORE JUMP JUMPDEST PUSH2 0x1DF3 PUSH2 0x2A9F JUMP JUMPDEST PUSH2 0x104 SSTORE JUMP JUMPDEST PUSH1 0x60 PUSH1 0x37 DUP1 SLOAD PUSH2 0xF70 SWAP1 PUSH2 0x3C08 JUMP JUMPDEST PUSH2 0x100 SLOAD PUSH1 0xFF AND PUSH2 0x1E5B JUMPI PUSH1 0x40 MLOAD PUSH3 0x461BCD PUSH1 0xE5 SHL DUP2 MSTORE PUSH1 0x20 PUSH1 0x4 DUP3 ADD MSTORE PUSH1 0x17 PUSH1 0x24 DUP3 ADD MSTORE PUSH32 0x4C6971756964697479206973206E6F74206C6F636B6564000000000000000000 PUSH1 0x44 DUP3 ADD MSTORE PUSH1 0x64 ADD PUSH2 0x10E4 JUMP JUMPDEST DUP1 PUSH1 0xFF SLOAD LT ISZERO PUSH2 0x1EAD JUMPI PUSH1 0x40 MLOAD PUSH3 0x461BCD PUSH1 0xE5 SHL DUP2 MSTORE PUSH1 0x20 PUSH1 0x4 DUP3 ADD MSTORE PUSH1 0x1B PUSH1 0x24 DUP3 ADD MSTORE PUSH32 0x4E6F7420656E6F756768206C6F636B6564206C69717569646974790000000000 PUSH1 0x44 DUP3 ADD MSTORE PUSH1 0x64 ADD PUSH2 0x10E4 JUMP JUMPDEST PUSH1 0xFB SLOAD PUSH2 0x1EC3 SWAP1 PUSH1 0x1 PUSH1 0x1 PUSH1 0xA0 SHL SUB AND DUP3 PUSH2 0x20D5 JUMP JUMPDEST POP PUSH1 0xFF SLOAD PUSH2 0x1ED1 SWAP1 DUP3 PUSH2 0x32AE JUMP JUMPDEST PUSH1 0xFF SSTORE POP PUSH2 0x100 DUP1 SLOAD PUSH1 0xFF NOT AND SWAP1 SSTORE JUMP JUMPDEST PUSH2 0x1EEA PUSH2 0x2A9F JUMP JUMPDEST PUSH1 0x40 MLOAD PUSH32 0x70A0823100000000000000000000000000000000000000000000000000000000 DUP2 MSTORE ADDRESS PUSH1 0x4 DUP3 ADD MSTORE PUSH1 0x1 PUSH1 0x1 PUSH1 0xA0 SHL SUB DUP3 AND SWAP1 PUSH4 0xA9059CBB SWAP1 DUP5 SWAP1 DUP4 SWAP1 PUSH4 0x70A08231 SWAP1 PUSH1 0x24 ADD PUSH1 0x20 PUSH1 0x40 MLOAD DUP1 DUP4 SUB DUP2 DUP7 GAS STATICCALL ISZERO DUP1 ISZERO PUSH2 0x1F51 JUMPI RETURNDATASIZE PUSH1 0x0 DUP1 RETURNDATACOPY RETURNDATASIZE PUSH1 0x0 REVERT JUMPDEST POP POP POP POP PUSH1 0x40 MLOAD RETURNDATASIZE PUSH1 0x1F NOT PUSH1 0x1F DUP3 ADD AND DUP3 ADD DUP1 PUSH1 0x40 MSTORE POP DUP2 ADD SWAP1 PUSH2 0x1F75 SWAP2 SWAP1 PUSH2 0x3CE6 JUMP JUMPDEST PUSH1 0x40 MLOAD PUSH32 0xFFFFFFFF00000000000000000000000000000000000000000000000000000000 PUSH1 0xE0 DUP6 SWAP1 SHL AND DUP2 MSTORE PUSH1 0x1 PUSH1 0x1 PUSH1 0xA0 SHL SUB SWAP1 SWAP3 AND PUSH1 0x4 DUP4 ADD MSTORE PUSH1 0x24 DUP3 ADD MSTORE PUSH1 0x44 ADD PUSH1 0x20 PUSH1 0x40 MLOAD DUP1 DUP4 SUB DUP2 PUSH1 0x0 DUP8 GAS CALL ISZERO DUP1 ISZERO PUSH2 0x1FD8 JUMPI RETURNDATASIZE PUSH1 0x0 DUP1 RETURNDATACOPY RETURNDATASIZE PUSH1 0x0 REVERT JUMPDEST POP POP POP POP PUSH1 0x40 MLOAD RETURNDATASIZE PUSH1 0x1F NOT PUSH1 0x1F DUP3 ADD AND DUP3 ADD DUP1 PUSH1 0x40 MSTORE POP DUP2 ADD SWAP1 PUSH2 0x1FFC SWAP2 SWAP1 PUSH2 0x3CFF JUMP JUMPDEST POP POP POP JUMP JUMPDEST PUSH2 0x2009 PUSH2 0x2A9F JUMP JUMPDEST PUSH2 0x100 DUP1 SLOAD PUSH2 0xFF00 NOT AND SWAP2 ISZERO ISZERO DUP2 MUL SWAP2 SWAP1 SWAP2 OR SWAP1 SSTORE JUMP JUMPDEST CALLER PUSH1 0x0 DUP2 DUP2 MSTORE PUSH1 0x34 PUSH1 0x20 SWAP1 DUP2 MSTORE PUSH1 0x40 DUP1 DUP4 KECCAK256 PUSH1 0x1 PUSH1 0x1 PUSH1 0xA0 SHL SUB DUP8 AND DUP5 MSTORE SWAP1 SWAP2 MSTORE DUP2 KECCAK256 SLOAD SWAP1 SWAP2 SWAP1 DUP4 DUP2 LT ISZERO PUSH2 0x20BD JUMPI PUSH1 0x40 MLOAD PUSH3 0x461BCD PUSH1 0xE5 SHL DUP2 MSTORE PUSH1 0x20 PUSH1 0x4 DUP3 ADD MSTORE PUSH1 0x25 PUSH1 0x24 DUP3 ADD MSTORE PUSH32 0x45524332303A2064656372656173656420616C6C6F77616E63652062656C6F77 PUSH1 0x44 DUP3 ADD MSTORE PUSH32 0x207A65726F000000000000000000000000000000000000000000000000000000 PUSH1 0x64 DUP3 ADD MSTORE PUSH1 0x84 ADD PUSH2 0x10E4 JUMP JUMPDEST PUSH2 0x20CA DUP3 DUP7 DUP7 DUP5 SUB PUSH2 0x2947 JUMP JUMPDEST POP PUSH1 0x1 SWAP5 SWAP4 POP POP POP POP JUMP JUMPDEST PUSH1 0x0 PUSH2 0x20DF PUSH2 0x32BA JUMP JUMPDEST CALLER PUSH1 0x0 DUP2 DUP2 MSTORE PUSH2 0x10D PUSH1 0x20 MSTORE PUSH1 0x40 SWAP1 KECCAK256 SLOAD ISZERO DUP1 PUSH2 0x2114 JUMPI POP PUSH1 0x1 PUSH1 0x1 PUSH1 0xA0 SHL SUB DUP2 AND PUSH1 0x0 SWAP1 DUP2 MSTORE PUSH2 0x10D PUSH1 0x20 MSTORE PUSH1 0x40 SWAP1 KECCAK256 SLOAD TIMESTAMP GT JUMPDEST PUSH2 0x2160 JUMPI PUSH1 0x40 MLOAD PUSH3 0x461BCD PUSH1 0xE5 SHL DUP2 MSTORE PUSH1 0x20 PUSH1 0x4 DUP3 ADD MSTORE PUSH1 0x10 PUSH1 0x24 DUP3 ADD MSTORE PUSH32 0x57616C6C65742069732066726F7A656E00000000000000000000000000000000 PUSH1 0x44 DUP3 ADD MSTORE PUSH1 0x64 ADD PUSH2 0x10E4 JUMP JUMPDEST CALLER PUSH1 0x0 DUP2 DUP2 MSTORE PUSH2 0x10E PUSH1 0x20 MSTORE PUSH1 0x40 SWAP1 KECCAK256 SLOAD DUP5 SWAP1 PUSH1 0xFF AND PUSH2 0x221E JUMPI PUSH1 0xFC SLOAD DUP2 LT ISZERO PUSH2 0x21CC JUMPI PUSH1 0x40 MLOAD PUSH3 0x461BCD PUSH1 0xE5 SHL DUP2 MSTORE PUSH1 0x20 PUSH1 0x4 DUP3 ADD MSTORE PUSH1 0x14 PUSH1 0x24 DUP3 ADD MSTORE PUSH32 0x416D6F756E742062656C6F77206D696E696D756D000000000000000000000000 PUSH1 0x44 DUP3 ADD MSTORE PUSH1 0x64 ADD PUSH2 0x10E4 JUMP JUMPDEST PUSH1 0xFD SLOAD DUP2 GT ISZERO PUSH2 0x221E JUMPI PUSH1 0x40 MLOAD PUSH3 0x461BCD PUSH1 0xE5 SHL DUP2 MSTORE PUSH1 0x20 PUSH1 0x4 DUP3 ADD MSTORE PUSH1 0x16 PUSH1 0x24 DUP3 ADD MSTORE PUSH32 0x416D6F756E742065786365656473206D6178696D756D00000000000000000000 PUSH1 0x44 DUP3 ADD MSTORE PUSH1 0x64 ADD PUSH2 0x10E4 JUMP JUMPDEST CALLER PUSH1 0x0 SWAP1 DUP2 MSTORE PUSH2 0x10B PUSH1 0x20 MSTORE PUSH1 0x40 SWAP1 KECCAK256 SLOAD PUSH1 0xFF AND ISZERO PUSH2 0x227F JUMPI PUSH1 0x40 MLOAD PUSH3 0x461BCD PUSH1 0xE5 SHL DUP2 MSTORE PUSH1 0x20 PUSH1 0x4 DUP3 ADD MSTORE PUSH1 0x1E PUSH1 0x24 DUP3 ADD MSTORE PUSH32 0x53656E64657227732077616C6C657420697320626C61636B6C69737465640000 PUSH1 0x44 DUP3 ADD MSTORE PUSH1 0x64 ADD PUSH2 0x10E4 JUMP JUMPDEST CALLER PUSH1 0x0 SWAP1 DUP2 MSTORE PUSH2 0x10C PUSH1 0x20 MSTORE PUSH1 0x40 SWAP1 KECCAK256 SLOAD TIMESTAMP LT ISZERO PUSH2 0x22DF JUMPI PUSH1 0x40 MLOAD PUSH3 0x461BCD PUSH1 0xE5 SHL DUP2 MSTORE PUSH1 0x20 PUSH1 0x4 DUP3 ADD MSTORE PUSH1 0x18 PUSH1 0x24 DUP3 ADD MSTORE PUSH32 0x5472616E73666572206E6F7420616C6C6F776564207965740000000000000000 PUSH1 0x44 DUP3 ADD MSTORE PUSH1 0x64 ADD PUSH2 0x10E4 JUMP JUMPDEST PUSH1 0xFE SLOAD PUSH2 0x22EC SWAP1 TIMESTAMP PUSH2 0x3CD3 JUMP JUMPDEST CALLER PUSH1 0x0 DUP2 DUP2 MSTORE PUSH2 0x10C PUSH1 0x20 MSTORE PUSH1 0x40 SWAP1 KECCAK256 SWAP2 SWAP1 SWAP2 SSTORE PUSH2 0x230B SWAP1 DUP8 DUP8 PUSH2 0x2B8B JUMP JUMPDEST POP PUSH1 0x1 SWAP6 SWAP5 POP POP POP POP POP JUMP JUMPDEST PUSH2 0x231F PUSH2 0x2A9F JUMP JUMPDEST PUSH2 0x109 SLOAD PUSH1 0x0 SWAP1 DUP2 JUMPDEST DUP2 DUP2 LT ISZERO PUSH2 0x2396 JUMPI PUSH2 0x10A PUSH1 0x0 PUSH2 0x109 DUP4 DUP2 SLOAD DUP2 LT PUSH2 0x2349 JUMPI PUSH2 0x2349 PUSH2 0x3CA4 JUMP JUMPDEST PUSH1 0x0 SWAP2 DUP3 MSTORE PUSH1 0x20 DUP1 DUP4 KECCAK256 SWAP1 SWAP2 ADD SLOAD PUSH1 0x1 PUSH1 0x1 PUSH1 0xA0 SHL SUB AND DUP4 MSTORE DUP3 ADD SWAP3 SWAP1 SWAP3 MSTORE PUSH1 0x40 ADD SWAP1 KECCAK256 SLOAD PUSH1 0xFF AND ISZERO PUSH2 0x2384 JUMPI DUP3 PUSH2 0x2380 DUP2 PUSH2 0x3CBA JUMP JUMPDEST SWAP4 POP POP JUMPDEST DUP1 PUSH2 0x238E DUP2 PUSH2 0x3CBA JUMP JUMPDEST SWAP2 POP POP PUSH2 0x2328 JUMP JUMPDEST POP DUP2 DUP2 EQ DUP1 PUSH2 0x23E7 JUMPI PUSH1 0x40 MLOAD PUSH3 0x461BCD PUSH1 0xE5 SHL DUP2 MSTORE PUSH1 0x20 PUSH1 0x4 DUP3 ADD MSTORE PUSH1 0x16 PUSH1 0x24 DUP3 ADD MSTORE PUSH32 0x496E73756666696369656E7420617070726F76616C7300000000000000000000 PUSH1 0x44 DUP3 ADD MSTORE PUSH1 0x64 ADD PUSH2 0x10E4 JUMP JUMPDEST PUSH1 0x0 PUSH2 0x23FB PUSH1 0x97 SLOAD PUSH1 0x1 PUSH1 0x1 PUSH1 0xA0 SHL SUB AND SWAP1 JUMP JUMPDEST PUSH2 0x108 SLOAD SWAP1 SWAP2 POP PUSH1 0x1 PUSH1 0x1 PUSH1 0xA0 SHL SUB AND PUSH2 0x2414 DUP2 PUSH2 0x25E6 JUMP JUMPDEST PUSH2 0x108 DUP1 SLOAD PUSH1 0x1 PUSH1 0x1 PUSH1 0xA0 SHL SUB NOT AND SWAP1 SSTORE PUSH1 0x0 JUMPDEST DUP5 DUP2 LT ISZERO PUSH2 0x2491 JUMPI PUSH1 0x0 PUSH2 0x10A PUSH1 0x0 PUSH2 0x109 DUP5 DUP2 SLOAD DUP2 LT PUSH2 0x244B JUMPI PUSH2 0x244B PUSH2 0x3CA4 JUMP JUMPDEST PUSH1 0x0 SWAP2 DUP3 MSTORE PUSH1 0x20 DUP1 DUP4 KECCAK256 SWAP2 SWAP1 SWAP2 ADD SLOAD PUSH1 0x1 PUSH1 0x1 PUSH1 0xA0 SHL SUB AND DUP4 MSTORE DUP3 ADD SWAP3 SWAP1 SWAP3 MSTORE PUSH1 0x40 ADD SWAP1 KECCAK256 DUP1 SLOAD PUSH1 0xFF NOT AND SWAP2 ISZERO ISZERO SWAP2 SWAP1 SWAP2 OR SWAP1 SSTORE DUP1 PUSH2 0x2489 DUP2 PUSH2 0x3CBA JUMP JUMPDEST SWAP2 POP POP PUSH2 0x2428 JUMP JUMPDEST POP DUP1 PUSH1 0x1 PUSH1 0x1 PUSH1 0xA0 SHL SUB AND DUP3 PUSH1 0x1 PUSH1 0x1 PUSH1 0xA0 SHL SUB AND PUSH32 0x8BE0079C531659141344CD1FD0A4F28419497F9722A3DAAFE3B4186F6B6457E0 PUSH1 0x40 MLOAD PUSH1 0x40 MLOAD DUP1 SWAP2 SUB SWAP1 LOG3 POP POP POP POP POP JUMP JUMPDEST PUSH2 0x24E1 PUSH2 0x2A9F JUMP JUMPDEST PUSH1 0xFC SSTORE JUMP JUMPDEST PUSH2 0x24EE PUSH2 0x2A9F JUMP JUMPDEST PUSH2 0x111 DUP1 SLOAD PUSH1 0x1 PUSH1 0x1 PUSH1 0xA0 SHL SUB SWAP1 SWAP3 AND PUSH1 0x1 PUSH1 0x1 PUSH1 0xA0 SHL SUB NOT SWAP1 SWAP3 AND DUP3 OR SWAP1 SSTORE PUSH1 0x0 SWAP1 DUP2 MSTORE PUSH2 0x101 PUSH1 0x20 MSTORE PUSH1 0x40 SWAP1 KECCAK256 DUP1 SLOAD PUSH1 0xFF NOT AND PUSH1 0x1 OR SWAP1 SSTORE JUMP JUMPDEST PUSH2 0x2532 PUSH2 0x2A9F JUMP JUMPDEST PUSH2 0x103 SSTORE JUMP JUMPDEST PUSH2 0x109 DUP2 DUP2 SLOAD DUP2 LT PUSH2 0x2549 JUMPI PUSH1 0x0 DUP1 REVERT JUMPDEST PUSH1 0x0 SWAP2 DUP3 MSTORE PUSH1 0x20 SWAP1 SWAP2 KECCAK256 ADD SLOAD PUSH1 0x1 PUSH1 0x1 PUSH1 0xA0 SHL SUB AND SWAP1 POP DUP2 JUMP JUMPDEST PUSH2 0x256B PUSH2 0x2A9F JUMP JUMPDEST PUSH1 0x1 PUSH1 0x1 PUSH1 0xA0 SHL SUB AND PUSH1 0x0 SWAP1 DUP2 MSTORE PUSH2 0x101 PUSH1 0x20 MSTORE PUSH1 0x40 SWAP1 KECCAK256 DUP1 SLOAD PUSH1 0xFF NOT AND SWAP1 SSTORE JUMP JUMPDEST PUSH2 0x2595 PUSH2 0x2A9F JUMP JUMPDEST PUSH1 0x1 PUSH1 0x1 PUSH1 0xA0 SHL SUB AND PUSH1 0x0 SWAP1 DUP2 MSTORE PUSH2 0x10E PUSH1 0x20 MSTORE PUSH1 0x40 SWAP1 KECCAK256 DUP1 SLOAD PUSH1 0xFF NOT AND PUSH1 0x1 OR SWAP1 SSTORE JUMP JUMPDEST PUSH2 0x25C2 PUSH2 0x2A9F JUMP JUMPDEST PUSH1 0x0 PUSH2 0x103 SSTORE JUMP JUMPDEST PUSH2 0x25D2 PUSH2 0x2A9F JUMP JUMPDEST PUSH2 0x107 DUP1 SLOAD PUSH1 0xFF NOT AND SWAP2 ISZERO ISZERO SWAP2 SWAP1 SWAP2 OR SWAP1 SSTORE JUMP JUMPDEST PUSH2 0x25EE PUSH2 0x2A9F JUMP JUMPDEST PUSH1 0x40 MLOAD PUSH3 0x461BCD PUSH1 0xE5 SHL DUP2 MSTORE PUSH1 0x20 PUSH1 0x4 DUP3 ADD MSTORE PUSH1 0x27 PUSH1 0x24 DUP3 ADD MSTORE PUSH32 0x506C656173652043616C6C2046696E616C697A65205472616E73666572204F77 PUSH1 0x44 DUP3 ADD MSTORE PUSH32 0x6E65727368697000000000000000000000000000000000000000000000000000 PUSH1 0x64 DUP3 ADD MSTORE PUSH1 0x84 ADD PUSH2 0x10E4 JUMP JUMPDEST PUSH1 0x0 SLOAD PUSH2 0x100 SWAP1 DIV PUSH1 0xFF AND ISZERO DUP1 DUP1 ISZERO PUSH2 0x267C JUMPI POP PUSH1 0x0 SLOAD PUSH1 0x1 PUSH1 0xFF SWAP1 SWAP2 AND LT JUMPDEST DUP1 PUSH2 0x2696 JUMPI POP ADDRESS EXTCODESIZE ISZERO DUP1 ISZERO PUSH2 0x2696 JUMPI POP PUSH1 0x0 SLOAD PUSH1 0xFF AND PUSH1 0x1 EQ JUMPDEST PUSH2 0x2708 JUMPI PUSH1 0x40 MLOAD PUSH3 0x461BCD PUSH1 0xE5 SHL DUP2 MSTORE PUSH1 0x20 PUSH1 0x4 DUP3 ADD MSTORE PUSH1 0x2E PUSH1 0x24 DUP3 ADD MSTORE PUSH32 0x496E697469616C697A61626C653A20636F6E747261637420697320616C726561 PUSH1 0x44 DUP3 ADD MSTORE PUSH32 0x647920696E697469616C697A6564000000000000000000000000000000000000 PUSH1 0x64 DUP3 ADD MSTORE PUSH1 0x84 ADD PUSH2 0x10E4 JUMP JUMPDEST PUSH1 0x0 DUP1 SLOAD PUSH1 0xFF NOT AND PUSH1 0x1 OR SWAP1 SSTORE DUP1 ISZERO PUSH2 0x272B JUMPI PUSH1 0x0 DUP1 SLOAD PUSH2 0xFF00 NOT AND PUSH2 0x100 OR SWAP1 SSTORE JUMPDEST PUSH1 0xFB DUP1 SLOAD PUSH1 0x1 PUSH1 0x1 PUSH1 0xA0 SHL SUB NOT AND CALLER OR SWAP1 SSTORE PUSH2 0x2747 DUP8 DUP8 PUSH2 0x330D JUMP JUMPDEST PUSH2 0x274F PUSH2 0x3382 JUMP JUMPDEST PUSH2 0x2757 PUSH2 0x33ED JUMP JUMPDEST PUSH2 0x275F PUSH2 0x3460 JUMP JUMPDEST PUSH2 0x107 DUP1 SLOAD PUSH1 0x32 PUSH2 0x102 SSTORE PUSH2 0x1388 PUSH2 0x103 SSTORE PUSH32 0xFFFFFFFFFFFFFFFFFFFFFF000000000000000000000000000000000000000000 AND PUSH21 0x285E1D847B88056ADD3823C456EE83D37CDD60A01 OR SWAP1 SSTORE PUSH2 0x7D0 PUSH2 0x104 SSTORE PUSH2 0x12C PUSH2 0x105 SSTORE PUSH2 0x100 DUP1 SLOAD PUSH2 0xFF00 NOT AND DUP2 OR SWAP1 SSTORE PUSH1 0x0 PUSH1 0xFC SSTORE PUSH9 0x56BC75E2D63100000 PUSH1 0xFD SSTORE PUSH1 0xFB SLOAD PUSH2 0x2807 SWAP1 PUSH1 0x1 PUSH1 0x1 PUSH1 0xA0 SHL SUB AND PUSH2 0x27F8 PUSH1 0xFF DUP9 AND PUSH1 0xA PUSH2 0x3E00 JUMP JUMPDEST PUSH2 0x2802 SWAP1 DUP8 PUSH2 0x3C6B JUMP JUMPDEST PUSH2 0x2F88 JUMP JUMPDEST CALLER PUSH1 0x0 SWAP1 DUP2 MSTORE PUSH2 0x10B PUSH1 0x20 SWAP1 DUP2 MSTORE PUSH1 0x40 DUP1 DUP4 KECCAK256 DUP1 SLOAD PUSH1 0xFF NOT SWAP1 DUP2 AND SWAP1 SWAP2 SSTORE PUSH2 0x10E DUP4 MSTORE DUP2 DUP5 KECCAK256 DUP1 SLOAD DUP3 AND PUSH1 0x1 SWAP1 DUP2 OR SWAP1 SWAP2 SSTORE PUSH2 0x10C DUP5 MSTORE DUP3 DUP6 KECCAK256 TIMESTAMP SWAP1 SSTORE PUSH2 0x111 DUP1 SLOAD PUSH1 0x1 PUSH1 0x1 PUSH1 0xA0 SHL SUB NOT AND PUSH1 0x1 PUSH1 0x1 PUSH1 0xA0 SHL SUB DUP11 DUP2 AND SWAP2 SWAP1 SWAP2 OR DUP3 SSTORE ADDRESS DUP8 MSTORE PUSH2 0x101 SWAP1 SWAP6 MSTORE DUP4 DUP7 KECCAK256 DUP1 SLOAD DUP5 AND DUP4 OR SWAP1 SSTORE SLOAD SWAP1 SWAP4 AND DUP5 MSTORE SWAP1 DUP4 KECCAK256 DUP1 SLOAD SWAP1 SWAP2 AND SWAP1 SWAP2 OR SWAP1 SSTORE JUMPDEST DUP3 MLOAD DUP2 LT ISZERO PUSH2 0x28F7 JUMPI PUSH2 0x109 DUP4 DUP3 DUP2 MLOAD DUP2 LT PUSH2 0x28AA JUMPI PUSH2 0x28AA PUSH2 0x3CA4 JUMP JUMPDEST PUSH1 0x20 SWAP1 DUP2 MUL SWAP2 SWAP1 SWAP2 ADD DUP2 ADD MLOAD DUP3 SLOAD PUSH1 0x1 DUP2 ADD DUP5 SSTORE PUSH1 0x0 SWAP4 DUP5 MSTORE SWAP2 SWAP1 SWAP3 KECCAK256 ADD DUP1 SLOAD PUSH1 0x1 PUSH1 0x1 PUSH1 0xA0 SHL SUB NOT AND PUSH1 0x1 PUSH1 0x1 PUSH1 0xA0 SHL SUB SWAP1 SWAP3 AND SWAP2 SWAP1 SWAP2 OR SWAP1 SSTORE DUP1 PUSH2 0x28EF DUP2 PUSH2 0x3CBA JUMP JUMPDEST SWAP2 POP POP PUSH2 0x288C JUMP JUMPDEST POP DUP1 ISZERO PUSH2 0x293E JUMPI PUSH1 0x0 DUP1 SLOAD PUSH2 0xFF00 NOT AND SWAP1 SSTORE PUSH1 0x40 MLOAD PUSH1 0x1 DUP2 MSTORE PUSH32 0x7F26B83FF96E1F2B6A682F133852F6798A09C465DA95921460CEFB3847402498 SWAP1 PUSH1 0x20 ADD PUSH1 0x40 MLOAD DUP1 SWAP2 SUB SWAP1 LOG1 JUMPDEST POP POP POP POP POP POP POP JUMP JUMPDEST PUSH1 0x1 PUSH1 0x1 PUSH1 0xA0 SHL SUB DUP4 AND PUSH2 0x29C2 JUMPI PUSH1 0x40 MLOAD PUSH3 0x461BCD PUSH1 0xE5 SHL DUP2 MSTORE PUSH1 0x20 PUSH1 0x4 DUP3 ADD MSTORE PUSH1 0x24 DUP1 DUP3 ADD MSTORE PUSH32 0x45524332303A20617070726F76652066726F6D20746865207A65726F20616464 PUSH1 0x44 DUP3 ADD MSTORE PUSH32 0x7265737300000000000000000000000000000000000000000000000000000000 PUSH1 0x64 DUP3 ADD MSTORE PUSH1 0x84 ADD PUSH2 0x10E4 JUMP JUMPDEST PUSH1 0x1 PUSH1 0x1 PUSH1 0xA0 SHL SUB DUP3 AND PUSH2 0x2A3E JUMPI PUSH1 0x40 MLOAD PUSH3 0x461BCD PUSH1 0xE5 SHL DUP2 MSTORE PUSH1 0x20 PUSH1 0x4 DUP3 ADD MSTORE PUSH1 0x22 PUSH1 0x24 DUP3 ADD MSTORE PUSH32 0x45524332303A20617070726F766520746F20746865207A65726F206164647265 PUSH1 0x44 DUP3 ADD MSTORE PUSH32 0x7373000000000000000000000000000000000000000000000000000000000000 PUSH1 0x64 DUP3 ADD MSTORE PUSH1 0x84 ADD PUSH2 0x10E4 JUMP JUMPDEST PUSH1 0x1 PUSH1 0x1 PUSH1 0xA0 SHL SUB DUP4 DUP2 AND PUSH1 0x0 DUP2 DUP2 MSTORE PUSH1 0x34 PUSH1 0x20 SWAP1 DUP2 MSTORE PUSH1 0x40 DUP1 DUP4 KECCAK256 SWAP5 DUP8 AND DUP1 DUP5 MSTORE SWAP5 DUP3 MSTORE SWAP2 DUP3 SWAP1 KECCAK256 DUP6 SWAP1 SSTORE SWAP1 MLOAD DUP5 DUP2 MSTORE PUSH32 0x8C5BE1E5EBEC7D5BD14F71427D1E84F3DD0314C0F7B2291E5B200AC8C7C3B925 SWAP2 ADD PUSH1 0x40 MLOAD DUP1 SWAP2 SUB SWAP1 LOG3 POP POP POP JUMP JUMPDEST PUSH1 0x97 SLOAD PUSH1 0x1 PUSH1 0x1 PUSH1 0xA0 SHL SUB AND CALLER EQ PUSH2 0x17B7 JUMPI PUSH1 0x40 MLOAD PUSH3 0x461BCD PUSH1 0xE5 SHL DUP2 MSTORE PUSH1 0x20 PUSH1 0x4 DUP3 ADD DUP2 SWAP1 MSTORE PUSH1 0x24 DUP3 ADD MSTORE PUSH32 0x4F776E61626C653A2063616C6C6572206973206E6F7420746865206F776E6572 PUSH1 0x44 DUP3 ADD MSTORE PUSH1 0x64 ADD PUSH2 0x10E4 JUMP JUMPDEST PUSH1 0x1 PUSH1 0x1 PUSH1 0xA0 SHL SUB DUP4 DUP2 AND PUSH1 0x0 SWAP1 DUP2 MSTORE PUSH1 0x34 PUSH1 0x20 SWAP1 DUP2 MSTORE PUSH1 0x40 DUP1 DUP4 KECCAK256 SWAP4 DUP7 AND DUP4 MSTORE SWAP3 SWAP1 MSTORE KECCAK256 SLOAD PUSH1 0x0 NOT DUP2 EQ PUSH2 0x2B85 JUMPI DUP2 DUP2 LT ISZERO PUSH2 0x2B78 JUMPI PUSH1 0x40 MLOAD PUSH3 0x461BCD PUSH1 0xE5 SHL DUP2 MSTORE PUSH1 0x20 PUSH1 0x4 DUP3 ADD MSTORE PUSH1 0x1D PUSH1 0x24 DUP3 ADD MSTORE PUSH32 0x45524332303A20696E73756666696369656E7420616C6C6F77616E6365000000 PUSH1 0x44 DUP3 ADD MSTORE PUSH1 0x64 ADD PUSH2 0x10E4 JUMP JUMPDEST PUSH2 0x2B85 DUP5 DUP5 DUP5 DUP5 SUB PUSH2 0x2947 JUMP JUMPDEST POP POP POP POP JUMP JUMPDEST PUSH1 0x1 PUSH1 0x1 PUSH1 0xA0 SHL SUB DUP4 AND PUSH1 0x0 SWAP1 DUP2 MSTORE PUSH2 0x10E PUSH1 0x20 MSTORE PUSH1 0x40 SWAP1 KECCAK256 SLOAD DUP4 SWAP1 DUP3 SWAP1 PUSH1 0xFF AND PUSH2 0x2C54 JUMPI PUSH1 0xFC SLOAD DUP2 LT ISZERO PUSH2 0x2C02 JUMPI PUSH1 0x40 MLOAD PUSH3 0x461BCD PUSH1 0xE5 SHL DUP2 MSTORE PUSH1 0x20 PUSH1 0x4 DUP3 ADD MSTORE PUSH1 0x14 PUSH1 0x24 DUP3 ADD MSTORE PUSH32 0x416D6F756E742062656C6F77206D696E696D756D000000000000000000000000 PUSH1 0x44 DUP3 ADD MSTORE PUSH1 0x64 ADD PUSH2 0x10E4 JUMP JUMPDEST PUSH1 0xFD SLOAD DUP2 GT ISZERO PUSH2 0x2C54 JUMPI PUSH1 0x40 MLOAD PUSH3 0x461BCD PUSH1 0xE5 SHL DUP2 MSTORE PUSH1 0x20 PUSH1 0x4 DUP3 ADD MSTORE PUSH1 0x16 PUSH1 0x24 DUP3 ADD MSTORE PUSH32 0x416D6F756E742065786365656473206D6178696D756D00000000000000000000 PUSH1 0x44 DUP3 ADD MSTORE PUSH1 0x64 ADD PUSH2 0x10E4 JUMP JUMPDEST PUSH1 0x1 PUSH1 0x1 PUSH1 0xA0 SHL SUB DUP6 AND PUSH1 0x0 SWAP1 DUP2 MSTORE PUSH2 0x10B PUSH1 0x20 MSTORE PUSH1 0x40 SWAP1 KECCAK256 SLOAD PUSH1 0xFF AND ISZERO PUSH2 0x2CBE JUMPI PUSH1 0x40 MLOAD PUSH3 0x461BCD PUSH1 0xE5 SHL DUP2 MSTORE PUSH1 0x20 PUSH1 0x4 DUP3 ADD MSTORE PUSH1 0x1E PUSH1 0x24 DUP3 ADD MSTORE PUSH32 0x53656E64657227732077616C6C657420697320626C61636B6C69737465640000 PUSH1 0x44 DUP3 ADD MSTORE PUSH1 0x64 ADD PUSH2 0x10E4 JUMP JUMPDEST PUSH1 0x1 PUSH1 0x1 PUSH1 0xA0 SHL SUB DUP6 AND PUSH2 0x2D22 JUMPI PUSH1 0x40 MLOAD PUSH3 0x461BCD PUSH1 0xE5 SHL DUP2 MSTORE PUSH1 0x20 PUSH1 0x4 DUP3 ADD MSTORE PUSH1 0x25 PUSH1 0x24 DUP3 ADD MSTORE PUSH32 0x45524332303A207472616E736665722066726F6D20746865207A65726F206164 PUSH1 0x44 DUP3 ADD MSTORE PUSH5 0x6472657373 PUSH1 0xD8 SHL PUSH1 0x64 DUP3 ADD MSTORE PUSH1 0x84 ADD PUSH2 0x10E4 JUMP JUMPDEST PUSH1 0x1 PUSH1 0x1 PUSH1 0xA0 SHL SUB DUP5 AND PUSH2 0x2D84 JUMPI PUSH1 0x40 MLOAD PUSH3 0x461BCD PUSH1 0xE5 SHL DUP2 MSTORE PUSH1 0x20 PUSH1 0x4 DUP3 ADD MSTORE PUSH1 0x23 PUSH1 0x24 DUP3 ADD MSTORE PUSH32 0x45524332303A207472616E7366657220746F20746865207A65726F2061646472 PUSH1 0x44 DUP3 ADD MSTORE PUSH3 0x657373 PUSH1 0xE8 SHL PUSH1 0x64 DUP3 ADD MSTORE PUSH1 0x84 ADD PUSH2 0x10E4 JUMP JUMPDEST PUSH1 0x0 DUP4 GT PUSH2 0x2DFA JUMPI PUSH1 0x40 MLOAD PUSH3 0x461BCD PUSH1 0xE5 SHL DUP2 MSTORE PUSH1 0x20 PUSH1 0x4 DUP3 ADD MSTORE PUSH1 0x29 PUSH1 0x24 DUP3 ADD MSTORE PUSH32 0x5472616E7366657220616D6F756E74206D757374206265206772656174657220 PUSH1 0x44 DUP3 ADD MSTORE PUSH32 0x7468616E207A65726F0000000000000000000000000000000000000000000000 PUSH1 0x64 DUP3 ADD MSTORE PUSH1 0x84 ADD PUSH2 0x10E4 JUMP JUMPDEST PUSH1 0x1 PUSH1 0x1 PUSH1 0xA0 SHL SUB DUP6 AND PUSH1 0x0 SWAP1 DUP2 MSTORE PUSH2 0x101 PUSH1 0x20 MSTORE PUSH1 0x40 SWAP1 KECCAK256 SLOAD DUP4 SWAP1 PUSH1 0xFF AND DUP1 PUSH2 0x2E3D JUMPI POP PUSH1 0x1 PUSH1 0x1 PUSH1 0xA0 SHL SUB DUP6 AND PUSH1 0x0 SWAP1 DUP2 MSTORE PUSH2 0x101 PUSH1 0x20 MSTORE PUSH1 0x40 SWAP1 KECCAK256 SLOAD PUSH1 0xFF AND JUMPDEST ISZERO PUSH2 0x2E53 JUMPI PUSH2 0x2E4D CALLER DUP7 DUP7 PUSH2 0x34D3 JUMP JUMPDEST POP PUSH2 0x1AA7 JUMP JUMPDEST PUSH2 0x100 DUP1 SLOAD DIV PUSH1 0xFF AND ISZERO PUSH2 0x2E99 JUMPI PUSH1 0x0 PUSH2 0x2710 PUSH2 0x102 SLOAD DUP4 PUSH2 0x2E75 SWAP2 SWAP1 PUSH2 0x3C6B JUMP JUMPDEST PUSH2 0x2E7F SWAP2 SWAP1 PUSH2 0x3C82 JUMP JUMPDEST SWAP1 POP PUSH2 0x2E8B DUP8 DUP3 PUSH2 0x3049 JUMP JUMPDEST PUSH2 0x2E95 DUP2 DUP7 PUSH2 0x3C58 JUMP JUMPDEST SWAP5 POP POP JUMPDEST PUSH2 0x107 SLOAD PUSH1 0xFF AND ISZERO PUSH2 0x2F08 JUMPI PUSH1 0x0 PUSH2 0x2710 DUP3 PUSH2 0x104 SLOAD PUSH2 0x2EB9 SWAP2 SWAP1 PUSH2 0x3C6B JUMP JUMPDEST PUSH2 0x2EC3 SWAP2 SWAP1 PUSH2 0x3C82 JUMP JUMPDEST PUSH1 0xFB SLOAD SWAP1 SWAP2 POP PUSH2 0x2EDE SWAP1 DUP9 SWAP1 PUSH1 0x1 PUSH1 0x1 PUSH1 0xA0 SHL SUB AND DUP4 PUSH2 0x34D3 JUMP JUMPDEST PUSH2 0x2710 DUP3 PUSH2 0x104 SLOAD PUSH2 0x2EF0 SWAP2 SWAP1 PUSH2 0x3C6B JUMP JUMPDEST PUSH2 0x2EFA SWAP2 SWAP1 PUSH2 0x3C82 JUMP JUMPDEST PUSH2 0x2F04 SWAP1 DUP7 PUSH2 0x3C58 JUMP JUMPDEST SWAP5 POP POP JUMPDEST PUSH2 0x2F10 PUSH2 0x100D JUMP JUMPDEST PUSH2 0x2F1B DUP7 DUP7 DUP7 PUSH2 0x34D3 JUMP JUMPDEST POP POP POP POP POP POP JUMP JUMPDEST PUSH1 0x0 PUSH2 0x2F2F DUP3 DUP5 PUSH2 0x3CD3 JUMP JUMPDEST SWAP4 SWAP3 POP POP POP JUMP JUMPDEST PUSH2 0x2F3E PUSH2 0x3695 JUMP JUMPDEST PUSH1 0xC9 DUP1 SLOAD PUSH1 0xFF NOT AND SWAP1 SSTORE PUSH32 0x5DB9EE0A495BF2E6FF9C91A7834C1BA4FDD244A5E8AA4E537BD38AEAE4B073AA CALLER JUMPDEST PUSH1 0x40 MLOAD PUSH1 0x1 PUSH1 0x1 PUSH1 0xA0 SHL SUB SWAP1 SWAP2 AND DUP2 MSTORE PUSH1 0x20 ADD PUSH1 0x40 MLOAD DUP1 SWAP2 SUB SWAP1 LOG1 JUMP JUMPDEST PUSH1 0x1 PUSH1 0x1 PUSH1 0xA0 SHL SUB DUP3 AND PUSH2 0x2FDE JUMPI PUSH1 0x40 MLOAD PUSH3 0x461BCD PUSH1 0xE5 SHL DUP2 MSTORE PUSH1 0x20 PUSH1 0x4 DUP3 ADD MSTORE PUSH1 0x1F PUSH1 0x24 DUP3 ADD MSTORE PUSH32 0x45524332303A206D696E7420746F20746865207A65726F206164647265737300 PUSH1 0x44 DUP3 ADD MSTORE PUSH1 0x64 ADD PUSH2 0x10E4 JUMP JUMPDEST DUP1 PUSH1 0x35 PUSH1 0x0 DUP3 DUP3 SLOAD PUSH2 0x2FF0 SWAP2 SWAP1 PUSH2 0x3CD3 JUMP JUMPDEST SWAP1 SWAP2 SSTORE POP POP PUSH1 0x1 PUSH1 0x1 PUSH1 0xA0 SHL SUB DUP3 AND PUSH1 0x0 DUP2 DUP2 MSTORE PUSH1 0x33 PUSH1 0x20 SWAP1 DUP2 MSTORE PUSH1 0x40 DUP1 DUP4 KECCAK256 DUP1 SLOAD DUP7 ADD SWAP1 SSTORE MLOAD DUP5 DUP2 MSTORE PUSH32 0xDDF252AD1BE2C89B69C2B068FC378DAA952BA7F163C4A11628F55A4DF523B3EF SWAP2 ADD PUSH1 0x40 MLOAD DUP1 SWAP2 SUB SWAP1 LOG3 POP POP JUMP JUMPDEST PUSH1 0x1 PUSH1 0x1 PUSH1 0xA0 SHL SUB DUP3 AND PUSH2 0x30C5 JUMPI PUSH1 0x40 MLOAD PUSH3 0x461BCD PUSH1 0xE5 SHL DUP2 MSTORE PUSH1 0x20 PUSH1 0x4 DUP3 ADD MSTORE PUSH1 0x21 PUSH1 0x24 DUP3 ADD MSTORE PUSH32 0x45524332303A206275726E2066726F6D20746865207A65726F20616464726573 PUSH1 0x44 DUP3 ADD MSTORE PUSH32 0x7300000000000000000000000000000000000000000000000000000000000000 PUSH1 0x64 DUP3 ADD MSTORE PUSH1 0x84 ADD PUSH2 0x10E4 JUMP JUMPDEST PUSH1 0x1 PUSH1 0x1 PUSH1 0xA0 SHL SUB DUP3 AND PUSH1 0x0 SWAP1 DUP2 MSTORE PUSH1 0x33 PUSH1 0x20 MSTORE PUSH1 0x40 SWAP1 KECCAK256 SLOAD DUP2 DUP2 LT ISZERO PUSH2 0x3154 JUMPI PUSH1 0x40 MLOAD PUSH3 0x461BCD PUSH1 0xE5 SHL DUP2 MSTORE PUSH1 0x20 PUSH1 0x4 DUP3 ADD MSTORE PUSH1 0x22 PUSH1 0x24 DUP3 ADD MSTORE PUSH32 0x45524332303A206275726E20616D6F756E7420657863656564732062616C616E PUSH1 0x44 DUP3 ADD MSTORE PUSH32 0x6365000000000000000000000000000000000000000000000000000000000000 PUSH1 0x64 DUP3 ADD MSTORE PUSH1 0x84 ADD PUSH2 0x10E4 JUMP JUMPDEST PUSH1 0x1 PUSH1 0x1 PUSH1 0xA0 SHL SUB DUP4 AND PUSH1 0x0 DUP2 DUP2 MSTORE PUSH1 0x33 PUSH1 0x20 SWAP1 DUP2 MSTORE PUSH1 0x40 DUP1 DUP4 KECCAK256 DUP7 DUP7 SUB SWAP1 SSTORE PUSH1 0x35 DUP1 SLOAD DUP8 SWAP1 SUB SWAP1 SSTORE MLOAD DUP6 DUP2 MSTORE SWAP2 SWAP3 SWAP2 PUSH32 0xDDF252AD1BE2C89B69C2B068FC378DAA952BA7F163C4A11628F55A4DF523B3EF SWAP2 ADD PUSH1 0x40 MLOAD DUP1 SWAP2 SUB SWAP1 LOG3 POP POP POP JUMP JUMPDEST PUSH1 0x97 DUP1 SLOAD PUSH1 0x1 PUSH1 0x1 PUSH1 0xA0 SHL SUB DUP4 DUP2 AND PUSH1 0x1 PUSH1 0x1 PUSH1 0xA0 SHL SUB NOT DUP4 AND DUP2 OR SWAP1 SWAP4 SSTORE PUSH1 0x40 MLOAD SWAP2 AND SWAP2 SWAP1 DUP3 SWAP1 PUSH32 0x8BE0079C531659141344CD1FD0A4F28419497F9722A3DAAFE3B4186F6B6457E0 SWAP1 PUSH1 0x0 SWAP1 LOG3 POP POP JUMP JUMPDEST PUSH1 0x0 DUP1 JUMPDEST PUSH2 0x109 SLOAD DUP2 LT ISZERO PUSH2 0x3268 JUMPI DUP3 PUSH1 0x1 PUSH1 0x1 PUSH1 0xA0 SHL SUB AND PUSH2 0x109 DUP3 DUP2 SLOAD DUP2 LT PUSH2 0x3233 JUMPI PUSH2 0x3233 PUSH2 0x3CA4 JUMP JUMPDEST PUSH1 0x0 SWAP2 DUP3 MSTORE PUSH1 0x20 SWAP1 SWAP2 KECCAK256 ADD SLOAD PUSH1 0x1 PUSH1 0x1 PUSH1 0xA0 SHL SUB AND SUB PUSH2 0x3256 JUMPI POP PUSH1 0x1 SWAP3 SWAP2 POP POP JUMP JUMPDEST DUP1 PUSH2 0x3260 DUP2 PUSH2 0x3CBA JUMP JUMPDEST SWAP2 POP POP PUSH2 0x320A JUMP JUMPDEST POP PUSH1 0x0 SWAP3 SWAP2 POP POP JUMP JUMPDEST PUSH2 0x3279 PUSH2 0x32BA JUMP JUMPDEST PUSH1 0xC9 DUP1 SLOAD PUSH1 0xFF NOT AND PUSH1 0x1 OR SWAP1 SSTORE PUSH32 0x62E78CEA01BEE320CD4E420270B5EA74000D11B0C9F74754EBDBFC544B05A258 PUSH2 0x2F6B CALLER SWAP1 JUMP JUMPDEST PUSH1 0x0 PUSH2 0x2F2F DUP3 DUP5 PUSH2 0x3C58 JUMP JUMPDEST PUSH1 0xC9 SLOAD PUSH1 0xFF AND ISZERO PUSH2 0x17B7 JUMPI PUSH1 0x40 MLOAD PUSH3 0x461BCD PUSH1 0xE5 SHL DUP2 MSTORE PUSH1 0x20 PUSH1 0x4 DUP3 ADD MSTORE PUSH1 0x10 PUSH1 0x24 DUP3 ADD MSTORE PUSH32 0x5061757361626C653A2070617573656400000000000000000000000000000000 PUSH1 0x44 DUP3 ADD MSTORE PUSH1 0x64 ADD PUSH2 0x10E4 JUMP JUMPDEST PUSH1 0x0 SLOAD PUSH2 0x100 SWAP1 DIV PUSH1 0xFF AND PUSH2 0x3378 JUMPI PUSH1 0x40 MLOAD PUSH3 0x461BCD PUSH1 0xE5 SHL DUP2 MSTORE PUSH1 0x20 PUSH1 0x4 DUP3 ADD MSTORE PUSH1 0x2B PUSH1 0x24 DUP3 ADD MSTORE PUSH32 0x496E697469616C697A61626C653A20636F6E7472616374206973206E6F742069 PUSH1 0x44 DUP3 ADD MSTORE PUSH11 0x6E697469616C697A696E67 PUSH1 0xA8 SHL PUSH1 0x64 DUP3 ADD MSTORE PUSH1 0x84 ADD PUSH2 0x10E4 JUMP JUMPDEST PUSH2 0x1678 DUP3 DUP3 PUSH2 0x36E7 JUMP JUMPDEST PUSH1 0x0 SLOAD PUSH2 0x100 SWAP1 DIV PUSH1 0xFF AND PUSH2 0x17B7 JUMPI PUSH1 0x40 MLOAD PUSH3 0x461BCD PUSH1 0xE5 SHL DUP2 MSTORE PUSH1 0x20 PUSH1 0x4 DUP3 ADD MSTORE PUSH1 0x2B PUSH1 0x24 DUP3 ADD MSTORE PUSH32 0x496E697469616C697A61626C653A20636F6E7472616374206973206E6F742069 PUSH1 0x44 DUP3 ADD MSTORE PUSH11 0x6E697469616C697A696E67 PUSH1 0xA8 SHL PUSH1 0x64 DUP3 ADD MSTORE PUSH1 0x84 ADD PUSH2 0x10E4 JUMP JUMPDEST PUSH1 0x0 SLOAD PUSH2 0x100 SWAP1 DIV PUSH1 0xFF AND PUSH2 0x3458 JUMPI PUSH1 0x40 MLOAD PUSH3 0x461BCD PUSH1 0xE5 SHL DUP2 MSTORE PUSH1 0x20 PUSH1 0x4 DUP3 ADD MSTORE PUSH1 0x2B PUSH1 0x24 DUP3 ADD MSTORE PUSH32 0x496E697469616C697A61626C653A20636F6E7472616374206973206E6F742069 PUSH1 0x44 DUP3 ADD MSTORE PUSH11 0x6E697469616C697A696E67 PUSH1 0xA8 SHL PUSH1 0x64 DUP3 ADD MSTORE PUSH1 0x84 ADD PUSH2 0x10E4 JUMP JUMPDEST PUSH2 0x17B7 PUSH2 0x376B JUMP JUMPDEST PUSH1 0x0 SLOAD PUSH2 0x100 SWAP1 DIV PUSH1 0xFF AND PUSH2 0x34CB JUMPI PUSH1 0x40 MLOAD PUSH3 0x461BCD PUSH1 0xE5 SHL DUP2 MSTORE PUSH1 0x20 PUSH1 0x4 DUP3 ADD MSTORE PUSH1 0x2B PUSH1 0x24 DUP3 ADD MSTORE PUSH32 0x496E697469616C697A61626C653A20636F6E7472616374206973206E6F742069 PUSH1 0x44 DUP3 ADD MSTORE PUSH11 0x6E697469616C697A696E67 PUSH1 0xA8 SHL PUSH1 0x64 DUP3 ADD MSTORE PUSH1 0x84 ADD PUSH2 0x10E4 JUMP JUMPDEST PUSH2 0x17B7 PUSH2 0x37DF JUMP JUMPDEST PUSH1 0x1 PUSH1 0x1 PUSH1 0xA0 SHL SUB DUP4 AND PUSH2 0x3537 JUMPI PUSH1 0x40 MLOAD PUSH3 0x461BCD PUSH1 0xE5 SHL DUP2 MSTORE PUSH1 0x20 PUSH1 0x4 DUP3 ADD MSTORE PUSH1 0x25 PUSH1 0x24 DUP3 ADD MSTORE PUSH32 0x45524332303A207472616E736665722066726F6D20746865207A65726F206164 PUSH1 0x44 DUP3 ADD MSTORE PUSH5 0x6472657373 PUSH1 0xD8 SHL PUSH1 0x64 DUP3 ADD MSTORE PUSH1 0x84 ADD PUSH2 0x10E4 JUMP JUMPDEST PUSH1 0x1 PUSH1 0x1 PUSH1 0xA0 SHL SUB DUP3 AND PUSH2 0x3599 JUMPI PUSH1 0x40 MLOAD PUSH3 0x461BCD PUSH1 0xE5 SHL DUP2 MSTORE PUSH1 0x20 PUSH1 0x4 DUP3 ADD MSTORE PUSH1 0x23 PUSH1 0x24 DUP3 ADD MSTORE PUSH32 0x45524332303A207472616E7366657220746F20746865207A65726F2061646472 PUSH1 0x44 DUP3 ADD MSTORE PUSH3 0x657373 PUSH1 0xE8 SHL PUSH1 0x64 DUP3 ADD MSTORE PUSH1 0x84 ADD PUSH2 0x10E4 JUMP JUMPDEST PUSH1 0x1 PUSH1 0x1 PUSH1 0xA0 SHL SUB DUP4 AND PUSH1 0x0 SWAP1 DUP2 MSTORE PUSH1 0x33 PUSH1 0x20 MSTORE PUSH1 0x40 SWAP1 KECCAK256 SLOAD DUP2 DUP2 LT ISZERO PUSH2 0x3628 JUMPI PUSH1 0x40 MLOAD PUSH3 0x461BCD PUSH1 0xE5 SHL DUP2 MSTORE PUSH1 0x20 PUSH1 0x4 DUP3 ADD MSTORE PUSH1 0x26 PUSH1 0x24 DUP3 ADD MSTORE PUSH32 0x45524332303A207472616E7366657220616D6F756E7420657863656564732062 PUSH1 0x44 DUP3 ADD MSTORE PUSH32 0x616C616E63650000000000000000000000000000000000000000000000000000 PUSH1 0x64 DUP3 ADD MSTORE PUSH1 0x84 ADD PUSH2 0x10E4 JUMP JUMPDEST PUSH1 0x1 PUSH1 0x1 PUSH1 0xA0 SHL SUB DUP1 DUP6 AND PUSH1 0x0 DUP2 DUP2 MSTORE PUSH1 0x33 PUSH1 0x20 MSTORE PUSH1 0x40 DUP1 DUP3 KECCAK256 DUP7 DUP7 SUB SWAP1 SSTORE SWAP3 DUP7 AND DUP1 DUP3 MSTORE SWAP1 DUP4 SWAP1 KECCAK256 DUP1 SLOAD DUP7 ADD SWAP1 SSTORE SWAP2 MLOAD PUSH32 0xDDF252AD1BE2C89B69C2B068FC378DAA952BA7F163C4A11628F55A4DF523B3EF SWAP1 PUSH2 0x3688 SWAP1 DUP7 DUP2 MSTORE PUSH1 0x20 ADD SWAP1 JUMP JUMPDEST PUSH1 0x40 MLOAD DUP1 SWAP2 SUB SWAP1 LOG3 PUSH2 0x2B85 JUMP JUMPDEST PUSH1 0xC9 SLOAD PUSH1 0xFF AND PUSH2 0x17B7 JUMPI PUSH1 0x40 MLOAD PUSH3 0x461BCD PUSH1 0xE5 SHL DUP2 MSTORE PUSH1 0x20 PUSH1 0x4 DUP3 ADD MSTORE PUSH1 0x14 PUSH1 0x24 DUP3 ADD MSTORE PUSH32 0x5061757361626C653A206E6F7420706175736564000000000000000000000000 PUSH1 0x44 DUP3 ADD MSTORE PUSH1 0x64 ADD PUSH2 0x10E4 JUMP JUMPDEST PUSH1 0x0 SLOAD PUSH2 0x100 SWAP1 DIV PUSH1 0xFF AND PUSH2 0x3752 JUMPI PUSH1 0x40 MLOAD PUSH3 0x461BCD PUSH1 0xE5 SHL DUP2 MSTORE PUSH1 0x20 PUSH1 0x4 DUP3 ADD MSTORE PUSH1 0x2B PUSH1 0x24 DUP3 ADD MSTORE PUSH32 0x496E697469616C697A61626C653A20636F6E7472616374206973206E6F742069 PUSH1 0x44 DUP3 ADD MSTORE PUSH11 0x6E697469616C697A696E67 PUSH1 0xA8 SHL PUSH1 0x64 DUP3 ADD MSTORE PUSH1 0x84 ADD PUSH2 0x10E4 JUMP JUMPDEST PUSH1 0x36 PUSH2 0x375E DUP4 DUP3 PUSH2 0x3E52 JUMP JUMPDEST POP PUSH1 0x37 PUSH2 0x1FFC DUP3 DUP3 PUSH2 0x3E52 JUMP JUMPDEST PUSH1 0x0 SLOAD PUSH2 0x100 SWAP1 DIV PUSH1 0xFF AND PUSH2 0x37D6 JUMPI PUSH1 0x40 MLOAD PUSH3 0x461BCD PUSH1 0xE5 SHL DUP2 MSTORE PUSH1 0x20 PUSH1 0x4 DUP3 ADD MSTORE PUSH1 0x2B PUSH1 0x24 DUP3 ADD MSTORE PUSH32 0x496E697469616C697A61626C653A20636F6E7472616374206973206E6F742069 PUSH1 0x44 DUP3 ADD MSTORE PUSH11 0x6E697469616C697A696E67 PUSH1 0xA8 SHL PUSH1 0x64 DUP3 ADD MSTORE PUSH1 0x84 ADD PUSH2 0x10E4 JUMP JUMPDEST PUSH2 0x17B7 CALLER PUSH2 0x31B4 JUMP JUMPDEST PUSH1 0x0 SLOAD PUSH2 0x100 SWAP1 DIV PUSH1 0xFF AND PUSH2 0x384A JUMPI PUSH1 0x40 MLOAD PUSH3 0x461BCD PUSH1 0xE5 SHL DUP2 MSTORE PUSH1 0x20 PUSH1 0x4 DUP3 ADD MSTORE PUSH1 0x2B PUSH1 0x24 DUP3 ADD MSTORE PUSH32 0x496E697469616C697A61626C653A20636F6E7472616374206973206E6F742069 PUSH1 0x44 DUP3 ADD MSTORE PUSH11 0x6E697469616C697A696E67 PUSH1 0xA8 SHL PUSH1 0x64 DUP3 ADD MSTORE PUSH1 0x84 ADD PUSH2 0x10E4 JUMP JUMPDEST PUSH1 0xC9 DUP1 SLOAD PUSH1 0xFF NOT AND SWAP1 SSTORE JUMP JUMPDEST PUSH1 0x0 PUSH1 0x20 DUP1 DUP4 MSTORE DUP4 MLOAD DUP1 DUP3 DUP6 ADD MSTORE PUSH1 0x0 JUMPDEST DUP2 DUP2 LT ISZERO PUSH2 0x3883 JUMPI DUP6 DUP2 ADD DUP4 ADD MLOAD DUP6 DUP3 ADD PUSH1 0x40 ADD MSTORE DUP3 ADD PUSH2 0x3867 JUMP JUMPDEST POP PUSH1 0x0 PUSH1 0x40 DUP3 DUP7 ADD ADD MSTORE PUSH1 0x40 PUSH1 0x1F NOT PUSH1 0x1F DUP4 ADD AND DUP6 ADD ADD SWAP3 POP POP POP SWAP3 SWAP2 POP POP JUMP JUMPDEST PUSH1 0x1 PUSH1 0x1 PUSH1 0xA0 SHL SUB DUP2 AND DUP2 EQ PUSH2 0x1087 JUMPI PUSH1 0x0 DUP1 REVERT JUMPDEST DUP1 CALLDATALOAD PUSH2 0x38C4 DUP2 PUSH2 0x38A4 JUMP JUMPDEST SWAP2 SWAP1 POP JUMP JUMPDEST PUSH1 0x0 DUP1 PUSH1 0x40 DUP4 DUP6 SUB SLT ISZERO PUSH2 0x38DC JUMPI PUSH1 0x0 DUP1 REVERT JUMPDEST DUP3 CALLDATALOAD PUSH2 0x38E7 DUP2 PUSH2 0x38A4 JUMP JUMPDEST SWAP5 PUSH1 0x20 SWAP4 SWAP1 SWAP4 ADD CALLDATALOAD SWAP4 POP POP POP JUMP JUMPDEST PUSH1 0x0 PUSH1 0x20 DUP3 DUP5 SUB SLT ISZERO PUSH2 0x3907 JUMPI PUSH1 0x0 DUP1 REVERT JUMPDEST DUP2 CALLDATALOAD PUSH2 0x2F2F DUP2 PUSH2 0x38A4 JUMP JUMPDEST PUSH1 0x0 DUP1 PUSH1 0x0 PUSH1 0x60 DUP5 DUP7 SUB SLT ISZERO PUSH2 0x3927 JUMPI PUSH1 0x0 DUP1 REVERT JUMPDEST DUP4 CALLDATALOAD PUSH2 0x3932 DUP2 PUSH2 0x38A4 JUMP JUMPDEST SWAP3 POP PUSH1 0x20 DUP5 ADD CALLDATALOAD PUSH2 0x3942 DUP2 PUSH2 0x38A4 JUMP JUMPDEST SWAP3 SWAP6 SWAP3 SWAP5 POP POP POP PUSH1 0x40 SWAP2 SWAP1 SWAP2 ADD CALLDATALOAD SWAP1 JUMP JUMPDEST PUSH1 0x0 DUP1 PUSH1 0x0 DUP1 PUSH1 0x80 DUP6 DUP8 SUB SLT ISZERO PUSH2 0x3969 JUMPI PUSH1 0x0 DUP1 REVERT JUMPDEST DUP5 CALLDATALOAD PUSH2 0x3974 DUP2 PUSH2 0x38A4 JUMP JUMPDEST SWAP7 PUSH1 0x20 DUP7 ADD CALLDATALOAD SWAP7 POP PUSH1 0x40 DUP7 ADD CALLDATALOAD SWAP6 PUSH1 0x60 ADD CALLDATALOAD SWAP5 POP SWAP3 POP POP POP JUMP JUMPDEST PUSH1 0x0 PUSH1 0x20 DUP3 DUP5 SUB SLT ISZERO PUSH2 0x39A0 JUMPI PUSH1 0x0 DUP1 REVERT JUMPDEST POP CALLDATALOAD SWAP2 SWAP1 POP JUMP JUMPDEST DUP1 ISZERO ISZERO DUP2 EQ PUSH2 0x1087 JUMPI PUSH1 0x0 DUP1 REVERT JUMPDEST PUSH1 0x0 PUSH1 0x20 DUP3 DUP5 SUB SLT ISZERO PUSH2 0x39C7 JUMPI PUSH1 0x0 DUP1 REVERT JUMPDEST DUP2 CALLDATALOAD PUSH2 0x2F2F DUP2 PUSH2 0x39A7 JUMP JUMPDEST PUSH1 0x0 DUP1 PUSH1 0x40 DUP4 DUP6 SUB SLT ISZERO PUSH2 0x39E5 JUMPI PUSH1 0x0 DUP1 REVERT JUMPDEST DUP3 CALLDATALOAD PUSH2 0x39F0 DUP2 PUSH2 0x38A4 JUMP JUMPDEST SWAP2 POP PUSH1 0x20 DUP4 ADD CALLDATALOAD PUSH2 0x3A00 DUP2 PUSH2 0x38A4 JUMP JUMPDEST DUP1 SWAP2 POP POP SWAP3 POP SWAP3 SWAP1 POP JUMP JUMPDEST PUSH4 0x4E487B71 PUSH1 0xE0 SHL PUSH1 0x0 MSTORE PUSH1 0x41 PUSH1 0x4 MSTORE PUSH1 0x24 PUSH1 0x0 REVERT JUMPDEST PUSH1 0x40 MLOAD PUSH1 0x1F DUP3 ADD PUSH1 0x1F NOT AND DUP2 ADD PUSH8 0xFFFFFFFFFFFFFFFF DUP2 GT DUP3 DUP3 LT OR ISZERO PUSH2 0x3A4A JUMPI PUSH2 0x3A4A PUSH2 0x3A0B JUMP JUMPDEST PUSH1 0x40 MSTORE SWAP2 SWAP1 POP JUMP JUMPDEST PUSH1 0x0 DUP3 PUSH1 0x1F DUP4 ADD SLT PUSH2 0x3A63 JUMPI PUSH1 0x0 DUP1 REVERT JUMPDEST DUP2 CALLDATALOAD PUSH8 0xFFFFFFFFFFFFFFFF DUP2 GT ISZERO PUSH2 0x3A7D JUMPI PUSH2 0x3A7D PUSH2 0x3A0B JUMP JUMPDEST PUSH2 0x3A90 PUSH1 0x1F DUP3 ADD PUSH1 0x1F NOT AND PUSH1 0x20 ADD PUSH2 0x3A21 JUMP JUMPDEST DUP2 DUP2 MSTORE DUP5 PUSH1 0x20 DUP4 DUP7 ADD ADD GT ISZERO PUSH2 0x3AA5 JUMPI PUSH1 0x0 DUP1 REVERT JUMPDEST DUP2 PUSH1 0x20 DUP6 ADD PUSH1 0x20 DUP4 ADD CALLDATACOPY PUSH1 0x0 SWAP2 DUP2 ADD PUSH1 0x20 ADD SWAP2 SWAP1 SWAP2 MSTORE SWAP4 SWAP3 POP POP POP JUMP JUMPDEST PUSH1 0x0 DUP3 PUSH1 0x1F DUP4 ADD SLT PUSH2 0x3AD3 JUMPI PUSH1 0x0 DUP1 REVERT JUMPDEST DUP2 CALLDATALOAD PUSH1 0x20 PUSH8 0xFFFFFFFFFFFFFFFF DUP3 GT ISZERO PUSH2 0x3AEF JUMPI PUSH2 0x3AEF PUSH2 0x3A0B JUMP JUMPDEST DUP2 PUSH1 0x5 SHL PUSH2 0x3AFE DUP3 DUP3 ADD PUSH2 0x3A21 JUMP JUMPDEST SWAP3 DUP4 MSTORE DUP5 DUP2 ADD DUP3 ADD SWAP3 DUP3 DUP2 ADD SWAP1 DUP8 DUP6 GT ISZERO PUSH2 0x3B18 JUMPI PUSH1 0x0 DUP1 REVERT JUMPDEST DUP4 DUP8 ADD SWAP3 POP JUMPDEST DUP5 DUP4 LT ISZERO PUSH2 0x3B40 JUMPI DUP3 CALLDATALOAD PUSH2 0x3B31 DUP2 PUSH2 0x38A4 JUMP JUMPDEST DUP3 MSTORE SWAP2 DUP4 ADD SWAP2 SWAP1 DUP4 ADD SWAP1 PUSH2 0x3B1E JUMP JUMPDEST SWAP8 SWAP7 POP POP POP POP POP POP POP JUMP JUMPDEST PUSH1 0x0 DUP1 PUSH1 0x0 DUP1 PUSH1 0x0 DUP1 PUSH1 0xC0 DUP8 DUP10 SUB SLT ISZERO PUSH2 0x3B64 JUMPI PUSH1 0x0 DUP1 REVERT JUMPDEST DUP7 CALLDATALOAD PUSH8 0xFFFFFFFFFFFFFFFF DUP1 DUP3 GT ISZERO PUSH2 0x3B7C JUMPI PUSH1 0x0 DUP1 REVERT JUMPDEST PUSH2 0x3B88 DUP11 DUP4 DUP12 ADD PUSH2 0x3A52 JUMP JUMPDEST SWAP8 POP PUSH1 0x20 DUP10 ADD CALLDATALOAD SWAP2 POP DUP1 DUP3 GT ISZERO PUSH2 0x3B9E JUMPI PUSH1 0x0 DUP1 REVERT JUMPDEST PUSH2 0x3BAA DUP11 DUP4 DUP12 ADD PUSH2 0x3A52 JUMP JUMPDEST SWAP7 POP PUSH1 0x40 DUP10 ADD CALLDATALOAD SWAP2 POP PUSH1 0xFF DUP3 AND DUP3 EQ PUSH2 0x3BC2 JUMPI PUSH1 0x0 DUP1 REVERT JUMPDEST DUP2 SWAP6 POP PUSH1 0x60 DUP10 ADD CALLDATALOAD SWAP5 POP PUSH2 0x3BD8 PUSH1 0x80 DUP11 ADD PUSH2 0x38B9 JUMP JUMPDEST SWAP4 POP PUSH1 0xA0 DUP10 ADD CALLDATALOAD SWAP2 POP DUP1 DUP3 GT ISZERO PUSH2 0x3BEE JUMPI PUSH1 0x0 DUP1 REVERT JUMPDEST POP PUSH2 0x3BFB DUP10 DUP3 DUP11 ADD PUSH2 0x3AC2 JUMP JUMPDEST SWAP2 POP POP SWAP3 SWAP6 POP SWAP3 SWAP6 POP SWAP3 SWAP6 JUMP JUMPDEST PUSH1 0x1 DUP2 DUP2 SHR SWAP1 DUP3 AND DUP1 PUSH2 0x3C1C JUMPI PUSH1 0x7F DUP3 AND SWAP2 POP JUMPDEST PUSH1 0x20 DUP3 LT DUP2 SUB PUSH2 0x3C3C JUMPI PUSH4 0x4E487B71 PUSH1 0xE0 SHL PUSH1 0x0 MSTORE PUSH1 0x22 PUSH1 0x4 MSTORE PUSH1 0x24 PUSH1 0x0 REVERT JUMPDEST POP SWAP2 SWAP1 POP JUMP JUMPDEST PUSH4 0x4E487B71 PUSH1 0xE0 SHL PUSH1 0x0 MSTORE PUSH1 0x11 PUSH1 0x4 MSTORE PUSH1 0x24 PUSH1 0x0 REVERT JUMPDEST DUP2 DUP2 SUB DUP2 DUP2 GT ISZERO PUSH2 0x1007 JUMPI PUSH2 0x1007 PUSH2 0x3C42 JUMP JUMPDEST DUP1 DUP3 MUL DUP2 ISZERO DUP3 DUP3 DIV DUP5 EQ OR PUSH2 0x1007 JUMPI PUSH2 0x1007 PUSH2 0x3C42 JUMP JUMPDEST PUSH1 0x0 DUP3 PUSH2 0x3C9F JUMPI PUSH4 0x4E487B71 PUSH1 0xE0 SHL PUSH1 0x0 MSTORE PUSH1 0x12 PUSH1 0x4 MSTORE PUSH1 0x24 PUSH1 0x0 REVERT JUMPDEST POP DIV SWAP1 JUMP JUMPDEST PUSH4 0x4E487B71 PUSH1 0xE0 SHL PUSH1 0x0 MSTORE PUSH1 0x32 PUSH1 0x4 MSTORE PUSH1 0x24 PUSH1 0x0 REVERT JUMPDEST PUSH1 0x0 PUSH1 0x1 DUP3 ADD PUSH2 0x3CCC JUMPI PUSH2 0x3CCC PUSH2 0x3C42 JUMP JUMPDEST POP PUSH1 0x1 ADD SWAP1 JUMP JUMPDEST DUP1 DUP3 ADD DUP1 DUP3 GT ISZERO PUSH2 0x1007 JUMPI PUSH2 0x1007 PUSH2 0x3C42 JUMP JUMPDEST PUSH1 0x0 PUSH1 0x20 DUP3 DUP5 SUB SLT ISZERO PUSH2 0x3CF8 JUMPI PUSH1 0x0 DUP1 REVERT JUMPDEST POP MLOAD SWAP2 SWAP1 POP JUMP JUMPDEST PUSH1 0x0 PUSH1 0x20 DUP3 DUP5 SUB SLT ISZERO PUSH2 0x3D11 JUMPI PUSH1 0x0 DUP1 REVERT JUMPDEST DUP2 MLOAD PUSH2 0x2F2F DUP2 PUSH2 0x39A7 JUMP JUMPDEST PUSH1 0x1 DUP2 DUP2 JUMPDEST DUP1 DUP6 GT ISZERO PUSH2 0x3D57 JUMPI DUP2 PUSH1 0x0 NOT DIV DUP3 GT ISZERO PUSH2 0x3D3D JUMPI PUSH2 0x3D3D PUSH2 0x3C42 JUMP JUMPDEST DUP1 DUP6 AND ISZERO PUSH2 0x3D4A JUMPI SWAP2 DUP2 MUL SWAP2 JUMPDEST SWAP4 DUP5 SHR SWAP4 SWAP1 DUP1 MUL SWAP1 PUSH2 0x3D21 JUMP JUMPDEST POP SWAP3 POP SWAP3 SWAP1 POP JUMP JUMPDEST PUSH1 0x0 DUP3 PUSH2 0x3D6E JUMPI POP PUSH1 0x1 PUSH2 0x1007 JUMP JUMPDEST DUP2 PUSH2 0x3D7B JUMPI POP PUSH1 0x0 PUSH2 0x1007 JUMP JUMPDEST DUP2 PUSH1 0x1 DUP2 EQ PUSH2 0x3D91 JUMPI PUSH1 0x2 DUP2 EQ PUSH2 0x3D9B JUMPI PUSH2 0x3DB7 JUMP JUMPDEST PUSH1 0x1 SWAP2 POP POP PUSH2 0x1007 JUMP JUMPDEST PUSH1 0xFF DUP5 GT ISZERO PUSH2 0x3DAC JUMPI PUSH2 0x3DAC PUSH2 0x3C42 JUMP JUMPDEST POP POP PUSH1 0x1 DUP3 SHL PUSH2 0x1007 JUMP JUMPDEST POP PUSH1 0x20 DUP4 LT PUSH2 0x133 DUP4 LT AND PUSH1 0x4E DUP5 LT PUSH1 0xB DUP5 LT AND OR ISZERO PUSH2 0x3DDA JUMPI POP DUP2 DUP2 EXP PUSH2 0x1007 JUMP JUMPDEST PUSH2 0x3DE4 DUP4 DUP4 PUSH2 0x3D1C JUMP JUMPDEST DUP1 PUSH1 0x0 NOT DIV DUP3 GT ISZERO PUSH2 0x3DF8 JUMPI PUSH2 0x3DF8 PUSH2 0x3C42 JUMP JUMPDEST MUL SWAP4 SWAP3 POP POP POP JUMP JUMPDEST PUSH1 0x0 PUSH2 0x2F2F DUP4 DUP4 PUSH2 0x3D5F JUMP JUMPDEST PUSH1 0x1F DUP3 GT ISZERO PUSH2 0x1FFC JUMPI PUSH1 0x0 DUP2 DUP2 MSTORE PUSH1 0x20 DUP2 KECCAK256 PUSH1 0x1F DUP6 ADD PUSH1 0x5 SHR DUP2 ADD PUSH1 0x20 DUP7 LT ISZERO PUSH2 0x3E33 JUMPI POP DUP1 JUMPDEST PUSH1 0x1F DUP6 ADD PUSH1 0x5 SHR DUP3 ADD SWAP2 POP JUMPDEST DUP2 DUP2 LT ISZERO PUSH2 0x2F1B JUMPI DUP3 DUP2 SSTORE PUSH1 0x1 ADD PUSH2 0x3E3F JUMP JUMPDEST DUP2 MLOAD PUSH8 0xFFFFFFFFFFFFFFFF DUP2 GT ISZERO PUSH2 0x3E6C JUMPI PUSH2 0x3E6C PUSH2 0x3A0B JUMP JUMPDEST PUSH2 0x3E80 DUP2 PUSH2 0x3E7A DUP5 SLOAD PUSH2 0x3C08 JUMP JUMPDEST DUP5 PUSH2 0x3E0C JUMP JUMPDEST PUSH1 0x20 DUP1 PUSH1 0x1F DUP4 GT PUSH1 0x1 DUP2 EQ PUSH2 0x3EB5 JUMPI PUSH1 0x0 DUP5 ISZERO PUSH2 0x3E9D JUMPI POP DUP6 DUP4 ADD MLOAD JUMPDEST PUSH1 0x0 NOT PUSH1 0x3 DUP7 SWAP1 SHL SHR NOT AND PUSH1 0x1 DUP6 SWAP1 SHL OR DUP6 SSTORE PUSH2 0x2F1B JUMP JUMPDEST PUSH1 0x0 DUP6 DUP2 MSTORE PUSH1 0x20 DUP2 KECCAK256 PUSH1 0x1F NOT DUP7 AND SWAP2 JUMPDEST DUP3 DUP2 LT ISZERO PUSH2 0x3EE4 JUMPI DUP9 DUP7 ADD MLOAD DUP3 SSTORE SWAP5 DUP5 ADD SWAP5 PUSH1 0x1 SWAP1 SWAP2 ADD SWAP1 DUP5 ADD PUSH2 0x3EC5 JUMP JUMPDEST POP DUP6 DUP3 LT ISZERO PUSH2 0x3F02 JUMPI DUP8 DUP6 ADD MLOAD PUSH1 0x0 NOT PUSH1 0x3 DUP9 SWAP1 SHL PUSH1 0xF8 AND SHR NOT AND DUP2 SSTORE JUMPDEST POP POP POP POP POP PUSH1 0x1 SWAP1 DUP2 SHL ADD SWAP1 SSTORE POP JUMP INVALID LOG2 PUSH5 0x6970667358 0x22 SLT KECCAK256 BALANCE 0x1F 0x24 0x4C 0xE7 SMOD DUP13 PUSH29 0xFC31165F06B8C14C7874135D96B25FE4AF58F0D61B0061DB64736F6C63 NUMBER STOP ADDMOD SGT STOP CALLER "},"methodIdentifiers":{"_frozenWallets(address)":"3eb5cbeb","_owner()":"b2bdfa7b","addToWhitelist(address)":"e43252d7","addVestingSchedule(address,uint256,uint256,uint256)":"24ef8c1b","allowance(address,address)":"dd62ed3e","approve(address,uint256)":"095ea7b3","balanceOf(address)":"70a08231","blackList(address)":"4838d165","burn(uint256)":"42966c68","burnFrom(address,uint256)":"79cc6790","burnableTax()":"d0a1bd44","buySellTaxRate()":"bd0e0acd","cancelOwnershipTransfer()":"23452b9c","castVote(bool)":"7ace48e7","claim()":"4e71d92d","decimals()":"313ce567","decreaseAllowance(address,uint256)":"a457c2d7","decreasingTaxInterval()":"622b67cb","disableBuySellTax(bool)":"f217fdbe","finalizeOwnershipTransfer()":"bf41c2a4","freezeWallet(address,uint256)":"85be583f","graduallyDecreasingTax()":"5e2f16c8","hasVoted(address)":"09eef43e","includeInTax(address)":"e17c4c74","increaseAllowance(address,uint256)":"39509351","initialize(string,string,uint8,uint256,address,address[])":"f8f1b6c9","isBlackList(address)":"b36d6919","isBuySellTaxEnabled()":"ab8b2f0d","isDeflationary()":"8e8c10a2","isExcludedFromTax(address)":"cb4ca631","isWhitelisted(address)":"3af32abf","lastUpdatedTaxTimestamp()":"760b7e38","liquidityLocked()":"57976fb4","lockLiquidity(uint256)":"2bfbd9cf","lockedLiquidityAmount()":"052c30bc","maxTransactionAmount()":"c8c8ebe4","minTransactionAmount()":"17a5d4df","mint(address,uint256)":"40c10f19","name()":"06fdde03","owner()":"8da5cb5b","pause()":"8456cb59","paused()":"5c975abb","proposeOwnershipTransfer(address)":"21040fc3","proposedOwner()":"d153b60c","removeFromBlacklist(address)":"537df3b6","removeFromWhitelist(address)":"8ab1d681","renounceOwnership()":"715018a6","router()":"f887ea40","setBurnableTax(uint256)":"2a32234f","setBuySellTaxRate(uint256)":"8f376fca","setDeflationary(bool)":"a30ff8b6","setGraduallyDecreasingInterval(uint256)":"553ba06c","setGraduallyDecreasingTax(uint256)":"d292059e","setGraduallyDecreasingTaxZero()":"eb60b83f","setIsExcludedFromTax(address)":"7884d888","setMaxTransferAmount(uint256)":"8bf55409","setMinTransactionAmount(uint256)":"bfed5ce3","setRouter(address)":"c0d78655","setTransferDelay(uint256)":"36e8c9b3","setUSDTAddress(address)":"55eba868","signers(address)":"736c0d5b","symbol()":"95d89b41","totalSupply()":"18160ddd","transfer(address,uint256)":"a9059cbb","transferAllowedAt()":"b5c43db4","transferDelay()":"0a702e8d","transferFrom(address,address,uint256)":"23b872dd","transferOwnership(address)":"f2fde38b","unfreezeWallet(address)":"60f588b7","unlockLiquidity(uint256)":"96e83924","unpause()":"3f4ba83a","updateGraduallyDecreasingTax()":"0b4d57f5","usdt()":"2f48ab7d","vestingInfo(address)":"f78e633d","voters(uint256)":"da58c7d9","withdrawDumpToken(address,address)":"99672158","withdrawEth(address)":"25e16063"}},"storageLayout":{"storage":[{"astId":138,"contract":"contracts/metallika2.sol:Metallika2","label":"_initialized","offset":0,"slot":"0","type":"t_uint8"},{"astId":141,"contract":"contracts/metallika2.sol:Metallika2","label":"_initializing","offset":1,"slot":"0","type":"t_bool"},{"astId":1577,"contract":"contracts/metallika2.sol:Metallika2","label":"__gap","offset":0,"slot":"1","type":"t_array(t_uint256)50_storage"},{"astId":446,"contract":"contracts/metallika2.sol:Metallika2","label":"_balances","offset":0,"slot":"51","type":"t_mapping(t_address,t_uint256)"},{"astId":452,"contract":"contracts/metallika2.sol:Metallika2","label":"_allowances","offset":0,"slot":"52","type":"t_mapping(t_address,t_mapping(t_address,t_uint256))"},{"astId":454,"contract":"contracts/metallika2.sol:Metallika2","label":"_totalSupply","offset":0,"slot":"53","type":"t_uint256"},{"astId":456,"contract":"contracts/metallika2.sol:Metallika2","label":"_name","offset":0,"slot":"54","type":"t_string_storage"},{"astId":458,"contract":"contracts/metallika2.sol:Metallika2","label":"_symbol","offset":0,"slot":"55","type":"t_string_storage"},{"astId":1038,"contract":"contracts/metallika2.sol:Metallika2","label":"__gap","offset":0,"slot":"56","type":"t_array(t_uint256)45_storage"},{"astId":1180,"contract":"contracts/metallika2.sol:Metallika2","label":"__gap","offset":0,"slot":"101","type":"t_array(t_uint256)50_storage"},{"astId":10,"contract":"contracts/metallika2.sol:Metallika2","label":"_owner","offset":0,"slot":"151","type":"t_address"},{"astId":130,"contract":"contracts/metallika2.sol:Metallika2","label":"__gap","offset":0,"slot":"152","type":"t_array(t_uint256)49_storage"},{"astId":321,"contract":"contracts/metallika2.sol:Metallika2","label":"_paused","offset":0,"slot":"201","type":"t_bool"},{"astId":426,"contract":"contracts/metallika2.sol:Metallika2","label":"__gap","offset":0,"slot":"202","type":"t_array(t_uint256)49_storage"},{"astId":4876,"contract":"contracts/metallika2.sol:Metallika2","label":"_owner","offset":0,"slot":"251","type":"t_address"},{"astId":4878,"contract":"contracts/metallika2.sol:Metallika2","label":"minTransactionAmount","offset":0,"slot":"252","type":"t_uint256"},{"astId":4880,"contract":"contracts/metallika2.sol:Metallika2","label":"maxTransactionAmount","offset":0,"slot":"253","type":"t_uint256"},{"astId":4882,"contract":"contracts/metallika2.sol:Metallika2","label":"transferDelay","offset":0,"slot":"254","type":"t_uint256"},{"astId":4884,"contract":"contracts/metallika2.sol:Metallika2","label":"lockedLiquidityAmount","offset":0,"slot":"255","type":"t_uint256"},{"astId":4886,"contract":"contracts/metallika2.sol:Metallika2","label":"liquidityLocked","offset":0,"slot":"256","type":"t_bool"},{"astId":4888,"contract":"contracts/metallika2.sol:Metallika2","label":"isDeflationary","offset":1,"slot":"256","type":"t_bool"},{"astId":4892,"contract":"contracts/metallika2.sol:Metallika2","label":"isExcludedFromTax","offset":0,"slot":"257","type":"t_mapping(t_address,t_bool)"},{"astId":4894,"contract":"contracts/metallika2.sol:Metallika2","label":"burnableTax","offset":0,"slot":"258","type":"t_uint256"},{"astId":4896,"contract":"contracts/metallika2.sol:Metallika2","label":"graduallyDecreasingTax","offset":0,"slot":"259","type":"t_uint256"},{"astId":4898,"contract":"contracts/metallika2.sol:Metallika2","label":"buySellTaxRate","offset":0,"slot":"260","type":"t_uint256"},{"astId":4900,"contract":"contracts/metallika2.sol:Metallika2","label":"decreasingTaxInterval","offset":0,"slot":"261","type":"t_uint256"},{"astId":4902,"contract":"contracts/metallika2.sol:Metallika2","label":"lastUpdatedTaxTimestamp","offset":0,"slot":"262","type":"t_uint256"},{"astId":4904,"contract":"contracts/metallika2.sol:Metallika2","label":"isBuySellTaxEnabled","offset":0,"slot":"263","type":"t_bool"},{"astId":4906,"contract":"contracts/metallika2.sol:Metallika2","label":"usdt","offset":1,"slot":"263","type":"t_address"},{"astId":4908,"contract":"contracts/metallika2.sol:Metallika2","label":"proposedOwner","offset":0,"slot":"264","type":"t_address"},{"astId":4911,"contract":"contracts/metallika2.sol:Metallika2","label":"voters","offset":0,"slot":"265","type":"t_array(t_address)dyn_storage"},{"astId":4915,"contract":"contracts/metallika2.sol:Metallika2","label":"hasVoted","offset":0,"slot":"266","type":"t_mapping(t_address,t_bool)"},{"astId":4932,"contract":"contracts/metallika2.sol:Metallika2","label":"isBlacklisted","offset":0,"slot":"267","type":"t_mapping(t_address,t_bool)"},{"astId":4936,"contract":"contracts/metallika2.sol:Metallika2","label":"_transferAllowedAt","offset":0,"slot":"268","type":"t_mapping(t_address,t_uint256)"},{"astId":4940,"contract":"contracts/metallika2.sol:Metallika2","label":"_frozenWallets","offset":0,"slot":"269","type":"t_mapping(t_address,t_uint256)"},{"astId":4944,"contract":"contracts/metallika2.sol:Metallika2","label":"_whitelistedWallets","offset":0,"slot":"270","type":"t_mapping(t_address,t_bool)"},{"astId":4948,"contract":"contracts/metallika2.sol:Metallika2","label":"signers","offset":0,"slot":"271","type":"t_mapping(t_address,t_bool)"},{"astId":4953,"contract":"contracts/metallika2.sol:Metallika2","label":"vestingInfo","offset":0,"slot":"272","type":"t_mapping(t_address,t_struct(Vesting)4928_storage)"},{"astId":4955,"contract":"contracts/metallika2.sol:Metallika2","label":"router","offset":0,"slot":"273","type":"t_address"}],"types":{"t_address":{"encoding":"inplace","label":"address","numberOfBytes":"20"},"t_array(t_address)dyn_storage":{"base":"t_address","encoding":"dynamic_array","label":"address[]","numberOfBytes":"32"},"t_array(t_uint256)45_storage":{"base":"t_uint256","encoding":"inplace","label":"uint256[45]","numberOfBytes":"1440"},"t_array(t_uint256)49_storage":{"base":"t_uint256","encoding":"inplace","label":"uint256[49]","numberOfBytes":"1568"},"t_array(t_uint256)50_storage":{"base":"t_uint256","encoding":"inplace","label":"uint256[50]","numberOfBytes":"1600"},"t_bool":{"encoding":"inplace","label":"bool","numberOfBytes":"1"},"t_mapping(t_address,t_bool)":{"encoding":"mapping","key":"t_address","label":"mapping(address => bool)","numberOfBytes":"32","value":"t_bool"},"t_mapping(t_address,t_mapping(t_address,t_uint256))":{"encoding":"mapping","key":"t_address","label":"mapping(address => mapping(address => uint256))","numberOfBytes":"32","value":"t_mapping(t_address,t_uint256)"},"t_mapping(t_address,t_struct(Vesting)4928_storage)":{"encoding":"mapping","key":"t_address","label":"mapping(address => struct Metallika2.Vesting)","numberOfBytes":"32","value":"t_struct(Vesting)4928_storage"},"t_mapping(t_address,t_uint256)":{"encoding":"mapping","key":"t_address","label":"mapping(address => uint256)","numberOfBytes":"32","value":"t_uint256"},"t_string_storage":{"encoding":"bytes","label":"string","numberOfBytes":"32"},"t_struct(Vesting)4928_storage":{"encoding":"inplace","label":"struct Metallika2.Vesting","members":[{"astId":4917,"contract":"contracts/metallika2.sol:Metallika2","label":"amount","offset":0,"slot":"0","type":"t_uint256"},{"astId":4919,"contract":"contracts/metallika2.sol:Metallika2","label":"beneficiary","offset":0,"slot":"1","type":"t_address"},{"astId":4921,"contract":"contracts/metallika2.sol:Metallika2","label":"percentageOfTokensToBeReleased","offset":0,"slot":"2","type":"t_uint256"},{"astId":4923,"contract":"contracts/metallika2.sol:Metallika2","label":"timeInterval","offset":0,"slot":"3","type":"t_uint256"},{"astId":4925,"contract":"contracts/metallika2.sol:Metallika2","label":"lastWithdrawTimestamp","offset":0,"slot":"4","type":"t_uint256"},{"astId":4927,"contract":"contracts/metallika2.sol:Metallika2","label":"claimedTokens","offset":0,"slot":"5","type":"t_uint256"}],"numberOfBytes":"192"},"t_uint256":{"encoding":"inplace","label":"uint256","numberOfBytes":"32"},"t_uint8":{"encoding":"inplace","label":"uint8","numberOfBytes":"1"}}}}}}