{
  "_format": "hh-sol-artifact-1",
  "contractName": "Metallika",
  "sourceName": "contracts/metallika.sol",
  "abi": [
    {
      "anonymous": false,
      "inputs": [
        {
          "indexed": true,
          "internalType": "address",
          "name": "owner",
          "type": "address"
        },
        {
          "indexed": true,
          "internalType": "address",
          "name": "spender",
          "type": "address"
        },
        {
          "indexed": false,
          "internalType": "uint256",
          "name": "value",
          "type": "uint256"
        }
      ],
      "name": "Approval",
      "type": "event"
    },
    {
      "anonymous": false,
      "inputs": [
        {
          "indexed": true,
          "internalType": "address",
          "name": "account",
          "type": "address"
        },
        {
          "indexed": false,
          "internalType": "bool",
          "name": "isBlacklisted",
          "type": "bool"
        }
      ],
      "name": "BlacklistUpdated",
      "type": "event"
    },
    {
      "anonymous": false,
      "inputs": [
        {
          "indexed": false,
          "internalType": "uint8",
          "name": "version",
          "type": "uint8"
        }
      ],
      "name": "Initialized",
      "type": "event"
    },
    {
      "anonymous": false,
      "inputs": [
        {
          "indexed": true,
          "internalType": "address",
          "name": "to",
          "type": "address"
        },
        {
          "indexed": false,
          "internalType": "uint256",
          "name": "amount",
          "type": "uint256"
        }
      ],
      "name": "Mint",
      "type": "event"
    },
    {
      "anonymous": false,
      "inputs": [
        {
          "indexed": true,
          "internalType": "address",
          "name": "newOwner",
          "type": "address"
        }
      ],
      "name": "OwnershipTransferProposed",
      "type": "event"
    },
    {
      "anonymous": false,
      "inputs": [
        {
          "indexed": true,
          "internalType": "address",
          "name": "previousOwner",
          "type": "address"
        },
        {
          "indexed": true,
          "internalType": "address",
          "name": "newOwner",
          "type": "address"
        }
      ],
      "name": "OwnershipTransferred",
      "type": "event"
    },
    {
      "anonymous": false,
      "inputs": [
        {
          "indexed": false,
          "internalType": "address",
          "name": "account",
          "type": "address"
        }
      ],
      "name": "Paused",
      "type": "event"
    },
    {
      "anonymous": false,
      "inputs": [
        {
          "indexed": true,
          "internalType": "address",
          "name": "from",
          "type": "address"
        },
        {
          "indexed": true,
          "internalType": "address",
          "name": "to",
          "type": "address"
        },
        {
          "indexed": false,
          "internalType": "uint256",
          "name": "value",
          "type": "uint256"
        }
      ],
      "name": "Transfer",
      "type": "event"
    },
    {
      "anonymous": false,
      "inputs": [
        {
          "indexed": false,
          "internalType": "address",
          "name": "account",
          "type": "address"
        }
      ],
      "name": "Unpaused",
      "type": "event"
    },
    {
      "anonymous": false,
      "inputs": [
        {
          "indexed": true,
          "internalType": "address",
          "name": "voter",
          "type": "address"
        },
        {
          "indexed": false,
          "internalType": "bool",
          "name": "approve",
          "type": "bool"
        }
      ],
      "name": "VoteCasted",
      "type": "event"
    },
    {
      "anonymous": false,
      "inputs": [
        {
          "indexed": true,
          "internalType": "address",
          "name": "wallet",
          "type": "address"
        },
        {
          "indexed": false,
          "internalType": "uint256",
          "name": "freezeDuration",
          "type": "uint256"
        }
      ],
      "name": "WalletFrozen",
      "type": "event"
    },
    {
      "anonymous": false,
      "inputs": [
        {
          "indexed": true,
          "internalType": "address",
          "name": "wallet",
          "type": "address"
        }
      ],
      "name": "WalletUnfrozen",
      "type": "event"
    },
    {
      "anonymous": false,
      "inputs": [
        {
          "indexed": true,
          "internalType": "address",
          "name": "account",
          "type": "address"
        },
        {
          "indexed": false,
          "internalType": "bool",
          "name": "isWhitelisted",
          "type": "bool"
        }
      ],
      "name": "WhitelistUpdated",
      "type": "event"
    },
    {
      "inputs": [
        {
          "internalType": "address",
          "name": "_account",
          "type": "address"
        },
        {
          "internalType": "bool",
          "name": "_isWhitelisted",
          "type": "bool"
        }
      ],
      "name": "addToWhitelist",
      "outputs": [],
      "stateMutability": "nonpayable",
      "type": "function"
    },
    {
      "inputs": [
        {
          "internalType": "address",
          "name": "owner",
          "type": "address"
        },
        {
          "internalType": "address",
          "name": "spender",
          "type": "address"
        }
      ],
      "name": "allowance",
      "outputs": [
        {
          "internalType": "uint256",
          "name": "",
          "type": "uint256"
        }
      ],
      "stateMutability": "view",
      "type": "function"
    },
    {
      "inputs": [
        {
          "internalType": "address",
          "name": "spender",
          "type": "address"
        },
        {
          "internalType": "uint256",
          "name": "amount",
          "type": "uint256"
        }
      ],
      "name": "approve",
      "outputs": [
        {
          "internalType": "bool",
          "name": "",
          "type": "bool"
        }
      ],
      "stateMutability": "nonpayable",
      "type": "function"
    },
    {
      "inputs": [
        {
          "internalType": "address",
          "name": "account",
          "type": "address"
        }
      ],
      "name": "balanceOf",
      "outputs": [
        {
          "internalType": "uint256",
          "name": "",
          "type": "uint256"
        }
      ],
      "stateMutability": "view",
      "type": "function"
    },
    {
      "inputs": [
        {
          "internalType": "address",
          "name": "",
          "type": "address"
        }
      ],
      "name": "blacklisted",
      "outputs": [
        {
          "internalType": "bool",
          "name": "",
          "type": "bool"
        }
      ],
      "stateMutability": "view",
      "type": "function"
    },
    {
      "inputs": [
        {
          "internalType": "uint256",
          "name": "amount",
          "type": "uint256"
        }
      ],
      "name": "burn",
      "outputs": [],
      "stateMutability": "nonpayable",
      "type": "function"
    },
    {
      "inputs": [
        {
          "internalType": "address",
          "name": "account",
          "type": "address"
        },
        {
          "internalType": "uint256",
          "name": "amount",
          "type": "uint256"
        }
      ],
      "name": "burnFrom",
      "outputs": [],
      "stateMutability": "nonpayable",
      "type": "function"
    },
    {
      "inputs": [],
      "name": "cancelOwnershipTransfer",
      "outputs": [],
      "stateMutability": "nonpayable",
      "type": "function"
    },
    {
      "inputs": [
        {
          "internalType": "bool",
          "name": "approve",
          "type": "bool"
        }
      ],
      "name": "castVote",
      "outputs": [],
      "stateMutability": "nonpayable",
      "type": "function"
    },
    {
      "inputs": [],
      "name": "decimals",
      "outputs": [
        {
          "internalType": "uint8",
          "name": "",
          "type": "uint8"
        }
      ],
      "stateMutability": "view",
      "type": "function"
    },
    {
      "inputs": [
        {
          "internalType": "address",
          "name": "spender",
          "type": "address"
        },
        {
          "internalType": "uint256",
          "name": "subtractedValue",
          "type": "uint256"
        }
      ],
      "name": "decreaseAllowance",
      "outputs": [
        {
          "internalType": "bool",
          "name": "",
          "type": "bool"
        }
      ],
      "stateMutability": "nonpayable",
      "type": "function"
    },
    {
      "inputs": [],
      "name": "finalizeOwnershipTransfer",
      "outputs": [],
      "stateMutability": "nonpayable",
      "type": "function"
    },
    {
      "inputs": [
        {
          "internalType": "address",
          "name": "_wallet",
          "type": "address"
        },
        {
          "internalType": "uint256",
          "name": "_freezeDuration",
          "type": "uint256"
        }
      ],
      "name": "freezeWallet",
      "outputs": [],
      "stateMutability": "nonpayable",
      "type": "function"
    },
    {
      "inputs": [
        {
          "internalType": "address",
          "name": "",
          "type": "address"
        }
      ],
      "name": "frozenUntil",
      "outputs": [
        {
          "internalType": "uint256",
          "name": "",
          "type": "uint256"
        }
      ],
      "stateMutability": "view",
      "type": "function"
    },
    {
      "inputs": [
        {
          "internalType": "address",
          "name": "",
          "type": "address"
        }
      ],
      "name": "hasVoted",
      "outputs": [
        {
          "internalType": "bool",
          "name": "",
          "type": "bool"
        }
      ],
      "stateMutability": "view",
      "type": "function"
    },
    {
      "inputs": [
        {
          "internalType": "address",
          "name": "spender",
          "type": "address"
        },
        {
          "internalType": "uint256",
          "name": "addedValue",
          "type": "uint256"
        }
      ],
      "name": "increaseAllowance",
      "outputs": [
        {
          "internalType": "bool",
          "name": "",
          "type": "bool"
        }
      ],
      "stateMutability": "nonpayable",
      "type": "function"
    },
    {
      "inputs": [
        {
          "internalType": "string",
          "name": "name",
          "type": "string"
        },
        {
          "internalType": "string",
          "name": "symbol",
          "type": "string"
        },
        {
          "internalType": "uint256",
          "name": "initialSupply",
          "type": "uint256"
        },
        {
          "internalType": "address[]",
          "name": "_initialVoters",
          "type": "address[]"
        },
        {
          "internalType": "uint256",
          "name": "_maxTxAmount",
          "type": "uint256"
        },
        {
          "internalType": "uint256",
          "name": "_maxWalletBalance",
          "type": "uint256"
        },
        {
          "internalType": "uint256",
          "name": "_launchDelay",
          "type": "uint256"
        }
      ],
      "name": "initialize",
      "outputs": [],
      "stateMutability": "nonpayable",
      "type": "function"
    },
    {
      "inputs": [],
      "name": "launchDelay",
      "outputs": [
        {
          "internalType": "uint256",
          "name": "",
          "type": "uint256"
        }
      ],
      "stateMutability": "view",
      "type": "function"
    },
    {
      "inputs": [],
      "name": "launchEndTime",
      "outputs": [
        {
          "internalType": "uint256",
          "name": "",
          "type": "uint256"
        }
      ],
      "stateMutability": "view",
      "type": "function"
    },
    {
      "inputs": [],
      "name": "launchStarted",
      "outputs": [
        {
          "internalType": "bool",
          "name": "",
          "type": "bool"
        }
      ],
      "stateMutability": "view",
      "type": "function"
    },
    {
      "inputs": [],
      "name": "maxTxAmount",
      "outputs": [
        {
          "internalType": "uint256",
          "name": "",
          "type": "uint256"
        }
      ],
      "stateMutability": "view",
      "type": "function"
    },
    {
      "inputs": [],
      "name": "maxWalletBalance",
      "outputs": [
        {
          "internalType": "uint256",
          "name": "",
          "type": "uint256"
        }
      ],
      "stateMutability": "view",
      "type": "function"
    },
    {
      "inputs": [
        {
          "internalType": "address",
          "name": "_to",
          "type": "address"
        },
        {
          "internalType": "uint256",
          "name": "_amount",
          "type": "uint256"
        }
      ],
      "name": "mint",
      "outputs": [],
      "stateMutability": "nonpayable",
      "type": "function"
    },
    {
      "inputs": [],
      "name": "name",
      "outputs": [
        {
          "internalType": "string",
          "name": "",
          "type": "string"
        }
      ],
      "stateMutability": "view",
      "type": "function"
    },
    {
      "inputs": [],
      "name": "owner",
      "outputs": [
        {
          "internalType": "address",
          "name": "",
          "type": "address"
        }
      ],
      "stateMutability": "view",
      "type": "function"
    },
    {
      "inputs": [],
      "name": "paused",
      "outputs": [
        {
          "internalType": "bool",
          "name": "",
          "type": "bool"
        }
      ],
      "stateMutability": "view",
      "type": "function"
    },
    {
      "inputs": [
        {
          "internalType": "address",
          "name": "newOwner",
          "type": "address"
        }
      ],
      "name": "proposeOwnershipTransfer",
      "outputs": [],
      "stateMutability": "nonpayable",
      "type": "function"
    },
    {
      "inputs": [],
      "name": "proposedOwner",
      "outputs": [
        {
          "internalType": "address",
          "name": "",
          "type": "address"
        }
      ],
      "stateMutability": "view",
      "type": "function"
    },
    {
      "inputs": [],
      "name": "renounceOwnership",
      "outputs": [],
      "stateMutability": "nonpayable",
      "type": "function"
    },
    {
      "inputs": [
        {
          "internalType": "uint256",
          "name": "_launchEndTime",
          "type": "uint256"
        }
      ],
      "name": "setLaunchEndTime",
      "outputs": [],
      "stateMutability": "nonpayable",
      "type": "function"
    },
    {
      "inputs": [
        {
          "internalType": "uint256",
          "name": "_maxTxAmount",
          "type": "uint256"
        }
      ],
      "name": "setMaxTxAmount",
      "outputs": [],
      "stateMutability": "nonpayable",
      "type": "function"
    },
    {
      "inputs": [
        {
          "internalType": "uint256",
          "name": "_maxWalletBalance",
          "type": "uint256"
        }
      ],
      "name": "setMaxWalletBalance",
      "outputs": [],
      "stateMutability": "nonpayable",
      "type": "function"
    },
    {
      "inputs": [],
      "name": "startLaunch",
      "outputs": [],
      "stateMutability": "nonpayable",
      "type": "function"
    },
    {
      "inputs": [],
      "name": "symbol",
      "outputs": [
        {
          "internalType": "string",
          "name": "",
          "type": "string"
        }
      ],
      "stateMutability": "view",
      "type": "function"
    },
    {
      "inputs": [],
      "name": "totalSupply",
      "outputs": [
        {
          "internalType": "uint256",
          "name": "",
          "type": "uint256"
        }
      ],
      "stateMutability": "view",
      "type": "function"
    },
    {
      "inputs": [
        {
          "internalType": "address",
          "name": "to",
          "type": "address"
        },
        {
          "internalType": "uint256",
          "name": "amount",
          "type": "uint256"
        }
      ],
      "name": "transfer",
      "outputs": [
        {
          "internalType": "bool",
          "name": "",
          "type": "bool"
        }
      ],
      "stateMutability": "nonpayable",
      "type": "function"
    },
    {
      "inputs": [
        {
          "internalType": "address",
          "name": "from",
          "type": "address"
        },
        {
          "internalType": "address",
          "name": "to",
          "type": "address"
        },
        {
          "internalType": "uint256",
          "name": "amount",
          "type": "uint256"
        }
      ],
      "name": "transferFrom",
      "outputs": [
        {
          "internalType": "bool",
          "name": "",
          "type": "bool"
        }
      ],
      "stateMutability": "nonpayable",
      "type": "function"
    },
    {
      "inputs": [
        {
          "internalType": "address",
          "name": "newOwner",
          "type": "address"
        }
      ],
      "name": "transferOwnership",
      "outputs": [],
      "stateMutability": "nonpayable",
      "type": "function"
    },
    {
      "inputs": [
        {
          "internalType": "address",
          "name": "_wallet",
          "type": "address"
        }
      ],
      "name": "unfreezeWallet",
      "outputs": [],
      "stateMutability": "nonpayable",
      "type": "function"
    },
    {
      "inputs": [],
      "name": "vestingContract",
      "outputs": [
        {
          "internalType": "contract Vesting",
          "name": "",
          "type": "address"
        }
      ],
      "stateMutability": "view",
      "type": "function"
    },
    {
      "inputs": [
        {
          "internalType": "uint256",
          "name": "",
          "type": "uint256"
        }
      ],
      "name": "voters",
      "outputs": [
        {
          "internalType": "address",
          "name": "",
          "type": "address"
        }
      ],
      "stateMutability": "view",
      "type": "function"
    },
    {
      "inputs": [
        {
          "internalType": "address",
          "name": "",
          "type": "address"
        }
      ],
      "name": "whitelist",
      "outputs": [
        {
          "internalType": "bool",
          "name": "",
          "type": "bool"
        }
      ],
      "stateMutability": "view",
      "type": "function"
    }
  ],
  "bytecode": "0x608060405234801561001057600080fd5b50613493806100206000396000f3fe608060405234801561001057600080fd5b50600436106102de5760003560e01c806385be583f11610186578063bc93233f116100e3578063dbac26e911610097578063ec28438a11610071578063ec28438a14610609578063f2fde38b1461061c578063faeec7e81461062f57600080fd5b8063dbac26e9146105a2578063dd62ed3e146105c6578063e0e7e29b146105ff57600080fd5b8063c215290a116100c8578063c215290a1461055b578063d153b60c1461057c578063da58c7d91461058f57600080fd5b8063bc93233f14610540578063bf41c2a41461055357600080fd5b80639b19251a1161013a578063a8813a231161011f578063a8813a2314610511578063a9059cbb14610524578063bbde77c11461053757600080fd5b80639b19251a146104da578063a457c2d7146104fe57600080fd5b80638c0b5e221161016b5780638c0b5e22146104b85780638da5cb5b146104c157806395d89b41146104d257600080fd5b806385be583f146104975780638a7701b7146104aa57600080fd5b806340c10f191161023f5780635e6f6045116101f3578063715018a6116101cd578063715018a61461046957806379cc6790146104715780637ace48e71461048457600080fd5b80635e6f60451461040157806360f588b71461042d57806370a082311461044057600080fd5b806349a433a21161022457806349a433a2146103e457806359a945e9146103ee5780635c975abb146103f657600080fd5b806340c10f19146103be57806342966c68146103d157600080fd5b806323452b9c11610296578063313ce5671161027b578063313ce5671461038957806339509351146103985780633a9e00de146103ab57600080fd5b806323452b9c1461036e57806323b872dd1461037657600080fd5b806309eef43e116102c757806309eef43e1461032457806318160ddd1461034757806321040fc31461035957600080fd5b806306fdde03146102e3578063095ea7b314610301575b600080fd5b6102eb610642565b6040516102f89190612078565b60405180910390f35b61031461030f3660046120e2565b6106d4565b60405190151581526020016102f8565b61031461033236600461210c565b60fd6020526000908152604090205460ff1681565b6035545b6040519081526020016102f8565b61036c61036736600461210c565b6106ee565b005b61036c61079b565b61031461038436600461212e565b610822565b604051601281526020016102f8565b6103146103a63660046120e2565b610846565b61036c6103b936600461216a565b610885565b61036c6103cc3660046120e2565b610908565b61036c6103df36600461216a565b610961565b61034b6101025481565b61036c61096b565b60c95460ff16610314565b61010054610415906001600160a01b031681565b6040516001600160a01b0390911681526020016102f8565b61036c61043b36600461210c565b6109d7565b61034b61044e36600461210c565b6001600160a01b031660009081526033602052604090205490565b61036c610a88565b61036c61047f3660046120e2565b610a9c565b61036c610492366004612193565b610ab5565b61036c6104a53660046120e2565b610c2b565b610103546103149060ff1681565b61034b60fe5481565b6065546001600160a01b0316610415565b6102eb610cf1565b6103146104e836600461210c565b6101046020526000908152604090205460ff1681565b61031461050c3660046120e2565b610d00565b61036c61051f366004612265565b610daa565b6103146105323660046120e2565b610ff7565b61034b60ff5481565b61036c61054e36600461237c565b611005565b61036c611066565b61034b61056936600461210c565b6101066020526000908152604090205481565b60fb54610415906001600160a01b031681565b61041561059d36600461216a565b611289565b6103146105b036600461210c565b6101056020526000908152604090205460ff1681565b61034b6105d43660046123af565b6001600160a01b03918216600090815260346020908152604080832093909416825291909152205490565b61034b6101015481565b61036c61061736600461216a565b6112b3565b61036c61062a36600461210c565b611336565b61036c61063d36600461216a565b6113ac565b606060368054610651906123d9565b80601f016020809104026020016040519081016040528092919081815260200182805461067d906123d9565b80156106ca5780601f1061069f576101008083540402835291602001916106ca565b820191906000526020600020905b8154815290600101906020018083116106ad57829003601f168201915b5050505050905090565b6000336106e2818585611483565b60019150505b92915050565b6106f66115dc565b6001600160a01b0381166107515760405162461bcd60e51b815260206004820181905260248201527f4e6577206f776e65722063616e6e6f74206265207a65726f206164647265737360448201526064015b60405180910390fd5b60fb80546001600160a01b0319166001600160a01b0383169081179091556040517ff0c6916d81cd1f899264b5193e3bbe7afd2bcc3d05704bab73d0b8ac9387115890600090a250565b6107a36115dc565b60fb80546001600160a01b031916905560005b60fc5481101561081f57600060fd600060fc84815481106107d9576107d9612413565b6000918252602080832091909101546001600160a01b031683528201929092526040019020805460ff1916911515919091179055806108178161243f565b9150506107b6565b50565b600033610830858285611636565b61083b8585856116c8565b506001949350505050565b3360008181526034602090815260408083206001600160a01b03871684529091528120549091906106e29082908690610880908790612458565b611483565b61088d6115dc565b600081116109035760405162461bcd60e51b815260206004820152602c60248201527f4d61782077616c6c65742062616c616e6365206d75737420626520677265617460448201527f6572207468616e207a65726f00000000000000000000000000000000000000006064820152608401610748565b60ff55565b6109106115dc565b61091a82826118af565b816001600160a01b03167f0f6798a560793a54c3bcfe86a93cde1e73087d944c0ea20544137d41213968858260405161095591815260200190565b60405180910390a25050565b61081f338261197c565b6109736115dc565b6101035460ff16156109c75760405162461bcd60e51b815260206004820152601a60248201527f4c61756e63682068617320616c726561647920737461727465640000000000006044820152606401610748565b610103805460ff19166001179055565b6109df6115dc565b6001600160a01b038116610a435760405162461bcd60e51b815260206004820152602560248201527f57616c6c657420616464726573732063616e6e6f74206265207a65726f206164604482015264647265737360d81b6064820152608401610748565b6001600160a01b03811660008181526101066020526040808220829055517fd247131fabb99dc3ba793524f53f05a77eeef38f12b30119655ee340810b12109190a250565b610a906115dc565b610a9a6000611af0565b565b610aa7823383611636565b610ab1828261197c565b5050565b610abe33611b42565b610b0a5760405162461bcd60e51b815260206004820152601160248201527f4e6f7420612076616c696420766f7465720000000000000000000000000000006044820152606401610748565b33600090815260fd602052604090205460ff1615610b6a5760405162461bcd60e51b815260206004820152600d60248201527f416c726561647920766f746564000000000000000000000000000000000000006044820152606401610748565b60c95460ff161580610b8657506065546001600160a01b031633145b610bd25760405162461bcd60e51b815260206004820152601260248201527f436f6e74726163742069732070617573656400000000000000000000000000006044820152606401610748565b33600081815260fd602052604090819020805460ff19166001179055517fa4861c5510bfa99706ed508d728f9c6b365ff27af1a3012e21980952ad2d844f90610c2090841515815260200190565b60405180910390a250565b610c336115dc565b6001600160a01b038216610c975760405162461bcd60e51b815260206004820152602560248201527f57616c6c657420616464726573732063616e6e6f74206265207a65726f206164604482015264647265737360d81b6064820152608401610748565b610ca18142612458565b6001600160a01b03831660008181526101066020526040908190209290925590517fb161c4aa40cd54b43336c4b57f33a7308a27aa65d081c1aafacc49b51002659d906109559084815260200190565b606060378054610651906123d9565b3360008181526034602090815260408083206001600160a01b038716845290915281205490919083811015610d9d5760405162461bcd60e51b815260206004820152602560248201527f45524332303a2064656372656173656420616c6c6f77616e63652062656c6f7760448201527f207a65726f0000000000000000000000000000000000000000000000000000006064820152608401610748565b61083b8286868403611483565b600054610100900460ff1615808015610dca5750600054600160ff909116105b80610de45750303b158015610de4575060005460ff166001145b610e565760405162461bcd60e51b815260206004820152602e60248201527f496e697469616c697a61626c653a20636f6e747261637420697320616c72656160448201527f647920696e697469616c697a65640000000000000000000000000000000000006064820152608401610748565b6000805460ff191660011790558015610e79576000805461ff0019166101001790555b610e838888611bab565b610e8b611c20565b610e9d84670de0b6b3a764000061246b565b60fe55610eb283670de0b6b3a764000061246b565b60ff5560005b8551811015610f225760fc868281518110610ed557610ed5612413565b60209081029190910181015182546001810184556000938452919092200180546001600160a01b0319166001600160a01b0390921691909117905580610f1a8161243f565b915050610eb8565b50604051610f2f9061206b565b604051809103906000f080158015610f4b573d6000803e3d6000fd5b5061010080546001600160a01b0319166001600160a01b0392909216919091179055610f8833610f8388670de0b6b3a764000061246b565b6118af565b610101829055610f988242612458565b61010255610103805460ff191690558015610fed576000805461ff0019169055604051600181527f7f26b83ff96e1f2b6a682f133852f6798a09c465da95921460cefb38474024989060200160405180910390a15b5050505050505050565b6000336106e28185856116c8565b61100d6115dc565b6001600160a01b03821660008181526101046020908152604091829020805460ff191685151590811790915591519182527ff93f9a76c1bf3444d22400a00cb9fe990e6abe9dbb333fda48859cfee864543d9101610955565b61106e6115dc565b60c95460ff16158061108a57506065546001600160a01b031633145b6110d65760405162461bcd60e51b815260206004820152601260248201527f436f6e74726163742069732070617573656400000000000000000000000000006044820152606401610748565b60fc54600090815b8181101561114a5760fd600060fc83815481106110fd576110fd612413565b60009182526020808320909101546001600160a01b0316835282019290925260400190205460ff161561113857826111348161243f565b9350505b806111428161243f565b9150506110de565b508181148061119b5760405162461bcd60e51b815260206004820152601660248201527f496e73756666696369656e7420617070726f76616c73000000000000000000006044820152606401610748565b60006111af6065546001600160a01b031690565b60fb549091506001600160a01b03166111c781611336565b60fb80546001600160a01b031916905560005b8481101561124157600060fd600060fc84815481106111fb576111fb612413565b6000918252602080832091909101546001600160a01b031683528201929092526040019020805460ff1916911515919091179055806112398161243f565b9150506111da565b50806001600160a01b0316826001600160a01b03167f8be0079c531659141344cd1fd0a4f28419497f9722a3daafe3b4186f6b6457e060405160405180910390a35050505050565b60fc818154811061129957600080fd5b6000918252602090912001546001600160a01b0316905081565b6112bb6115dc565b600081116113315760405162461bcd60e51b815260206004820152603060248201527f4d6178207472616e73616374696f6e20616d6f756e74206d757374206265206760448201527f726561746572207468616e207a65726f000000000000000000000000000000006064820152608401610748565b60fe55565b61133e6115dc565b60405162461bcd60e51b815260206004820152602760248201527f506c656173652043616c6c2046696e616c697a65205472616e73666572204f7760448201527f6e657273686970000000000000000000000000000000000000000000000000006064820152608401610748565b6113b46115dc565b6101035460ff16156114085760405162461bcd60e51b815260206004820152601a60248201527f4c61756e63682068617320616c726561647920737461727465640000000000006044820152606401610748565b42811161147d5760405162461bcd60e51b815260206004820152602560248201527f4c61756e636820656e642074696d65206d75737420626520696e20746865206660448201527f75747572650000000000000000000000000000000000000000000000000000006064820152608401610748565b61010255565b6001600160a01b0383166114fe5760405162461bcd60e51b8152602060048201526024808201527f45524332303a20617070726f76652066726f6d20746865207a65726f2061646460448201527f72657373000000000000000000000000000000000000000000000000000000006064820152608401610748565b6001600160a01b03821661157a5760405162461bcd60e51b815260206004820152602260248201527f45524332303a20617070726f766520746f20746865207a65726f20616464726560448201527f73730000000000000000000000000000000000000000000000000000000000006064820152608401610748565b6001600160a01b0383811660008181526034602090815260408083209487168084529482529182902085905590518481527f8c5be1e5ebec7d5bd14f71427d1e84f3dd0314c0f7b2291e5b200ac8c7c3b92591015b60405180910390a3505050565b6065546001600160a01b03163314610a9a5760405162461bcd60e51b815260206004820181905260248201527f4f776e61626c653a2063616c6c6572206973206e6f7420746865206f776e65726044820152606401610748565b6001600160a01b0383811660009081526034602090815260408083209386168352929052205460001981146116c257818110156116b55760405162461bcd60e51b815260206004820152601d60248201527f45524332303a20696e73756666696369656e7420616c6c6f77616e63650000006044820152606401610748565b6116c28484848403611483565b50505050565b6001600160a01b03831661172c5760405162461bcd60e51b815260206004820152602560248201527f45524332303a207472616e736665722066726f6d20746865207a65726f206164604482015264647265737360d81b6064820152608401610748565b6001600160a01b0382166117a85760405162461bcd60e51b815260206004820152602360248201527f45524332303a207472616e7366657220746f20746865207a65726f206164647260448201527f65737300000000000000000000000000000000000000000000000000000000006064820152608401610748565b6117b3838383611c93565b6001600160a01b038316600090815260336020526040902054818110156118425760405162461bcd60e51b815260206004820152602660248201527f45524332303a207472616e7366657220616d6f756e742065786365656473206260448201527f616c616e636500000000000000000000000000000000000000000000000000006064820152608401610748565b6001600160a01b0380851660008181526033602052604080822086860390559286168082529083902080548601905591517fddf252ad1be2c89b69c2b068fc378daa952ba7f163c4a11628f55a4df523b3ef906118a29086815260200190565b60405180910390a36116c2565b6001600160a01b0382166119055760405162461bcd60e51b815260206004820152601f60248201527f45524332303a206d696e7420746f20746865207a65726f2061646472657373006044820152606401610748565b61191160008383611c93565b80603560008282546119239190612458565b90915550506001600160a01b0382166000818152603360209081526040808320805486019055518481527fddf252ad1be2c89b69c2b068fc378daa952ba7f163c4a11628f55a4df523b3ef910160405180910390a35050565b6001600160a01b0382166119f85760405162461bcd60e51b815260206004820152602160248201527f45524332303a206275726e2066726f6d20746865207a65726f2061646472657360448201527f73000000000000000000000000000000000000000000000000000000000000006064820152608401610748565b611a0482600083611c93565b6001600160a01b03821660009081526033602052604090205481811015611a935760405162461bcd60e51b815260206004820152602260248201527f45524332303a206275726e20616d6f756e7420657863656564732062616c616e60448201527f63650000000000000000000000000000000000000000000000000000000000006064820152608401610748565b6001600160a01b03831660008181526033602090815260408083208686039055603580548790039055518581529192917fddf252ad1be2c89b69c2b068fc378daa952ba7f163c4a11628f55a4df523b3ef91016115cf565b505050565b606580546001600160a01b038381166001600160a01b0319831681179093556040519116919082907f8be0079c531659141344cd1fd0a4f28419497f9722a3daafe3b4186f6b6457e090600090a35050565b6000805b60fc54811015611ba257826001600160a01b031660fc8281548110611b6d57611b6d612413565b6000918252602090912001546001600160a01b031603611b905750600192915050565b80611b9a8161243f565b915050611b46565b50600092915050565b600054610100900460ff16611c165760405162461bcd60e51b815260206004820152602b60248201527f496e697469616c697a61626c653a20636f6e7472616374206973206e6f74206960448201526a6e697469616c697a696e6760a81b6064820152608401610748565b610ab18282611f73565b600054610100900460ff16611c8b5760405162461bcd60e51b815260206004820152602b60248201527f496e697469616c697a61626c653a20636f6e7472616374206973206e6f74206960448201526a6e697469616c697a696e6760a81b6064820152608401610748565b610a9a611ff7565b60c95460ff161580611caf57506065546001600160a01b031633145b611cfb5760405162461bcd60e51b815260206004820152601260248201527f436f6e74726163742069732070617573656400000000000000000000000000006044820152606401610748565b6001600160a01b038316600090815261010660205260409020548390421015611d665760405162461bcd60e51b815260206004820152601060248201527f57616c6c65742069732066726f7a656e000000000000000000000000000000006044820152606401610748565b6001600160a01b03841660009081526101056020526040902054849060ff1615611dd25760405162461bcd60e51b815260206004820152601660248201527f4164647265737320697320626c61636b6c6973746564000000000000000000006044820152606401610748565b6101035460ff168015611de757506101025442115b80611dfc57506065546001600160a01b031633145b611e485760405162461bcd60e51b815260206004820152601760248201527f4c61756e6368206973207374696c6c206f6e676f696e670000000000000000006044820152606401610748565b6065546001600160a01b03868116911614801590611e7457506065546001600160a01b03858116911614155b15611f6c5760fe54831115611ef15760405162461bcd60e51b815260206004820152602260248201527f45786365656473206d6178696d756d207472616e73616374696f6e20616d6f7560448201527f6e740000000000000000000000000000000000000000000000000000000000006064820152608401610748565b60ff5483611f14866001600160a01b031660009081526033602052604090205490565b611f1e9190612458565b1115611f6c5760405162461bcd60e51b815260206004820152601e60248201527f45786365656473206d6178696d756d2077616c6c65742062616c616e636500006044820152606401610748565b5050505050565b600054610100900460ff16611fde5760405162461bcd60e51b815260206004820152602b60248201527f496e697469616c697a61626c653a20636f6e7472616374206973206e6f74206960448201526a6e697469616c697a696e6760a81b6064820152608401610748565b6036611fea83826124d0565b506037611aeb82826124d0565b600054610100900460ff166120625760405162461bcd60e51b815260206004820152602b60248201527f496e697469616c697a61626c653a20636f6e7472616374206973206e6f74206960448201526a6e697469616c697a696e6760a81b6064820152608401610748565b610a9a33611af0565b610ecd8061259183390190565b600060208083528351808285015260005b818110156120a557858101830151858201604001528201612089565b506000604082860101526040601f19601f8301168501019250505092915050565b80356001600160a01b03811681146120dd57600080fd5b919050565b600080604083850312156120f557600080fd5b6120fe836120c6565b946020939093013593505050565b60006020828403121561211e57600080fd5b612127826120c6565b9392505050565b60008060006060848603121561214357600080fd5b61214c846120c6565b925061215a602085016120c6565b9150604084013590509250925092565b60006020828403121561217c57600080fd5b5035919050565b803580151581146120dd57600080fd5b6000602082840312156121a557600080fd5b61212782612183565b634e487b7160e01b600052604160045260246000fd5b604051601f8201601f1916810167ffffffffffffffff811182821017156121ed576121ed6121ae565b604052919050565b600082601f83011261220657600080fd5b813567ffffffffffffffff811115612220576122206121ae565b612233601f8201601f19166020016121c4565b81815284602083860101111561224857600080fd5b816020850160208301376000918101602001919091529392505050565b600080600080600080600060e0888a03121561228057600080fd5b873567ffffffffffffffff8082111561229857600080fd5b6122a48b838c016121f5565b985060209150818a0135818111156122bb57600080fd5b6122c78c828d016121f5565b98505060408a0135965060608a0135818111156122e357600080fd5b8a01601f81018c136122f457600080fd5b803582811115612306576123066121ae565b8060051b92506123178484016121c4565b818152928201840192848101908e85111561233157600080fd5b928501925b8484101561235657612347846120c6565b82529285019290850190612336565b9b9e9a9d50989b60808101359a60a08201359a5060c09091013598509650505050505050565b6000806040838503121561238f57600080fd5b612398836120c6565b91506123a660208401612183565b90509250929050565b600080604083850312156123c257600080fd5b6123cb836120c6565b91506123a6602084016120c6565b600181811c908216806123ed57607f821691505b60208210810361240d57634e487b7160e01b600052602260045260246000fd5b50919050565b634e487b7160e01b600052603260045260246000fd5b634e487b7160e01b600052601160045260246000fd5b60006001820161245157612451612429565b5060010190565b808201808211156106e8576106e8612429565b80820281158282048414176106e8576106e8612429565b601f821115611aeb57600081815260208120601f850160051c810160208610156124a95750805b601f850160051c820191505b818110156124c8578281556001016124b5565b505050505050565b815167ffffffffffffffff8111156124ea576124ea6121ae565b6124fe816124f884546123d9565b84612482565b602080601f831160018114612533576000841561251b5750858301515b600019600386901b1c1916600185901b1785556124c8565b600085815260208120601f198616915b8281101561256257888601518255948401946001909101908401612543565b50858210156125805787850151600019600388901b60f8161c191681555b5050505050600190811b0190555056fe608060405234801561001057600080fd5b50610ead806100206000396000f3fe608060405234801561001057600080fd5b50600436106100be5760003560e01c8063913b722c11610076578063c4d66de81161005b578063c4d66de814610191578063e545f941146101a4578063f2fde38b146101b757600080fd5b8063913b722c1461015c5780639852595c1461017157600080fd5b80633ec1a1d3116100a75780633ec1a1d3146100fe578063715018a6146101395780638da5cb5b1461014157600080fd5b80631726cbc8146100c35780633b5389c1146100e9575b600080fd5b6100d66100d1366004610ce9565b6101ca565b6040519081526020015b60405180910390f35b6100fc6100f7366004610d04565b61031f565b005b61012961010c366004610ce9565b6001600160a01b03166000908152606d6020526040902054151590565b60405190151581526020016100e0565b6100fc610510565b6033546040516001600160a01b0390911681526020016100e0565b610164610524565b6040516100e09190610d4e565b6100d661017f366004610ce9565b606d6020526000908152604090205481565b6100fc61019f366004610ce9565b6105d4565b6100fc6101b2366004610ce9565b61071d565b6100fc6101c5366004610ce9565b61097e565b60006101d7606683610a0e565b6101e357506000919050565b6001600160a01b0382166000908152606a6020908152604080832054606990925282205461021091610a35565b9050804210156102235750600092915050565b6001600160a01b0383166000908152606b602090815260408083205460699092529091205461025191610a35565b421061028c576001600160a01b0383166000908152606d602090815260408083205460689092529091205461028591610a41565b9392505050565b6001600160a01b0383166000908152606960205260408120546102b0904290610a41565b6001600160a01b0385166000908152606b60209081526040808320546068909252822054929350916102ee9083906102e89086610a4d565b90610a59565b6001600160a01b0387166000908152606d6020526040902054909150610315908290610a41565b9695505050505050565b610327610a65565b6001600160a01b0386166103825760405162461bcd60e51b815260206004820152601b60248201527f496e76616c69642062656e65666963696172792061646472657373000000000060448201526064015b60405180910390fd5b61038d606687610a0e565b156103da5760405162461bcd60e51b815260206004820152601d60248201527f42656e656669636961727920616c7265616479207363686564756c65640000006044820152606401610379565b6000851161042a5760405162461bcd60e51b815260206004820152601660248201527f496e76616c69642076657374696e6720616d6f756e74000000000000000000006044820152606401610379565b6000821161047a5760405162461bcd60e51b815260206004820152601860248201527f496e76616c69642076657374696e67206475726174696f6e00000000000000006044820152606401610379565b610485606687610abf565b506001600160a01b038616600081815260686020908152604080832089905560698252808320889055606a8252808320879055606b8252918290208590558151888152908101879052908101859052606081018490527f9e4cec1a840731c8ab1859162c59c2e439561d8eff126dc15191d31adb5d20959060800160405180910390a2505050505050565b610518610a65565b6105226000610ad4565b565b606060006105326066610b33565b905060008167ffffffffffffffff81111561054f5761054f610d9b565b604051908082528060200260200182016040528015610578578160200160208202803683370190505b50905060005b828110156105cd57610591606682610b3d565b8282815181106105a3576105a3610db1565b6001600160a01b0390921660209283029190910190910152806105c581610ddd565b91505061057e565b5092915050565b600054610100900460ff16158080156105f45750600054600160ff909116105b8061060e5750303b15801561060e575060005460ff166001145b6106805760405162461bcd60e51b815260206004820152602e60248201527f496e697469616c697a61626c653a20636f6e747261637420697320616c72656160448201527f647920696e697469616c697a65640000000000000000000000000000000000006064820152608401610379565b6000805460ff1916600117905580156106a3576000805461ff0019166101001790555b6106ab610b49565b6065805473ffffffffffffffffffffffffffffffffffffffff19166001600160a01b0384161790558015610719576000805461ff0019169055604051600181527f7f26b83ff96e1f2b6a682f133852f6798a09c465da95921460cefb38474024989060200160405180910390a15b5050565b610725610a65565b610730606682610a0e565b61077c5760405162461bcd60e51b815260206004820152601960248201527f42656e6566696369617279206e6f74207363686564756c6564000000000000006044820152606401610379565b6001600160a01b0381166000908152606d6020526040902054156107e25760405162461bcd60e51b815260206004820152601760248201527f546f6b656e7320616c72656164792072656c65617365640000000000000000006044820152606401610379565b60006107ed826101ca565b90506000811161083f5760405162461bcd60e51b815260206004820152601460248201527f4e6f20746f6b656e7320746f2072656c656173650000000000000000000000006044820152606401610379565b6001600160a01b0382166000908152606d60205260409020546108629082610a35565b6001600160a01b0383166000908152606d6020908152604080832093909355606c905220546108919082610a35565b6001600160a01b038381166000818152606c6020526040908190209390935560655492517fa9059cbb00000000000000000000000000000000000000000000000000000000815260048101919091526024810184905291169063a9059cbb906044016020604051808303816000875af1158015610912573d6000803e3d6000fd5b505050506040513d601f19601f820116820180604052508101906109369190610df6565b50816001600160a01b03167fc7798891864187665ac6dd119286e44ec13f014527aeeb2b8eb3fd413df931798260405161097291815260200190565b60405180910390a25050565b610986610a65565b6001600160a01b038116610a025760405162461bcd60e51b815260206004820152602660248201527f4f776e61626c653a206e6577206f776e657220697320746865207a65726f206160448201527f64647265737300000000000000000000000000000000000000000000000000006064820152608401610379565b610a0b81610ad4565b50565b6001600160a01b038116600090815260018301602052604081205415155b90505b92915050565b6000610a2c8284610e18565b6000610a2c8284610e2b565b6000610a2c8284610e3e565b6000610a2c8284610e55565b6033546001600160a01b031633146105225760405162461bcd60e51b815260206004820181905260248201527f4f776e61626c653a2063616c6c6572206973206e6f7420746865206f776e65726044820152606401610379565b6000610a2c836001600160a01b038416610bce565b603380546001600160a01b0383811673ffffffffffffffffffffffffffffffffffffffff19831681179093556040519116919082907f8be0079c531659141344cd1fd0a4f28419497f9722a3daafe3b4186f6b6457e090600090a35050565b6000610a2f825490565b6000610a2c8383610c1d565b600054610100900460ff16610bc65760405162461bcd60e51b815260206004820152602b60248201527f496e697469616c697a61626c653a20636f6e7472616374206973206e6f74206960448201527f6e697469616c697a696e670000000000000000000000000000000000000000006064820152608401610379565b610522610c47565b6000818152600183016020526040812054610c1557508154600181810184556000848152602080822090930184905584548482528286019093526040902091909155610a2f565b506000610a2f565b6000826000018281548110610c3457610c34610db1565b9060005260206000200154905092915050565b600054610100900460ff16610cc45760405162461bcd60e51b815260206004820152602b60248201527f496e697469616c697a61626c653a20636f6e7472616374206973206e6f74206960448201527f6e697469616c697a696e670000000000000000000000000000000000000000006064820152608401610379565b61052233610ad4565b80356001600160a01b0381168114610ce457600080fd5b919050565b600060208284031215610cfb57600080fd5b610a2c82610ccd565b60008060008060008060c08789031215610d1d57600080fd5b610d2687610ccd565b9860208801359850604088013597606081013597506080810135965060a00135945092505050565b6020808252825182820181905260009190848201906040850190845b81811015610d8f5783516001600160a01b031683529284019291840191600101610d6a565b50909695505050505050565b634e487b7160e01b600052604160045260246000fd5b634e487b7160e01b600052603260045260246000fd5b634e487b7160e01b600052601160045260246000fd5b600060018201610def57610def610dc7565b5060010190565b600060208284031215610e0857600080fd5b8151801515811461028557600080fd5b80820180821115610a2f57610a2f610dc7565b81810381811115610a2f57610a2f610dc7565b8082028115828204841417610a2f57610a2f610dc7565b600082610e7257634e487b7160e01b600052601260045260246000fd5b50049056fea2646970667358221220ed5819e401ec9d65774e518df660641f48948a439ff4c3a3fb5c2ce44d3ba82864736f6c63430008130033a26469706673582212200c64f23a065806e55fcf58419b4e3fb6173529156e3afeae76aef4e48dab020164736f6c63430008130033",
  "linkReferences": {},
  "deployedLinkReferences": {}
}