{
  "_format": "hh-sol-artifact-1",
  "contractName": "Vesting",
  "sourceName": "contracts/vesting.sol",
  "abi": [
    {
      "anonymous": false,
      "inputs": [
        {
          "indexed": false,
          "internalType": "uint8",
          "name": "version",
          "type": "uint8"
        }
      ],
      "name": "Initialized",
      "type": "event"
    },
    {
      "anonymous": false,
      "inputs": [
        {
          "indexed": true,
          "internalType": "address",
          "name": "previousOwner",
          "type": "address"
        },
        {
          "indexed": true,
          "internalType": "address",
          "name": "newOwner",
          "type": "address"
        }
      ],
      "name": "OwnershipTransferred",
      "type": "event"
    },
    {
      "anonymous": false,
      "inputs": [
        {
          "indexed": true,
          "internalType": "address",
          "name": "beneficiary",
          "type": "address"
        },
        {
          "indexed": false,
          "internalType": "uint256",
          "name": "amount",
          "type": "uint256"
        }
      ],
      "name": "TokensReleased",
      "type": "event"
    },
    {
      "anonymous": false,
      "inputs": [
        {
          "indexed": true,
          "internalType": "address",
          "name": "beneficiary",
          "type": "address"
        },
        {
          "indexed": false,
          "internalType": "uint256",
          "name": "amount",
          "type": "uint256"
        },
        {
          "indexed": false,
          "internalType": "uint256",
          "name": "startTime",
          "type": "uint256"
        },
        {
          "indexed": false,
          "internalType": "uint256",
          "name": "cliffDuration",
          "type": "uint256"
        },
        {
          "indexed": false,
          "internalType": "uint256",
          "name": "vestingDuration",
          "type": "uint256"
        }
      ],
      "name": "VestingScheduled",
      "type": "event"
    },
    {
      "inputs": [],
      "name": "getBeneficiaries",
      "outputs": [
        {
          "internalType": "address[]",
          "name": "",
          "type": "address[]"
        }
      ],
      "stateMutability": "view",
      "type": "function"
    },
    {
      "inputs": [
        {
          "internalType": "address",
          "name": "_beneficiary",
          "type": "address"
        }
      ],
      "name": "hasReleased",
      "outputs": [
        {
          "internalType": "bool",
          "name": "",
          "type": "bool"
        }
      ],
      "stateMutability": "view",
      "type": "function"
    },
    {
      "inputs": [
        {
          "internalType": "address",
          "name": "_token",
          "type": "address"
        }
      ],
      "name": "initialize",
      "outputs": [],
      "stateMutability": "nonpayable",
      "type": "function"
    },
    {
      "inputs": [],
      "name": "owner",
      "outputs": [
        {
          "internalType": "address",
          "name": "",
          "type": "address"
        }
      ],
      "stateMutability": "view",
      "type": "function"
    },
    {
      "inputs": [
        {
          "internalType": "address",
          "name": "_beneficiary",
          "type": "address"
        }
      ],
      "name": "releasableAmount",
      "outputs": [
        {
          "internalType": "uint256",
          "name": "",
          "type": "uint256"
        }
      ],
      "stateMutability": "view",
      "type": "function"
    },
    {
      "inputs": [
        {
          "internalType": "address",
          "name": "_beneficiary",
          "type": "address"
        }
      ],
      "name": "releaseToken",
      "outputs": [],
      "stateMutability": "nonpayable",
      "type": "function"
    },
    {
      "inputs": [
        {
          "internalType": "address",
          "name": "",
          "type": "address"
        }
      ],
      "name": "released",
      "outputs": [
        {
          "internalType": "uint256",
          "name": "",
          "type": "uint256"
        }
      ],
      "stateMutability": "view",
      "type": "function"
    },
    {
      "inputs": [],
      "name": "renounceOwnership",
      "outputs": [],
      "stateMutability": "nonpayable",
      "type": "function"
    },
    {
      "inputs": [
        {
          "internalType": "address",
          "name": "_beneficiary",
          "type": "address"
        },
        {
          "internalType": "uint256",
          "name": "_amount",
          "type": "uint256"
        },
        {
          "internalType": "uint256",
          "name": "_startTime",
          "type": "uint256"
        },
        {
          "internalType": "uint256",
          "name": "_cliffDuration",
          "type": "uint256"
        },
        {
          "internalType": "uint256",
          "name": "_vestingDuration",
          "type": "uint256"
        },
        {
          "internalType": "uint256",
          "name": "totalReceived",
          "type": "uint256"
        }
      ],
      "name": "scheduleVesting",
      "outputs": [],
      "stateMutability": "nonpayable",
      "type": "function"
    },
    {
      "inputs": [
        {
          "internalType": "address",
          "name": "newOwner",
          "type": "address"
        }
      ],
      "name": "transferOwnership",
      "outputs": [],
      "stateMutability": "nonpayable",
      "type": "function"
    }
  ],
  "bytecode": "0x608060405234801561001057600080fd5b50610ead806100206000396000f3fe608060405234801561001057600080fd5b50600436106100be5760003560e01c8063913b722c11610076578063c4d66de81161005b578063c4d66de814610191578063e545f941146101a4578063f2fde38b146101b757600080fd5b8063913b722c1461015c5780639852595c1461017157600080fd5b80633ec1a1d3116100a75780633ec1a1d3146100fe578063715018a6146101395780638da5cb5b1461014157600080fd5b80631726cbc8146100c35780633b5389c1146100e9575b600080fd5b6100d66100d1366004610ce9565b6101ca565b6040519081526020015b60405180910390f35b6100fc6100f7366004610d04565b61031f565b005b61012961010c366004610ce9565b6001600160a01b03166000908152606d6020526040902054151590565b60405190151581526020016100e0565b6100fc610510565b6033546040516001600160a01b0390911681526020016100e0565b610164610524565b6040516100e09190610d4e565b6100d661017f366004610ce9565b606d6020526000908152604090205481565b6100fc61019f366004610ce9565b6105d4565b6100fc6101b2366004610ce9565b61071d565b6100fc6101c5366004610ce9565b61097e565b60006101d7606683610a0e565b6101e357506000919050565b6001600160a01b0382166000908152606a6020908152604080832054606990925282205461021091610a35565b9050804210156102235750600092915050565b6001600160a01b0383166000908152606b602090815260408083205460699092529091205461025191610a35565b421061028c576001600160a01b0383166000908152606d602090815260408083205460689092529091205461028591610a41565b9392505050565b6001600160a01b0383166000908152606960205260408120546102b0904290610a41565b6001600160a01b0385166000908152606b60209081526040808320546068909252822054929350916102ee9083906102e89086610a4d565b90610a59565b6001600160a01b0387166000908152606d6020526040902054909150610315908290610a41565b9695505050505050565b610327610a65565b6001600160a01b0386166103825760405162461bcd60e51b815260206004820152601b60248201527f496e76616c69642062656e65666963696172792061646472657373000000000060448201526064015b60405180910390fd5b61038d606687610a0e565b156103da5760405162461bcd60e51b815260206004820152601d60248201527f42656e656669636961727920616c7265616479207363686564756c65640000006044820152606401610379565b6000851161042a5760405162461bcd60e51b815260206004820152601660248201527f496e76616c69642076657374696e6720616d6f756e74000000000000000000006044820152606401610379565b6000821161047a5760405162461bcd60e51b815260206004820152601860248201527f496e76616c69642076657374696e67206475726174696f6e00000000000000006044820152606401610379565b610485606687610abf565b506001600160a01b038616600081815260686020908152604080832089905560698252808320889055606a8252808320879055606b8252918290208590558151888152908101879052908101859052606081018490527f9e4cec1a840731c8ab1859162c59c2e439561d8eff126dc15191d31adb5d20959060800160405180910390a2505050505050565b610518610a65565b6105226000610ad4565b565b606060006105326066610b33565b905060008167ffffffffffffffff81111561054f5761054f610d9b565b604051908082528060200260200182016040528015610578578160200160208202803683370190505b50905060005b828110156105cd57610591606682610b3d565b8282815181106105a3576105a3610db1565b6001600160a01b0390921660209283029190910190910152806105c581610ddd565b91505061057e565b5092915050565b600054610100900460ff16158080156105f45750600054600160ff909116105b8061060e5750303b15801561060e575060005460ff166001145b6106805760405162461bcd60e51b815260206004820152602e60248201527f496e697469616c697a61626c653a20636f6e747261637420697320616c72656160448201527f647920696e697469616c697a65640000000000000000000000000000000000006064820152608401610379565b6000805460ff1916600117905580156106a3576000805461ff0019166101001790555b6106ab610b49565b6065805473ffffffffffffffffffffffffffffffffffffffff19166001600160a01b0384161790558015610719576000805461ff0019169055604051600181527f7f26b83ff96e1f2b6a682f133852f6798a09c465da95921460cefb38474024989060200160405180910390a15b5050565b610725610a65565b610730606682610a0e565b61077c5760405162461bcd60e51b815260206004820152601960248201527f42656e6566696369617279206e6f74207363686564756c6564000000000000006044820152606401610379565b6001600160a01b0381166000908152606d6020526040902054156107e25760405162461bcd60e51b815260206004820152601760248201527f546f6b656e7320616c72656164792072656c65617365640000000000000000006044820152606401610379565b60006107ed826101ca565b90506000811161083f5760405162461bcd60e51b815260206004820152601460248201527f4e6f20746f6b656e7320746f2072656c656173650000000000000000000000006044820152606401610379565b6001600160a01b0382166000908152606d60205260409020546108629082610a35565b6001600160a01b0383166000908152606d6020908152604080832093909355606c905220546108919082610a35565b6001600160a01b038381166000818152606c6020526040908190209390935560655492517fa9059cbb00000000000000000000000000000000000000000000000000000000815260048101919091526024810184905291169063a9059cbb906044016020604051808303816000875af1158015610912573d6000803e3d6000fd5b505050506040513d601f19601f820116820180604052508101906109369190610df6565b50816001600160a01b03167fc7798891864187665ac6dd119286e44ec13f014527aeeb2b8eb3fd413df931798260405161097291815260200190565b60405180910390a25050565b610986610a65565b6001600160a01b038116610a025760405162461bcd60e51b815260206004820152602660248201527f4f776e61626c653a206e6577206f776e657220697320746865207a65726f206160448201527f64647265737300000000000000000000000000000000000000000000000000006064820152608401610379565b610a0b81610ad4565b50565b6001600160a01b038116600090815260018301602052604081205415155b90505b92915050565b6000610a2c8284610e18565b6000610a2c8284610e2b565b6000610a2c8284610e3e565b6000610a2c8284610e55565b6033546001600160a01b031633146105225760405162461bcd60e51b815260206004820181905260248201527f4f776e61626c653a2063616c6c6572206973206e6f7420746865206f776e65726044820152606401610379565b6000610a2c836001600160a01b038416610bce565b603380546001600160a01b0383811673ffffffffffffffffffffffffffffffffffffffff19831681179093556040519116919082907f8be0079c531659141344cd1fd0a4f28419497f9722a3daafe3b4186f6b6457e090600090a35050565b6000610a2f825490565b6000610a2c8383610c1d565b600054610100900460ff16610bc65760405162461bcd60e51b815260206004820152602b60248201527f496e697469616c697a61626c653a20636f6e7472616374206973206e6f74206960448201527f6e697469616c697a696e670000000000000000000000000000000000000000006064820152608401610379565b610522610c47565b6000818152600183016020526040812054610c1557508154600181810184556000848152602080822090930184905584548482528286019093526040902091909155610a2f565b506000610a2f565b6000826000018281548110610c3457610c34610db1565b9060005260206000200154905092915050565b600054610100900460ff16610cc45760405162461bcd60e51b815260206004820152602b60248201527f496e697469616c697a61626c653a20636f6e7472616374206973206e6f74206960448201527f6e697469616c697a696e670000000000000000000000000000000000000000006064820152608401610379565b61052233610ad4565b80356001600160a01b0381168114610ce457600080fd5b919050565b600060208284031215610cfb57600080fd5b610a2c82610ccd565b60008060008060008060c08789031215610d1d57600080fd5b610d2687610ccd565b9860208801359850604088013597606081013597506080810135965060a00135945092505050565b6020808252825182820181905260009190848201906040850190845b81811015610d8f5783516001600160a01b031683529284019291840191600101610d6a565b50909695505050505050565b634e487b7160e01b600052604160045260246000fd5b634e487b7160e01b600052603260045260246000fd5b634e487b7160e01b600052601160045260246000fd5b600060018201610def57610def610dc7565b5060010190565b600060208284031215610e0857600080fd5b8151801515811461028557600080fd5b80820180821115610a2f57610a2f610dc7565b81810381811115610a2f57610a2f610dc7565b8082028115828204841417610a2f57610a2f610dc7565b600082610e7257634e487b7160e01b600052601260045260246000fd5b50049056fea2646970667358221220ed5819e401ec9d65774e518df660641f48948a439ff4c3a3fb5c2ce44d3ba82864736f6c63430008130033",
  "linkReferences": {},
  "deployedLinkReferences": {}
}