{
  "_format": "hh-sol-artifact-1",
  "contractName": "Metallika2",
  "sourceName": "contracts/metallika2.sol",
  "abi": [
    {
      "anonymous": false,
      "inputs": [
        {
          "indexed": true,
          "internalType": "address",
          "name": "owner",
          "type": "address"
        },
        {
          "indexed": true,
          "internalType": "address",
          "name": "spender",
          "type": "address"
        },
        {
          "indexed": false,
          "internalType": "uint256",
          "name": "value",
          "type": "uint256"
        }
      ],
      "name": "Approval",
      "type": "event"
    },
    {
      "anonymous": false,
      "inputs": [
        {
          "indexed": false,
          "internalType": "uint8",
          "name": "version",
          "type": "uint8"
        }
      ],
      "name": "Initialized",
      "type": "event"
    },
    {
      "anonymous": false,
      "inputs": [
        {
          "indexed": true,
          "internalType": "address",
          "name": "newOwner",
          "type": "address"
        }
      ],
      "name": "OwnershipTransferProposed",
      "type": "event"
    },
    {
      "anonymous": false,
      "inputs": [
        {
          "indexed": true,
          "internalType": "address",
          "name": "previousOwner",
          "type": "address"
        },
        {
          "indexed": true,
          "internalType": "address",
          "name": "newOwner",
          "type": "address"
        }
      ],
      "name": "OwnershipTransferred",
      "type": "event"
    },
    {
      "anonymous": false,
      "inputs": [
        {
          "indexed": false,
          "internalType": "address",
          "name": "account",
          "type": "address"
        }
      ],
      "name": "Paused",
      "type": "event"
    },
    {
      "anonymous": false,
      "inputs": [
        {
          "indexed": true,
          "internalType": "address",
          "name": "from",
          "type": "address"
        },
        {
          "indexed": true,
          "internalType": "address",
          "name": "to",
          "type": "address"
        },
        {
          "indexed": false,
          "internalType": "uint256",
          "name": "value",
          "type": "uint256"
        }
      ],
      "name": "Transfer",
      "type": "event"
    },
    {
      "anonymous": false,
      "inputs": [
        {
          "indexed": false,
          "internalType": "address",
          "name": "account",
          "type": "address"
        }
      ],
      "name": "Unpaused",
      "type": "event"
    },
    {
      "anonymous": false,
      "inputs": [
        {
          "indexed": true,
          "internalType": "address",
          "name": "voter",
          "type": "address"
        },
        {
          "indexed": false,
          "internalType": "bool",
          "name": "approve",
          "type": "bool"
        }
      ],
      "name": "VoteCasted",
      "type": "event"
    },
    {
      "inputs": [
        {
          "internalType": "address",
          "name": "",
          "type": "address"
        }
      ],
      "name": "_frozenWallets",
      "outputs": [
        {
          "internalType": "uint256",
          "name": "",
          "type": "uint256"
        }
      ],
      "stateMutability": "view",
      "type": "function"
    },
    {
      "inputs": [],
      "name": "_owner",
      "outputs": [
        {
          "internalType": "address",
          "name": "",
          "type": "address"
        }
      ],
      "stateMutability": "view",
      "type": "function"
    },
    {
      "inputs": [
        {
          "internalType": "address",
          "name": "wallet",
          "type": "address"
        }
      ],
      "name": "addToWhitelist",
      "outputs": [],
      "stateMutability": "nonpayable",
      "type": "function"
    },
    {
      "inputs": [
        {
          "internalType": "address",
          "name": "beneficiary",
          "type": "address"
        },
        {
          "internalType": "uint256",
          "name": "amount",
          "type": "uint256"
        },
        {
          "internalType": "uint256",
          "name": "percentageToRelease",
          "type": "uint256"
        },
        {
          "internalType": "uint256",
          "name": "timeInterval",
          "type": "uint256"
        }
      ],
      "name": "addVestingSchedule",
      "outputs": [],
      "stateMutability": "nonpayable",
      "type": "function"
    },
    {
      "inputs": [
        {
          "internalType": "address",
          "name": "_voter",
          "type": "address"
        }
      ],
      "name": "addVoter",
      "outputs": [],
      "stateMutability": "nonpayable",
      "type": "function"
    },
    {
      "inputs": [
        {
          "internalType": "address",
          "name": "owner",
          "type": "address"
        },
        {
          "internalType": "address",
          "name": "spender",
          "type": "address"
        }
      ],
      "name": "allowance",
      "outputs": [
        {
          "internalType": "uint256",
          "name": "",
          "type": "uint256"
        }
      ],
      "stateMutability": "view",
      "type": "function"
    },
    {
      "inputs": [
        {
          "internalType": "address",
          "name": "spender",
          "type": "address"
        },
        {
          "internalType": "uint256",
          "name": "amount",
          "type": "uint256"
        }
      ],
      "name": "approve",
      "outputs": [
        {
          "internalType": "bool",
          "name": "",
          "type": "bool"
        }
      ],
      "stateMutability": "nonpayable",
      "type": "function"
    },
    {
      "inputs": [
        {
          "internalType": "address",
          "name": "account",
          "type": "address"
        }
      ],
      "name": "balanceOf",
      "outputs": [
        {
          "internalType": "uint256",
          "name": "",
          "type": "uint256"
        }
      ],
      "stateMutability": "view",
      "type": "function"
    },
    {
      "inputs": [
        {
          "internalType": "address",
          "name": "_user",
          "type": "address"
        }
      ],
      "name": "blackList",
      "outputs": [],
      "stateMutability": "nonpayable",
      "type": "function"
    },
    {
      "inputs": [
        {
          "internalType": "uint256",
          "name": "amount",
          "type": "uint256"
        }
      ],
      "name": "burn",
      "outputs": [],
      "stateMutability": "nonpayable",
      "type": "function"
    },
    {
      "inputs": [
        {
          "internalType": "address",
          "name": "account",
          "type": "address"
        },
        {
          "internalType": "uint256",
          "name": "amount",
          "type": "uint256"
        }
      ],
      "name": "burnFrom",
      "outputs": [],
      "stateMutability": "nonpayable",
      "type": "function"
    },
    {
      "inputs": [],
      "name": "burnableTax",
      "outputs": [
        {
          "internalType": "uint256",
          "name": "",
          "type": "uint256"
        }
      ],
      "stateMutability": "view",
      "type": "function"
    },
    {
      "inputs": [],
      "name": "buySellTaxRate",
      "outputs": [
        {
          "internalType": "uint256",
          "name": "",
          "type": "uint256"
        }
      ],
      "stateMutability": "view",
      "type": "function"
    },
    {
      "inputs": [],
      "name": "cancelOwnershipTransfer",
      "outputs": [],
      "stateMutability": "nonpayable",
      "type": "function"
    },
    {
      "inputs": [
        {
          "internalType": "bool",
          "name": "approve",
          "type": "bool"
        }
      ],
      "name": "castMintVote",
      "outputs": [],
      "stateMutability": "nonpayable",
      "type": "function"
    },
    {
      "inputs": [
        {
          "internalType": "bool",
          "name": "approve",
          "type": "bool"
        }
      ],
      "name": "castVote",
      "outputs": [],
      "stateMutability": "nonpayable",
      "type": "function"
    },
    {
      "inputs": [],
      "name": "claim",
      "outputs": [],
      "stateMutability": "nonpayable",
      "type": "function"
    },
    {
      "inputs": [],
      "name": "decimals",
      "outputs": [
        {
          "internalType": "uint8",
          "name": "",
          "type": "uint8"
        }
      ],
      "stateMutability": "view",
      "type": "function"
    },
    {
      "inputs": [
        {
          "internalType": "address",
          "name": "spender",
          "type": "address"
        },
        {
          "internalType": "uint256",
          "name": "subtractedValue",
          "type": "uint256"
        }
      ],
      "name": "decreaseAllowance",
      "outputs": [
        {
          "internalType": "bool",
          "name": "",
          "type": "bool"
        }
      ],
      "stateMutability": "nonpayable",
      "type": "function"
    },
    {
      "inputs": [],
      "name": "decreasingTaxInterval",
      "outputs": [
        {
          "internalType": "uint256",
          "name": "",
          "type": "uint256"
        }
      ],
      "stateMutability": "view",
      "type": "function"
    },
    {
      "inputs": [
        {
          "internalType": "bool",
          "name": "_enabled",
          "type": "bool"
        }
      ],
      "name": "disableBuySellTax",
      "outputs": [],
      "stateMutability": "nonpayable",
      "type": "function"
    },
    {
      "inputs": [],
      "name": "finalizeMint",
      "outputs": [],
      "stateMutability": "nonpayable",
      "type": "function"
    },
    {
      "inputs": [],
      "name": "finalizeOwnershipTransfer",
      "outputs": [],
      "stateMutability": "nonpayable",
      "type": "function"
    },
    {
      "inputs": [
        {
          "internalType": "address",
          "name": "wallet",
          "type": "address"
        },
        {
          "internalType": "uint256",
          "name": "freezeDuration",
          "type": "uint256"
        }
      ],
      "name": "freezeWallet",
      "outputs": [],
      "stateMutability": "nonpayable",
      "type": "function"
    },
    {
      "inputs": [],
      "name": "graduallyDecreasingTax",
      "outputs": [
        {
          "internalType": "uint256",
          "name": "",
          "type": "uint256"
        }
      ],
      "stateMutability": "view",
      "type": "function"
    },
    {
      "inputs": [
        {
          "internalType": "address",
          "name": "",
          "type": "address"
        }
      ],
      "name": "hasVoted",
      "outputs": [
        {
          "internalType": "bool",
          "name": "",
          "type": "bool"
        }
      ],
      "stateMutability": "view",
      "type": "function"
    },
    {
      "inputs": [
        {
          "internalType": "address",
          "name": "",
          "type": "address"
        }
      ],
      "name": "hasVotedMint",
      "outputs": [
        {
          "internalType": "bool",
          "name": "",
          "type": "bool"
        }
      ],
      "stateMutability": "view",
      "type": "function"
    },
    {
      "inputs": [
        {
          "internalType": "address",
          "name": "wallet",
          "type": "address"
        }
      ],
      "name": "includeInTax",
      "outputs": [],
      "stateMutability": "nonpayable",
      "type": "function"
    },
    {
      "inputs": [
        {
          "internalType": "address",
          "name": "spender",
          "type": "address"
        },
        {
          "internalType": "uint256",
          "name": "addedValue",
          "type": "uint256"
        }
      ],
      "name": "increaseAllowance",
      "outputs": [
        {
          "internalType": "bool",
          "name": "",
          "type": "bool"
        }
      ],
      "stateMutability": "nonpayable",
      "type": "function"
    },
    {
      "inputs": [
        {
          "internalType": "string",
          "name": "_name",
          "type": "string"
        },
        {
          "internalType": "string",
          "name": "_symbol",
          "type": "string"
        },
        {
          "internalType": "uint8",
          "name": "_decimals",
          "type": "uint8"
        },
        {
          "internalType": "uint256",
          "name": "_initialSupply",
          "type": "uint256"
        },
        {
          "internalType": "address",
          "name": "_router",
          "type": "address"
        },
        {
          "internalType": "address[]",
          "name": "_initialVoters",
          "type": "address[]"
        }
      ],
      "name": "initialize",
      "outputs": [],
      "stateMutability": "nonpayable",
      "type": "function"
    },
    {
      "inputs": [
        {
          "internalType": "address",
          "name": "_user",
          "type": "address"
        }
      ],
      "name": "isBlackList",
      "outputs": [
        {
          "internalType": "bool",
          "name": "",
          "type": "bool"
        }
      ],
      "stateMutability": "view",
      "type": "function"
    },
    {
      "inputs": [],
      "name": "isBuySellTaxEnabled",
      "outputs": [
        {
          "internalType": "bool",
          "name": "",
          "type": "bool"
        }
      ],
      "stateMutability": "view",
      "type": "function"
    },
    {
      "inputs": [],
      "name": "isDeflationary",
      "outputs": [
        {
          "internalType": "bool",
          "name": "",
          "type": "bool"
        }
      ],
      "stateMutability": "view",
      "type": "function"
    },
    {
      "inputs": [
        {
          "internalType": "address",
          "name": "",
          "type": "address"
        }
      ],
      "name": "isExcludedFromTax",
      "outputs": [
        {
          "internalType": "bool",
          "name": "",
          "type": "bool"
        }
      ],
      "stateMutability": "view",
      "type": "function"
    },
    {
      "inputs": [
        {
          "internalType": "address",
          "name": "user",
          "type": "address"
        }
      ],
      "name": "isWhitelisted",
      "outputs": [
        {
          "internalType": "bool",
          "name": "",
          "type": "bool"
        }
      ],
      "stateMutability": "view",
      "type": "function"
    },
    {
      "inputs": [],
      "name": "lastUpdatedTaxTimestamp",
      "outputs": [
        {
          "internalType": "uint256",
          "name": "",
          "type": "uint256"
        }
      ],
      "stateMutability": "view",
      "type": "function"
    },
    {
      "inputs": [],
      "name": "liquidityLocked",
      "outputs": [
        {
          "internalType": "bool",
          "name": "",
          "type": "bool"
        }
      ],
      "stateMutability": "view",
      "type": "function"
    },
    {
      "inputs": [
        {
          "internalType": "uint256",
          "name": "amount",
          "type": "uint256"
        }
      ],
      "name": "lockLiquidity",
      "outputs": [],
      "stateMutability": "nonpayable",
      "type": "function"
    },
    {
      "inputs": [],
      "name": "lockedLiquidityAmount",
      "outputs": [
        {
          "internalType": "uint256",
          "name": "",
          "type": "uint256"
        }
      ],
      "stateMutability": "view",
      "type": "function"
    },
    {
      "inputs": [],
      "name": "maxTransactionAmount",
      "outputs": [
        {
          "internalType": "uint256",
          "name": "",
          "type": "uint256"
        }
      ],
      "stateMutability": "view",
      "type": "function"
    },
    {
      "inputs": [],
      "name": "minTransactionAmount",
      "outputs": [
        {
          "internalType": "uint256",
          "name": "",
          "type": "uint256"
        }
      ],
      "stateMutability": "view",
      "type": "function"
    },
    {
      "inputs": [],
      "name": "name",
      "outputs": [
        {
          "internalType": "string",
          "name": "",
          "type": "string"
        }
      ],
      "stateMutability": "view",
      "type": "function"
    },
    {
      "inputs": [],
      "name": "owner",
      "outputs": [
        {
          "internalType": "address",
          "name": "",
          "type": "address"
        }
      ],
      "stateMutability": "view",
      "type": "function"
    },
    {
      "inputs": [],
      "name": "pause",
      "outputs": [],
      "stateMutability": "nonpayable",
      "type": "function"
    },
    {
      "inputs": [],
      "name": "paused",
      "outputs": [
        {
          "internalType": "bool",
          "name": "",
          "type": "bool"
        }
      ],
      "stateMutability": "view",
      "type": "function"
    },
    {
      "inputs": [
        {
          "internalType": "address",
          "name": "account",
          "type": "address"
        },
        {
          "internalType": "uint256",
          "name": "amount",
          "type": "uint256"
        }
      ],
      "name": "proposeMint",
      "outputs": [],
      "stateMutability": "nonpayable",
      "type": "function"
    },
    {
      "inputs": [
        {
          "internalType": "address",
          "name": "newOwner",
          "type": "address"
        }
      ],
      "name": "proposeOwnershipTransfer",
      "outputs": [],
      "stateMutability": "nonpayable",
      "type": "function"
    },
    {
      "inputs": [],
      "name": "proposedMintAmount",
      "outputs": [
        {
          "internalType": "uint256",
          "name": "",
          "type": "uint256"
        }
      ],
      "stateMutability": "view",
      "type": "function"
    },
    {
      "inputs": [],
      "name": "proposedMintWallet",
      "outputs": [
        {
          "internalType": "address",
          "name": "",
          "type": "address"
        }
      ],
      "stateMutability": "view",
      "type": "function"
    },
    {
      "inputs": [],
      "name": "proposedOwner",
      "outputs": [
        {
          "internalType": "address",
          "name": "",
          "type": "address"
        }
      ],
      "stateMutability": "view",
      "type": "function"
    },
    {
      "inputs": [
        {
          "internalType": "address",
          "name": "_user",
          "type": "address"
        }
      ],
      "name": "removeFromBlacklist",
      "outputs": [],
      "stateMutability": "nonpayable",
      "type": "function"
    },
    {
      "inputs": [
        {
          "internalType": "address",
          "name": "wallet",
          "type": "address"
        }
      ],
      "name": "removeFromWhitelist",
      "outputs": [],
      "stateMutability": "nonpayable",
      "type": "function"
    },
    {
      "inputs": [],
      "name": "removeVoter",
      "outputs": [],
      "stateMutability": "nonpayable",
      "type": "function"
    },
    {
      "inputs": [],
      "name": "renounceOwnership",
      "outputs": [],
      "stateMutability": "nonpayable",
      "type": "function"
    },
    {
      "inputs": [],
      "name": "router",
      "outputs": [
        {
          "internalType": "address",
          "name": "",
          "type": "address"
        }
      ],
      "stateMutability": "view",
      "type": "function"
    },
    {
      "inputs": [
        {
          "internalType": "uint256",
          "name": "_burnableTax",
          "type": "uint256"
        }
      ],
      "name": "setBurnableTax",
      "outputs": [],
      "stateMutability": "nonpayable",
      "type": "function"
    },
    {
      "inputs": [
        {
          "internalType": "uint256",
          "name": "_rate",
          "type": "uint256"
        }
      ],
      "name": "setBuySellTaxRate",
      "outputs": [],
      "stateMutability": "nonpayable",
      "type": "function"
    },
    {
      "inputs": [
        {
          "internalType": "bool",
          "name": "_enabled",
          "type": "bool"
        }
      ],
      "name": "setDeflationary",
      "outputs": [],
      "stateMutability": "nonpayable",
      "type": "function"
    },
    {
      "inputs": [
        {
          "internalType": "address",
          "name": "wallet",
          "type": "address"
        }
      ],
      "name": "setIsExcludedFromTax",
      "outputs": [],
      "stateMutability": "nonpayable",
      "type": "function"
    },
    {
      "inputs": [
        {
          "internalType": "uint256",
          "name": "amount",
          "type": "uint256"
        }
      ],
      "name": "setMaxTransferAmount",
      "outputs": [],
      "stateMutability": "nonpayable",
      "type": "function"
    },
    {
      "inputs": [
        {
          "internalType": "uint256",
          "name": "amount",
          "type": "uint256"
        }
      ],
      "name": "setMinTransactionAmount",
      "outputs": [],
      "stateMutability": "nonpayable",
      "type": "function"
    },
    {
      "inputs": [
        {
          "internalType": "address",
          "name": "_newRouter",
          "type": "address"
        }
      ],
      "name": "setRouter",
      "outputs": [],
      "stateMutability": "nonpayable",
      "type": "function"
    },
    {
      "inputs": [
        {
          "internalType": "uint256",
          "name": "delay",
          "type": "uint256"
        }
      ],
      "name": "setTransferDelay",
      "outputs": [],
      "stateMutability": "nonpayable",
      "type": "function"
    },
    {
      "inputs": [
        {
          "internalType": "address",
          "name": "",
          "type": "address"
        }
      ],
      "name": "signers",
      "outputs": [
        {
          "internalType": "bool",
          "name": "",
          "type": "bool"
        }
      ],
      "stateMutability": "view",
      "type": "function"
    },
    {
      "inputs": [],
      "name": "symbol",
      "outputs": [
        {
          "internalType": "string",
          "name": "",
          "type": "string"
        }
      ],
      "stateMutability": "view",
      "type": "function"
    },
    {
      "inputs": [],
      "name": "totalSupply",
      "outputs": [
        {
          "internalType": "uint256",
          "name": "",
          "type": "uint256"
        }
      ],
      "stateMutability": "view",
      "type": "function"
    },
    {
      "inputs": [
        {
          "internalType": "address",
          "name": "recipient",
          "type": "address"
        },
        {
          "internalType": "uint256",
          "name": "amount",
          "type": "uint256"
        }
      ],
      "name": "transfer",
      "outputs": [
        {
          "internalType": "bool",
          "name": "",
          "type": "bool"
        }
      ],
      "stateMutability": "nonpayable",
      "type": "function"
    },
    {
      "inputs": [],
      "name": "transferAllowedAt",
      "outputs": [
        {
          "internalType": "uint256",
          "name": "",
          "type": "uint256"
        }
      ],
      "stateMutability": "view",
      "type": "function"
    },
    {
      "inputs": [],
      "name": "transferDelay",
      "outputs": [
        {
          "internalType": "uint256",
          "name": "",
          "type": "uint256"
        }
      ],
      "stateMutability": "view",
      "type": "function"
    },
    {
      "inputs": [
        {
          "internalType": "address",
          "name": "from",
          "type": "address"
        },
        {
          "internalType": "address",
          "name": "to",
          "type": "address"
        },
        {
          "internalType": "uint256",
          "name": "amount",
          "type": "uint256"
        }
      ],
      "name": "transferFrom",
      "outputs": [
        {
          "internalType": "bool",
          "name": "",
          "type": "bool"
        }
      ],
      "stateMutability": "nonpayable",
      "type": "function"
    },
    {
      "inputs": [
        {
          "internalType": "address",
          "name": "newOwner",
          "type": "address"
        }
      ],
      "name": "transferOwnership",
      "outputs": [],
      "stateMutability": "nonpayable",
      "type": "function"
    },
    {
      "inputs": [
        {
          "internalType": "address",
          "name": "wallet",
          "type": "address"
        }
      ],
      "name": "unfreezeWallet",
      "outputs": [],
      "stateMutability": "nonpayable",
      "type": "function"
    },
    {
      "inputs": [
        {
          "internalType": "uint256",
          "name": "amount",
          "type": "uint256"
        }
      ],
      "name": "unlockLiquidity",
      "outputs": [],
      "stateMutability": "nonpayable",
      "type": "function"
    },
    {
      "inputs": [],
      "name": "unpause",
      "outputs": [],
      "stateMutability": "nonpayable",
      "type": "function"
    },
    {
      "inputs": [
        {
          "internalType": "address",
          "name": "",
          "type": "address"
        }
      ],
      "name": "vestingInfo",
      "outputs": [
        {
          "internalType": "uint256",
          "name": "amount",
          "type": "uint256"
        },
        {
          "internalType": "address",
          "name": "beneficiary",
          "type": "address"
        },
        {
          "internalType": "uint256",
          "name": "percentageOfTokensToBeReleased",
          "type": "uint256"
        },
        {
          "internalType": "uint256",
          "name": "timeInterval",
          "type": "uint256"
        },
        {
          "internalType": "uint256",
          "name": "lastWithdrawTimestamp",
          "type": "uint256"
        },
        {
          "internalType": "uint256",
          "name": "claimedTokens",
          "type": "uint256"
        }
      ],
      "stateMutability": "view",
      "type": "function"
    },
    {
      "inputs": [
        {
          "internalType": "uint256",
          "name": "",
          "type": "uint256"
        }
      ],
      "name": "voters",
      "outputs": [
        {
          "internalType": "address",
          "name": "",
          "type": "address"
        }
      ],
      "stateMutability": "view",
      "type": "function"
    },
    {
      "inputs": [
        {
          "internalType": "address",
          "name": "receiver",
          "type": "address"
        },
        {
          "internalType": "contract IERC20",
          "name": "_token",
          "type": "address"
        }
      ],
      "name": "withdrawDumpToken",
      "outputs": [],
      "stateMutability": "nonpayable",
      "type": "function"
    },
    {
      "inputs": [
        {
          "internalType": "address payable",
          "name": "_receiver",
          "type": "address"
        }
      ],
      "name": "withdrawEth",
      "outputs": [],
      "stateMutability": "nonpayable",
      "type": "function"
    },
    {
      "stateMutability": "payable",
      "type": "receive"
    }
  ],
  "bytecode": "0x608060405234801561001057600080fd5b50614357806100206000396000f3fe6080604052600436106105415760003560e01c806385be583f116102af578063b36d691911610179578063da58c7d9116100d6578063f2fde38b1161008a578063f78e633d1161006f578063f78e633d14610ed3578063f887ea4014610f63578063f8f1b6c914610f8457600080fd5b8063f2fde38b14610e93578063f4ab9adf14610eb357600080fd5b8063e17c4c74116100bb578063e17c4c7414610e33578063e43252d714610e53578063f217fdbe14610e7357600080fd5b8063da58c7d914610dcd578063dd62ed3e14610ded57600080fd5b8063c0d786551161012d578063cb4ca63111610112578063cb4ca63114610d5f578063d0a1bd4414610d90578063d153b60c14610da757600080fd5b8063c0d7865514610d29578063c8c8ebe414610d4957600080fd5b8063bd0e0acd1161015e578063bd0e0acd14610cdd578063bf41c2a414610cf4578063bfed5ce314610d0957600080fd5b8063b36d691914610c80578063b5c43db414610cba57600080fd5b806395d89b4111610227578063a30ff8b6116101db578063a9059cbb116101c0578063a9059cbb14610c25578063ab8b2f0d14610c45578063b2bdfa7b14610c6057600080fd5b8063a30ff8b614610be5578063a457c2d714610c0557600080fd5b8063996721581161020c5780639967215814610b905780639b75757a14610bb0578063a223111c14610bd057600080fd5b806395d89b4114610b5b57806396e8392414610b7057600080fd5b80638bf554091161027e5780638e8c10a2116102635780638e8c10a214610aec5780638f376fca14610b0a57806393ba371814610b2a57600080fd5b80638bf5540914610aae5780638da5cb5b14610ace57600080fd5b806385be583f14610a20578063878479d914610a405780638806334514610a555780638ab1d68114610a8e57600080fd5b80633eb5cbeb1161040b57806360f588b711610368578063760b7e381161031c57806379cc67901161030157806379cc6790146109cb5780637ace48e7146109eb5780638456cb5914610a0b57600080fd5b8063760b7e38146109945780637884d888146109ab57600080fd5b806370a082311161034d57806370a0823114610918578063715018a61461094e578063736c0d5b1461096357600080fd5b806360f588b7146108e1578063622b67cb1461090157600080fd5b80634e71d92d116103bf57806357976fb4116103a457806357976fb4146108975780635c975abb146108b25780635e2f16c8146108ca57600080fd5b80634e71d92d14610862578063537df3b61461087757600080fd5b806342966c68116103f057806342966c681461080b5780634838d1651461082b57806348a330821461084b57600080fd5b80633eb5cbeb146107c85780633f4ba83a146107f657600080fd5b806323452b9c116104b95780632bfbd9cf1161046d57806336e8c9b31161045257806336e8c9b31461074e578063395093511461076e5780633af32abf1461078e57600080fd5b80632bfbd9cf14610712578063313ce5671461073257600080fd5b806324ef8c1b1161049e57806324ef8c1b146106b157806325e16063146106d15780632a32234f146106f157600080fd5b806323452b9c1461067c57806323b872dd1461069157600080fd5b80630a702e8d1161051057806317a5d4df116104f557806317a5d4df1461063157806318160ddd1461064757806321040fc31461065c57600080fd5b80630a702e8d146105f957806315d4c5d51461060f57600080fd5b8063052c30bc1461054d57806306fdde0314610576578063095ea7b31461059857806309eef43e146105c857600080fd5b3661054857005b600080fd5b34801561055957600080fd5b5061056360ff5481565b6040519081526020015b60405180910390f35b34801561058257600080fd5b5061058b610fa4565b60405161056d9190613c4f565b3480156105a457600080fd5b506105b86105b3366004613cc2565b611036565b604051901515815260200161056d565b3480156105d457600080fd5b506105b86105e3366004613cee565b61010b6020526000908152604090205460ff1681565b34801561060557600080fd5b5061056360fe5481565b34801561061b57600080fd5b5061062f61062a366004613cc2565b611050565b005b34801561063d57600080fd5b5061056360fc5481565b34801561065357600080fd5b50603554610563565b34801561066857600080fd5b5061062f610677366004613cee565b6110e7565b34801561068857600080fd5b5061062f6111a5565b34801561069d57600080fd5b506105b86106ac366004613d0b565b61123e565b3480156106bd57600080fd5b5061062f6106cc366004613d4c565b611497565b3480156106dd57600080fd5b5061062f6106ec366004613cee565b611663565b3480156106fd57600080fd5b5061062f61070c366004613d87565b61010255565b34801561071e57600080fd5b5061062f61072d366004613d87565b6116fa565b34801561073e57600080fd5b506040516012815260200161056d565b34801561075a57600080fd5b5061062f610769366004613d87565b6117d9565b34801561077a57600080fd5b506105b8610789366004613cc2565b6117e6565b34801561079a57600080fd5b506105b86107a9366004613cee565b6001600160a01b03166000908152610110602052604090205460ff1690565b3480156107d457600080fd5b506105636107e3366004613cee565b61010f6020526000908152604090205481565b34801561080257600080fd5b5061062f611825565b34801561081757600080fd5b5061062f610826366004613d87565b611837565b34801561083757600080fd5b5061062f610846366004613cee565b611841565b34801561085757600080fd5b506105636101095481565b34801561086e57600080fd5b5061062f6118d8565b34801561088357600080fd5b5061062f610892366004613cee565b611b1a565b3480156108a357600080fd5b50610100546105b89060ff1681565b3480156108be57600080fd5b5060c95460ff166105b8565b3480156108d657600080fd5b506105636101035481565b3480156108ed57600080fd5b5061062f6108fc366004613cee565b611bad565b34801561090d57600080fd5b506105636101055481565b34801561092457600080fd5b50610563610933366004613cee565b6001600160a01b031660009081526033602052604090205490565b34801561095a57600080fd5b5061062f611bd0565b34801561096f57600080fd5b506105b861097e366004613cee565b6101116020526000908152604090205460ff1681565b3480156109a057600080fd5b506105636101065481565b3480156109b757600080fd5b5061062f6109c6366004613cee565b611be2565b3480156109d757600080fd5b5061062f6109e6366004613cc2565b611c0f565b3480156109f757600080fd5b5061062f610a06366004613dae565b611c21565b348015610a1757600080fd5b5061062f611d31565b348015610a2c57600080fd5b5061062f610a3b366004613cc2565b611d41565b348015610a4c57600080fd5b5061062f611dca565b348015610a6157600080fd5b5061010854610a76906001600160a01b031681565b6040516001600160a01b03909116815260200161056d565b348015610a9a57600080fd5b5061062f610aa9366004613cee565b611e08565b348015610aba57600080fd5b5061062f610ac9366004613d87565b611e32565b348015610ada57600080fd5b506097546001600160a01b0316610a76565b348015610af857600080fd5b5061010080546105b89160ff91041681565b348015610b1657600080fd5b5061062f610b25366004613d87565b611e3f565b348015610b3657600080fd5b506105b8610b45366004613cee565b61010c6020526000908152604090205460ff1681565b348015610b6757600080fd5b5061058b611e4d565b348015610b7c57600080fd5b5061062f610b8b366004613d87565b611e5c565b348015610b9c57600080fd5b5061062f610bab366004613dcb565b611f36565b348015610bbc57600080fd5b5061062f610bcb366004613dae565b612055565b348015610bdc57600080fd5b5061062f61215a565b348015610bf157600080fd5b5061062f610c00366004613dae565b6122f7565b348015610c1157600080fd5b506105b8610c20366004613cc2565b612316565b348015610c3157600080fd5b506105b8610c40366004613cc2565b6123cb565b348015610c5157600080fd5b50610107546105b89060ff1681565b348015610c6c57600080fd5b5060fb54610a76906001600160a01b031681565b348015610c8c57600080fd5b506105b8610c9b366004613cee565b6001600160a01b0316600090815261010d602052604090205460ff1690565b348015610cc657600080fd5b5033600090815261010e6020526040902054610563565b348015610ce957600080fd5b506105636101045481565b348015610d0057600080fd5b5061062f61260d565b348015610d1557600080fd5b5061062f610d24366004613d87565b6127e2565b348015610d3557600080fd5b5061062f610d44366004613cee565b6127ef565b348015610d5557600080fd5b5061056360fd5481565b348015610d6b57600080fd5b506105b8610d7a366004613cee565b6101016020526000908152604090205460ff1681565b348015610d9c57600080fd5b506105636101025481565b348015610db357600080fd5b5061010754610a769061010090046001600160a01b031681565b348015610dd957600080fd5b50610a76610de8366004613d87565b612833565b348015610df957600080fd5b50610563610e08366004613dcb565b6001600160a01b03918216600090815260346020908152604080832093909416825291909152205490565b348015610e3f57600080fd5b5061062f610e4e366004613cee565b61285e565b348015610e5f57600080fd5b5061062f610e6e366004613cee565b612888565b348015610e7f57600080fd5b5061062f610e8e366004613dae565b6128b5565b348015610e9f57600080fd5b5061062f610eae366004613cee565b6128d1565b348015610ebf57600080fd5b5061062f610ece366004613cee565b612947565b348015610edf57600080fd5b50610f2e610eee366004613cee565b6101126020526000908152604090208054600182015460028301546003840154600485015460059095015493946001600160a01b03909316939192909186565b604080519687526001600160a01b039095166020870152938501929092526060840152608083015260a082015260c00161056d565b348015610f6f57600080fd5b5061011354610a76906001600160a01b031681565b348015610f9057600080fd5b5061062f610f9f366004613f44565b6129f8565b606060368054610fb390614001565b80601f0160208091040260200160405190810160405280929190818152602001828054610fdf90614001565b801561102c5780601f106110015761010080835404028352916020019161102c565b820191906000526020600020905b81548152906001019060200180831161100f57829003601f168201915b5050505050905090565b600033611044818585612cb1565b60019150505b92915050565b611058612e09565b6001600160a01b0382166110bf5760405162461bcd60e51b815260206004820152602360248201527f4d696e74206163636f756e742063616e6e6f74206265207a65726f206164647260448201526265737360e81b60648201526084015b60405180910390fd5b61010880546001600160a01b0319166001600160a01b03939093169290921790915561010955565b6110ef612e09565b6001600160a01b0381166111455760405162461bcd60e51b815260206004820181905260248201527f4e6577206f776e65722063616e6e6f74206265207a65726f206164647265737360448201526064016110b6565b610107805474ffffffffffffffffffffffffffffffffffffffff0019166101006001600160a01b038416908102919091179091556040517ff0c6916d81cd1f899264b5193e3bbe7afd2bcc3d05704bab73d0b8ac9387115890600090a250565b6111ad612e09565b610107805474ffffffffffffffffffffffffffffffffffffffff001916905560005b61010a5481101561123b57600061010b600061010a84815481106111f5576111f561403b565b6000918252602080832091909101546001600160a01b031683528201929092526040019020805460ff19169115159190911790558061123381614067565b9150506111cf565b50565b6001600160a01b038316600090815261010f60205260408120548490158061127e57506001600160a01b038116600090815261010f602052604090205442115b6112ca5760405162461bcd60e51b815260206004820152601060248201527f57616c6c65742069732066726f7a656e0000000000000000000000000000000060448201526064016110b6565b3360008181526101106020526040902054849060ff166113885760fc548110156113365760405162461bcd60e51b815260206004820152601460248201527f416d6f756e742062656c6f77206d696e696d756d00000000000000000000000060448201526064016110b6565b60fd548111156113885760405162461bcd60e51b815260206004820152601660248201527f416d6f756e742065786365656473206d6178696d756d0000000000000000000060448201526064016110b6565b6001600160a01b038716600090815261010d602052604090205460ff16156113f25760405162461bcd60e51b815260206004820152601e60248201527f53656e64657227732077616c6c657420697320626c61636b6c6973746564000060448201526064016110b6565b33600090815261010e60205260409020544210156114525760405162461bcd60e51b815260206004820152601860248201527f5472616e73666572206e6f7420616c6c6f77656420796574000000000000000060448201526064016110b6565b60fe5461145f9042614080565b33600081815261010e602052604090209190915561147e888288612e63565b611489888888612ef5565b506001979650505050505050565b61149f612e09565b6001600160a01b03841661151b5760405162461bcd60e51b815260206004820152602260248201527f42656e656669636961727920616464726573732063616e6e6f74206265207a6560448201527f726f00000000000000000000000000000000000000000000000000000000000060648201526084016110b6565b60008211801561152d57506127108211155b61159e5760405162461bcd60e51b8152602060048201526024808201527f50657263656e74616765206d757374206265206265747765656e203120616e6460448201527f203130300000000000000000000000000000000000000000000000000000000060648201526084016110b6565b600081116116145760405162461bcd60e51b815260206004820152602760248201527f54696d6520696e74657276616c206d757374206265206772656174657220746860448201527f616e207a65726f0000000000000000000000000000000000000000000000000060648201526084016110b6565b6001600160a01b039093166000818152610112602052604081209384556001840180546001600160a01b0319169092179091556002830191909155600382019290925542600482015560050155565b61166b612e09565b6001600160a01b0381166116c15760405162461bcd60e51b815260206004820152600f60248201527f496e76616c69642061646472657373000000000000000000000000000000000060448201526064016110b6565b6040516001600160a01b038216904780156108fc02916000818181858888f193505050501580156116f6573d6000803e3d6000fd5b5050565b6101005460ff161561174e5760405162461bcd60e51b815260206004820152601360248201527f4c6971756964697479206973206c6f636b65640000000000000000000000000060448201526064016110b6565b306000908152603360205260409020548111156117ad5760405162461bcd60e51b815260206004820152601460248201527f496e73756666696369656e742062616c616e636500000000000000000000000060448201526064016110b6565b6117b730826123cb565b5060ff546117c5908261327d565b60ff5550610100805460ff19166001179055565b6117e1612e09565b60fe55565b3360008181526034602090815260408083206001600160a01b03871684529091528120549091906110449082908690611820908790614080565b612cb1565b61182d612e09565b611835613290565b565b61123b33826132e2565b611849612e09565b6001600160a01b038116600090815261010d602052604090205460ff16156118b35760405162461bcd60e51b815260206004820152601860248201527f7573657220616c726561647920626c61636b6c6973746564000000000000000060448201526064016110b6565b6001600160a01b0316600090815261010d60205260409020805460ff19166001179055565b33600090815261011260205260409020805461195c5760405162461bcd60e51b815260206004820152602860248201527f4e6f2076657374696e67207363686564756c6520666f756e6420666f7220746860448201527f652073656e64657200000000000000000000000000000000000000000000000060648201526084016110b6565b600481015442906000906119709083614093565b83546003850154919250908210156119ca5760405162461bcd60e51b815260206004820152601c60248201527f546f6b656e732063616e6e6f7420626520636c61696d6564207965740000000060448201526064016110b6565b60006127108560020154836119df91906140a6565b6119e991906140bd565b9050808560050160008282546119ff9190614080565b90915550506004850184905581811115611a815760405162461bcd60e51b815260206004820152602a60248201527f546f6b656e7320746f20636c61696d2065786365656420746f74616c2076657360448201527f74656420746f6b656e730000000000000000000000000000000000000000000060648201526084016110b6565b845460058601541115611afc5760405162461bcd60e51b815260206004820152602960248201527f4e6f7420656e6f75676820746f6b656e7320696e207468652076657374696e6760448201527f207363686564756c65000000000000000000000000000000000000000000000060648201526084016110b6565b60fb54611b13906001600160a01b03163383612ef5565b5050505050565b611b22612e09565b6001600160a01b038116600090815261010d602052604090205460ff16611b8b5760405162461bcd60e51b815260206004820152601860248201527f7573657220616c726561647920626c61636b6c6973746564000000000000000060448201526064016110b6565b6001600160a01b0316600090815261010d60205260409020805460ff19169055565b611bb5612e09565b6001600160a01b0316600090815261010f6020526040812055565b611bd8612e09565b611835600061344d565b611bea612e09565b6001600160a01b0316600090815261010160205260409020805460ff19166001179055565b611c17612e09565b6116f682826132e2565b611c2a3361349f565b611c765760405162461bcd60e51b815260206004820152601160248201527f4e6f7420612076616c696420766f74657200000000000000000000000000000060448201526064016110b6565b33600090815261010b602052604090205460ff1615611cd75760405162461bcd60e51b815260206004820152600d60248201527f416c726561647920766f7465640000000000000000000000000000000000000060448201526064016110b6565b33600081815261010b602052604090819020805460ff19166001179055517fa4861c5510bfa99706ed508d728f9c6b365ff27af1a3012e21980952ad2d844f90611d2690841515815260200190565b60405180910390a250565b611d39612e09565b61183561350a565b611d49612e09565b6001600160a01b038216611d9f5760405162461bcd60e51b815260206004820152601660248201527f496e76616c69642077616c6c657420616464726573730000000000000000000060448201526064016110b6565b611da98142614080565b6001600160a01b03909216600090815261010f602052604090209190915550565b611dd2612e09565b61010a805480611de457611de46140df565b600082815260209020810160001990810180546001600160a01b0319169055019055565b611e10612e09565b6001600160a01b0316600090815261011060205260409020805460ff19169055565b611e3a612e09565b60fd55565b611e47612e09565b61010455565b606060378054610fb390614001565b6101005460ff16611eaf5760405162461bcd60e51b815260206004820152601760248201527f4c6971756964697479206973206e6f74206c6f636b656400000000000000000060448201526064016110b6565b8060ff541015611f015760405162461bcd60e51b815260206004820152601b60248201527f4e6f7420656e6f756768206c6f636b6564206c6971756964697479000000000060448201526064016110b6565b60fb54611f17906001600160a01b0316826123cb565b5060ff54611f259082613547565b60ff5550610100805460ff19169055565b611f3e612e09565b6040517f70a082310000000000000000000000000000000000000000000000000000000081523060048201526001600160a01b0382169063a9059cbb90849083906370a0823190602401602060405180830381865afa158015611fa5573d6000803e3d6000fd5b505050506040513d601f19601f82011682018060405250810190611fc991906140f5565b6040517fffffffff0000000000000000000000000000000000000000000000000000000060e085901b1681526001600160a01b03909216600483015260248201526044016020604051808303816000875af115801561202c573d6000803e3d6000fd5b505050506040513d601f19601f82011682018060405250810190612050919061410e565b505050565b61205e3361349f565b6120aa5760405162461bcd60e51b815260206004820152601160248201527f4e6f7420612076616c696420766f74657200000000000000000000000000000060448201526064016110b6565b33600090815261010c602052604090205460ff161561210b5760405162461bcd60e51b815260206004820152600d60248201527f416c726561647920766f7465640000000000000000000000000000000000000060448201526064016110b6565b33600081815261010c602052604090819020805460ff19166001179055517fa4861c5510bfa99706ed508d728f9c6b365ff27af1a3012e21980952ad2d844f90611d2690841515815260200190565b612162612e09565b61010a54600090815b818110156121d95761010c600061010a838154811061218c5761218c61403b565b60009182526020808320909101546001600160a01b0316835282019290925260400190205460ff16156121c757826121c381614067565b9350505b806121d181614067565b91505061216b565b508181148061222a5760405162461bcd60e51b815260206004820152601660248201527f496e73756666696369656e7420617070726f76616c730000000000000000000060448201526064016110b6565b600061223e6097546001600160a01b031690565b6101075461010854610109549293506001600160a01b0361010090920482169261226c929190911690613553565b61010880546001600160a01b031916905560006101098190555b848110156122ef57600061010c600061010a84815481106122a9576122a961403b565b6000918252602080832091909101546001600160a01b031683528201929092526040019020805460ff1916911515919091179055806122e781614067565b915050612286565b505050505050565b6122ff612e09565b610100805461ff0019169115158102919091179055565b3360008181526034602090815260408083206001600160a01b0387168452909152812054909190838110156123b35760405162461bcd60e51b815260206004820152602560248201527f45524332303a2064656372656173656420616c6c6f77616e63652062656c6f7760448201527f207a65726f00000000000000000000000000000000000000000000000000000060648201526084016110b6565b6123c08286868403612cb1565b506001949350505050565b60006123d5613565565b33600081815261010f6020526040902054158061240a57506001600160a01b038116600090815261010f602052604090205442115b6124565760405162461bcd60e51b815260206004820152601060248201527f57616c6c65742069732066726f7a656e0000000000000000000000000000000060448201526064016110b6565b3360008181526101106020526040902054849060ff166125145760fc548110156124c25760405162461bcd60e51b815260206004820152601460248201527f416d6f756e742062656c6f77206d696e696d756d00000000000000000000000060448201526064016110b6565b60fd548111156125145760405162461bcd60e51b815260206004820152601660248201527f416d6f756e742065786365656473206d6178696d756d0000000000000000000060448201526064016110b6565b33600090815261010d602052604090205460ff16156125755760405162461bcd60e51b815260206004820152601e60248201527f53656e64657227732077616c6c657420697320626c61636b6c6973746564000060448201526064016110b6565b33600090815261010e60205260409020544210156125d55760405162461bcd60e51b815260206004820152601860248201527f5472616e73666572206e6f7420616c6c6f77656420796574000000000000000060448201526064016110b6565b60fe546125e29042614080565b33600081815261010e6020526040902091909155612601908787612ef5565b50600195945050505050565b612615612e09565b61010a54600090815b8181101561268c5761010b600061010a838154811061263f5761263f61403b565b60009182526020808320909101546001600160a01b0316835282019290925260400190205460ff161561267a578261267681614067565b9350505b8061268481614067565b91505061261e565b50818114806126dd5760405162461bcd60e51b815260206004820152601660248201527f496e73756666696369656e7420617070726f76616c730000000000000000000060448201526064016110b6565b60006126f16097546001600160a01b031690565b6101075490915061010090046001600160a01b031661270f816135b8565b610107805474ffffffffffffffffffffffffffffffffffffffff001916905560005b8481101561279a57600061010b600061010a84815481106127545761275461403b565b6000918252602080832091909101546001600160a01b031683528201929092526040019020805460ff19169115159190911790558061279281614067565b915050612731565b50806001600160a01b0316826001600160a01b03167f8be0079c531659141344cd1fd0a4f28419497f9722a3daafe3b4186f6b6457e060405160405180910390a35050505050565b6127ea612e09565b60fc55565b6127f7612e09565b61011380546001600160a01b039092166001600160a01b031990921682179055600090815261010160205260409020805460ff19166001179055565b61010a818154811061284457600080fd5b6000918252602090912001546001600160a01b0316905081565b612866612e09565b6001600160a01b0316600090815261010160205260409020805460ff19169055565b612890612e09565b6001600160a01b0316600090815261011060205260409020805460ff19166001179055565b6128bd612e09565b610107805460ff1916911515919091179055565b6128d9612e09565b60405162461bcd60e51b815260206004820152602760248201527f506c656173652043616c6c2046696e616c697a65205472616e73666572204f7760448201527f6e6572736869700000000000000000000000000000000000000000000000000060648201526084016110b6565b61294f612e09565b6001600160a01b0381166129a55760405162461bcd60e51b815260206004820152601760248201527f4164647265737320696e207a65726f206164647265737300000000000000000060448201526064016110b6565b61010a80546001810182556000919091527fc588bd85af64879c0999911852d2549e38c750e7e4e194eb8891b0913e93b12c0180546001600160a01b0319166001600160a01b0392909216919091179055565b600054610100900460ff1615808015612a185750600054600160ff909116105b80612a325750303b158015612a32575060005460ff166001145b612aa45760405162461bcd60e51b815260206004820152602e60248201527f496e697469616c697a61626c653a20636f6e747261637420697320616c72656160448201527f647920696e697469616c697a656400000000000000000000000000000000000060648201526084016110b6565b6000805460ff191660011790558015612ac7576000805461ff0019166101001790555b60fb80546001600160a01b03191633179055612ae38787613645565b612aeb6136ba565b612af3613725565b612afb613798565b60326101025561138861010355610107805460ff191660011790556107d06101045561012c61010555610100805461ff00191681179055600060fc5568056bc75e2d6310000060fd5560fb54612b71906001600160a01b0316612b6260ff8816600a61420f565b612b6c90876140a6565b61380b565b33600090815261010d60209081526040808320805460ff19908116909155610110835281842080548216600190811790915561010e845282852042905561011380546001600160a01b0319166001600160a01b038a81169190911782553087526101019095528386208054841683179055549093168452908320805490911690911790555b8251811015612c615761010a838281518110612c1457612c1461403b565b60209081029190910181015182546001810184556000938452919092200180546001600160a01b0319166001600160a01b0390921691909117905580612c5981614067565b915050612bf6565b508015612ca8576000805461ff0019169055604051600181527f7f26b83ff96e1f2b6a682f133852f6798a09c465da95921460cefb38474024989060200160405180910390a15b50505050505050565b6001600160a01b038316612d2c5760405162461bcd60e51b8152602060048201526024808201527f45524332303a20617070726f76652066726f6d20746865207a65726f2061646460448201527f726573730000000000000000000000000000000000000000000000000000000060648201526084016110b6565b6001600160a01b038216612da85760405162461bcd60e51b815260206004820152602260248201527f45524332303a20617070726f766520746f20746865207a65726f20616464726560448201527f737300000000000000000000000000000000000000000000000000000000000060648201526084016110b6565b6001600160a01b0383811660008181526034602090815260408083209487168084529482529182902085905590518481527f8c5be1e5ebec7d5bd14f71427d1e84f3dd0314c0f7b2291e5b200ac8c7c3b925910160405180910390a3505050565b6097546001600160a01b031633146118355760405162461bcd60e51b815260206004820181905260248201527f4f776e61626c653a2063616c6c6572206973206e6f7420746865206f776e657260448201526064016110b6565b6001600160a01b038381166000908152603460209081526040808320938616835292905220546000198114612eef5781811015612ee25760405162461bcd60e51b815260206004820152601d60248201527f45524332303a20696e73756666696369656e7420616c6c6f77616e636500000060448201526064016110b6565b612eef8484848403612cb1565b50505050565b6001600160a01b038316600090815261011060205260409020548390829060ff16612fbe5760fc54811015612f6c5760405162461bcd60e51b815260206004820152601460248201527f416d6f756e742062656c6f77206d696e696d756d00000000000000000000000060448201526064016110b6565b60fd54811115612fbe5760405162461bcd60e51b815260206004820152601660248201527f416d6f756e742065786365656473206d6178696d756d0000000000000000000060448201526064016110b6565b6001600160a01b038516600090815261010d602052604090205460ff16156130285760405162461bcd60e51b815260206004820152601e60248201527f53656e64657227732077616c6c657420697320626c61636b6c6973746564000060448201526064016110b6565b6001600160a01b03851661308c5760405162461bcd60e51b815260206004820152602560248201527f45524332303a207472616e736665722066726f6d20746865207a65726f206164604482015264647265737360d81b60648201526084016110b6565b6001600160a01b0384166130ee5760405162461bcd60e51b815260206004820152602360248201527f45524332303a207472616e7366657220746f20746865207a65726f206164647260448201526265737360e81b60648201526084016110b6565b600083116131645760405162461bcd60e51b815260206004820152602960248201527f5472616e7366657220616d6f756e74206d75737420626520677265617465722060448201527f7468616e207a65726f000000000000000000000000000000000000000000000060648201526084016110b6565b6001600160a01b03851660009081526101016020526040902054839060ff16806131a757506001600160a01b0385166000908152610101602052604090205460ff165b156131bd576131b73386866138cc565b50611b13565b61010080540460ff161561320357600061271061010254836131df91906140a6565b6131e991906140bd565b90506131f587826132e2565b6131ff8186614093565b9450505b6101075460ff1615613272576000612710826101045461322391906140a6565b61322d91906140bd565b60fb549091506132489088906001600160a01b0316836138cc565b612710826101045461325a91906140a6565b61326491906140bd565b61326e9086614093565b9450505b6122ef8686866138cc565b60006132898284614080565b9392505050565b613298613a8e565b60c9805460ff191690557f5db9ee0a495bf2e6ff9c91a7834c1ba4fdd244a5e8aa4e537bd38aeae4b073aa335b6040516001600160a01b03909116815260200160405180910390a1565b6001600160a01b03821661335e5760405162461bcd60e51b815260206004820152602160248201527f45524332303a206275726e2066726f6d20746865207a65726f2061646472657360448201527f730000000000000000000000000000000000000000000000000000000000000060648201526084016110b6565b6001600160a01b038216600090815260336020526040902054818110156133ed5760405162461bcd60e51b815260206004820152602260248201527f45524332303a206275726e20616d6f756e7420657863656564732062616c616e60448201527f636500000000000000000000000000000000000000000000000000000000000060648201526084016110b6565b6001600160a01b03831660008181526033602090815260408083208686039055603580548790039055518581529192917fddf252ad1be2c89b69c2b068fc378daa952ba7f163c4a11628f55a4df523b3ef910160405180910390a3505050565b609780546001600160a01b038381166001600160a01b0319831681179093556040519116919082907f8be0079c531659141344cd1fd0a4f28419497f9722a3daafe3b4186f6b6457e090600090a35050565b6000805b61010a5481101561350157826001600160a01b031661010a82815481106134cc576134cc61403b565b6000918252602090912001546001600160a01b0316036134ef5750600192915050565b806134f981614067565b9150506134a3565b50600092915050565b613512613565565b60c9805460ff191660011790557f62e78cea01bee320cd4e420270b5ea74000d11b0c9f74754ebdbfc544b05a2586132c53390565b60006132898284614093565b61355b612e09565b6116f6828261380b565b60c95460ff16156118355760405162461bcd60e51b815260206004820152601060248201527f5061757361626c653a207061757365640000000000000000000000000000000060448201526064016110b6565b6135c0612e09565b6001600160a01b03811661363c5760405162461bcd60e51b815260206004820152602660248201527f4f776e61626c653a206e6577206f776e657220697320746865207a65726f206160448201527f646472657373000000000000000000000000000000000000000000000000000060648201526084016110b6565b61123b8161344d565b600054610100900460ff166136b05760405162461bcd60e51b815260206004820152602b60248201527f496e697469616c697a61626c653a20636f6e7472616374206973206e6f74206960448201526a6e697469616c697a696e6760a81b60648201526084016110b6565b6116f68282613ae0565b600054610100900460ff166118355760405162461bcd60e51b815260206004820152602b60248201527f496e697469616c697a61626c653a20636f6e7472616374206973206e6f74206960448201526a6e697469616c697a696e6760a81b60648201526084016110b6565b600054610100900460ff166137905760405162461bcd60e51b815260206004820152602b60248201527f496e697469616c697a61626c653a20636f6e7472616374206973206e6f74206960448201526a6e697469616c697a696e6760a81b60648201526084016110b6565b611835613b64565b600054610100900460ff166138035760405162461bcd60e51b815260206004820152602b60248201527f496e697469616c697a61626c653a20636f6e7472616374206973206e6f74206960448201526a6e697469616c697a696e6760a81b60648201526084016110b6565b611835613bd8565b6001600160a01b0382166138615760405162461bcd60e51b815260206004820152601f60248201527f45524332303a206d696e7420746f20746865207a65726f20616464726573730060448201526064016110b6565b80603560008282546138739190614080565b90915550506001600160a01b0382166000818152603360209081526040808320805486019055518481527fddf252ad1be2c89b69c2b068fc378daa952ba7f163c4a11628f55a4df523b3ef910160405180910390a35050565b6001600160a01b0383166139305760405162461bcd60e51b815260206004820152602560248201527f45524332303a207472616e736665722066726f6d20746865207a65726f206164604482015264647265737360d81b60648201526084016110b6565b6001600160a01b0382166139925760405162461bcd60e51b815260206004820152602360248201527f45524332303a207472616e7366657220746f20746865207a65726f206164647260448201526265737360e81b60648201526084016110b6565b6001600160a01b03831660009081526033602052604090205481811015613a215760405162461bcd60e51b815260206004820152602660248201527f45524332303a207472616e7366657220616d6f756e742065786365656473206260448201527f616c616e6365000000000000000000000000000000000000000000000000000060648201526084016110b6565b6001600160a01b0380851660008181526033602052604080822086860390559286168082529083902080548601905591517fddf252ad1be2c89b69c2b068fc378daa952ba7f163c4a11628f55a4df523b3ef90613a819086815260200190565b60405180910390a3612eef565b60c95460ff166118355760405162461bcd60e51b815260206004820152601460248201527f5061757361626c653a206e6f742070617573656400000000000000000000000060448201526064016110b6565b600054610100900460ff16613b4b5760405162461bcd60e51b815260206004820152602b60248201527f496e697469616c697a61626c653a20636f6e7472616374206973206e6f74206960448201526a6e697469616c697a696e6760a81b60648201526084016110b6565b6036613b578382614261565b5060376120508282614261565b600054610100900460ff16613bcf5760405162461bcd60e51b815260206004820152602b60248201527f496e697469616c697a61626c653a20636f6e7472616374206973206e6f74206960448201526a6e697469616c697a696e6760a81b60648201526084016110b6565b6118353361344d565b600054610100900460ff16613c435760405162461bcd60e51b815260206004820152602b60248201527f496e697469616c697a61626c653a20636f6e7472616374206973206e6f74206960448201526a6e697469616c697a696e6760a81b60648201526084016110b6565b60c9805460ff19169055565b600060208083528351808285015260005b81811015613c7c57858101830151858201604001528201613c60565b506000604082860101526040601f19601f8301168501019250505092915050565b6001600160a01b038116811461123b57600080fd5b8035613cbd81613c9d565b919050565b60008060408385031215613cd557600080fd5b8235613ce081613c9d565b946020939093013593505050565b600060208284031215613d0057600080fd5b813561328981613c9d565b600080600060608486031215613d2057600080fd5b8335613d2b81613c9d565b92506020840135613d3b81613c9d565b929592945050506040919091013590565b60008060008060808587031215613d6257600080fd5b8435613d6d81613c9d565b966020860135965060408601359560600135945092505050565b600060208284031215613d9957600080fd5b5035919050565b801515811461123b57600080fd5b600060208284031215613dc057600080fd5b813561328981613da0565b60008060408385031215613dde57600080fd5b8235613de981613c9d565b91506020830135613df981613c9d565b809150509250929050565b634e487b7160e01b600052604160045260246000fd5b604051601f8201601f1916810167ffffffffffffffff81118282101715613e4357613e43613e04565b604052919050565b600082601f830112613e5c57600080fd5b813567ffffffffffffffff811115613e7657613e76613e04565b613e89601f8201601f1916602001613e1a565b818152846020838601011115613e9e57600080fd5b816020850160208301376000918101602001919091529392505050565b600082601f830112613ecc57600080fd5b8135602067ffffffffffffffff821115613ee857613ee8613e04565b8160051b613ef7828201613e1a565b9283528481018201928281019087851115613f1157600080fd5b83870192505b84831015613f39578235613f2a81613c9d565b82529183019190830190613f17565b979650505050505050565b60008060008060008060c08789031215613f5d57600080fd5b863567ffffffffffffffff80821115613f7557600080fd5b613f818a838b01613e4b565b97506020890135915080821115613f9757600080fd5b613fa38a838b01613e4b565b96506040890135915060ff82168214613fbb57600080fd5b81955060608901359450613fd160808a01613cb2565b935060a0890135915080821115613fe757600080fd5b50613ff489828a01613ebb565b9150509295509295509295565b600181811c9082168061401557607f821691505b60208210810361403557634e487b7160e01b600052602260045260246000fd5b50919050565b634e487b7160e01b600052603260045260246000fd5b634e487b7160e01b600052601160045260246000fd5b60006001820161407957614079614051565b5060010190565b8082018082111561104a5761104a614051565b8181038181111561104a5761104a614051565b808202811582820484141761104a5761104a614051565b6000826140da57634e487b7160e01b600052601260045260246000fd5b500490565b634e487b7160e01b600052603160045260246000fd5b60006020828403121561410757600080fd5b5051919050565b60006020828403121561412057600080fd5b815161328981613da0565b600181815b8085111561416657816000190482111561414c5761414c614051565b8085161561415957918102915b93841c9390800290614130565b509250929050565b60008261417d5750600161104a565b8161418a5750600061104a565b81600181146141a057600281146141aa576141c6565b600191505061104a565b60ff8411156141bb576141bb614051565b50506001821b61104a565b5060208310610133831016604e8410600b84101617156141e9575081810a61104a565b6141f3838361412b565b806000190482111561420757614207614051565b029392505050565b6000613289838361416e565b601f82111561205057600081815260208120601f850160051c810160208610156142425750805b601f850160051c820191505b818110156122ef5782815560010161424e565b815167ffffffffffffffff81111561427b5761427b613e04565b61428f816142898454614001565b8461421b565b602080601f8311600181146142c457600084156142ac5750858301515b600019600386901b1c1916600185901b1785556122ef565b600085815260208120601f198616915b828110156142f3578886015182559484019460019091019084016142d4565b50858210156143115787850151600019600388901b60f8161c191681555b5050505050600190811b0190555056fea2646970667358221220c5dd66aad80e66d395932713d47b70ffa5f6f0282a566e9c2773093334322aca64736f6c63430008130033",
  "linkReferences": {},
  "deployedLinkReferences": {}
}